{
  "contractName": "Account",
  "abi": [
    {
      "anonymous": false,
      "inputs": [
        {
          "indexed": true,
          "internalType": "address",
          "name": "account",
          "type": "address"
        },
        {
          "indexed": false,
          "internalType": "string",
          "name": "uri",
          "type": "string"
        }
      ],
      "name": "Register",
      "type": "event"
    },
    {
      "anonymous": false,
      "inputs": [
        {
          "indexed": true,
          "internalType": "address",
          "name": "account",
          "type": "address"
        },
        {
          "indexed": false,
          "internalType": "string",
          "name": "uri",
          "type": "string"
        }
      ],
      "name": "Update",
      "type": "event"
    },
    {
      "inputs": [
        {
          "internalType": "address",
          "name": "account",
          "type": "address"
        }
      ],
      "name": "accountURI",
      "outputs": [
        {
          "internalType": "string",
          "name": "",
          "type": "string"
        }
      ],
      "stateMutability": "view",
      "type": "function",
      "constant": true
    },
    {
      "inputs": [
        {
          "internalType": "address",
          "name": "account",
          "type": "address"
        }
      ],
      "name": "isVerified",
      "outputs": [
        {
          "internalType": "bool",
          "name": "",
          "type": "bool"
        }
      ],
      "stateMutability": "view",
      "type": "function",
      "constant": true
    },
    {
      "inputs": [
        {
          "internalType": "string",
          "name": "uri",
          "type": "string"
        }
      ],
      "name": "registerOrUpdate",
      "outputs": [],
      "stateMutability": "nonpayable",
      "type": "function"
    }
  ],
  "bytecode": "0x608060405234801561001057600080fd5b50610747806100206000396000f3fe608060405234801561001057600080fd5b50600436106100415760003560e01c806333dfa7d5146100465780635e1d875514610076578063b9209e3314610092575b600080fd5b610060600480360381019061005b9190610427565b6100c2565b60405161006d9190610500565b60405180910390f35b610090600480360381019061008b9190610454565b610192565b005b6100ac60048036038101906100a79190610427565b610298565b6040516100b991906104e5565b60405180910390f35b60606000808373ffffffffffffffffffffffffffffffffffffffff1673ffffffffffffffffffffffffffffffffffffffff168152602001908152602001600020805461010d90610614565b80601f016020809104026020016040519081016040528092919081815260200182805461013990610614565b80156101865780601f1061015b57610100808354040283529160200191610186565b820191906000526020600020905b81548152906001019060200180831161016957829003601f168201915b50505050509050919050565b806000803373ffffffffffffffffffffffffffffffffffffffff1673ffffffffffffffffffffffffffffffffffffffff16815260200190815260200160002090805190602001906101e49291906102ff565b506101ee33610298565b15610246573373ffffffffffffffffffffffffffffffffffffffff167fc6ee1e1e08307ce2d854c77911cf72b51710027139dd730756959e981480edb7826040516102399190610500565b60405180910390a2610295565b3373ffffffffffffffffffffffffffffffffffffffff167f6ba0831d2f62ae5cbf7214bcc1d79c5da1d705f12811efda0beaa840006f874e8260405161028c9190610500565b60405180910390a25b50565b6000806000808473ffffffffffffffffffffffffffffffffffffffff1673ffffffffffffffffffffffffffffffffffffffff16815260200190815260200160002080546102e490610614565b905011156102f557600190506102fa565b600090505b919050565b82805461030b90610614565b90600052602060002090601f01602090048101928261032d5760008555610374565b82601f1061034657805160ff1916838001178555610374565b82800160010185558215610374579182015b82811115610373578251825591602001919060010190610358565b5b5090506103819190610385565b5090565b5b8082111561039e576000816000905550600101610386565b5090565b60006103b56103b084610547565b610522565b9050828152602081018484840111156103d1576103d06106da565b5b6103dc8482856105d2565b509392505050565b6000813590506103f3816106fa565b92915050565b600082601f83011261040e5761040d6106d5565b5b813561041e8482602086016103a2565b91505092915050565b60006020828403121561043d5761043c6106e4565b5b600061044b848285016103e4565b91505092915050565b60006020828403121561046a576104696106e4565b5b600082013567ffffffffffffffff811115610488576104876106df565b5b610494848285016103f9565b91505092915050565b6104a6816105a6565b82525050565b60006104b782610578565b6104c18185610583565b93506104d18185602086016105e1565b6104da816106e9565b840191505092915050565b60006020820190506104fa600083018461049d565b92915050565b6000602082019050818103600083015261051a81846104ac565b905092915050565b600061052c61053d565b90506105388282610646565b919050565b6000604051905090565b600067ffffffffffffffff821115610562576105616106a6565b5b61056b826106e9565b9050602081019050919050565b600081519050919050565b600082825260208201905092915050565b600061059f826105b2565b9050919050565b60008115159050919050565b600073ffffffffffffffffffffffffffffffffffffffff82169050919050565b82818337600083830152505050565b60005b838110156105ff5780820151818401526020810190506105e4565b8381111561060e576000848401525b50505050565b6000600282049050600182168061062c57607f821691505b602082108114156106405761063f610677565b5b50919050565b61064f826106e9565b810181811067ffffffffffffffff8211171561066e5761066d6106a6565b5b80604052505050565b7f4e487b7100000000000000000000000000000000000000000000000000000000600052602260045260246000fd5b7f4e487b7100000000000000000000000000000000000000000000000000000000600052604160045260246000fd5b600080fd5b600080fd5b600080fd5b600080fd5b6000601f19601f8301169050919050565b61070381610594565b811461070e57600080fd5b5056fea2646970667358221220142336231d495430c50c69e86472c5ac70537f27067031b09b1bba05ff28c08e64736f6c63430008060033",
  "immutableReferences": {},
  "source": "// SPDX-License-Identifier: MIT\r\npragma solidity ^0.8.2;\r\nimport \"@openzeppelin/contracts-upgradeable/utils/CountersUpgradeable.sol\";\r\n\r\ncontract Account {\r\n    using CountersUpgradeable for CountersUpgradeable.Counter;\r\n\r\n    mapping(address => string) private _accountURI;\r\n\r\n    event Register(address indexed account, string uri);\r\n    event Update(address indexed account, string uri);\r\n\r\n    function accountURI(address account) public view returns(string memory) {\r\n        return _accountURI[account];\r\n    }\r\n\r\n    function isVerified(address account) public view returns(bool){\r\n        if(bytes(_accountURI[account]).length > 0){\r\n            return true;\r\n        }\r\n        return false;\r\n    }\r\n\r\n    function registerOrUpdate(string memory uri) external {\r\n        _accountURI[msg.sender] = uri;\r\n        if (isVerified(msg.sender)){\r\n            emit Update(msg.sender, uri);\r\n        }\r\n        else {\r\n            emit Register(msg.sender, uri);\r\n        }\r\n        \r\n    }\r\n}",
  "sourcePath": "E:/LamViec/fun-exchange/contracts/Account.sol",
  "compiler": {
    "name": "solc",
    "version": "0.8.6+commit.11564f7e.Emscripten.clang"
  },
  "schemaVersion": "3.3.4",
  "updatedAt": "2021-12-14T10:21:06.647Z",
  "networkType": "ethereum",
  "devdoc": {
    "kind": "dev",
    "methods": {},
    "version": 1
  },
  "userdoc": {
    "kind": "user",
    "methods": {},
    "version": 1
  }
}