{
  "contractName": "Account",
  "abi": [
    {
      "anonymous": false,
      "inputs": [
        {
          "indexed": true,
          "internalType": "address",
          "name": "account",
          "type": "address"
        },
        {
          "indexed": false,
          "internalType": "string",
          "name": "uri",
          "type": "string"
        }
      ],
      "name": "Register",
      "type": "event"
    },
    {
      "anonymous": false,
      "inputs": [
        {
          "indexed": true,
          "internalType": "address",
          "name": "account",
          "type": "address"
        },
        {
          "indexed": false,
          "internalType": "string",
          "name": "uri",
          "type": "string"
        }
      ],
      "name": "Update",
      "type": "event"
    },
    {
      "inputs": [
        {
          "internalType": "address",
          "name": "account",
          "type": "address"
        }
      ],
      "name": "accountURI",
      "outputs": [
        {
          "internalType": "string",
          "name": "",
          "type": "string"
        }
      ],
      "stateMutability": "view",
      "type": "function",
      "constant": true
    },
    {
      "inputs": [
        {
          "internalType": "address",
          "name": "account",
          "type": "address"
        }
      ],
      "name": "isVerified",
      "outputs": [
        {
          "internalType": "bool",
          "name": "",
          "type": "bool"
        }
      ],
      "stateMutability": "view",
      "type": "function",
      "constant": true
    },
    {
      "inputs": [
        {
          "internalType": "string",
          "name": "uri",
          "type": "string"
        }
      ],
      "name": "registerOrUpdate",
      "outputs": [],
      "stateMutability": "nonpayable",
      "type": "function"
    },
    {
      "inputs": [],
      "name": "getAllAccount",
      "outputs": [
        {
          "internalType": "address[]",
          "name": "",
          "type": "address[]"
        }
      ],
      "stateMutability": "view",
      "type": "function",
      "constant": true
    }
  ],
  "bytecode": "0x608060405234801561001057600080fd5b50610901806100206000396000f3fe608060405234801561001057600080fd5b506004361061004c5760003560e01c806333dfa7d5146100515780635e1d8755146100815780639dc5368d1461009d578063b9209e33146100bb575b600080fd5b61006b60048036038101906100669190610501565b6100eb565b6040516100789190610681565b60405180910390f35b61009b6004803603810190610096919061052e565b6101bc565b005b6100a56102cd565b6040516100b29190610644565b60405180910390f35b6100d560048036038101906100d09190610501565b61035b565b6040516100e29190610666565b60405180910390f35b6060600260008373ffffffffffffffffffffffffffffffffffffffff1673ffffffffffffffffffffffffffffffffffffffff1681526020019081526020016000208054610137906107ce565b80601f0160208091040260200160405190810160405280929190818152602001828054610163906107ce565b80156101b05780601f10610185576101008083540402835291602001916101b0565b820191906000526020600020905b81548152906001019060200180831161019357829003601f168201915b50505050509050919050565b80600260003373ffffffffffffffffffffffffffffffffffffffff1673ffffffffffffffffffffffffffffffffffffffff168152602001908152602001600020908051906020019061020f9291906103d9565b506102193361035b565b15610271573373ffffffffffffffffffffffffffffffffffffffff167fc6ee1e1e08307ce2d854c77911cf72b51710027139dd730756959e981480edb7826040516102649190610681565b60405180910390a26102ca565b61027b60006103c3565b3373ffffffffffffffffffffffffffffffffffffffff167f6ba0831d2f62ae5cbf7214bcc1d79c5da1d705f12811efda0beaa840006f874e826040516102c19190610681565b60405180910390a25b50565b6060600180548060200260200160405190810160405280929190818152602001828054801561035157602002820191906000526020600020905b8160009054906101000a900473ffffffffffffffffffffffffffffffffffffffff1673ffffffffffffffffffffffffffffffffffffffff1681526020019060010190808311610307575b5050505050905090565b600080600260008473ffffffffffffffffffffffffffffffffffffffff1673ffffffffffffffffffffffffffffffffffffffff16815260200190815260200160002080546103a8906107ce565b905011156103b957600190506103be565b600090505b919050565b6001816000016000828254019250508190555050565b8280546103e5906107ce565b90600052602060002090601f016020900481019282610407576000855561044e565b82601f1061042057805160ff191683800117855561044e565b8280016001018555821561044e579182015b8281111561044d578251825591602001919060010190610432565b5b50905061045b919061045f565b5090565b5b80821115610478576000816000905550600101610460565b5090565b600061048f61048a846106c8565b6106a3565b9050828152602081018484840111156104ab576104aa610894565b5b6104b684828561078c565b509392505050565b6000813590506104cd816108b4565b92915050565b600082601f8301126104e8576104e761088f565b5b81356104f884826020860161047c565b91505092915050565b6000602082840312156105175761051661089e565b5b6000610525848285016104be565b91505092915050565b6000602082840312156105445761054361089e565b5b600082013567ffffffffffffffff81111561056257610561610899565b5b61056e848285016104d3565b91505092915050565b6000610583838361058f565b60208301905092915050565b6105988161074e565b82525050565b60006105a982610709565b6105b3818561072c565b93506105be836106f9565b8060005b838110156105ef5781516105d68882610577565b97506105e18361071f565b9250506001810190506105c2565b5085935050505092915050565b61060581610760565b82525050565b600061061682610714565b610620818561073d565b935061063081856020860161079b565b610639816108a3565b840191505092915050565b6000602082019050818103600083015261065e818461059e565b905092915050565b600060208201905061067b60008301846105fc565b92915050565b6000602082019050818103600083015261069b818461060b565b905092915050565b60006106ad6106be565b90506106b98282610800565b919050565b6000604051905090565b600067ffffffffffffffff8211156106e3576106e2610860565b5b6106ec826108a3565b9050602081019050919050565b6000819050602082019050919050565b600081519050919050565b600081519050919050565b6000602082019050919050565b600082825260208201905092915050565b600082825260208201905092915050565b60006107598261076c565b9050919050565b60008115159050919050565b600073ffffffffffffffffffffffffffffffffffffffff82169050919050565b82818337600083830152505050565b60005b838110156107b957808201518184015260208101905061079e565b838111156107c8576000848401525b50505050565b600060028204905060018216806107e657607f821691505b602082108114156107fa576107f9610831565b5b50919050565b610809826108a3565b810181811067ffffffffffffffff8211171561082857610827610860565b5b80604052505050565b7f4e487b7100000000000000000000000000000000000000000000000000000000600052602260045260246000fd5b7f4e487b7100000000000000000000000000000000000000000000000000000000600052604160045260246000fd5b600080fd5b600080fd5b600080fd5b600080fd5b6000601f19601f8301169050919050565b6108bd8161074e565b81146108c857600080fd5b5056fea264697066735822122083f0194094b68754e7ed6c07c207868ac483cfd276312ba380be0bd2df0451d364736f6c63430008060033",
  "immutableReferences": {},
  "source": "// SPDX-License-Identifier: MIT\r\npragma solidity ^0.8.2;\r\nimport \"@openzeppelin/contracts-upgradeable/utils/CountersUpgradeable.sol\";\r\n\r\ncontract Account {\r\n    using CountersUpgradeable for CountersUpgradeable.Counter;\r\n    CountersUpgradeable.Counter internal _idCounter;\r\n    address[] private _accounts;\r\n    mapping(address => string) private _accountURI;\r\n\r\n    event Register(address indexed account, string uri);\r\n    event Update(address indexed account, string uri);\r\n\r\n    function accountURI(address account) public view returns(string memory) {\r\n        return _accountURI[account];\r\n    }\r\n\r\n    function isVerified(address account) public view returns(bool){\r\n        if(bytes(_accountURI[account]).length > 0){\r\n            return true;\r\n        }\r\n        return false;\r\n    }\r\n\r\n    function registerOrUpdate(string memory uri) external {\r\n        _accountURI[msg.sender] = uri;\r\n        if (isVerified(msg.sender)){\r\n            emit Update(msg.sender, uri);\r\n        }\r\n        else {\r\n            _idCounter.increment();\r\n            emit Register(msg.sender, uri);\r\n        }\r\n        \r\n    }\r\n\r\n    function getAllAccount() external view returns(address[] memory){\r\n        return _accounts;\r\n    }\r\n}",
  "sourcePath": "E:/LamViec/fun-exchange/contracts/Account.sol",
  "compiler": {
    "name": "solc",
    "version": "0.8.6+commit.11564f7e.Emscripten.clang"
  },
  "schemaVersion": "3.3.4",
  "updatedAt": "2021-12-18T13:15:40.559Z",
  "networkType": "ethereum",
  "devdoc": {
    "kind": "dev",
    "methods": {},
    "version": 1
  },
  "userdoc": {
    "kind": "user",
    "methods": {},
    "version": 1
  }
}