{
  "contractName": "Exchange",
  "abi": [
    {
      "inputs": [],
      "stateMutability": "nonpayable",
      "type": "constructor"
    },
    {
      "anonymous": false,
      "inputs": [
        {
          "indexed": false,
          "internalType": "uint256",
          "name": "id",
          "type": "uint256"
        },
        {
          "indexed": false,
          "internalType": "address",
          "name": "seller",
          "type": "address"
        },
        {
          "indexed": false,
          "internalType": "address",
          "name": "tokenAddress",
          "type": "address"
        },
        {
          "indexed": false,
          "internalType": "uint256",
          "name": "tokenId",
          "type": "uint256"
        },
        {
          "indexed": false,
          "internalType": "uint256",
          "name": "price",
          "type": "uint256"
        }
      ],
      "name": "Canceled",
      "type": "event"
    },
    {
      "anonymous": false,
      "inputs": [
        {
          "indexed": false,
          "internalType": "uint256",
          "name": "id",
          "type": "uint256"
        },
        {
          "indexed": false,
          "internalType": "address",
          "name": "seller",
          "type": "address"
        },
        {
          "indexed": false,
          "internalType": "address",
          "name": "tokenAddress",
          "type": "address"
        },
        {
          "indexed": false,
          "internalType": "uint256",
          "name": "tokenId",
          "type": "uint256"
        },
        {
          "indexed": false,
          "internalType": "uint256",
          "name": "price",
          "type": "uint256"
        }
      ],
      "name": "New",
      "type": "event"
    },
    {
      "anonymous": false,
      "inputs": [
        {
          "indexed": false,
          "internalType": "uint256",
          "name": "id",
          "type": "uint256"
        },
        {
          "indexed": false,
          "internalType": "address",
          "name": "seller",
          "type": "address"
        },
        {
          "indexed": false,
          "internalType": "address",
          "name": "tokenAddress",
          "type": "address"
        },
        {
          "indexed": false,
          "internalType": "uint256",
          "name": "tokenId",
          "type": "uint256"
        },
        {
          "indexed": false,
          "internalType": "uint256",
          "name": "price",
          "type": "uint256"
        },
        {
          "indexed": false,
          "internalType": "address",
          "name": "buyer",
          "type": "address"
        }
      ],
      "name": "Sold",
      "type": "event"
    },
    {
      "inputs": [
        {
          "components": [
            {
              "internalType": "address",
              "name": "seller",
              "type": "address"
            },
            {
              "internalType": "address",
              "name": "tokenAddress",
              "type": "address"
            },
            {
              "internalType": "uint256",
              "name": "tokenId",
              "type": "uint256"
            },
            {
              "internalType": "address",
              "name": "buyer",
              "type": "address"
            },
            {
              "internalType": "uint256",
              "name": "price",
              "type": "uint256"
            },
            {
              "internalType": "bool",
              "name": "isCancelled",
              "type": "bool"
            }
          ],
          "internalType": "struct Exchange.Order",
          "name": "order",
          "type": "tuple"
        },
        {
          "components": [
            {
              "internalType": "uint256",
              "name": "tokenId",
              "type": "uint256"
            },
            {
              "internalType": "string",
              "name": "uri",
              "type": "string"
            },
            {
              "internalType": "address",
              "name": "creator",
              "type": "address"
            },
            {
              "internalType": "uint256",
              "name": "royalty",
              "type": "uint256"
            },
            {
              "internalType": "bytes",
              "name": "signature",
              "type": "bytes"
            }
          ],
          "internalType": "struct FunLibAsset.Mint721Data",
          "name": "data",
          "type": "tuple"
        }
      ],
      "name": "sell",
      "outputs": [],
      "stateMutability": "nonpayable",
      "type": "function"
    },
    {
      "inputs": [
        {
          "internalType": "uint256",
          "name": "orderId",
          "type": "uint256"
        }
      ],
      "name": "buy",
      "outputs": [],
      "stateMutability": "nonpayable",
      "type": "function"
    },
    {
      "inputs": [
        {
          "internalType": "uint256",
          "name": "orderId",
          "type": "uint256"
        }
      ],
      "name": "cancel",
      "outputs": [],
      "stateMutability": "nonpayable",
      "type": "function"
    },
    {
      "inputs": [],
      "name": "fetchOrders",
      "outputs": [
        {
          "components": [
            {
              "internalType": "address",
              "name": "seller",
              "type": "address"
            },
            {
              "internalType": "address",
              "name": "tokenAddress",
              "type": "address"
            },
            {
              "internalType": "uint256",
              "name": "tokenId",
              "type": "uint256"
            },
            {
              "internalType": "address",
              "name": "buyer",
              "type": "address"
            },
            {
              "internalType": "uint256",
              "name": "price",
              "type": "uint256"
            },
            {
              "internalType": "bool",
              "name": "isCancelled",
              "type": "bool"
            }
          ],
          "internalType": "struct Exchange.Order[]",
          "name": "",
          "type": "tuple[]"
        }
      ],
      "stateMutability": "view",
      "type": "function"
    },
    {
      "inputs": [
        {
          "internalType": "address",
          "name": "seller",
          "type": "address"
        }
      ],
      "name": "fetchOrderOf",
      "outputs": [
        {
          "components": [
            {
              "internalType": "address",
              "name": "seller",
              "type": "address"
            },
            {
              "internalType": "address",
              "name": "tokenAddress",
              "type": "address"
            },
            {
              "internalType": "uint256",
              "name": "tokenId",
              "type": "uint256"
            },
            {
              "internalType": "address",
              "name": "buyer",
              "type": "address"
            },
            {
              "internalType": "uint256",
              "name": "price",
              "type": "uint256"
            },
            {
              "internalType": "bool",
              "name": "isCancelled",
              "type": "bool"
            }
          ],
          "internalType": "struct Exchange.Order[]",
          "name": "",
          "type": "tuple[]"
        }
      ],
      "stateMutability": "view",
      "type": "function"
    },
    {
      "inputs": [
        {
          "internalType": "address",
          "name": "collection",
          "type": "address"
        }
      ],
      "name": "fetchOrderOfCollection",
      "outputs": [
        {
          "components": [
            {
              "internalType": "address",
              "name": "seller",
              "type": "address"
            },
            {
              "internalType": "address",
              "name": "tokenAddress",
              "type": "address"
            },
            {
              "internalType": "uint256",
              "name": "tokenId",
              "type": "uint256"
            },
            {
              "internalType": "address",
              "name": "buyer",
              "type": "address"
            },
            {
              "internalType": "uint256",
              "name": "price",
              "type": "uint256"
            },
            {
              "internalType": "bool",
              "name": "isCancelled",
              "type": "bool"
            }
          ],
          "internalType": "struct Exchange.Order[]",
          "name": "",
          "type": "tuple[]"
        }
      ],
      "stateMutability": "view",
      "type": "function"
    }
  ],
  "bytecode": "0x608060405234801561001057600080fd5b506126cd806100206000396000f3fe608060405234801561001057600080fd5b50600436106100625760003560e01c806308097549146100675780631249315814610085578063375424ed146100a157806340e58ee5146100d1578063a8a494f2146100ed578063d96a094a1461011d575b600080fd5b61006f610139565b60405161007c9190611f54565b60405180910390f35b61009f600480360381019061009a9190611af0565b6103db565b005b6100bb60048036038101906100b69190611a69565b610834565b6040516100c89190611f54565b60405180910390f35b6100eb60048036038101906100e69190611b4c565b610c2c565b005b61010760048036038101906101029190611a69565b610eeb565b6040516101149190611f54565b60405180910390f35b61013760048036038101906101329190611b4c565b6112e3565b005b60606000610147603361166d565b90506000610155603461166d565b61015f603361166d565b61016991906122ed565b90506000808267ffffffffffffffff81111561018857610187612483565b5b6040519080825280602002602001820160405280156101c157816020015b6101ae611742565b8152602001906001900390816101a65790505b50905060005b848110156103d057600073ffffffffffffffffffffffffffffffffffffffff166035600083815260200190815260200160002060030160009054906101000a900473ffffffffffffffffffffffffffffffffffffffff1673ffffffffffffffffffffffffffffffffffffffff1614156103bd576000603560008381526020019081526020016000206040518060c00160405290816000820160009054906101000a900473ffffffffffffffffffffffffffffffffffffffff1673ffffffffffffffffffffffffffffffffffffffff1673ffffffffffffffffffffffffffffffffffffffff1681526020016001820160009054906101000a900473ffffffffffffffffffffffffffffffffffffffff1673ffffffffffffffffffffffffffffffffffffffff1673ffffffffffffffffffffffffffffffffffffffff168152602001600282015481526020016003820160009054906101000a900473ffffffffffffffffffffffffffffffffffffffff1673ffffffffffffffffffffffffffffffffffffffff1673ffffffffffffffffffffffffffffffffffffffff168152602001600482015481526020016005820160009054906101000a900460ff1615151515815250509050808385815181106103a1576103a0612454565b5b60200260200101819052506001846103b99190612297565b9350505b80806103c8906123dc565b9150506101c7565b508094505050505090565b60026001541415610421576040517f08c379a000000000000000000000000000000000000000000000000000000000815260040161041890612056565b60405180910390fd5b60026001819055508160008160200151905060008173ffffffffffffffffffffffffffffffffffffffff16636352211e84604001516040518263ffffffff1660e01b815260040161047291906120b4565b60206040518083038186803b15801561048a57600080fd5b505afa15801561049e573d6000803e3d6000fd5b505050506040513d601f19601f820116820180604052508101906104c29190611a96565b9050826000015173ffffffffffffffffffffffffffffffffffffffff168173ffffffffffffffffffffffffffffffffffffffff1614806105945750600115158273ffffffffffffffffffffffffffffffffffffffff1663e985e9c58386600001516040518363ffffffff1660e01b8152600401610540929190611ef4565b60206040518083038186803b15801561055857600080fd5b505afa15801561056c573d6000803e3d6000fd5b505050506040513d601f19601f820116820180604052508101906105909190611ac3565b1515145b6105d3576040517f08c379a00000000000000000000000000000000000000000000000000000000081526004016105ca90611f96565b60405180910390fd5b600083608001511161061a576040517f08c379a000000000000000000000000000000000000000000000000000000000815260040161061190611fd6565b60405180910390fd5b6000856020015190508073ffffffffffffffffffffffffffffffffffffffff16635eeb6b14868860000151306040518463ffffffff1660e01b815260040161066493929190612076565b600060405180830381600087803b15801561067e57600080fd5b505af1158015610692573d6000803e3d6000fd5b5050505060006106a2603361166d565b9050600060356000838152602001908152602001600020905087600001518160000160006101000a81548173ffffffffffffffffffffffffffffffffffffffff021916908373ffffffffffffffffffffffffffffffffffffffff16021790555087602001518160010160006101000a81548173ffffffffffffffffffffffffffffffffffffffff021916908373ffffffffffffffffffffffffffffffffffffffff1602179055508760400151816002018190555087606001518160030160006101000a81548173ffffffffffffffffffffffffffffffffffffffff021916908373ffffffffffffffffffffffffffffffffffffffff160217905550876080015181600401819055508760a001518160050160006101000a81548160ff0219169083151502179055506107d4603361167b565b7f7a7b1b66fc2243f77909d2a7e980b6402c77c6882752e21fdfbb186bca1229898289600001518a602001518b604001518c6080015160405161081b9594939291906120cf565b60405180910390a1505050505050600180819055505050565b60606000610842603361166d565b905060008060005b8381101561094d578573ffffffffffffffffffffffffffffffffffffffff166035600083815260200190815260200160002060000160009054906101000a900473ffffffffffffffffffffffffffffffffffffffff1673ffffffffffffffffffffffffffffffffffffffff161480156109255750600073ffffffffffffffffffffffffffffffffffffffff166035600083815260200190815260200160002060030160009054906101000a900473ffffffffffffffffffffffffffffffffffffffff1673ffffffffffffffffffffffffffffffffffffffff16145b1561093a576001836109379190612297565b92505b8080610945906123dc565b91505061084a565b5060008267ffffffffffffffff81111561096a57610969612483565b5b6040519080825280602002602001820160405280156109a357816020015b610990611742565b8152602001906001900390816109885790505b50905060005b84811015610c1f578673ffffffffffffffffffffffffffffffffffffffff166035600083815260200190815260200160002060000160009054906101000a900473ffffffffffffffffffffffffffffffffffffffff1673ffffffffffffffffffffffffffffffffffffffff16148015610a845750600073ffffffffffffffffffffffffffffffffffffffff166035600083815260200190815260200160002060030160009054906101000a900473ffffffffffffffffffffffffffffffffffffffff1673ffffffffffffffffffffffffffffffffffffffff16145b15610c0c576000603560008381526020019081526020016000206040518060c00160405290816000820160009054906101000a900473ffffffffffffffffffffffffffffffffffffffff1673ffffffffffffffffffffffffffffffffffffffff1673ffffffffffffffffffffffffffffffffffffffff1681526020016001820160009054906101000a900473ffffffffffffffffffffffffffffffffffffffff1673ffffffffffffffffffffffffffffffffffffffff1673ffffffffffffffffffffffffffffffffffffffff168152602001600282015481526020016003820160009054906101000a900473ffffffffffffffffffffffffffffffffffffffff1673ffffffffffffffffffffffffffffffffffffffff1673ffffffffffffffffffffffffffffffffffffffff168152602001600482015481526020016005820160009054906101000a900460ff161515151581525050905080838581518110610bf057610bef612454565b5b6020026020010181905250600184610c089190612297565b9350505b8080610c17906123dc565b9150506109a9565b5080945050505050919050565b60006035600083815260200190815260200160002090503373ffffffffffffffffffffffffffffffffffffffff168160000160009054906101000a900473ffffffffffffffffffffffffffffffffffffffff1673ffffffffffffffffffffffffffffffffffffffff1614610cd5576040517f08c379a0000000000000000000000000000000000000000000000000000000008152600401610ccc90611ff6565b60405180910390fd5b600073ffffffffffffffffffffffffffffffffffffffff168160030160009054906101000a900473ffffffffffffffffffffffffffffffffffffffff1673ffffffffffffffffffffffffffffffffffffffff1614610d68576040517f08c379a0000000000000000000000000000000000000000000000000000000008152600401610d5f90612016565b60405180910390fd5b60008160010160009054906101000a900473ffffffffffffffffffffffffffffffffffffffff1690508073ffffffffffffffffffffffffffffffffffffffff166342842e0e308460000160009054906101000a900473ffffffffffffffffffffffffffffffffffffffff1685600201546040518463ffffffff1660e01b8152600401610df693929190611f1d565b600060405180830381600087803b158015610e1057600080fd5b505af1158015610e24573d6000803e3d6000fd5b5050505060016035600085815260200190815260200160002060050160006101000a81548160ff0219169083151502179055507fe77639e599bc34c8288b626c10f33662e551a4ebda7304f84a44f5ad37c3004c838360000160009054906101000a900473ffffffffffffffffffffffffffffffffffffffff168460010160009054906101000a900473ffffffffffffffffffffffffffffffffffffffff1685600201548660040154604051610ede9594939291906120cf565b60405180910390a1505050565b60606000610ef9603361166d565b905060008060005b83811015611004578573ffffffffffffffffffffffffffffffffffffffff166035600083815260200190815260200160002060010160009054906101000a900473ffffffffffffffffffffffffffffffffffffffff1673ffffffffffffffffffffffffffffffffffffffff16148015610fdc5750600073ffffffffffffffffffffffffffffffffffffffff166035600083815260200190815260200160002060030160009054906101000a900473ffffffffffffffffffffffffffffffffffffffff1673ffffffffffffffffffffffffffffffffffffffff16145b15610ff157600183610fee9190612297565b92505b8080610ffc906123dc565b915050610f01565b5060008267ffffffffffffffff81111561102157611020612483565b5b60405190808252806020026020018201604052801561105a57816020015b611047611742565b81526020019060019003908161103f5790505b50905060005b848110156112d6578673ffffffffffffffffffffffffffffffffffffffff166035600083815260200190815260200160002060010160009054906101000a900473ffffffffffffffffffffffffffffffffffffffff1673ffffffffffffffffffffffffffffffffffffffff1614801561113b5750600073ffffffffffffffffffffffffffffffffffffffff166035600083815260200190815260200160002060030160009054906101000a900473ffffffffffffffffffffffffffffffffffffffff1673ffffffffffffffffffffffffffffffffffffffff16145b156112c3576000603560008381526020019081526020016000206040518060c00160405290816000820160009054906101000a900473ffffffffffffffffffffffffffffffffffffffff1673ffffffffffffffffffffffffffffffffffffffff1673ffffffffffffffffffffffffffffffffffffffff1681526020016001820160009054906101000a900473ffffffffffffffffffffffffffffffffffffffff1673ffffffffffffffffffffffffffffffffffffffff1673ffffffffffffffffffffffffffffffffffffffff168152602001600282015481526020016003820160009054906101000a900473ffffffffffffffffffffffffffffffffffffffff1673ffffffffffffffffffffffffffffffffffffffff1673ffffffffffffffffffffffffffffffffffffffff168152602001600482015481526020016005820160009054906101000a900460ff1615151515815250509050808385815181106112a7576112a6612454565b5b60200260200101819052506001846112bf9190612297565b9350505b80806112ce906123dc565b915050611060565b5080945050505050919050565b60026001541415611329576040517f08c379a000000000000000000000000000000000000000000000000000000000815260040161132090612056565b60405180910390fd5b60026001819055506000811015801561134a5750611347603361166d565b81105b611389576040517f08c379a000000000000000000000000000000000000000000000000000000000815260040161138090611fb6565b60405180910390fd5b6000603560008381526020019081526020016000209050600073ffffffffffffffffffffffffffffffffffffffff168160030160009054906101000a900473ffffffffffffffffffffffffffffffffffffffff1673ffffffffffffffffffffffffffffffffffffffff1614611433576040517f08c379a000000000000000000000000000000000000000000000000000000000815260040161142a90612016565b60405180910390fd5b600015158160050160009054906101000a900460ff1615151461148b576040517f08c379a000000000000000000000000000000000000000000000000000000000815260040161148290611f76565b60405180910390fd5b600033905060008260010160009054906101000a900473ffffffffffffffffffffffffffffffffffffffff1690508073ffffffffffffffffffffffffffffffffffffffff166342842e0e308486600201546040518463ffffffff1660e01b81526004016114fa93929190611f1d565b600060405180830381600087803b15801561151457600080fd5b505af1158015611528573d6000803e3d6000fd5b5050505061155e8360000160009054906101000a900473ffffffffffffffffffffffffffffffffffffffff168460040154611691565b818360030160006101000a81548173ffffffffffffffffffffffffffffffffffffffff021916908373ffffffffffffffffffffffffffffffffffffffff1602179055506115ab603461167b565b7fd19a3b5b3a3b067479f081e779b34a8af25751666f5352862460212a15586a4c848460000160009054906101000a900473ffffffffffffffffffffffffffffffffffffffff168560010160009054906101000a900473ffffffffffffffffffffffffffffffffffffffff16866002015487600401548860030160009054906101000a900473ffffffffffffffffffffffffffffffffffffffff1660405161165896959493929190612122565b60405180910390a15050506001808190555050565b600081600001549050919050565b6001816000016000828254019250508190555050565b60008273ffffffffffffffffffffffffffffffffffffffff16826040516116b790611edf565b60006040518083038185875af1925050503d80600081146116f4576040519150601f19603f3d011682016040523d82523d6000602084013e6116f9565b606091505b505090508061173d576040517f08c379a000000000000000000000000000000000000000000000000000000000815260040161173490612036565b60405180910390fd5b505050565b6040518060c00160405280600073ffffffffffffffffffffffffffffffffffffffff168152602001600073ffffffffffffffffffffffffffffffffffffffff16815260200160008152602001600073ffffffffffffffffffffffffffffffffffffffff168152602001600081526020016000151581525090565b60006117cf6117ca846121a8565b612183565b9050828152602081018484840111156117eb576117ea6124c1565b5b6117f6848285612369565b509392505050565b600061181161180c846121d9565b612183565b90508281526020810184848401111561182d5761182c6124c1565b5b611838848285612369565b509392505050565b60008135905061184f81612652565b92915050565b60008151905061186481612652565b92915050565b60008135905061187981612669565b92915050565b60008151905061188e81612669565b92915050565b600082601f8301126118a9576118a86124b2565b5b81356118b98482602086016117bc565b91505092915050565b600082601f8301126118d7576118d66124b2565b5b81356118e78482602086016117fe565b91505092915050565b600060a08284031215611906576119056124b7565b5b61191060a0612183565b9050600061192084828501611a54565b600083015250602082013567ffffffffffffffff811115611944576119436124bc565b5b611950848285016118c2565b602083015250604061196484828501611840565b604083015250606061197884828501611a54565b606083015250608082013567ffffffffffffffff81111561199c5761199b6124bc565b5b6119a884828501611894565b60808301525092915050565b600060c082840312156119ca576119c96124b7565b5b6119d460c0612183565b905060006119e484828501611840565b60008301525060206119f884828501611840565b6020830152506040611a0c84828501611a54565b6040830152506060611a2084828501611840565b6060830152506080611a3484828501611a54565b60808301525060a0611a488482850161186a565b60a08301525092915050565b600081359050611a6381612680565b92915050565b600060208284031215611a7f57611a7e6124cb565b5b6000611a8d84828501611840565b91505092915050565b600060208284031215611aac57611aab6124cb565b5b6000611aba84828501611855565b91505092915050565b600060208284031215611ad957611ad86124cb565b5b6000611ae78482850161187f565b91505092915050565b60008060e08385031215611b0757611b066124cb565b5b6000611b15858286016119b4565b92505060c083013567ffffffffffffffff811115611b3657611b356124c6565b5b611b42858286016118f0565b9150509250929050565b600060208284031215611b6257611b616124cb565b5b6000611b7084828501611a54565b91505092915050565b6000611b858383611e46565b60c08301905092915050565b611b9a81612321565b82525050565b611ba981612321565b82525050565b6000611bba8261221a565b611bc48185612248565b9350611bcf8361220a565b8060005b83811015611c00578151611be78882611b79565b9750611bf28361223b565b925050600181019050611bd3565b5085935050505092915050565b611c1681612333565b82525050565b6000611c2782612225565b611c318185612259565b9350611c41818560208601612378565b611c4a816124d0565b840191505092915050565b6000611c6082612230565b611c6a8185612275565b9350611c7a818560208601612378565b611c83816124d0565b840191505092915050565b6000611c9b600f83612286565b9150611ca6826124e1565b602082019050919050565b6000611cbe601683612286565b9150611cc98261250a565b602082019050919050565b6000611ce1600983612286565b9150611cec82612533565b602082019050919050565b6000611d04602183612286565b9150611d0f8261255c565b604082019050919050565b6000611d2760008361226a565b9150611d32826125ab565b600082019050919050565b6000611d4a600a83612286565b9150611d55826125ae565b602082019050919050565b6000611d6d600983612286565b9150611d78826125d7565b602082019050919050565b6000611d90600f83612286565b9150611d9b82612600565b602082019050919050565b6000611db3601f83612286565b9150611dbe82612629565b602082019050919050565b600060a083016000830151611de16000860182611ec1565b5060208301518482036020860152611df98282611c55565b9150506040830151611e0e6040860182611b91565b506060830151611e216060860182611ec1565b5060808301518482036080860152611e398282611c1c565b9150508091505092915050565b60c082016000820151611e5c6000850182611b91565b506020820151611e6f6020850182611b91565b506040820151611e826040850182611ec1565b506060820151611e956060850182611b91565b506080820151611ea86080850182611ec1565b5060a0820151611ebb60a0850182611c0d565b50505050565b611eca8161235f565b82525050565b611ed98161235f565b82525050565b6000611eea82611d1a565b9150819050919050565b6000604082019050611f096000830185611ba0565b611f166020830184611ba0565b9392505050565b6000606082019050611f326000830186611ba0565b611f3f6020830185611ba0565b611f4c6040830184611ed0565b949350505050565b60006020820190508181036000830152611f6e8184611baf565b905092915050565b60006020820190508181036000830152611f8f81611c8e565b9050919050565b60006020820190508181036000830152611faf81611cb1565b9050919050565b60006020820190508181036000830152611fcf81611cd4565b9050919050565b60006020820190508181036000830152611fef81611cf7565b9050919050565b6000602082019050818103600083015261200f81611d3d565b9050919050565b6000602082019050818103600083015261202f81611d60565b9050919050565b6000602082019050818103600083015261204f81611d83565b9050919050565b6000602082019050818103600083015261206f81611da6565b9050919050565b600060608201905081810360008301526120908186611dc9565b905061209f6020830185611ba0565b6120ac6040830184611ba0565b949350505050565b60006020820190506120c96000830184611ed0565b92915050565b600060a0820190506120e46000830188611ed0565b6120f16020830187611ba0565b6120fe6040830186611ba0565b61210b6060830185611ed0565b6121186080830184611ed0565b9695505050505050565b600060c0820190506121376000830189611ed0565b6121446020830188611ba0565b6121516040830187611ba0565b61215e6060830186611ed0565b61216b6080830185611ed0565b61217860a0830184611ba0565b979650505050505050565b600061218d61219e565b905061219982826123ab565b919050565b6000604051905090565b600067ffffffffffffffff8211156121c3576121c2612483565b5b6121cc826124d0565b9050602081019050919050565b600067ffffffffffffffff8211156121f4576121f3612483565b5b6121fd826124d0565b9050602081019050919050565b6000819050602082019050919050565b600081519050919050565b600081519050919050565b600081519050919050565b6000602082019050919050565b600082825260208201905092915050565b600082825260208201905092915050565b600081905092915050565b600082825260208201905092915050565b600082825260208201905092915050565b60006122a28261235f565b91506122ad8361235f565b9250827fffffffffffffffffffffffffffffffffffffffffffffffffffffffffffffffff038211156122e2576122e1612425565b5b828201905092915050565b60006122f88261235f565b91506123038361235f565b92508282101561231657612315612425565b5b828203905092915050565b600061232c8261233f565b9050919050565b60008115159050919050565b600073ffffffffffffffffffffffffffffffffffffffff82169050919050565b6000819050919050565b82818337600083830152505050565b60005b8381101561239657808201518184015260208101905061237b565b838111156123a5576000848401525b50505050565b6123b4826124d0565b810181811067ffffffffffffffff821117156123d3576123d2612483565b5b80604052505050565b60006123e78261235f565b91507fffffffffffffffffffffffffffffffffffffffffffffffffffffffffffffffff82141561241a57612419612425565b5b600182019050919050565b7f4e487b7100000000000000000000000000000000000000000000000000000000600052601160045260246000fd5b7f4e487b7100000000000000000000000000000000000000000000000000000000600052603260045260246000fd5b7f4e487b7100000000000000000000000000000000000000000000000000000000600052604160045260246000fd5b600080fd5b600080fd5b600080fd5b600080fd5b600080fd5b600080fd5b6000601f19601f8301169050919050565b7f6f726465722063616e63656c6c65640000000000000000000000000000000000600082015250565b7f4e6f7420617070726f766564206f72206f776e65722e00000000000000000000600082015250565b7f77726f6e672069642e0000000000000000000000000000000000000000000000600082015250565b7f436f73742073686f756c642062652067726561746572207468616e207a65726f60008201527f2e00000000000000000000000000000000000000000000000000000000000000602082015250565b50565b7f4e6f742073656c6c657200000000000000000000000000000000000000000000600082015250565b7f6974656d20736f6c640000000000000000000000000000000000000000000000600082015250565b7f7472616e73666572206661696c65640000000000000000000000000000000000600082015250565b7f5265656e7472616e637947756172643a207265656e7472616e742063616c6c00600082015250565b61265b81612321565b811461266657600080fd5b50565b61267281612333565b811461267d57600080fd5b50565b6126898161235f565b811461269457600080fd5b5056fea26469706673582212205a5bec697ac561e85cc222d270da1e77723c6939213d0264e543411457c5189a64736f6c63430008060033",
  "immutableReferences": {},
  "source": "// SPDX-License-Identifier: MIT\r\npragma solidity ^0.8.2;\r\n\r\nimport \"@openzeppelin/contracts-upgradeable/security/ReentrancyGuardUpgradeable.sol\";\r\nimport \"@openzeppelin/contracts-upgradeable/utils/CountersUpgradeable.sol\";\r\nimport \"../tokens/FunNFT.sol\";\r\n\r\ncontract Exchange is ReentrancyGuardUpgradeable {\r\n    using CountersUpgradeable for CountersUpgradeable.Counter;\r\n\r\n    struct Order {\r\n        address seller;\r\n        address tokenAddress;\r\n        uint256 tokenId;\r\n        address buyer;\r\n        uint256 price;\r\n        bool isCancelled;\r\n    }\r\n\r\n\r\n    CountersUpgradeable.Counter internal _orderIdCounter;\r\n    CountersUpgradeable.Counter internal _orderSoldCounter;\r\n    mapping(uint256 => Order) private orders;\r\n\r\n    event New(uint256 id, address seller, address tokenAddress, uint256 tokenId, uint256 price);\r\n    event Canceled(uint256 id, address seller, address tokenAddress, uint256 tokenId, uint256 price);\r\n    event Sold(uint256 id, address seller, address tokenAddress, uint256 tokenId, uint256 price, address buyer);\r\n\r\n    constructor() {\r\n\r\n    }\r\n\r\n    modifier isValid(Order memory order) {\r\n        // seller asset\r\n        FunNFT token = FunNFT(order.tokenAddress);\r\n        address owner = token.ownerOf(order.tokenId);\r\n        require( owner == order.seller || token.isApprovedForAll(owner, order.seller) == true, \"Not approved or owner.\");\r\n\r\n        // buyer asset\r\n        require(order.price > 0, \"Cost should be greater than zero.\");\r\n        _;\r\n    }\r\n\r\n    function transferEth(address to, uint value) internal {\r\n        (bool success,) = to.call{ value: value }(\"\");\r\n        require(success, \"transfer failed\");\r\n    }\r\n\r\n    function sell(Order memory order, FunLibAsset.Mint721Data memory data) external nonReentrant isValid(order) {\r\n        FunNFT token = FunNFT(order.tokenAddress);\r\n\r\n        token.transferOrMint(data, order.seller, address(this));\r\n\r\n        uint256 currentId = _orderIdCounter.current();\r\n\r\n        Order storage newOrder = orders[currentId];\r\n        newOrder.seller = order.seller;\r\n        newOrder.tokenAddress = order.tokenAddress;\r\n        newOrder.tokenId = order.tokenId;\r\n        newOrder.buyer =  order.buyer;\r\n        newOrder.price = order.price;\r\n        newOrder.isCancelled = order.isCancelled;\r\n\r\n        _orderIdCounter.increment();\r\n        emit New(currentId, order.seller, order.tokenAddress, order.tokenId, order.price);\r\n    }\r\n\r\n    function buy(uint256 orderId) external nonReentrant {\r\n        require(orderId >= 0 && orderId < _orderIdCounter.current(), \"wrong id.\");\r\n        \r\n        Order storage order = orders[orderId];\r\n        require(order.buyer == address(0), \"item sold\");\r\n        require(order.isCancelled == false, \"order cancelled\");\r\n\r\n        address buyer = msg.sender;\r\n\r\n        // transfer nft to buyer\r\n        FunNFT token = FunNFT(order.tokenAddress);\r\n        token.safeTransferFrom(address(this), buyer, order.tokenId);\r\n\r\n        // transfer payment token from buyer to seller\r\n        transferEth(order.seller, order.price);\r\n\r\n        order.buyer = buyer;\r\n        _orderSoldCounter.increment();\r\n        emit Sold(orderId, order.seller, order.tokenAddress, order.tokenId, order.price, order.buyer);\r\n    }\r\n\r\n    function cancel(uint256 orderId) external {\r\n        Order storage order = orders[orderId];\r\n        require(order.seller == msg.sender, \"Not seller\");\r\n        require(order.buyer == address(0), \"item sold\");\r\n\r\n        FunNFT token = FunNFT(order.tokenAddress);\r\n        token.safeTransferFrom(address(this), order.seller, order.tokenId);\r\n\r\n        orders[orderId].isCancelled = true;\r\n        emit Canceled(orderId, order.seller, order.tokenAddress, order.tokenId, order.price);\r\n    }\r\n\r\n    /* Returns all unsold orders */\r\n    function fetchOrders() public view returns (Order[] memory) {\r\n        uint256 itemCount = _orderIdCounter.current();\r\n        uint256 unsoldItemCount = _orderIdCounter.current() - _orderSoldCounter.current();\r\n        uint256 currentIndex = 0;\r\n\r\n        Order[] memory items = new Order[](unsoldItemCount);\r\n        for (uint256 i = 0; i < itemCount; i++) {\r\n            if (orders[i].buyer == address(0)) {\r\n                Order memory currentItem = orders[i];\r\n                items[currentIndex] = currentItem;\r\n                currentIndex += 1;\r\n            }\r\n        }\r\n        return items;\r\n    }\r\n\r\n  /* Returns only items that a user has been selling */\r\n    function fetchOrderOf(address seller) external view returns (Order[] memory) {\r\n        uint256 totalItemCount = _orderIdCounter.current();\r\n        uint256 itemCount = 0;\r\n        uint256 currentIndex = 0;\r\n\r\n        for (uint i = 0; i < totalItemCount; i++) {\r\n            if (orders[i].seller == seller && orders[i].buyer == address(0)){\r\n                itemCount += 1;\r\n            }\r\n        }\r\n\r\n        Order[] memory items = new Order[](itemCount);\r\n        for (uint256 i = 0; i < totalItemCount; i++) {\r\n            if (orders[i].seller == seller && orders[i].buyer == address(0)) {\r\n                Order memory currentItem = orders[i];\r\n                items[currentIndex] = currentItem;\r\n                currentIndex += 1;\r\n            }\r\n        }\r\n        return items;\r\n    }\r\n\r\n    /* Returns only items in a collection that had being selling */\r\n    function fetchOrderOfCollection(address collection) external view returns (Order[] memory) {\r\n        uint256 totalItemCount = _orderIdCounter.current();\r\n        uint256 itemCount = 0;\r\n        uint256 currentIndex = 0;\r\n\r\n        for (uint i = 0; i < totalItemCount; i++) {\r\n            if (orders[i].tokenAddress == collection && orders[i].buyer == address(0)){\r\n                itemCount += 1;\r\n            }\r\n        }\r\n\r\n        Order[] memory items = new Order[](itemCount);\r\n        for (uint256 i = 0; i < totalItemCount; i++) {\r\n            if (orders[i].tokenAddress == collection && orders[i].buyer == address(0)) {\r\n                Order memory currentItem = orders[i];\r\n                items[currentIndex] = currentItem;\r\n                currentIndex += 1;\r\n            }\r\n        }\r\n        return items;\r\n    }\r\n}",
  "sourcePath": "E:/LamViec/fun-exchange/contracts/exchange/Exchange.sol",
  "compiler": {
    "name": "solc",
    "version": "0.8.6+commit.11564f7e.Emscripten.clang"
  },
  "schemaVersion": "3.3.4",
  "updatedAt": "2021-11-25T07:41:55.433Z",
  "devdoc": {
    "kind": "dev",
    "methods": {},
    "version": 1
  },
  "userdoc": {
    "kind": "user",
    "methods": {},
    "version": 1
  }
}