{
  "contractName": "Exchange",
  "abi": [
    {
      "inputs": [],
      "stateMutability": "nonpayable",
      "type": "constructor"
    },
    {
      "anonymous": false,
      "inputs": [
        {
          "indexed": true,
          "internalType": "uint256",
          "name": "id",
          "type": "uint256"
        },
        {
          "components": [
            {
              "internalType": "address",
              "name": "seller",
              "type": "address"
            },
            {
              "internalType": "address",
              "name": "tokenAddress",
              "type": "address"
            },
            {
              "internalType": "uint256",
              "name": "tokenId",
              "type": "uint256"
            },
            {
              "internalType": "address",
              "name": "buyer",
              "type": "address"
            },
            {
              "internalType": "uint256",
              "name": "price",
              "type": "uint256"
            },
            {
              "internalType": "bool",
              "name": "isCancelled",
              "type": "bool"
            }
          ],
          "indexed": true,
          "internalType": "struct Exchange.Order",
          "name": "order",
          "type": "tuple"
        }
      ],
      "name": "Canceled",
      "type": "event"
    },
    {
      "anonymous": false,
      "inputs": [
        {
          "indexed": true,
          "internalType": "uint256",
          "name": "id",
          "type": "uint256"
        },
        {
          "components": [
            {
              "internalType": "address",
              "name": "seller",
              "type": "address"
            },
            {
              "internalType": "address",
              "name": "tokenAddress",
              "type": "address"
            },
            {
              "internalType": "uint256",
              "name": "tokenId",
              "type": "uint256"
            },
            {
              "internalType": "address",
              "name": "buyer",
              "type": "address"
            },
            {
              "internalType": "uint256",
              "name": "price",
              "type": "uint256"
            },
            {
              "internalType": "bool",
              "name": "isCancelled",
              "type": "bool"
            }
          ],
          "indexed": true,
          "internalType": "struct Exchange.Order",
          "name": "order",
          "type": "tuple"
        }
      ],
      "name": "New",
      "type": "event"
    },
    {
      "anonymous": false,
      "inputs": [
        {
          "indexed": true,
          "internalType": "uint256",
          "name": "id",
          "type": "uint256"
        },
        {
          "components": [
            {
              "internalType": "address",
              "name": "seller",
              "type": "address"
            },
            {
              "internalType": "address",
              "name": "tokenAddress",
              "type": "address"
            },
            {
              "internalType": "uint256",
              "name": "tokenId",
              "type": "uint256"
            },
            {
              "internalType": "address",
              "name": "buyer",
              "type": "address"
            },
            {
              "internalType": "uint256",
              "name": "price",
              "type": "uint256"
            },
            {
              "internalType": "bool",
              "name": "isCancelled",
              "type": "bool"
            }
          ],
          "indexed": true,
          "internalType": "struct Exchange.Order",
          "name": "order",
          "type": "tuple"
        }
      ],
      "name": "Sold",
      "type": "event"
    },
    {
      "inputs": [
        {
          "internalType": "address",
          "name": "",
          "type": "address"
        },
        {
          "internalType": "address",
          "name": "",
          "type": "address"
        },
        {
          "internalType": "uint256",
          "name": "",
          "type": "uint256"
        },
        {
          "internalType": "bytes",
          "name": "",
          "type": "bytes"
        }
      ],
      "name": "onERC721Received",
      "outputs": [
        {
          "internalType": "bytes4",
          "name": "",
          "type": "bytes4"
        }
      ],
      "stateMutability": "nonpayable",
      "type": "function"
    },
    {
      "inputs": [
        {
          "components": [
            {
              "internalType": "address",
              "name": "seller",
              "type": "address"
            },
            {
              "internalType": "address",
              "name": "tokenAddress",
              "type": "address"
            },
            {
              "internalType": "uint256",
              "name": "tokenId",
              "type": "uint256"
            },
            {
              "internalType": "address",
              "name": "buyer",
              "type": "address"
            },
            {
              "internalType": "uint256",
              "name": "price",
              "type": "uint256"
            },
            {
              "internalType": "bool",
              "name": "isCancelled",
              "type": "bool"
            }
          ],
          "internalType": "struct Exchange.Order",
          "name": "order",
          "type": "tuple"
        }
      ],
      "name": "sell",
      "outputs": [],
      "stateMutability": "nonpayable",
      "type": "function"
    },
    {
      "inputs": [
        {
          "internalType": "uint256",
          "name": "orderId",
          "type": "uint256"
        }
      ],
      "name": "buy",
      "outputs": [],
      "stateMutability": "nonpayable",
      "type": "function"
    },
    {
      "inputs": [
        {
          "internalType": "uint256",
          "name": "orderId",
          "type": "uint256"
        }
      ],
      "name": "cancel",
      "outputs": [],
      "stateMutability": "nonpayable",
      "type": "function"
    },
    {
      "inputs": [],
      "name": "fetchOrders",
      "outputs": [
        {
          "components": [
            {
              "internalType": "address",
              "name": "seller",
              "type": "address"
            },
            {
              "internalType": "address",
              "name": "tokenAddress",
              "type": "address"
            },
            {
              "internalType": "uint256",
              "name": "tokenId",
              "type": "uint256"
            },
            {
              "internalType": "address",
              "name": "buyer",
              "type": "address"
            },
            {
              "internalType": "uint256",
              "name": "price",
              "type": "uint256"
            },
            {
              "internalType": "bool",
              "name": "isCancelled",
              "type": "bool"
            }
          ],
          "internalType": "struct Exchange.Order[]",
          "name": "",
          "type": "tuple[]"
        }
      ],
      "stateMutability": "view",
      "type": "function",
      "constant": true
    },
    {
      "inputs": [
        {
          "internalType": "address",
          "name": "seller",
          "type": "address"
        }
      ],
      "name": "fetchOrderOf",
      "outputs": [
        {
          "components": [
            {
              "internalType": "address",
              "name": "seller",
              "type": "address"
            },
            {
              "internalType": "address",
              "name": "tokenAddress",
              "type": "address"
            },
            {
              "internalType": "uint256",
              "name": "tokenId",
              "type": "uint256"
            },
            {
              "internalType": "address",
              "name": "buyer",
              "type": "address"
            },
            {
              "internalType": "uint256",
              "name": "price",
              "type": "uint256"
            },
            {
              "internalType": "bool",
              "name": "isCancelled",
              "type": "bool"
            }
          ],
          "internalType": "struct Exchange.Order[]",
          "name": "",
          "type": "tuple[]"
        }
      ],
      "stateMutability": "view",
      "type": "function",
      "constant": true
    },
    {
      "inputs": [
        {
          "internalType": "address",
          "name": "collection",
          "type": "address"
        }
      ],
      "name": "fetchOrderOfCollection",
      "outputs": [
        {
          "components": [
            {
              "internalType": "address",
              "name": "seller",
              "type": "address"
            },
            {
              "internalType": "address",
              "name": "tokenAddress",
              "type": "address"
            },
            {
              "internalType": "uint256",
              "name": "tokenId",
              "type": "uint256"
            },
            {
              "internalType": "address",
              "name": "buyer",
              "type": "address"
            },
            {
              "internalType": "uint256",
              "name": "price",
              "type": "uint256"
            },
            {
              "internalType": "bool",
              "name": "isCancelled",
              "type": "bool"
            }
          ],
          "internalType": "struct Exchange.Order[]",
          "name": "",
          "type": "tuple[]"
        }
      ],
      "stateMutability": "view",
      "type": "function",
      "constant": true
    }
  ],
  "bytecode": "0x608060405234801561001057600080fd5b506127f6806100206000396000f3fe608060405234801561001057600080fd5b506004361061007d5760003560e01c806340e58ee51161005b57806340e58ee514610100578063a6374a021461011c578063a8a494f214610138578063d96a094a146101685761007d565b80630809754914610082578063150b7a02146100a0578063375424ed146100d0575b600080fd5b61008a610184565b604051610097919061207d565b60405180910390f35b6100ba60048036038101906100b59190611b02565b610426565b6040516100c7919061209f565b60405180910390f35b6100ea60048036038101906100e59190611aa8565b61043a565b6040516100f7919061207d565b60405180910390f35b61011a60048036038101906101159190611bdf565b610832565b005b61013660048036038101906101319190611bb2565b610aa5565b005b610152600480360381019061014d9190611aa8565b610ef5565b60405161015f919061207d565b60405180910390f35b610182600480360381019061017d9190611bdf565b6112ed565b005b606060006101926065611789565b905060006101a06066611789565b6101aa6065611789565b6101b49190612361565b90506000808267ffffffffffffffff8111156101d3576101d26125a4565b5b60405190808252806020026020018201604052801561020c57816020015b6101f96118a0565b8152602001906001900390816101f15790505b50905060005b8481101561041b57600073ffffffffffffffffffffffffffffffffffffffff166067600083815260200190815260200160002060030160009054906101000a900473ffffffffffffffffffffffffffffffffffffffff1673ffffffffffffffffffffffffffffffffffffffff161415610408576000606760008381526020019081526020016000206040518060c00160405290816000820160009054906101000a900473ffffffffffffffffffffffffffffffffffffffff1673ffffffffffffffffffffffffffffffffffffffff1673ffffffffffffffffffffffffffffffffffffffff1681526020016001820160009054906101000a900473ffffffffffffffffffffffffffffffffffffffff1673ffffffffffffffffffffffffffffffffffffffff1673ffffffffffffffffffffffffffffffffffffffff168152602001600282015481526020016003820160009054906101000a900473ffffffffffffffffffffffffffffffffffffffff1673ffffffffffffffffffffffffffffffffffffffff1673ffffffffffffffffffffffffffffffffffffffff168152602001600482015481526020016005820160009054906101000a900460ff1615151515815250509050808385815181106103ec576103eb612575565b5b60200260200101819052506001846104049190612280565b9350505b8080610413906124ce565b915050610212565b508094505050505090565b600063150b7a0260e01b9050949350505050565b606060006104486065611789565b905060008060005b83811015610553578573ffffffffffffffffffffffffffffffffffffffff166067600083815260200190815260200160002060000160009054906101000a900473ffffffffffffffffffffffffffffffffffffffff1673ffffffffffffffffffffffffffffffffffffffff1614801561052b5750600073ffffffffffffffffffffffffffffffffffffffff166067600083815260200190815260200160002060030160009054906101000a900473ffffffffffffffffffffffffffffffffffffffff1673ffffffffffffffffffffffffffffffffffffffff16145b156105405760018361053d9190612280565b92505b808061054b906124ce565b915050610450565b5060008267ffffffffffffffff8111156105705761056f6125a4565b5b6040519080825280602002602001820160405280156105a957816020015b6105966118a0565b81526020019060019003908161058e5790505b50905060005b84811015610825578673ffffffffffffffffffffffffffffffffffffffff166067600083815260200190815260200160002060000160009054906101000a900473ffffffffffffffffffffffffffffffffffffffff1673ffffffffffffffffffffffffffffffffffffffff1614801561068a5750600073ffffffffffffffffffffffffffffffffffffffff166067600083815260200190815260200160002060030160009054906101000a900473ffffffffffffffffffffffffffffffffffffffff1673ffffffffffffffffffffffffffffffffffffffff16145b15610812576000606760008381526020019081526020016000206040518060c00160405290816000820160009054906101000a900473ffffffffffffffffffffffffffffffffffffffff1673ffffffffffffffffffffffffffffffffffffffff1673ffffffffffffffffffffffffffffffffffffffff1681526020016001820160009054906101000a900473ffffffffffffffffffffffffffffffffffffffff1673ffffffffffffffffffffffffffffffffffffffff1673ffffffffffffffffffffffffffffffffffffffff168152602001600282015481526020016003820160009054906101000a900473ffffffffffffffffffffffffffffffffffffffff1673ffffffffffffffffffffffffffffffffffffffff1673ffffffffffffffffffffffffffffffffffffffff168152602001600482015481526020016005820160009054906101000a900460ff1615151515815250509050808385815181106107f6576107f5612575565b5b602002602001018190525060018461080e9190612280565b9350505b808061081d906124ce565b9150506105af565b5080945050505050919050565b60006067600083815260200190815260200160002090503373ffffffffffffffffffffffffffffffffffffffff168160000160009054906101000a900473ffffffffffffffffffffffffffffffffffffffff1673ffffffffffffffffffffffffffffffffffffffff16146108db576040517f08c379a00000000000000000000000000000000000000000000000000000000081526004016108d29061213a565b60405180910390fd5b600073ffffffffffffffffffffffffffffffffffffffff168160030160009054906101000a900473ffffffffffffffffffffffffffffffffffffffff1673ffffffffffffffffffffffffffffffffffffffff161461096e576040517f08c379a00000000000000000000000000000000000000000000000000000000081526004016109659061215a565b60405180910390fd5b60008160010160009054906101000a900473ffffffffffffffffffffffffffffffffffffffff1690508073ffffffffffffffffffffffffffffffffffffffff166342842e0e308460000160009054906101000a900473ffffffffffffffffffffffffffffffffffffffff1685600201546040518463ffffffff1660e01b81526004016109fc93929190612046565b600060405180830381600087803b158015610a1657600080fd5b505af1158015610a2a573d6000803e3d6000fd5b5050505060016067600085815260200190815260200160002060050160006101000a81548160ff02191690831515021790555081604051610a6b9190612002565b6040518091039020837ffdcb2f74b63d5c5686944a6b32fadb8bc46d92aaa9f13301db8ab385b6b8bbb160405160405180910390a3505050565b60026001541415610aeb576040517f08c379a0000000000000000000000000000000000000000000000000000000008152600401610ae29061219a565b60405180910390fd5b60026001819055508060008160200151905060008173ffffffffffffffffffffffffffffffffffffffff16636352211e84604001516040518263ffffffff1660e01b8152600401610b3c91906121ba565b60206040518083038186803b158015610b5457600080fd5b505afa158015610b68573d6000803e3d6000fd5b505050506040513d601f19601f82011682018060405250810190610b8c9190611ad5565b9050826000015173ffffffffffffffffffffffffffffffffffffffff168173ffffffffffffffffffffffffffffffffffffffff161480610c5e5750600115158273ffffffffffffffffffffffffffffffffffffffff1663e985e9c58386600001516040518363ffffffff1660e01b8152600401610c0a92919061201d565b60206040518083038186803b158015610c2257600080fd5b505afa158015610c36573d6000803e3d6000fd5b505050506040513d601f19601f82011682018060405250810190610c5a9190611b85565b1515145b610c9d576040517f08c379a0000000000000000000000000000000000000000000000000000000008152600401610c94906120da565b60405180910390fd5b6000836080015111610ce4576040517f08c379a0000000000000000000000000000000000000000000000000000000008152600401610cdb9061211a565b60405180910390fd5b6000846020015190508073ffffffffffffffffffffffffffffffffffffffff166342842e0e86600001513088604001516040518463ffffffff1660e01b8152600401610d3293929190612046565b600060405180830381600087803b158015610d4c57600080fd5b505af1158015610d60573d6000803e3d6000fd5b505050506000610d706065611789565b9050600060676000838152602001908152602001600020905086600001518160000160006101000a81548173ffffffffffffffffffffffffffffffffffffffff021916908373ffffffffffffffffffffffffffffffffffffffff16021790555086602001518160010160006101000a81548173ffffffffffffffffffffffffffffffffffffffff021916908373ffffffffffffffffffffffffffffffffffffffff1602179055508660400151816002018190555086606001518160030160006101000a81548173ffffffffffffffffffffffffffffffffffffffff021916908373ffffffffffffffffffffffffffffffffffffffff160217905550866080015181600401819055508660a001518160050160006101000a81548160ff021916908315150217905550610ea26065611797565b80604051610eb09190612002565b6040518091039020827f6c83a606453efabacda195f637ffce1fd9cf43488e702b487dfac8877f79d90460405160405180910390a35050505050506001808190555050565b60606000610f036065611789565b905060008060005b8381101561100e578573ffffffffffffffffffffffffffffffffffffffff166067600083815260200190815260200160002060010160009054906101000a900473ffffffffffffffffffffffffffffffffffffffff1673ffffffffffffffffffffffffffffffffffffffff16148015610fe65750600073ffffffffffffffffffffffffffffffffffffffff166067600083815260200190815260200160002060030160009054906101000a900473ffffffffffffffffffffffffffffffffffffffff1673ffffffffffffffffffffffffffffffffffffffff16145b15610ffb57600183610ff89190612280565b92505b8080611006906124ce565b915050610f0b565b5060008267ffffffffffffffff81111561102b5761102a6125a4565b5b60405190808252806020026020018201604052801561106457816020015b6110516118a0565b8152602001906001900390816110495790505b50905060005b848110156112e0578673ffffffffffffffffffffffffffffffffffffffff166067600083815260200190815260200160002060010160009054906101000a900473ffffffffffffffffffffffffffffffffffffffff1673ffffffffffffffffffffffffffffffffffffffff161480156111455750600073ffffffffffffffffffffffffffffffffffffffff166067600083815260200190815260200160002060030160009054906101000a900473ffffffffffffffffffffffffffffffffffffffff1673ffffffffffffffffffffffffffffffffffffffff16145b156112cd576000606760008381526020019081526020016000206040518060c00160405290816000820160009054906101000a900473ffffffffffffffffffffffffffffffffffffffff1673ffffffffffffffffffffffffffffffffffffffff1673ffffffffffffffffffffffffffffffffffffffff1681526020016001820160009054906101000a900473ffffffffffffffffffffffffffffffffffffffff1673ffffffffffffffffffffffffffffffffffffffff1673ffffffffffffffffffffffffffffffffffffffff168152602001600282015481526020016003820160009054906101000a900473ffffffffffffffffffffffffffffffffffffffff1673ffffffffffffffffffffffffffffffffffffffff1673ffffffffffffffffffffffffffffffffffffffff168152602001600482015481526020016005820160009054906101000a900460ff1615151515815250509050808385815181106112b1576112b0612575565b5b60200260200101819052506001846112c99190612280565b9350505b80806112d8906124ce565b91505061106a565b5080945050505050919050565b60026001541415611333576040517f08c379a000000000000000000000000000000000000000000000000000000000815260040161132a9061219a565b60405180910390fd5b60026001819055506000811015801561135457506113516065611789565b81105b611393576040517f08c379a000000000000000000000000000000000000000000000000000000000815260040161138a906120fa565b60405180910390fd5b6000606760008381526020019081526020016000209050600073ffffffffffffffffffffffffffffffffffffffff168160030160009054906101000a900473ffffffffffffffffffffffffffffffffffffffff1673ffffffffffffffffffffffffffffffffffffffff161461143d576040517f08c379a00000000000000000000000000000000000000000000000000000000081526004016114349061215a565b60405180910390fd5b600015158160050160009054906101000a900460ff16151514611495576040517f08c379a000000000000000000000000000000000000000000000000000000000815260040161148c906120ba565b60405180910390fd5b600033905060008260010160009054906101000a900473ffffffffffffffffffffffffffffffffffffffff1690508073ffffffffffffffffffffffffffffffffffffffff166342842e0e308486600201546040518463ffffffff1660e01b815260040161150493929190612046565b600060405180830381600087803b15801561151e57600080fd5b505af1158015611532573d6000803e3d6000fd5b5050505060008360040154905060008273ffffffffffffffffffffffffffffffffffffffff1663d26509b186600201546040518263ffffffff1660e01b815260040161157e91906121ba565b60206040518083038186803b15801561159657600080fd5b505afa1580156115aa573d6000803e3d6000fd5b505050506040513d601f19601f820116820180604052508101906115ce9190611c0c565b905060008373ffffffffffffffffffffffffffffffffffffffff1663589a174387600201546040518263ffffffff1660e01b815260040161160f91906121ba565b60206040518083038186803b15801561162757600080fd5b505afa15801561163b573d6000803e3d6000fd5b505050506040513d601f19601f8201168201806040525081019061165f9190611ad5565b905060008211156116bb57600061167f83856117ad90919063ffffffff16565b905060006116976064836117c390919063ffffffff16565b90506116ac81866117d990919063ffffffff16565b94506116b883826117ef565b50505b6116e98660000160009054906101000a900473ffffffffffffffffffffffffffffffffffffffff16846117ef565b848660030160006101000a81548173ffffffffffffffffffffffffffffffffffffffff021916908373ffffffffffffffffffffffffffffffffffffffff1602179055506117366066611797565b856040516117449190612002565b6040518091039020877fa03d57759c1c0ae88e67bf83055e55c0bf1982f57d0b6d37c5003f2e18af467160405160405180910390a35050505050506001808190555050565b600081600001549050919050565b6001816000016000828254019250508190555050565b600081836117bb9190612307565b905092915050565b600081836117d191906122d6565b905092915050565b600081836117e79190612361565b905092915050565b60008273ffffffffffffffffffffffffffffffffffffffff168260405161181590611fed565b60006040518083038185875af1925050503d8060008114611852576040519150601f19603f3d011682016040523d82523d6000602084013e611857565b606091505b505090508061189b576040517f08c379a00000000000000000000000000000000000000000000000000000000081526004016118929061217a565b60405180910390fd5b505050565b6040518060c00160405280600073ffffffffffffffffffffffffffffffffffffffff168152602001600073ffffffffffffffffffffffffffffffffffffffff16815260200160008152602001600073ffffffffffffffffffffffffffffffffffffffff168152602001600081526020016000151581525090565b600061192d611928846121fa565b6121d5565b905082815260208101848484011115611949576119486125dd565b5b611954848285612440565b509392505050565b60008135905061196b8161277b565b92915050565b6000815190506119808161277b565b92915050565b60008135905061199581612792565b92915050565b6000815190506119aa81612792565b92915050565b600082601f8301126119c5576119c46125d3565b5b81356119d584826020860161191a565b91505092915050565b600060c082840312156119f4576119f36125d8565b5b6119fe60c06121d5565b90506000611a0e8482850161195c565b6000830152506020611a228482850161195c565b6020830152506040611a3684828501611a7e565b6040830152506060611a4a8482850161195c565b6060830152506080611a5e84828501611a7e565b60808301525060a0611a7284828501611986565b60a08301525092915050565b600081359050611a8d816127a9565b92915050565b600081519050611aa2816127a9565b92915050565b600060208284031215611abe57611abd6125e7565b5b6000611acc8482850161195c565b91505092915050565b600060208284031215611aeb57611aea6125e7565b5b6000611af984828501611971565b91505092915050565b60008060008060808587031215611b1c57611b1b6125e7565b5b6000611b2a8782880161195c565b9450506020611b3b8782880161195c565b9350506040611b4c87828801611a7e565b925050606085013567ffffffffffffffff811115611b6d57611b6c6125e2565b5b611b79878288016119b0565b91505092959194509250565b600060208284031215611b9b57611b9a6125e7565b5b6000611ba98482850161199b565b91505092915050565b600060c08284031215611bc857611bc76125e7565b5b6000611bd6848285016119de565b91505092915050565b600060208284031215611bf557611bf46125e7565b5b6000611c0384828501611a7e565b91505092915050565b600060208284031215611c2257611c216125e7565b5b6000611c3084828501611a93565b91505092915050565b6000611c458383611cb7565b60208301905092915050565b6000611c5d8383611d33565b60208301905092915050565b6000611c758383611e8c565b60c08301905092915050565b6000611c8d8383611fde565b60208301905092915050565b611ca2816123cc565b82525050565b611cb1816123cc565b82525050565b611cc0816123cc565b82525050565b6000611cd18261223b565b611cdb8185612253565b9350611ce68361222b565b8060005b83811015611d17578151611cfe8882611c69565b9750611d0983612246565b925050600181019050611cea565b5085935050505092915050565b611d2d816123de565b82525050565b611d3c816123de565b82525050565b611d4b816123ea565b82525050565b6000611d5e600f8361226f565b9150611d698261260a565b602082019050919050565b6000611d8160168361226f565b9150611d8c82612633565b602082019050919050565b6000611da460098361226f565b9150611daf8261265c565b602082019050919050565b6000611dc760218361226f565b9150611dd282612685565b604082019050919050565b6000611dea600083612264565b9150611df5826126d4565b600082019050919050565b6000611e0d600a8361226f565b9150611e18826126d7565b602082019050919050565b6000611e3060098361226f565b9150611e3b82612700565b602082019050919050565b6000611e53600f8361226f565b9150611e5e82612729565b602082019050919050565b6000611e76601f8361226f565b9150611e8182612752565b602082019050919050565b60c082016000820151611ea26000850182611c99565b506020820151611eb56020850182611c99565b506040820151611ec86040850182611fc0565b506060820151611edb6060850182611c99565b506080820151611eee6080850182611fc0565b5060a0820151611f0160a0850182611d24565b50505050565b600082016000808301549050611f1c8161244f565b611f268582611c39565b94505060018301549050611f398161244f565b611f438582611c39565b94505060028301549050611f5681612483565b611f608582611c81565b94505060038301549050611f738161244f565b611f7d8582611c39565b94505060048301549050611f9081612483565b611f9a8582611c81565b94505060058301549050611fad81612469565b611fb78582611c51565b94505050505050565b611fc981612436565b82525050565b611fd881612436565b82525050565b611fe781612436565b82525050565b6000611ff882611ddd565b9150819050919050565b600061200e8284611f07565b60c08201915081905092915050565b60006040820190506120326000830185611ca8565b61203f6020830184611ca8565b9392505050565b600060608201905061205b6000830186611ca8565b6120686020830185611ca8565b6120756040830184611fcf565b949350505050565b600060208201905081810360008301526120978184611cc6565b905092915050565b60006020820190506120b46000830184611d42565b92915050565b600060208201905081810360008301526120d381611d51565b9050919050565b600060208201905081810360008301526120f381611d74565b9050919050565b6000602082019050818103600083015261211381611d97565b9050919050565b6000602082019050818103600083015261213381611dba565b9050919050565b6000602082019050818103600083015261215381611e00565b9050919050565b6000602082019050818103600083015261217381611e23565b9050919050565b6000602082019050818103600083015261219381611e46565b9050919050565b600060208201905081810360008301526121b381611e69565b9050919050565b60006020820190506121cf6000830184611fcf565b92915050565b60006121df6121f0565b90506121eb828261249d565b919050565b6000604051905090565b600067ffffffffffffffff821115612215576122146125a4565b5b61221e826125ec565b9050602081019050919050565b6000819050602082019050919050565b600081519050919050565b6000602082019050919050565b600082825260208201905092915050565b600081905092915050565b600082825260208201905092915050565b600061228b82612436565b915061229683612436565b9250827fffffffffffffffffffffffffffffffffffffffffffffffffffffffffffffffff038211156122cb576122ca612517565b5b828201905092915050565b60006122e182612436565b91506122ec83612436565b9250826122fc576122fb612546565b5b828204905092915050565b600061231282612436565b915061231d83612436565b9250817fffffffffffffffffffffffffffffffffffffffffffffffffffffffffffffffff048311821515161561235657612355612517565b5b828202905092915050565b600061236c82612436565b915061237783612436565b92508282101561238a57612389612517565b5b828203905092915050565b600073ffffffffffffffffffffffffffffffffffffffff82169050919050565b600060ff82169050919050565b6000819050919050565b60006123d782612416565b9050919050565b60008115159050919050565b60007fffffffff0000000000000000000000000000000000000000000000000000000082169050919050565b600073ffffffffffffffffffffffffffffffffffffffff82169050919050565b6000819050919050565b82818337600083830152505050565b600061246261245d836125fd565b612395565b9050919050565b600061247c612477836125fd565b6123b5565b9050919050565b6000612496612491836125fd565b6123c2565b9050919050565b6124a6826125ec565b810181811067ffffffffffffffff821117156124c5576124c46125a4565b5b80604052505050565b60006124d982612436565b91507fffffffffffffffffffffffffffffffffffffffffffffffffffffffffffffffff82141561250c5761250b612517565b5b600182019050919050565b7f4e487b7100000000000000000000000000000000000000000000000000000000600052601160045260246000fd5b7f4e487b7100000000000000000000000000000000000000000000000000000000600052601260045260246000fd5b7f4e487b7100000000000000000000000000000000000000000000000000000000600052603260045260246000fd5b7f4e487b7100000000000000000000000000000000000000000000000000000000600052604160045260246000fd5b600080fd5b600080fd5b600080fd5b600080fd5b600080fd5b6000601f19601f8301169050919050565b60008160001c9050919050565b7f6f726465722063616e63656c6c65640000000000000000000000000000000000600082015250565b7f4e6f7420617070726f766564206f72206f776e65722e00000000000000000000600082015250565b7f77726f6e672069642e0000000000000000000000000000000000000000000000600082015250565b7f436f73742073686f756c642062652067726561746572207468616e207a65726f60008201527f2e00000000000000000000000000000000000000000000000000000000000000602082015250565b50565b7f4e6f742073656c6c657200000000000000000000000000000000000000000000600082015250565b7f6974656d20736f6c640000000000000000000000000000000000000000000000600082015250565b7f7472616e73666572206661696c65640000000000000000000000000000000000600082015250565b7f5265656e7472616e637947756172643a207265656e7472616e742063616c6c00600082015250565b612784816123cc565b811461278f57600080fd5b50565b61279b816123de565b81146127a657600080fd5b50565b6127b281612436565b81146127bd57600080fd5b5056fea26469706673582212202d57b728ab965bc0d8cb95f84daa9be804d8d196effb7ade75dc4f1bd9e17db364736f6c63430008060033",
  "immutableReferences": {},
  "source": "// SPDX-License-Identifier: MIT\r\npragma solidity ^0.8.2;\r\n\r\nimport \"@openzeppelin/contracts-upgradeable/security/ReentrancyGuardUpgradeable.sol\";\r\nimport \"@openzeppelin/contracts-upgradeable/utils/CountersUpgradeable.sol\";\r\nimport \"@openzeppelin/contracts-upgradeable/utils/math/SafeMathUpgradeable.sol\";\r\nimport \"@openzeppelin/contracts-upgradeable/token/ERC721/utils/ERC721HolderUpgradeable.sol\";\r\nimport \"../tokens/FunNFT.sol\";\r\n\r\ncontract Exchange is ReentrancyGuardUpgradeable, ERC721HolderUpgradeable {\r\n    using CountersUpgradeable for CountersUpgradeable.Counter;\r\n    using SafeMathUpgradeable for uint256;\r\n\r\n    struct Order {\r\n        address seller;\r\n        address tokenAddress;\r\n        uint256 tokenId;\r\n        address buyer;\r\n        uint256 price;\r\n        bool isCancelled;\r\n    }\r\n\r\n\r\n    CountersUpgradeable.Counter internal _orderIdCounter;\r\n    CountersUpgradeable.Counter internal _orderSoldCounter;\r\n    mapping(uint256 => Order) private orders;\r\n\r\n    event New(uint256 indexed id, Order indexed order);\r\n    event Canceled(uint256 indexed id, Order indexed order);\r\n    event Sold(uint256 indexed id, Order indexed order);\r\n\r\n    constructor() {\r\n\r\n    }\r\n\r\n    modifier isValid(Order memory order) {\r\n        // seller asset\r\n        FunNFT token = FunNFT(order.tokenAddress);\r\n        address owner = token.ownerOf(order.tokenId);\r\n        require( owner == order.seller || token.isApprovedForAll(owner, order.seller) == true, \"Not approved or owner.\");\r\n\r\n        // buyer asset\r\n        require(order.price > 0, \"Cost should be greater than zero.\");\r\n        _;\r\n    }\r\n\r\n    function transferEth(address to, uint value) internal {\r\n        (bool success,) = to.call{ value: value }(\"\");\r\n        require(success, \"transfer failed\");\r\n    }\r\n\r\n    function sell(Order memory order) external nonReentrant isValid(order) {\r\n        FunNFT token = FunNFT(order.tokenAddress);\r\n\r\n        token.safeTransferFrom(order.seller, address(this), order.tokenId);\r\n\r\n        uint256 currentId = _orderIdCounter.current();\r\n\r\n        Order storage newOrder = orders[currentId];\r\n        newOrder.seller = order.seller;\r\n        newOrder.tokenAddress = order.tokenAddress;\r\n        newOrder.tokenId = order.tokenId;\r\n        newOrder.buyer =  order.buyer;\r\n        newOrder.price = order.price;\r\n        newOrder.isCancelled = order.isCancelled;\r\n\r\n        _orderIdCounter.increment();\r\n        emit New(currentId, newOrder);\r\n    }\r\n\r\n    function buy(uint256 orderId) external nonReentrant {\r\n        require(orderId >= 0 && orderId < _orderIdCounter.current(), \"wrong id.\");\r\n        \r\n        Order storage order = orders[orderId];\r\n        require(order.buyer == address(0), \"item sold\");\r\n        require(order.isCancelled == false, \"order cancelled\");\r\n\r\n        address buyer = msg.sender;\r\n\r\n        // transfer nft to buyer\r\n        FunNFT token = FunNFT(order.tokenAddress);\r\n        token.safeTransferFrom(address(this), buyer, order.tokenId);\r\n\r\n        // pay royalty for creator\r\n        uint256 money = order.price;\r\n        uint256 royalty = token.royaltyOf(order.tokenId);\r\n        address creator = token.creatorOf(order.tokenId);\r\n        if (royalty > 0){\r\n            uint256 temp = money.mul(royalty);\r\n            uint256 royaltyMoney = temp.div(100);\r\n            money = money.sub(royaltyMoney);\r\n            transferEth(creator, royaltyMoney);\r\n        }\r\n        \r\n        // transfer payment token from buyer to seller\r\n        transferEth(order.seller, money);\r\n\r\n        order.buyer = buyer;\r\n        _orderSoldCounter.increment();\r\n        emit Sold(orderId, order);\r\n    }\r\n\r\n    function cancel(uint256 orderId) external {\r\n        Order storage order = orders[orderId];\r\n        require(order.seller == msg.sender, \"Not seller\");\r\n        require(order.buyer == address(0), \"item sold\");\r\n\r\n        FunNFT token = FunNFT(order.tokenAddress);\r\n        token.safeTransferFrom(address(this), order.seller, order.tokenId);\r\n\r\n        orders[orderId].isCancelled = true;\r\n        emit Canceled(orderId, order);\r\n    }\r\n\r\n    /* Returns all unsold orders */\r\n    function fetchOrders() public view returns (Order[] memory) {\r\n        uint256 itemCount = _orderIdCounter.current();\r\n        uint256 unsoldItemCount = _orderIdCounter.current() - _orderSoldCounter.current();\r\n        uint256 currentIndex = 0;\r\n\r\n        Order[] memory items = new Order[](unsoldItemCount);\r\n        for (uint256 i = 0; i < itemCount; i++) {\r\n            if (orders[i].buyer == address(0)) {\r\n                Order memory currentItem = orders[i];\r\n                items[currentIndex] = currentItem;\r\n                currentIndex += 1;\r\n            }\r\n        }\r\n        return items;\r\n    }\r\n\r\n  /* Returns only items that a user has been selling */\r\n    function fetchOrderOf(address seller) external view returns (Order[] memory) {\r\n        uint256 totalItemCount = _orderIdCounter.current();\r\n        uint256 itemCount = 0;\r\n        uint256 currentIndex = 0;\r\n\r\n        for (uint i = 0; i < totalItemCount; i++) {\r\n            if (orders[i].seller == seller && orders[i].buyer == address(0)){\r\n                itemCount += 1;\r\n            }\r\n        }\r\n\r\n        Order[] memory items = new Order[](itemCount);\r\n        for (uint256 i = 0; i < totalItemCount; i++) {\r\n            if (orders[i].seller == seller && orders[i].buyer == address(0)) {\r\n                Order memory currentItem = orders[i];\r\n                items[currentIndex] = currentItem;\r\n                currentIndex += 1;\r\n            }\r\n        }\r\n        return items;\r\n    }\r\n\r\n    /* Returns only items in a collection that had being selling */\r\n    function fetchOrderOfCollection(address collection) external view returns (Order[] memory) {\r\n        uint256 totalItemCount = _orderIdCounter.current();\r\n        uint256 itemCount = 0;\r\n        uint256 currentIndex = 0;\r\n\r\n        for (uint i = 0; i < totalItemCount; i++) {\r\n            if (orders[i].tokenAddress == collection && orders[i].buyer == address(0)){\r\n                itemCount += 1;\r\n            }\r\n        }\r\n\r\n        Order[] memory items = new Order[](itemCount);\r\n        for (uint256 i = 0; i < totalItemCount; i++) {\r\n            if (orders[i].tokenAddress == collection && orders[i].buyer == address(0)) {\r\n                Order memory currentItem = orders[i];\r\n                items[currentIndex] = currentItem;\r\n                currentIndex += 1;\r\n            }\r\n        }\r\n        return items;\r\n    }\r\n}",
  "sourcePath": "E:/LamViec/fun-exchange/contracts/exchange/Exchange.sol",
  "compiler": {
    "name": "solc",
    "version": "0.8.6+commit.11564f7e.Emscripten.clang"
  },
  "schemaVersion": "3.3.4",
  "updatedAt": "2021-12-05T13:42:34.273Z",
  "networkType": "ethereum",
  "devdoc": {
    "kind": "dev",
    "methods": {
      "onERC721Received(address,address,uint256,bytes)": {
        "details": "See {IERC721Receiver-onERC721Received}. Always returns `IERC721Receiver.onERC721Received.selector`."
      }
    },
    "version": 1
  },
  "userdoc": {
    "kind": "user",
    "methods": {},
    "version": 1
  }
}