{
  "contractName": "Exchange",
  "abi": [
    {
      "inputs": [],
      "stateMutability": "nonpayable",
      "type": "constructor"
    },
    {
      "anonymous": false,
      "inputs": [
        {
          "indexed": true,
          "internalType": "uint256",
          "name": "id",
          "type": "uint256"
        },
        {
          "components": [
            {
              "internalType": "uint256",
              "name": "id",
              "type": "uint256"
            },
            {
              "internalType": "address",
              "name": "seller",
              "type": "address"
            },
            {
              "internalType": "address",
              "name": "tokenAddress",
              "type": "address"
            },
            {
              "internalType": "uint256",
              "name": "tokenId",
              "type": "uint256"
            },
            {
              "internalType": "address",
              "name": "buyer",
              "type": "address"
            },
            {
              "internalType": "uint256",
              "name": "price",
              "type": "uint256"
            },
            {
              "internalType": "bool",
              "name": "isCancelled",
              "type": "bool"
            }
          ],
          "indexed": true,
          "internalType": "struct Exchange.Order",
          "name": "order",
          "type": "tuple"
        }
      ],
      "name": "Canceled",
      "type": "event"
    },
    {
      "anonymous": false,
      "inputs": [
        {
          "indexed": true,
          "internalType": "uint256",
          "name": "id",
          "type": "uint256"
        },
        {
          "components": [
            {
              "internalType": "uint256",
              "name": "id",
              "type": "uint256"
            },
            {
              "internalType": "address",
              "name": "seller",
              "type": "address"
            },
            {
              "internalType": "address",
              "name": "tokenAddress",
              "type": "address"
            },
            {
              "internalType": "uint256",
              "name": "tokenId",
              "type": "uint256"
            },
            {
              "internalType": "address",
              "name": "buyer",
              "type": "address"
            },
            {
              "internalType": "uint256",
              "name": "price",
              "type": "uint256"
            },
            {
              "internalType": "bool",
              "name": "isCancelled",
              "type": "bool"
            }
          ],
          "indexed": true,
          "internalType": "struct Exchange.Order",
          "name": "order",
          "type": "tuple"
        }
      ],
      "name": "New",
      "type": "event"
    },
    {
      "anonymous": false,
      "inputs": [
        {
          "indexed": true,
          "internalType": "uint256",
          "name": "id",
          "type": "uint256"
        },
        {
          "components": [
            {
              "internalType": "uint256",
              "name": "id",
              "type": "uint256"
            },
            {
              "internalType": "address",
              "name": "seller",
              "type": "address"
            },
            {
              "internalType": "address",
              "name": "tokenAddress",
              "type": "address"
            },
            {
              "internalType": "uint256",
              "name": "tokenId",
              "type": "uint256"
            },
            {
              "internalType": "address",
              "name": "buyer",
              "type": "address"
            },
            {
              "internalType": "uint256",
              "name": "price",
              "type": "uint256"
            },
            {
              "internalType": "bool",
              "name": "isCancelled",
              "type": "bool"
            }
          ],
          "indexed": true,
          "internalType": "struct Exchange.Order",
          "name": "order",
          "type": "tuple"
        }
      ],
      "name": "Sold",
      "type": "event"
    },
    {
      "inputs": [
        {
          "internalType": "address",
          "name": "",
          "type": "address"
        },
        {
          "internalType": "address",
          "name": "",
          "type": "address"
        },
        {
          "internalType": "uint256",
          "name": "",
          "type": "uint256"
        },
        {
          "internalType": "bytes",
          "name": "",
          "type": "bytes"
        }
      ],
      "name": "onERC721Received",
      "outputs": [
        {
          "internalType": "bytes4",
          "name": "",
          "type": "bytes4"
        }
      ],
      "stateMutability": "nonpayable",
      "type": "function"
    },
    {
      "inputs": [
        {
          "components": [
            {
              "internalType": "uint256",
              "name": "id",
              "type": "uint256"
            },
            {
              "internalType": "address",
              "name": "seller",
              "type": "address"
            },
            {
              "internalType": "address",
              "name": "tokenAddress",
              "type": "address"
            },
            {
              "internalType": "uint256",
              "name": "tokenId",
              "type": "uint256"
            },
            {
              "internalType": "address",
              "name": "buyer",
              "type": "address"
            },
            {
              "internalType": "uint256",
              "name": "price",
              "type": "uint256"
            },
            {
              "internalType": "bool",
              "name": "isCancelled",
              "type": "bool"
            }
          ],
          "internalType": "struct Exchange.Order",
          "name": "order",
          "type": "tuple"
        }
      ],
      "name": "sell",
      "outputs": [],
      "stateMutability": "nonpayable",
      "type": "function"
    },
    {
      "inputs": [
        {
          "internalType": "uint256",
          "name": "orderId",
          "type": "uint256"
        }
      ],
      "name": "buy",
      "outputs": [],
      "stateMutability": "payable",
      "type": "function",
      "payable": true
    },
    {
      "inputs": [
        {
          "internalType": "uint256",
          "name": "orderId",
          "type": "uint256"
        }
      ],
      "name": "cancel",
      "outputs": [],
      "stateMutability": "nonpayable",
      "type": "function"
    },
    {
      "inputs": [],
      "name": "fetchOrders",
      "outputs": [
        {
          "components": [
            {
              "internalType": "uint256",
              "name": "id",
              "type": "uint256"
            },
            {
              "internalType": "address",
              "name": "seller",
              "type": "address"
            },
            {
              "internalType": "address",
              "name": "tokenAddress",
              "type": "address"
            },
            {
              "internalType": "uint256",
              "name": "tokenId",
              "type": "uint256"
            },
            {
              "internalType": "address",
              "name": "buyer",
              "type": "address"
            },
            {
              "internalType": "uint256",
              "name": "price",
              "type": "uint256"
            },
            {
              "internalType": "bool",
              "name": "isCancelled",
              "type": "bool"
            }
          ],
          "internalType": "struct Exchange.Order[]",
          "name": "",
          "type": "tuple[]"
        }
      ],
      "stateMutability": "view",
      "type": "function",
      "constant": true
    },
    {
      "inputs": [
        {
          "internalType": "address",
          "name": "seller",
          "type": "address"
        }
      ],
      "name": "fetchOrderOf",
      "outputs": [
        {
          "components": [
            {
              "internalType": "uint256",
              "name": "id",
              "type": "uint256"
            },
            {
              "internalType": "address",
              "name": "seller",
              "type": "address"
            },
            {
              "internalType": "address",
              "name": "tokenAddress",
              "type": "address"
            },
            {
              "internalType": "uint256",
              "name": "tokenId",
              "type": "uint256"
            },
            {
              "internalType": "address",
              "name": "buyer",
              "type": "address"
            },
            {
              "internalType": "uint256",
              "name": "price",
              "type": "uint256"
            },
            {
              "internalType": "bool",
              "name": "isCancelled",
              "type": "bool"
            }
          ],
          "internalType": "struct Exchange.Order[]",
          "name": "",
          "type": "tuple[]"
        }
      ],
      "stateMutability": "view",
      "type": "function",
      "constant": true
    },
    {
      "inputs": [
        {
          "internalType": "address",
          "name": "collection",
          "type": "address"
        }
      ],
      "name": "fetchOrderOfCollection",
      "outputs": [
        {
          "components": [
            {
              "internalType": "uint256",
              "name": "id",
              "type": "uint256"
            },
            {
              "internalType": "address",
              "name": "seller",
              "type": "address"
            },
            {
              "internalType": "address",
              "name": "tokenAddress",
              "type": "address"
            },
            {
              "internalType": "uint256",
              "name": "tokenId",
              "type": "uint256"
            },
            {
              "internalType": "address",
              "name": "buyer",
              "type": "address"
            },
            {
              "internalType": "uint256",
              "name": "price",
              "type": "uint256"
            },
            {
              "internalType": "bool",
              "name": "isCancelled",
              "type": "bool"
            }
          ],
          "internalType": "struct Exchange.Order[]",
          "name": "",
          "type": "tuple[]"
        }
      ],
      "stateMutability": "view",
      "type": "function",
      "constant": true
    },
    {
      "inputs": [
        {
          "internalType": "address",
          "name": "tokenAddress",
          "type": "address"
        },
        {
          "internalType": "uint256",
          "name": "tokenId",
          "type": "uint256"
        }
      ],
      "name": "getNewestOrderOf",
      "outputs": [
        {
          "components": [
            {
              "internalType": "uint256",
              "name": "id",
              "type": "uint256"
            },
            {
              "internalType": "address",
              "name": "seller",
              "type": "address"
            },
            {
              "internalType": "address",
              "name": "tokenAddress",
              "type": "address"
            },
            {
              "internalType": "uint256",
              "name": "tokenId",
              "type": "uint256"
            },
            {
              "internalType": "address",
              "name": "buyer",
              "type": "address"
            },
            {
              "internalType": "uint256",
              "name": "price",
              "type": "uint256"
            },
            {
              "internalType": "bool",
              "name": "isCancelled",
              "type": "bool"
            }
          ],
          "internalType": "struct Exchange.Order",
          "name": "",
          "type": "tuple"
        }
      ],
      "stateMutability": "view",
      "type": "function",
      "constant": true
    }
  ],
  "bytecode": "0x608060405234801561001057600080fd5b50613061806100206000396000f3fe60806040526004361061007b5760003560e01c80639bdb6e391161004e5780639bdb6e391461014e578063a8a494f21461018b578063d6eb8cd4146101c8578063d96a094a146101f15761007b565b80630809754914610080578063150b7a02146100ab578063375424ed146100e857806340e58ee514610125575b600080fd5b34801561008c57600080fd5b5061009561020d565b6040516100a29190612815565b60405180910390f35b3480156100b757600080fd5b506100d260048036038101906100cd9190612156565b6104ec565b6040516100df9190612837565b60405180910390f35b3480156100f457600080fd5b5061010f600480360381019061010a91906120fc565b610500565b60405161011c9190612815565b60405180910390f35b34801561013157600080fd5b5061014c60048036038101906101479190612273565b610968565b005b34801561015a57600080fd5b50610175600480360381019061017091906121d9565b610bdb565b6040516101829190612992565b60405180910390f35b34801561019757600080fd5b506101b260048036038101906101ad91906120fc565b610ef0565b6040516101bf9190612815565b60405180910390f35b3480156101d457600080fd5b506101ef60048036038101906101ea9190612246565b6112f2565b005b61020b60048036038101906102069190612273565b6117a3565b005b6060600061021b6065611c3f565b905060006102296066611c3f565b6102336065611c3f565b61023d9190612b54565b90506000808267ffffffffffffffff81111561025c5761025b612d97565b5b60405190808252806020026020018201604052801561029557816020015b610282611ed9565b81526020019060019003908161027a5790505b50905060005b848110156104e157600073ffffffffffffffffffffffffffffffffffffffff166067600083815260200190815260200160002060040160009054906101000a900473ffffffffffffffffffffffffffffffffffffffff1673ffffffffffffffffffffffffffffffffffffffff1614801561033c5750600015156067600083815260200190815260200160002060060160009054906101000a900460ff161515145b156104ce576000606760008381526020019081526020016000206040518060e0016040529081600082015481526020016001820160009054906101000a900473ffffffffffffffffffffffffffffffffffffffff1673ffffffffffffffffffffffffffffffffffffffff1673ffffffffffffffffffffffffffffffffffffffff1681526020016002820160009054906101000a900473ffffffffffffffffffffffffffffffffffffffff1673ffffffffffffffffffffffffffffffffffffffff1673ffffffffffffffffffffffffffffffffffffffff168152602001600382015481526020016004820160009054906101000a900473ffffffffffffffffffffffffffffffffffffffff1673ffffffffffffffffffffffffffffffffffffffff1673ffffffffffffffffffffffffffffffffffffffff168152602001600582015481526020016006820160009054906101000a900460ff1615151515815250509050808385815181106104b2576104b1612d68565b5b60200260200101819052506001846104ca9190612a73565b9350505b80806104d990612cc1565b91505061029b565b508094505050505090565b600063150b7a0260e01b9050949350505050565b6060600061050e6065611c3f565b905060008060005b8381101561064c578573ffffffffffffffffffffffffffffffffffffffff166067600083815260200190815260200160002060010160009054906101000a900473ffffffffffffffffffffffffffffffffffffffff1673ffffffffffffffffffffffffffffffffffffffff161480156105f15750600073ffffffffffffffffffffffffffffffffffffffff166067600083815260200190815260200160002060040160009054906101000a900473ffffffffffffffffffffffffffffffffffffffff1673ffffffffffffffffffffffffffffffffffffffff16145b80156106245750600015156067600083815260200190815260200160002060060160009054906101000a900460ff161515145b15610639576001836106369190612a73565b92505b808061064490612cc1565b915050610516565b5060008267ffffffffffffffff81111561066957610668612d97565b5b6040519080825280602002602001820160405280156106a257816020015b61068f611ed9565b8152602001906001900390816106875790505b50905060005b8481101561095b578673ffffffffffffffffffffffffffffffffffffffff166067600083815260200190815260200160002060010160009054906101000a900473ffffffffffffffffffffffffffffffffffffffff1673ffffffffffffffffffffffffffffffffffffffff161480156107835750600073ffffffffffffffffffffffffffffffffffffffff166067600083815260200190815260200160002060040160009054906101000a900473ffffffffffffffffffffffffffffffffffffffff1673ffffffffffffffffffffffffffffffffffffffff16145b80156107b65750600015156067600083815260200190815260200160002060060160009054906101000a900460ff161515145b15610948576000606760008381526020019081526020016000206040518060e0016040529081600082015481526020016001820160009054906101000a900473ffffffffffffffffffffffffffffffffffffffff1673ffffffffffffffffffffffffffffffffffffffff1673ffffffffffffffffffffffffffffffffffffffff1681526020016002820160009054906101000a900473ffffffffffffffffffffffffffffffffffffffff1673ffffffffffffffffffffffffffffffffffffffff1673ffffffffffffffffffffffffffffffffffffffff168152602001600382015481526020016004820160009054906101000a900473ffffffffffffffffffffffffffffffffffffffff1673ffffffffffffffffffffffffffffffffffffffff1673ffffffffffffffffffffffffffffffffffffffff168152602001600582015481526020016006820160009054906101000a900460ff16151515158152505090508083858151811061092c5761092b612d68565b5b60200260200101819052506001846109449190612a73565b9350505b808061095390612cc1565b9150506106a8565b5080945050505050919050565b60006067600083815260200190815260200160002090503373ffffffffffffffffffffffffffffffffffffffff168160010160009054906101000a900473ffffffffffffffffffffffffffffffffffffffff1673ffffffffffffffffffffffffffffffffffffffff1614610a11576040517f08c379a0000000000000000000000000000000000000000000000000000000008152600401610a0890612912565b60405180910390fd5b600073ffffffffffffffffffffffffffffffffffffffff168160040160009054906101000a900473ffffffffffffffffffffffffffffffffffffffff1673ffffffffffffffffffffffffffffffffffffffff1614610aa4576040517f08c379a0000000000000000000000000000000000000000000000000000000008152600401610a9b90612932565b60405180910390fd5b60008160020160009054906101000a900473ffffffffffffffffffffffffffffffffffffffff1690508073ffffffffffffffffffffffffffffffffffffffff166342842e0e308460010160009054906101000a900473ffffffffffffffffffffffffffffffffffffffff1685600301546040518463ffffffff1660e01b8152600401610b32939291906127de565b600060405180830381600087803b158015610b4c57600080fd5b505af1158015610b60573d6000803e3d6000fd5b5050505060016067600085815260200190815260200160002060060160006101000a81548160ff02191690831515021790555081604051610ba1919061279a565b6040518091039020837f3a9016bc75959eb422c476afaae1b780aba46c930e2d25dc296890f6ed0fbf9b60405160405180910390a3505050565b610be3611ed9565b6000610bef6065611c3f565b9050600081905060005b82811015610ca3578573ffffffffffffffffffffffffffffffffffffffff166067600083815260200190815260200160002060020160009054906101000a900473ffffffffffffffffffffffffffffffffffffffff1673ffffffffffffffffffffffffffffffffffffffff16148015610c875750846067600083815260200190815260200160002060030154145b15610c90578091505b8080610c9b90612cc1565b915050610bf9565b508181108015610d155750600073ffffffffffffffffffffffffffffffffffffffff166067600083815260200190815260200160002060040160009054906101000a900473ffffffffffffffffffffffffffffffffffffffff1673ffffffffffffffffffffffffffffffffffffffff16145b8015610d485750600015156067600083815260200190815260200160002060060160009054906101000a900460ff161515145b15610eaf57606760008281526020019081526020016000206040518060e0016040529081600082015481526020016001820160009054906101000a900473ffffffffffffffffffffffffffffffffffffffff1673ffffffffffffffffffffffffffffffffffffffff1673ffffffffffffffffffffffffffffffffffffffff1681526020016002820160009054906101000a900473ffffffffffffffffffffffffffffffffffffffff1673ffffffffffffffffffffffffffffffffffffffff1673ffffffffffffffffffffffffffffffffffffffff168152602001600382015481526020016004820160009054906101000a900473ffffffffffffffffffffffffffffffffffffffff1673ffffffffffffffffffffffffffffffffffffffff1673ffffffffffffffffffffffffffffffffffffffff168152602001600582015481526020016006820160009054906101000a900460ff16151515158152505092505050610eea565b6040517f08c379a0000000000000000000000000000000000000000000000000000000008152600401610ee190612852565b60405180910390fd5b92915050565b60606000610efe6065611c3f565b905060008060005b83811015611009578573ffffffffffffffffffffffffffffffffffffffff166067600083815260200190815260200160002060020160009054906101000a900473ffffffffffffffffffffffffffffffffffffffff1673ffffffffffffffffffffffffffffffffffffffff16148015610fe15750600073ffffffffffffffffffffffffffffffffffffffff166067600083815260200190815260200160002060040160009054906101000a900473ffffffffffffffffffffffffffffffffffffffff1673ffffffffffffffffffffffffffffffffffffffff16145b15610ff657600183610ff39190612a73565b92505b808061100190612cc1565b915050610f06565b5060008267ffffffffffffffff81111561102657611025612d97565b5b60405190808252806020026020018201604052801561105f57816020015b61104c611ed9565b8152602001906001900390816110445790505b50905060005b848110156112e5578673ffffffffffffffffffffffffffffffffffffffff166067600083815260200190815260200160002060020160009054906101000a900473ffffffffffffffffffffffffffffffffffffffff1673ffffffffffffffffffffffffffffffffffffffff161480156111405750600073ffffffffffffffffffffffffffffffffffffffff166067600083815260200190815260200160002060040160009054906101000a900473ffffffffffffffffffffffffffffffffffffffff1673ffffffffffffffffffffffffffffffffffffffff16145b156112d2576000606760008381526020019081526020016000206040518060e0016040529081600082015481526020016001820160009054906101000a900473ffffffffffffffffffffffffffffffffffffffff1673ffffffffffffffffffffffffffffffffffffffff1673ffffffffffffffffffffffffffffffffffffffff1681526020016002820160009054906101000a900473ffffffffffffffffffffffffffffffffffffffff1673ffffffffffffffffffffffffffffffffffffffff1673ffffffffffffffffffffffffffffffffffffffff168152602001600382015481526020016004820160009054906101000a900473ffffffffffffffffffffffffffffffffffffffff1673ffffffffffffffffffffffffffffffffffffffff1673ffffffffffffffffffffffffffffffffffffffff168152602001600582015481526020016006820160009054906101000a900460ff1615151515815250509050808385815181106112b6576112b5612d68565b5b60200260200101819052506001846112ce9190612a73565b9350505b80806112dd90612cc1565b915050611065565b5080945050505050919050565b60026001541415611338576040517f08c379a000000000000000000000000000000000000000000000000000000000815260040161132f90612972565b60405180910390fd5b60026001819055508060008160400151905060008173ffffffffffffffffffffffffffffffffffffffff16636352211e84606001516040518263ffffffff1660e01b815260040161138991906129ad565b60206040518083038186803b1580156113a157600080fd5b505afa1580156113b5573d6000803e3d6000fd5b505050506040513d601f19601f820116820180604052508101906113d99190612129565b9050826020015173ffffffffffffffffffffffffffffffffffffffff168173ffffffffffffffffffffffffffffffffffffffff1614806114ab5750600115158273ffffffffffffffffffffffffffffffffffffffff1663e985e9c58386602001516040518363ffffffff1660e01b81526004016114579291906127b5565b60206040518083038186803b15801561146f57600080fd5b505afa158015611483573d6000803e3d6000fd5b505050506040513d601f19601f820116820180604052508101906114a79190612219565b1515145b6114ea576040517f08c379a00000000000000000000000000000000000000000000000000000000081526004016114e190612892565b60405180910390fd5b60008360a0015111611531576040517f08c379a0000000000000000000000000000000000000000000000000000000008152600401611528906128d2565b60405180910390fd5b6000151561154784604001518560600151611c4d565b151514611589576040517f08c379a0000000000000000000000000000000000000000000000000000000008152600401611580906128f2565b60405180910390fd5b6000846040015190508073ffffffffffffffffffffffffffffffffffffffff166342842e0e86602001513088606001516040518463ffffffff1660e01b81526004016115d7939291906127de565b600060405180830381600087803b1580156115f157600080fd5b505af1158015611605573d6000803e3d6000fd5b5050505060006116156065611c3f565b9050600060676000838152602001908152602001600020905086602001518160010160006101000a81548173ffffffffffffffffffffffffffffffffffffffff021916908373ffffffffffffffffffffffffffffffffffffffff16021790555086604001518160020160006101000a81548173ffffffffffffffffffffffffffffffffffffffff021916908373ffffffffffffffffffffffffffffffffffffffff1602179055508660600151816003018190555086608001518160040160006101000a81548173ffffffffffffffffffffffffffffffffffffffff021916908373ffffffffffffffffffffffffffffffffffffffff1602179055508660a0015181600501819055508660c001518160060160006101000a81548160ff0219169083151502179055508181600001819055506117506065611dd0565b8060405161175e919061279a565b6040518091039020827f5948935a5666e1fb19d00d3ce1cd7f14dcb80dc22ca3688f5a4700352b02b4ef60405160405180910390a35050505050506001808190555050565b600260015414156117e9576040517f08c379a00000000000000000000000000000000000000000000000000000000081526004016117e090612972565b60405180910390fd5b60026001819055506000811015801561180a57506118076065611c3f565b81105b611849576040517f08c379a0000000000000000000000000000000000000000000000000000000008152600401611840906128b2565b60405180910390fd5b6000606760008381526020019081526020016000209050600073ffffffffffffffffffffffffffffffffffffffff168160040160009054906101000a900473ffffffffffffffffffffffffffffffffffffffff1673ffffffffffffffffffffffffffffffffffffffff16146118f3576040517f08c379a00000000000000000000000000000000000000000000000000000000081526004016118ea90612932565b60405180910390fd5b600015158160060160009054906101000a900460ff1615151461194b576040517f08c379a000000000000000000000000000000000000000000000000000000000815260040161194290612872565b60405180910390fd5b600033905060008260020160009054906101000a900473ffffffffffffffffffffffffffffffffffffffff1690508073ffffffffffffffffffffffffffffffffffffffff166342842e0e308486600301546040518463ffffffff1660e01b81526004016119ba939291906127de565b600060405180830381600087803b1580156119d457600080fd5b505af11580156119e8573d6000803e3d6000fd5b5050505060008360050154905060008273ffffffffffffffffffffffffffffffffffffffff1663d26509b186600301546040518263ffffffff1660e01b8152600401611a3491906129ad565b60206040518083038186803b158015611a4c57600080fd5b505afa158015611a60573d6000803e3d6000fd5b505050506040513d601f19601f82011682018060405250810190611a8491906122a0565b905060008373ffffffffffffffffffffffffffffffffffffffff1663589a174387600301546040518263ffffffff1660e01b8152600401611ac591906129ad565b60206040518083038186803b158015611add57600080fd5b505afa158015611af1573d6000803e3d6000fd5b505050506040513d601f19601f82011682018060405250810190611b159190612129565b90506000821115611b71576000611b358385611de690919063ffffffff16565b90506000611b4d606483611dfc90919063ffffffff16565b9050611b628186611e1290919063ffffffff16565b9450611b6e8382611e28565b50505b611b9f8660010160009054906101000a900473ffffffffffffffffffffffffffffffffffffffff1684611e28565b848660040160006101000a81548173ffffffffffffffffffffffffffffffffffffffff021916908373ffffffffffffffffffffffffffffffffffffffff160217905550611bec6066611dd0565b85604051611bfa919061279a565b6040518091039020877f1d401a56dc9496884f8acfc3564cc3a9161e400b5867b492b2a2e21a29cf9c4360405160405180910390a35050505050506001808190555050565b600081600001549050919050565b600080611c5a6065611c3f565b9050600081905060005b82811015611d0e578573ffffffffffffffffffffffffffffffffffffffff166067600083815260200190815260200160002060020160009054906101000a900473ffffffffffffffffffffffffffffffffffffffff1673ffffffffffffffffffffffffffffffffffffffff16148015611cf25750846067600083815260200190815260200160002060030154145b15611cfb578091505b8080611d0690612cc1565b915050611c64565b508181108015611d805750600073ffffffffffffffffffffffffffffffffffffffff166067600083815260200190815260200160002060040160009054906101000a900473ffffffffffffffffffffffffffffffffffffffff1673ffffffffffffffffffffffffffffffffffffffff16145b8015611db35750600015156067600083815260200190815260200160002060060160009054906101000a900460ff161515145b15611dc357600192505050611dca565b6000925050505b92915050565b6001816000016000828254019250508190555050565b60008183611df49190612afa565b905092915050565b60008183611e0a9190612ac9565b905092915050565b60008183611e209190612b54565b905092915050565b60008273ffffffffffffffffffffffffffffffffffffffff1682604051611e4e90612785565b60006040518083038185875af1925050503d8060008114611e8b576040519150601f19603f3d011682016040523d82523d6000602084013e611e90565b606091505b5050905080611ed4576040517f08c379a0000000000000000000000000000000000000000000000000000000008152600401611ecb90612952565b60405180910390fd5b505050565b6040518060e0016040528060008152602001600073ffffffffffffffffffffffffffffffffffffffff168152602001600073ffffffffffffffffffffffffffffffffffffffff16815260200160008152602001600073ffffffffffffffffffffffffffffffffffffffff168152602001600081526020016000151581525090565b6000611f6d611f68846129ed565b6129c8565b905082815260208101848484011115611f8957611f88612dd0565b5b611f94848285612c33565b509392505050565b600081359050611fab81612fe6565b92915050565b600081519050611fc081612fe6565b92915050565b600081359050611fd581612ffd565b92915050565b600081519050611fea81612ffd565b92915050565b600082601f83011261200557612004612dc6565b5b8135612015848260208601611f5a565b91505092915050565b600060e0828403121561203457612033612dcb565b5b61203e60e06129c8565b9050600061204e848285016120d2565b600083015250602061206284828501611f9c565b602083015250604061207684828501611f9c565b604083015250606061208a848285016120d2565b606083015250608061209e84828501611f9c565b60808301525060a06120b2848285016120d2565b60a08301525060c06120c684828501611fc6565b60c08301525092915050565b6000813590506120e181613014565b92915050565b6000815190506120f681613014565b92915050565b60006020828403121561211257612111612dda565b5b600061212084828501611f9c565b91505092915050565b60006020828403121561213f5761213e612dda565b5b600061214d84828501611fb1565b91505092915050565b600080600080608085870312156121705761216f612dda565b5b600061217e87828801611f9c565b945050602061218f87828801611f9c565b93505060406121a0878288016120d2565b925050606085013567ffffffffffffffff8111156121c1576121c0612dd5565b5b6121cd87828801611ff0565b91505092959194509250565b600080604083850312156121f0576121ef612dda565b5b60006121fe85828601611f9c565b925050602061220f858286016120d2565b9150509250929050565b60006020828403121561222f5761222e612dda565b5b600061223d84828501611fdb565b91505092915050565b600060e0828403121561225c5761225b612dda565b5b600061226a8482850161201e565b91505092915050565b60006020828403121561228957612288612dda565b5b6000612297848285016120d2565b91505092915050565b6000602082840312156122b6576122b5612dda565b5b60006122c4848285016120e7565b91505092915050565b60006122d9838361234b565b60208301905092915050565b60006122f183836123c7565b60208301905092915050565b60006123098383612566565b60e08301905092915050565b60006123218383612776565b60208301905092915050565b61233681612bbf565b82525050565b61234581612bbf565b82525050565b61235481612bbf565b82525050565b600061236582612a2e565b61236f8185612a46565b935061237a83612a1e565b8060005b838110156123ab57815161239288826122fd565b975061239d83612a39565b92505060018101905061237e565b5085935050505092915050565b6123c181612bd1565b82525050565b6123d081612bd1565b82525050565b6123df81612bdd565b82525050565b60006123f2600983612a62565b91506123fd82612dfd565b602082019050919050565b6000612415600f83612a62565b915061242082612e26565b602082019050919050565b6000612438601683612a62565b915061244382612e4f565b602082019050919050565b600061245b600983612a62565b915061246682612e78565b602082019050919050565b600061247e602183612a62565b915061248982612ea1565b604082019050919050565b60006124a1602483612a62565b91506124ac82612ef0565b604082019050919050565b60006124c4600083612a57565b91506124cf82612f3f565b600082019050919050565b60006124e7600a83612a62565b91506124f282612f42565b602082019050919050565b600061250a600983612a62565b915061251582612f6b565b602082019050919050565b600061252d600f83612a62565b915061253882612f94565b602082019050919050565b6000612550601f83612a62565b915061255b82612fbd565b602082019050919050565b60e08201600082015161257c6000850182612758565b50602082015161258f602085018261232d565b5060408201516125a2604085018261232d565b5060608201516125b56060850182612758565b5060808201516125c8608085018261232d565b5060a08201516125db60a0850182612758565b5060c08201516125ee60c08501826123b8565b50505050565b60e08201600082015161260a6000850182612758565b50602082015161261d602085018261232d565b506040820151612630604085018261232d565b5060608201516126436060850182612758565b506080820151612656608085018261232d565b5060a082015161266960a0850182612758565b5060c082015161267c60c08501826123b8565b50505050565b60008201600080830154905061269781612c76565b6126a18582612315565b945050600183015490506126b481612c42565b6126be85826122cd565b945050600283015490506126d181612c42565b6126db85826122cd565b945050600383015490506126ee81612c76565b6126f88582612315565b9450506004830154905061270b81612c42565b61271585826122cd565b9450506005830154905061272881612c76565b6127328582612315565b9450506006830154905061274581612c5c565b61274f85826122e5565b94505050505050565b61276181612c29565b82525050565b61277081612c29565b82525050565b61277f81612c29565b82525050565b6000612790826124b7565b9150819050919050565b60006127a68284612682565b60e08201915081905092915050565b60006040820190506127ca600083018561233c565b6127d7602083018461233c565b9392505050565b60006060820190506127f3600083018661233c565b612800602083018561233c565b61280d6040830184612767565b949350505050565b6000602082019050818103600083015261282f818461235a565b905092915050565b600060208201905061284c60008301846123d6565b92915050565b6000602082019050818103600083015261286b816123e5565b9050919050565b6000602082019050818103600083015261288b81612408565b9050919050565b600060208201905081810360008301526128ab8161242b565b9050919050565b600060208201905081810360008301526128cb8161244e565b9050919050565b600060208201905081810360008301526128eb81612471565b9050919050565b6000602082019050818103600083015261290b81612494565b9050919050565b6000602082019050818103600083015261292b816124da565b9050919050565b6000602082019050818103600083015261294b816124fd565b9050919050565b6000602082019050818103600083015261296b81612520565b9050919050565b6000602082019050818103600083015261298b81612543565b9050919050565b600060e0820190506129a760008301846125f4565b92915050565b60006020820190506129c26000830184612767565b92915050565b60006129d26129e3565b90506129de8282612c90565b919050565b6000604051905090565b600067ffffffffffffffff821115612a0857612a07612d97565b5b612a1182612ddf565b9050602081019050919050565b6000819050602082019050919050565b600081519050919050565b6000602082019050919050565b600082825260208201905092915050565b600081905092915050565b600082825260208201905092915050565b6000612a7e82612c29565b9150612a8983612c29565b9250827fffffffffffffffffffffffffffffffffffffffffffffffffffffffffffffffff03821115612abe57612abd612d0a565b5b828201905092915050565b6000612ad482612c29565b9150612adf83612c29565b925082612aef57612aee612d39565b5b828204905092915050565b6000612b0582612c29565b9150612b1083612c29565b9250817fffffffffffffffffffffffffffffffffffffffffffffffffffffffffffffffff0483118215151615612b4957612b48612d0a565b5b828202905092915050565b6000612b5f82612c29565b9150612b6a83612c29565b925082821015612b7d57612b7c612d0a565b5b828203905092915050565b600073ffffffffffffffffffffffffffffffffffffffff82169050919050565b600060ff82169050919050565b6000819050919050565b6000612bca82612c09565b9050919050565b60008115159050919050565b60007fffffffff0000000000000000000000000000000000000000000000000000000082169050919050565b600073ffffffffffffffffffffffffffffffffffffffff82169050919050565b6000819050919050565b82818337600083830152505050565b6000612c55612c5083612df0565b612b88565b9050919050565b6000612c6f612c6a83612df0565b612ba8565b9050919050565b6000612c89612c8483612df0565b612bb5565b9050919050565b612c9982612ddf565b810181811067ffffffffffffffff82111715612cb857612cb7612d97565b5b80604052505050565b6000612ccc82612c29565b91507fffffffffffffffffffffffffffffffffffffffffffffffffffffffffffffffff821415612cff57612cfe612d0a565b5b600182019050919050565b7f4e487b7100000000000000000000000000000000000000000000000000000000600052601160045260246000fd5b7f4e487b7100000000000000000000000000000000000000000000000000000000600052601260045260246000fd5b7f4e487b7100000000000000000000000000000000000000000000000000000000600052603260045260246000fd5b7f4e487b7100000000000000000000000000000000000000000000000000000000600052604160045260246000fd5b600080fd5b600080fd5b600080fd5b600080fd5b600080fd5b6000601f19601f8301169050919050565b60008160001c9050919050565b7f4e6f7420666f756e640000000000000000000000000000000000000000000000600082015250565b7f6f726465722063616e63656c6c65640000000000000000000000000000000000600082015250565b7f4e6f7420617070726f766564206f72206f776e65722e00000000000000000000600082015250565b7f77726f6e672069642e0000000000000000000000000000000000000000000000600082015250565b7f436f73742073686f756c642062652067726561746572207468616e207a65726f60008201527f2e00000000000000000000000000000000000000000000000000000000000000602082015250565b7f546f6b656e20697320616c726561647920706c6163656420612073656c6c206f60008201527f7264657200000000000000000000000000000000000000000000000000000000602082015250565b50565b7f4e6f742073656c6c657200000000000000000000000000000000000000000000600082015250565b7f6974656d20736f6c640000000000000000000000000000000000000000000000600082015250565b7f7472616e73666572206661696c65640000000000000000000000000000000000600082015250565b7f5265656e7472616e637947756172643a207265656e7472616e742063616c6c00600082015250565b612fef81612bbf565b8114612ffa57600080fd5b50565b61300681612bd1565b811461301157600080fd5b50565b61301d81612c29565b811461302857600080fd5b5056fea26469706673582212207125755c23c66d6296f311dea87c8060093e1ea98a8a786e938a1f416f2b9b2664736f6c63430008060033",
  "immutableReferences": {},
  "source": "// SPDX-License-Identifier: MIT\r\npragma solidity ^0.8.2;\r\n\r\nimport \"@openzeppelin/contracts-upgradeable/security/ReentrancyGuardUpgradeable.sol\";\r\nimport \"@openzeppelin/contracts-upgradeable/utils/CountersUpgradeable.sol\";\r\nimport \"@openzeppelin/contracts-upgradeable/utils/math/SafeMathUpgradeable.sol\";\r\nimport \"@openzeppelin/contracts-upgradeable/token/ERC721/utils/ERC721HolderUpgradeable.sol\";\r\nimport \"../tokens/FunNFT.sol\";\r\n\r\ncontract Exchange is ReentrancyGuardUpgradeable, ERC721HolderUpgradeable {\r\n    using CountersUpgradeable for CountersUpgradeable.Counter;\r\n    using SafeMathUpgradeable for uint256;\r\n\r\n    struct Order {\r\n        uint256 id;\r\n        address seller;\r\n        address tokenAddress;\r\n        uint256 tokenId;\r\n        address buyer;\r\n        uint256 price;\r\n        bool isCancelled;\r\n    }\r\n\r\n\r\n    CountersUpgradeable.Counter internal _orderIdCounter;\r\n    CountersUpgradeable.Counter internal _orderSoldCounter;\r\n    mapping(uint256 => Order) private orders;\r\n\r\n    event New(uint256 indexed id, Order indexed order);\r\n    event Canceled(uint256 indexed id, Order indexed order);\r\n    event Sold(uint256 indexed id, Order indexed order);\r\n\r\n    constructor() {\r\n\r\n    }\r\n\r\n    modifier isValid(Order memory order) {\r\n        // seller asset\r\n        FunNFT token = FunNFT(order.tokenAddress);\r\n        address owner = token.ownerOf(order.tokenId);\r\n        require( owner == order.seller || token.isApprovedForAll(owner, order.seller) == true, \"Not approved or owner.\");\r\n\r\n        // buyer asset\r\n        require(order.price > 0, \"Cost should be greater than zero.\");\r\n\r\n        // token is already placed a sell order\r\n        require(isOpenedOrder(order.tokenAddress, order.tokenId) == false, \"Token is already placed a sell order\");\r\n        _;\r\n    }\r\n\r\n    function transferEth(address to, uint value) internal {\r\n        (bool success,) = to.call{ value: value }(\"\");\r\n        require(success, \"transfer failed\");\r\n    }\r\n\r\n    function sell(Order memory order) external nonReentrant isValid(order) {\r\n        FunNFT token = FunNFT(order.tokenAddress);\r\n\r\n        token.safeTransferFrom(order.seller, address(this), order.tokenId);\r\n\r\n        uint256 currentId = _orderIdCounter.current();\r\n\r\n        Order storage newOrder = orders[currentId];\r\n        newOrder.seller = order.seller;\r\n        newOrder.tokenAddress = order.tokenAddress;\r\n        newOrder.tokenId = order.tokenId;\r\n        newOrder.buyer =  order.buyer;\r\n        newOrder.price = order.price;\r\n        newOrder.isCancelled = order.isCancelled;\r\n        newOrder.id = currentId;\r\n\r\n        _orderIdCounter.increment();\r\n        emit New(currentId, newOrder);\r\n    }\r\n\r\n    function buy(uint256 orderId) external payable nonReentrant {\r\n        require(orderId >= 0 && orderId < _orderIdCounter.current(), \"wrong id.\");\r\n        \r\n        Order storage order = orders[orderId];\r\n        require(order.buyer == address(0), \"item sold\");\r\n        require(order.isCancelled == false, \"order cancelled\");\r\n\r\n        address buyer = msg.sender;\r\n\r\n        // transfer nft to buyer\r\n        FunNFT token = FunNFT(order.tokenAddress);\r\n        token.safeTransferFrom(address(this), buyer, order.tokenId);\r\n\r\n        // pay royalty for creator\r\n        uint256 money = order.price;\r\n        uint256 royalty = token.royaltyOf(order.tokenId);\r\n        address creator = token.creatorOf(order.tokenId);\r\n        if (royalty > 0){\r\n            uint256 temp = money.mul(royalty);\r\n            uint256 royaltyMoney = temp.div(100);\r\n            money = money.sub(royaltyMoney);\r\n            transferEth(creator, royaltyMoney);\r\n        }\r\n        \r\n        // transfer payment token from buyer to seller\r\n        transferEth(order.seller, money);\r\n\r\n        order.buyer = buyer;\r\n        _orderSoldCounter.increment();\r\n        emit Sold(orderId, order);\r\n    }\r\n\r\n    function cancel(uint256 orderId) external {\r\n        Order storage order = orders[orderId];\r\n        require(order.seller == msg.sender, \"Not seller\");\r\n        require(order.buyer == address(0), \"item sold\");\r\n\r\n        FunNFT token = FunNFT(order.tokenAddress);\r\n        token.safeTransferFrom(address(this), order.seller, order.tokenId);\r\n\r\n        orders[orderId].isCancelled = true;\r\n        emit Canceled(orderId, order);\r\n    }\r\n\r\n    /* Returns all unsold orders */\r\n    function fetchOrders() public view returns (Order[] memory) {\r\n        uint256 itemCount = _orderIdCounter.current();\r\n        uint256 unsoldItemCount = _orderIdCounter.current() - _orderSoldCounter.current();\r\n        uint256 currentIndex = 0;\r\n\r\n        Order[] memory items = new Order[](unsoldItemCount);\r\n        for (uint256 i = 0; i < itemCount; i++) {\r\n            if (orders[i].buyer == address(0) && orders[i].isCancelled == false) {\r\n                Order memory currentItem = orders[i];\r\n                items[currentIndex] = currentItem;\r\n                currentIndex += 1;\r\n            }\r\n        }\r\n        return items;\r\n    }\r\n\r\n  /* Returns only items that a user has been selling */\r\n    function fetchOrderOf(address seller) external view returns (Order[] memory) {\r\n        uint256 totalItemCount = _orderIdCounter.current();\r\n        uint256 itemCount = 0;\r\n        uint256 currentIndex = 0;\r\n\r\n        for (uint i = 0; i < totalItemCount; i++) {\r\n            if (orders[i].seller == seller && orders[i].buyer == address(0) && orders[i].isCancelled == false){\r\n                itemCount += 1;\r\n            }\r\n        }\r\n\r\n        Order[] memory items = new Order[](itemCount);\r\n        for (uint256 i = 0; i < totalItemCount; i++) {\r\n            if (orders[i].seller == seller && orders[i].buyer == address(0) && orders[i].isCancelled == false) {\r\n                Order memory currentItem = orders[i];\r\n                items[currentIndex] = currentItem;\r\n                currentIndex += 1;\r\n            }\r\n        }\r\n        return items;\r\n    }\r\n\r\n    /* Returns only items in a collection that had being selling */\r\n    function fetchOrderOfCollection(address collection) external view returns (Order[] memory) {\r\n        uint256 totalItemCount = _orderIdCounter.current();\r\n        uint256 itemCount = 0;\r\n        uint256 currentIndex = 0;\r\n\r\n        for (uint i = 0; i < totalItemCount; i++) {\r\n            if (orders[i].tokenAddress == collection && orders[i].buyer == address(0)){\r\n                itemCount += 1;\r\n            }\r\n        }\r\n\r\n        Order[] memory items = new Order[](itemCount);\r\n        for (uint256 i = 0; i < totalItemCount; i++) {\r\n            if (orders[i].tokenAddress == collection && orders[i].buyer == address(0)) {\r\n                Order memory currentItem = orders[i];\r\n                items[currentIndex] = currentItem;\r\n                currentIndex += 1;\r\n            }\r\n        }\r\n        return items;\r\n    }\r\n\r\n    function isOpenedOrder(address tokenAddress, uint256 tokenId) internal view returns(bool){\r\n        uint256 totalItemCount = _orderIdCounter.current();\r\n        uint256 index = totalItemCount;\r\n\r\n        for(uint256 i = 0; i < totalItemCount; i++){\r\n            if (orders[i].tokenAddress == tokenAddress && orders[i].tokenId == tokenId)\r\n            {\r\n                index = i;\r\n            }\r\n        }\r\n        if (index < totalItemCount && orders[index].buyer == address(0) && orders[index].isCancelled == false){\r\n            return true;\r\n        }\r\n        return false;\r\n    }\r\n\r\n    function getNewestOrderOf(address tokenAddress, uint256 tokenId) external view returns(Order memory){\r\n        uint256 totalItemCount = _orderIdCounter.current();\r\n        uint256 index = totalItemCount;\r\n\r\n        for(uint256 i = 0; i < totalItemCount; i++){\r\n            if (orders[i].tokenAddress == tokenAddress && orders[i].tokenId == tokenId)\r\n            {\r\n                index = i;\r\n            }\r\n        }\r\n        if (index < totalItemCount && orders[index].buyer == address(0) && orders[index].isCancelled == false){\r\n            return orders[index];\r\n        }\r\n        revert(\"Not found\");\r\n    }\r\n}",
  "sourcePath": "E:/LamViec/fun-exchange/contracts/exchange/Exchange.sol",
  "compiler": {
    "name": "solc",
    "version": "0.8.6+commit.11564f7e.Emscripten.clang"
  },
  "schemaVersion": "3.3.4",
  "updatedAt": "2021-12-18T13:15:36.463Z",
  "networkType": "ethereum",
  "devdoc": {
    "kind": "dev",
    "methods": {
      "onERC721Received(address,address,uint256,bytes)": {
        "details": "See {IERC721Receiver-onERC721Received}. Always returns `IERC721Receiver.onERC721Received.selector`."
      }
    },
    "version": 1
  },
  "userdoc": {
    "kind": "user",
    "methods": {},
    "version": 1
  }
}