{
  "contractName": "Exchange",
  "abi": [
    {
      "inputs": [],
      "stateMutability": "nonpayable",
      "type": "constructor"
    },
    {
      "anonymous": false,
      "inputs": [
        {
          "indexed": true,
          "internalType": "uint256",
          "name": "id",
          "type": "uint256"
        },
        {
          "components": [
            {
              "internalType": "uint256",
              "name": "id",
              "type": "uint256"
            },
            {
              "internalType": "address",
              "name": "seller",
              "type": "address"
            },
            {
              "internalType": "address",
              "name": "tokenAddress",
              "type": "address"
            },
            {
              "internalType": "uint256",
              "name": "tokenId",
              "type": "uint256"
            },
            {
              "internalType": "address",
              "name": "buyer",
              "type": "address"
            },
            {
              "internalType": "uint256",
              "name": "price",
              "type": "uint256"
            },
            {
              "internalType": "bool",
              "name": "isCancelled",
              "type": "bool"
            }
          ],
          "indexed": true,
          "internalType": "struct Exchange.Order",
          "name": "order",
          "type": "tuple"
        }
      ],
      "name": "Canceled",
      "type": "event"
    },
    {
      "anonymous": false,
      "inputs": [
        {
          "indexed": true,
          "internalType": "uint256",
          "name": "id",
          "type": "uint256"
        },
        {
          "components": [
            {
              "internalType": "uint256",
              "name": "id",
              "type": "uint256"
            },
            {
              "internalType": "address",
              "name": "seller",
              "type": "address"
            },
            {
              "internalType": "address",
              "name": "tokenAddress",
              "type": "address"
            },
            {
              "internalType": "uint256",
              "name": "tokenId",
              "type": "uint256"
            },
            {
              "internalType": "address",
              "name": "buyer",
              "type": "address"
            },
            {
              "internalType": "uint256",
              "name": "price",
              "type": "uint256"
            },
            {
              "internalType": "bool",
              "name": "isCancelled",
              "type": "bool"
            }
          ],
          "indexed": true,
          "internalType": "struct Exchange.Order",
          "name": "order",
          "type": "tuple"
        }
      ],
      "name": "New",
      "type": "event"
    },
    {
      "anonymous": false,
      "inputs": [
        {
          "indexed": true,
          "internalType": "uint256",
          "name": "id",
          "type": "uint256"
        },
        {
          "components": [
            {
              "internalType": "uint256",
              "name": "id",
              "type": "uint256"
            },
            {
              "internalType": "address",
              "name": "seller",
              "type": "address"
            },
            {
              "internalType": "address",
              "name": "tokenAddress",
              "type": "address"
            },
            {
              "internalType": "uint256",
              "name": "tokenId",
              "type": "uint256"
            },
            {
              "internalType": "address",
              "name": "buyer",
              "type": "address"
            },
            {
              "internalType": "uint256",
              "name": "price",
              "type": "uint256"
            },
            {
              "internalType": "bool",
              "name": "isCancelled",
              "type": "bool"
            }
          ],
          "indexed": true,
          "internalType": "struct Exchange.Order",
          "name": "order",
          "type": "tuple"
        }
      ],
      "name": "Sold",
      "type": "event"
    },
    {
      "inputs": [
        {
          "internalType": "address",
          "name": "",
          "type": "address"
        },
        {
          "internalType": "address",
          "name": "",
          "type": "address"
        },
        {
          "internalType": "uint256",
          "name": "",
          "type": "uint256"
        },
        {
          "internalType": "bytes",
          "name": "",
          "type": "bytes"
        }
      ],
      "name": "onERC721Received",
      "outputs": [
        {
          "internalType": "bytes4",
          "name": "",
          "type": "bytes4"
        }
      ],
      "stateMutability": "nonpayable",
      "type": "function"
    },
    {
      "inputs": [
        {
          "components": [
            {
              "internalType": "uint256",
              "name": "id",
              "type": "uint256"
            },
            {
              "internalType": "address",
              "name": "seller",
              "type": "address"
            },
            {
              "internalType": "address",
              "name": "tokenAddress",
              "type": "address"
            },
            {
              "internalType": "uint256",
              "name": "tokenId",
              "type": "uint256"
            },
            {
              "internalType": "address",
              "name": "buyer",
              "type": "address"
            },
            {
              "internalType": "uint256",
              "name": "price",
              "type": "uint256"
            },
            {
              "internalType": "bool",
              "name": "isCancelled",
              "type": "bool"
            }
          ],
          "internalType": "struct Exchange.Order",
          "name": "order",
          "type": "tuple"
        }
      ],
      "name": "sell",
      "outputs": [],
      "stateMutability": "nonpayable",
      "type": "function"
    },
    {
      "inputs": [
        {
          "internalType": "uint256",
          "name": "orderId",
          "type": "uint256"
        }
      ],
      "name": "buy",
      "outputs": [],
      "stateMutability": "payable",
      "type": "function",
      "payable": true
    },
    {
      "inputs": [
        {
          "internalType": "uint256",
          "name": "orderId",
          "type": "uint256"
        }
      ],
      "name": "cancel",
      "outputs": [],
      "stateMutability": "nonpayable",
      "type": "function"
    },
    {
      "inputs": [],
      "name": "fetchOrders",
      "outputs": [
        {
          "components": [
            {
              "internalType": "uint256",
              "name": "id",
              "type": "uint256"
            },
            {
              "internalType": "address",
              "name": "seller",
              "type": "address"
            },
            {
              "internalType": "address",
              "name": "tokenAddress",
              "type": "address"
            },
            {
              "internalType": "uint256",
              "name": "tokenId",
              "type": "uint256"
            },
            {
              "internalType": "address",
              "name": "buyer",
              "type": "address"
            },
            {
              "internalType": "uint256",
              "name": "price",
              "type": "uint256"
            },
            {
              "internalType": "bool",
              "name": "isCancelled",
              "type": "bool"
            }
          ],
          "internalType": "struct Exchange.Order[]",
          "name": "",
          "type": "tuple[]"
        }
      ],
      "stateMutability": "view",
      "type": "function",
      "constant": true
    },
    {
      "inputs": [
        {
          "internalType": "address",
          "name": "seller",
          "type": "address"
        }
      ],
      "name": "fetchOrderOf",
      "outputs": [
        {
          "components": [
            {
              "internalType": "uint256",
              "name": "id",
              "type": "uint256"
            },
            {
              "internalType": "address",
              "name": "seller",
              "type": "address"
            },
            {
              "internalType": "address",
              "name": "tokenAddress",
              "type": "address"
            },
            {
              "internalType": "uint256",
              "name": "tokenId",
              "type": "uint256"
            },
            {
              "internalType": "address",
              "name": "buyer",
              "type": "address"
            },
            {
              "internalType": "uint256",
              "name": "price",
              "type": "uint256"
            },
            {
              "internalType": "bool",
              "name": "isCancelled",
              "type": "bool"
            }
          ],
          "internalType": "struct Exchange.Order[]",
          "name": "",
          "type": "tuple[]"
        }
      ],
      "stateMutability": "view",
      "type": "function",
      "constant": true
    },
    {
      "inputs": [
        {
          "internalType": "address",
          "name": "collection",
          "type": "address"
        }
      ],
      "name": "fetchOrderOfCollection",
      "outputs": [
        {
          "components": [
            {
              "internalType": "uint256",
              "name": "id",
              "type": "uint256"
            },
            {
              "internalType": "address",
              "name": "seller",
              "type": "address"
            },
            {
              "internalType": "address",
              "name": "tokenAddress",
              "type": "address"
            },
            {
              "internalType": "uint256",
              "name": "tokenId",
              "type": "uint256"
            },
            {
              "internalType": "address",
              "name": "buyer",
              "type": "address"
            },
            {
              "internalType": "uint256",
              "name": "price",
              "type": "uint256"
            },
            {
              "internalType": "bool",
              "name": "isCancelled",
              "type": "bool"
            }
          ],
          "internalType": "struct Exchange.Order[]",
          "name": "",
          "type": "tuple[]"
        }
      ],
      "stateMutability": "view",
      "type": "function",
      "constant": true
    },
    {
      "inputs": [
        {
          "internalType": "address",
          "name": "tokenAddress",
          "type": "address"
        },
        {
          "internalType": "uint256",
          "name": "tokenId",
          "type": "uint256"
        }
      ],
      "name": "getNewestOrderOf",
      "outputs": [
        {
          "components": [
            {
              "internalType": "uint256",
              "name": "id",
              "type": "uint256"
            },
            {
              "internalType": "address",
              "name": "seller",
              "type": "address"
            },
            {
              "internalType": "address",
              "name": "tokenAddress",
              "type": "address"
            },
            {
              "internalType": "uint256",
              "name": "tokenId",
              "type": "uint256"
            },
            {
              "internalType": "address",
              "name": "buyer",
              "type": "address"
            },
            {
              "internalType": "uint256",
              "name": "price",
              "type": "uint256"
            },
            {
              "internalType": "bool",
              "name": "isCancelled",
              "type": "bool"
            }
          ],
          "internalType": "struct Exchange.Order",
          "name": "",
          "type": "tuple"
        }
      ],
      "stateMutability": "view",
      "type": "function",
      "constant": true
    }
  ],
  "bytecode": "0x608060405234801561001057600080fd5b5061302e806100206000396000f3fe60806040526004361061007b5760003560e01c80639bdb6e391161004e5780639bdb6e391461014e578063a8a494f21461018b578063d6eb8cd4146101c8578063d96a094a146101f15761007b565b80630809754914610080578063150b7a02146100ab578063375424ed146100e857806340e58ee514610125575b600080fd5b34801561008c57600080fd5b5061009561020d565b6040516100a291906127e2565b60405180910390f35b3480156100b757600080fd5b506100d260048036038101906100cd9190612123565b6104b9565b6040516100df9190612804565b60405180910390f35b3480156100f457600080fd5b5061010f600480360381019061010a91906120c9565b6104cd565b60405161011c91906127e2565b60405180910390f35b34801561013157600080fd5b5061014c60048036038101906101479190612240565b610935565b005b34801561015a57600080fd5b50610175600480360381019061017091906121a6565b610ba8565b604051610182919061295f565b60405180910390f35b34801561019757600080fd5b506101b260048036038101906101ad91906120c9565b610ebd565b6040516101bf91906127e2565b60405180910390f35b3480156101d457600080fd5b506101ef60048036038101906101ea9190612213565b6112bf565b005b61020b60048036038101906102069190612240565b611770565b005b6060600061021b6065611c0c565b905060006102296066611c0c565b6102336065611c0c565b61023d9190612b21565b90506000808267ffffffffffffffff81111561025c5761025b612d64565b5b60405190808252806020026020018201604052801561029557816020015b610282611ea6565b81526020019060019003908161027a5790505b50905060005b848110156104ae57600073ffffffffffffffffffffffffffffffffffffffff166067600083815260200190815260200160002060040160009054906101000a900473ffffffffffffffffffffffffffffffffffffffff1673ffffffffffffffffffffffffffffffffffffffff16141561049b576000606760008381526020019081526020016000206040518060e0016040529081600082015481526020016001820160009054906101000a900473ffffffffffffffffffffffffffffffffffffffff1673ffffffffffffffffffffffffffffffffffffffff1673ffffffffffffffffffffffffffffffffffffffff1681526020016002820160009054906101000a900473ffffffffffffffffffffffffffffffffffffffff1673ffffffffffffffffffffffffffffffffffffffff1673ffffffffffffffffffffffffffffffffffffffff168152602001600382015481526020016004820160009054906101000a900473ffffffffffffffffffffffffffffffffffffffff1673ffffffffffffffffffffffffffffffffffffffff1673ffffffffffffffffffffffffffffffffffffffff168152602001600582015481526020016006820160009054906101000a900460ff16151515158152505090508083858151811061047f5761047e612d35565b5b60200260200101819052506001846104979190612a40565b9350505b80806104a690612c8e565b91505061029b565b508094505050505090565b600063150b7a0260e01b9050949350505050565b606060006104db6065611c0c565b905060008060005b83811015610619578573ffffffffffffffffffffffffffffffffffffffff166067600083815260200190815260200160002060010160009054906101000a900473ffffffffffffffffffffffffffffffffffffffff1673ffffffffffffffffffffffffffffffffffffffff161480156105be5750600073ffffffffffffffffffffffffffffffffffffffff166067600083815260200190815260200160002060040160009054906101000a900473ffffffffffffffffffffffffffffffffffffffff1673ffffffffffffffffffffffffffffffffffffffff16145b80156105f15750600015156067600083815260200190815260200160002060060160009054906101000a900460ff161515145b15610606576001836106039190612a40565b92505b808061061190612c8e565b9150506104e3565b5060008267ffffffffffffffff81111561063657610635612d64565b5b60405190808252806020026020018201604052801561066f57816020015b61065c611ea6565b8152602001906001900390816106545790505b50905060005b84811015610928578673ffffffffffffffffffffffffffffffffffffffff166067600083815260200190815260200160002060010160009054906101000a900473ffffffffffffffffffffffffffffffffffffffff1673ffffffffffffffffffffffffffffffffffffffff161480156107505750600073ffffffffffffffffffffffffffffffffffffffff166067600083815260200190815260200160002060040160009054906101000a900473ffffffffffffffffffffffffffffffffffffffff1673ffffffffffffffffffffffffffffffffffffffff16145b80156107835750600015156067600083815260200190815260200160002060060160009054906101000a900460ff161515145b15610915576000606760008381526020019081526020016000206040518060e0016040529081600082015481526020016001820160009054906101000a900473ffffffffffffffffffffffffffffffffffffffff1673ffffffffffffffffffffffffffffffffffffffff1673ffffffffffffffffffffffffffffffffffffffff1681526020016002820160009054906101000a900473ffffffffffffffffffffffffffffffffffffffff1673ffffffffffffffffffffffffffffffffffffffff1673ffffffffffffffffffffffffffffffffffffffff168152602001600382015481526020016004820160009054906101000a900473ffffffffffffffffffffffffffffffffffffffff1673ffffffffffffffffffffffffffffffffffffffff1673ffffffffffffffffffffffffffffffffffffffff168152602001600582015481526020016006820160009054906101000a900460ff1615151515815250509050808385815181106108f9576108f8612d35565b5b60200260200101819052506001846109119190612a40565b9350505b808061092090612c8e565b915050610675565b5080945050505050919050565b60006067600083815260200190815260200160002090503373ffffffffffffffffffffffffffffffffffffffff168160010160009054906101000a900473ffffffffffffffffffffffffffffffffffffffff1673ffffffffffffffffffffffffffffffffffffffff16146109de576040517f08c379a00000000000000000000000000000000000000000000000000000000081526004016109d5906128df565b60405180910390fd5b600073ffffffffffffffffffffffffffffffffffffffff168160040160009054906101000a900473ffffffffffffffffffffffffffffffffffffffff1673ffffffffffffffffffffffffffffffffffffffff1614610a71576040517f08c379a0000000000000000000000000000000000000000000000000000000008152600401610a68906128ff565b60405180910390fd5b60008160020160009054906101000a900473ffffffffffffffffffffffffffffffffffffffff1690508073ffffffffffffffffffffffffffffffffffffffff166342842e0e308460010160009054906101000a900473ffffffffffffffffffffffffffffffffffffffff1685600301546040518463ffffffff1660e01b8152600401610aff939291906127ab565b600060405180830381600087803b158015610b1957600080fd5b505af1158015610b2d573d6000803e3d6000fd5b5050505060016067600085815260200190815260200160002060060160006101000a81548160ff02191690831515021790555081604051610b6e9190612767565b6040518091039020837f3a9016bc75959eb422c476afaae1b780aba46c930e2d25dc296890f6ed0fbf9b60405160405180910390a3505050565b610bb0611ea6565b6000610bbc6065611c0c565b9050600081905060005b82811015610c70578573ffffffffffffffffffffffffffffffffffffffff166067600083815260200190815260200160002060020160009054906101000a900473ffffffffffffffffffffffffffffffffffffffff1673ffffffffffffffffffffffffffffffffffffffff16148015610c545750846067600083815260200190815260200160002060030154145b15610c5d578091505b8080610c6890612c8e565b915050610bc6565b508181108015610ce25750600073ffffffffffffffffffffffffffffffffffffffff166067600083815260200190815260200160002060040160009054906101000a900473ffffffffffffffffffffffffffffffffffffffff1673ffffffffffffffffffffffffffffffffffffffff16145b8015610d155750600015156067600083815260200190815260200160002060060160009054906101000a900460ff161515145b15610e7c57606760008281526020019081526020016000206040518060e0016040529081600082015481526020016001820160009054906101000a900473ffffffffffffffffffffffffffffffffffffffff1673ffffffffffffffffffffffffffffffffffffffff1673ffffffffffffffffffffffffffffffffffffffff1681526020016002820160009054906101000a900473ffffffffffffffffffffffffffffffffffffffff1673ffffffffffffffffffffffffffffffffffffffff1673ffffffffffffffffffffffffffffffffffffffff168152602001600382015481526020016004820160009054906101000a900473ffffffffffffffffffffffffffffffffffffffff1673ffffffffffffffffffffffffffffffffffffffff1673ffffffffffffffffffffffffffffffffffffffff168152602001600582015481526020016006820160009054906101000a900460ff16151515158152505092505050610eb7565b6040517f08c379a0000000000000000000000000000000000000000000000000000000008152600401610eae9061281f565b60405180910390fd5b92915050565b60606000610ecb6065611c0c565b905060008060005b83811015610fd6578573ffffffffffffffffffffffffffffffffffffffff166067600083815260200190815260200160002060020160009054906101000a900473ffffffffffffffffffffffffffffffffffffffff1673ffffffffffffffffffffffffffffffffffffffff16148015610fae5750600073ffffffffffffffffffffffffffffffffffffffff166067600083815260200190815260200160002060040160009054906101000a900473ffffffffffffffffffffffffffffffffffffffff1673ffffffffffffffffffffffffffffffffffffffff16145b15610fc357600183610fc09190612a40565b92505b8080610fce90612c8e565b915050610ed3565b5060008267ffffffffffffffff811115610ff357610ff2612d64565b5b60405190808252806020026020018201604052801561102c57816020015b611019611ea6565b8152602001906001900390816110115790505b50905060005b848110156112b2578673ffffffffffffffffffffffffffffffffffffffff166067600083815260200190815260200160002060020160009054906101000a900473ffffffffffffffffffffffffffffffffffffffff1673ffffffffffffffffffffffffffffffffffffffff1614801561110d5750600073ffffffffffffffffffffffffffffffffffffffff166067600083815260200190815260200160002060040160009054906101000a900473ffffffffffffffffffffffffffffffffffffffff1673ffffffffffffffffffffffffffffffffffffffff16145b1561129f576000606760008381526020019081526020016000206040518060e0016040529081600082015481526020016001820160009054906101000a900473ffffffffffffffffffffffffffffffffffffffff1673ffffffffffffffffffffffffffffffffffffffff1673ffffffffffffffffffffffffffffffffffffffff1681526020016002820160009054906101000a900473ffffffffffffffffffffffffffffffffffffffff1673ffffffffffffffffffffffffffffffffffffffff1673ffffffffffffffffffffffffffffffffffffffff168152602001600382015481526020016004820160009054906101000a900473ffffffffffffffffffffffffffffffffffffffff1673ffffffffffffffffffffffffffffffffffffffff1673ffffffffffffffffffffffffffffffffffffffff168152602001600582015481526020016006820160009054906101000a900460ff16151515158152505090508083858151811061128357611282612d35565b5b602002602001018190525060018461129b9190612a40565b9350505b80806112aa90612c8e565b915050611032565b5080945050505050919050565b60026001541415611305576040517f08c379a00000000000000000000000000000000000000000000000000000000081526004016112fc9061293f565b60405180910390fd5b60026001819055508060008160400151905060008173ffffffffffffffffffffffffffffffffffffffff16636352211e84606001516040518263ffffffff1660e01b8152600401611356919061297a565b60206040518083038186803b15801561136e57600080fd5b505afa158015611382573d6000803e3d6000fd5b505050506040513d601f19601f820116820180604052508101906113a691906120f6565b9050826020015173ffffffffffffffffffffffffffffffffffffffff168173ffffffffffffffffffffffffffffffffffffffff1614806114785750600115158273ffffffffffffffffffffffffffffffffffffffff1663e985e9c58386602001516040518363ffffffff1660e01b8152600401611424929190612782565b60206040518083038186803b15801561143c57600080fd5b505afa158015611450573d6000803e3d6000fd5b505050506040513d601f19601f8201168201806040525081019061147491906121e6565b1515145b6114b7576040517f08c379a00000000000000000000000000000000000000000000000000000000081526004016114ae9061285f565b60405180910390fd5b60008360a00151116114fe576040517f08c379a00000000000000000000000000000000000000000000000000000000081526004016114f59061289f565b60405180910390fd5b6000151561151484604001518560600151611c1a565b151514611556576040517f08c379a000000000000000000000000000000000000000000000000000000000815260040161154d906128bf565b60405180910390fd5b6000846040015190508073ffffffffffffffffffffffffffffffffffffffff166342842e0e86602001513088606001516040518463ffffffff1660e01b81526004016115a4939291906127ab565b600060405180830381600087803b1580156115be57600080fd5b505af11580156115d2573d6000803e3d6000fd5b5050505060006115e26065611c0c565b9050600060676000838152602001908152602001600020905086602001518160010160006101000a81548173ffffffffffffffffffffffffffffffffffffffff021916908373ffffffffffffffffffffffffffffffffffffffff16021790555086604001518160020160006101000a81548173ffffffffffffffffffffffffffffffffffffffff021916908373ffffffffffffffffffffffffffffffffffffffff1602179055508660600151816003018190555086608001518160040160006101000a81548173ffffffffffffffffffffffffffffffffffffffff021916908373ffffffffffffffffffffffffffffffffffffffff1602179055508660a0015181600501819055508660c001518160060160006101000a81548160ff02191690831515021790555081816000018190555061171d6065611d9d565b8060405161172b9190612767565b6040518091039020827f5948935a5666e1fb19d00d3ce1cd7f14dcb80dc22ca3688f5a4700352b02b4ef60405160405180910390a35050505050506001808190555050565b600260015414156117b6576040517f08c379a00000000000000000000000000000000000000000000000000000000081526004016117ad9061293f565b60405180910390fd5b6002600181905550600081101580156117d757506117d46065611c0c565b81105b611816576040517f08c379a000000000000000000000000000000000000000000000000000000000815260040161180d9061287f565b60405180910390fd5b6000606760008381526020019081526020016000209050600073ffffffffffffffffffffffffffffffffffffffff168160040160009054906101000a900473ffffffffffffffffffffffffffffffffffffffff1673ffffffffffffffffffffffffffffffffffffffff16146118c0576040517f08c379a00000000000000000000000000000000000000000000000000000000081526004016118b7906128ff565b60405180910390fd5b600015158160060160009054906101000a900460ff16151514611918576040517f08c379a000000000000000000000000000000000000000000000000000000000815260040161190f9061283f565b60405180910390fd5b600033905060008260020160009054906101000a900473ffffffffffffffffffffffffffffffffffffffff1690508073ffffffffffffffffffffffffffffffffffffffff166342842e0e308486600301546040518463ffffffff1660e01b8152600401611987939291906127ab565b600060405180830381600087803b1580156119a157600080fd5b505af11580156119b5573d6000803e3d6000fd5b5050505060008360050154905060008273ffffffffffffffffffffffffffffffffffffffff1663d26509b186600301546040518263ffffffff1660e01b8152600401611a01919061297a565b60206040518083038186803b158015611a1957600080fd5b505afa158015611a2d573d6000803e3d6000fd5b505050506040513d601f19601f82011682018060405250810190611a51919061226d565b905060008373ffffffffffffffffffffffffffffffffffffffff1663589a174387600301546040518263ffffffff1660e01b8152600401611a92919061297a565b60206040518083038186803b158015611aaa57600080fd5b505afa158015611abe573d6000803e3d6000fd5b505050506040513d601f19601f82011682018060405250810190611ae291906120f6565b90506000821115611b3e576000611b028385611db390919063ffffffff16565b90506000611b1a606483611dc990919063ffffffff16565b9050611b2f8186611ddf90919063ffffffff16565b9450611b3b8382611df5565b50505b611b6c8660010160009054906101000a900473ffffffffffffffffffffffffffffffffffffffff1684611df5565b848660040160006101000a81548173ffffffffffffffffffffffffffffffffffffffff021916908373ffffffffffffffffffffffffffffffffffffffff160217905550611bb96066611d9d565b85604051611bc79190612767565b6040518091039020877f1d401a56dc9496884f8acfc3564cc3a9161e400b5867b492b2a2e21a29cf9c4360405160405180910390a35050505050506001808190555050565b600081600001549050919050565b600080611c276065611c0c565b9050600081905060005b82811015611cdb578573ffffffffffffffffffffffffffffffffffffffff166067600083815260200190815260200160002060020160009054906101000a900473ffffffffffffffffffffffffffffffffffffffff1673ffffffffffffffffffffffffffffffffffffffff16148015611cbf5750846067600083815260200190815260200160002060030154145b15611cc8578091505b8080611cd390612c8e565b915050611c31565b508181108015611d4d5750600073ffffffffffffffffffffffffffffffffffffffff166067600083815260200190815260200160002060040160009054906101000a900473ffffffffffffffffffffffffffffffffffffffff1673ffffffffffffffffffffffffffffffffffffffff16145b8015611d805750600015156067600083815260200190815260200160002060060160009054906101000a900460ff161515145b15611d9057600192505050611d97565b6000925050505b92915050565b6001816000016000828254019250508190555050565b60008183611dc19190612ac7565b905092915050565b60008183611dd79190612a96565b905092915050565b60008183611ded9190612b21565b905092915050565b60008273ffffffffffffffffffffffffffffffffffffffff1682604051611e1b90612752565b60006040518083038185875af1925050503d8060008114611e58576040519150601f19603f3d011682016040523d82523d6000602084013e611e5d565b606091505b5050905080611ea1576040517f08c379a0000000000000000000000000000000000000000000000000000000008152600401611e989061291f565b60405180910390fd5b505050565b6040518060e0016040528060008152602001600073ffffffffffffffffffffffffffffffffffffffff168152602001600073ffffffffffffffffffffffffffffffffffffffff16815260200160008152602001600073ffffffffffffffffffffffffffffffffffffffff168152602001600081526020016000151581525090565b6000611f3a611f35846129ba565b612995565b905082815260208101848484011115611f5657611f55612d9d565b5b611f61848285612c00565b509392505050565b600081359050611f7881612fb3565b92915050565b600081519050611f8d81612fb3565b92915050565b600081359050611fa281612fca565b92915050565b600081519050611fb781612fca565b92915050565b600082601f830112611fd257611fd1612d93565b5b8135611fe2848260208601611f27565b91505092915050565b600060e0828403121561200157612000612d98565b5b61200b60e0612995565b9050600061201b8482850161209f565b600083015250602061202f84828501611f69565b602083015250604061204384828501611f69565b60408301525060606120578482850161209f565b606083015250608061206b84828501611f69565b60808301525060a061207f8482850161209f565b60a08301525060c061209384828501611f93565b60c08301525092915050565b6000813590506120ae81612fe1565b92915050565b6000815190506120c381612fe1565b92915050565b6000602082840312156120df576120de612da7565b5b60006120ed84828501611f69565b91505092915050565b60006020828403121561210c5761210b612da7565b5b600061211a84828501611f7e565b91505092915050565b6000806000806080858703121561213d5761213c612da7565b5b600061214b87828801611f69565b945050602061215c87828801611f69565b935050604061216d8782880161209f565b925050606085013567ffffffffffffffff81111561218e5761218d612da2565b5b61219a87828801611fbd565b91505092959194509250565b600080604083850312156121bd576121bc612da7565b5b60006121cb85828601611f69565b92505060206121dc8582860161209f565b9150509250929050565b6000602082840312156121fc576121fb612da7565b5b600061220a84828501611fa8565b91505092915050565b600060e0828403121561222957612228612da7565b5b600061223784828501611feb565b91505092915050565b60006020828403121561225657612255612da7565b5b60006122648482850161209f565b91505092915050565b60006020828403121561228357612282612da7565b5b6000612291848285016120b4565b91505092915050565b60006122a68383612318565b60208301905092915050565b60006122be8383612394565b60208301905092915050565b60006122d68383612533565b60e08301905092915050565b60006122ee8383612743565b60208301905092915050565b61230381612b8c565b82525050565b61231281612b8c565b82525050565b61232181612b8c565b82525050565b6000612332826129fb565b61233c8185612a13565b9350612347836129eb565b8060005b8381101561237857815161235f88826122ca565b975061236a83612a06565b92505060018101905061234b565b5085935050505092915050565b61238e81612b9e565b82525050565b61239d81612b9e565b82525050565b6123ac81612baa565b82525050565b60006123bf600983612a2f565b91506123ca82612dca565b602082019050919050565b60006123e2600f83612a2f565b91506123ed82612df3565b602082019050919050565b6000612405601683612a2f565b915061241082612e1c565b602082019050919050565b6000612428600983612a2f565b915061243382612e45565b602082019050919050565b600061244b602183612a2f565b915061245682612e6e565b604082019050919050565b600061246e602483612a2f565b915061247982612ebd565b604082019050919050565b6000612491600083612a24565b915061249c82612f0c565b600082019050919050565b60006124b4600a83612a2f565b91506124bf82612f0f565b602082019050919050565b60006124d7600983612a2f565b91506124e282612f38565b602082019050919050565b60006124fa600f83612a2f565b915061250582612f61565b602082019050919050565b600061251d601f83612a2f565b915061252882612f8a565b602082019050919050565b60e0820160008201516125496000850182612725565b50602082015161255c60208501826122fa565b50604082015161256f60408501826122fa565b5060608201516125826060850182612725565b50608082015161259560808501826122fa565b5060a08201516125a860a0850182612725565b5060c08201516125bb60c0850182612385565b50505050565b60e0820160008201516125d76000850182612725565b5060208201516125ea60208501826122fa565b5060408201516125fd60408501826122fa565b5060608201516126106060850182612725565b50608082015161262360808501826122fa565b5060a082015161263660a0850182612725565b5060c082015161264960c0850182612385565b50505050565b60008201600080830154905061266481612c43565b61266e85826122e2565b9450506001830154905061268181612c0f565b61268b858261229a565b9450506002830154905061269e81612c0f565b6126a8858261229a565b945050600383015490506126bb81612c43565b6126c585826122e2565b945050600483015490506126d881612c0f565b6126e2858261229a565b945050600583015490506126f581612c43565b6126ff85826122e2565b9450506006830154905061271281612c29565b61271c85826122b2565b94505050505050565b61272e81612bf6565b82525050565b61273d81612bf6565b82525050565b61274c81612bf6565b82525050565b600061275d82612484565b9150819050919050565b6000612773828461264f565b60e08201915081905092915050565b60006040820190506127976000830185612309565b6127a46020830184612309565b9392505050565b60006060820190506127c06000830186612309565b6127cd6020830185612309565b6127da6040830184612734565b949350505050565b600060208201905081810360008301526127fc8184612327565b905092915050565b600060208201905061281960008301846123a3565b92915050565b60006020820190508181036000830152612838816123b2565b9050919050565b60006020820190508181036000830152612858816123d5565b9050919050565b60006020820190508181036000830152612878816123f8565b9050919050565b600060208201905081810360008301526128988161241b565b9050919050565b600060208201905081810360008301526128b88161243e565b9050919050565b600060208201905081810360008301526128d881612461565b9050919050565b600060208201905081810360008301526128f8816124a7565b9050919050565b60006020820190508181036000830152612918816124ca565b9050919050565b60006020820190508181036000830152612938816124ed565b9050919050565b6000602082019050818103600083015261295881612510565b9050919050565b600060e08201905061297460008301846125c1565b92915050565b600060208201905061298f6000830184612734565b92915050565b600061299f6129b0565b90506129ab8282612c5d565b919050565b6000604051905090565b600067ffffffffffffffff8211156129d5576129d4612d64565b5b6129de82612dac565b9050602081019050919050565b6000819050602082019050919050565b600081519050919050565b6000602082019050919050565b600082825260208201905092915050565b600081905092915050565b600082825260208201905092915050565b6000612a4b82612bf6565b9150612a5683612bf6565b9250827fffffffffffffffffffffffffffffffffffffffffffffffffffffffffffffffff03821115612a8b57612a8a612cd7565b5b828201905092915050565b6000612aa182612bf6565b9150612aac83612bf6565b925082612abc57612abb612d06565b5b828204905092915050565b6000612ad282612bf6565b9150612add83612bf6565b9250817fffffffffffffffffffffffffffffffffffffffffffffffffffffffffffffffff0483118215151615612b1657612b15612cd7565b5b828202905092915050565b6000612b2c82612bf6565b9150612b3783612bf6565b925082821015612b4a57612b49612cd7565b5b828203905092915050565b600073ffffffffffffffffffffffffffffffffffffffff82169050919050565b600060ff82169050919050565b6000819050919050565b6000612b9782612bd6565b9050919050565b60008115159050919050565b60007fffffffff0000000000000000000000000000000000000000000000000000000082169050919050565b600073ffffffffffffffffffffffffffffffffffffffff82169050919050565b6000819050919050565b82818337600083830152505050565b6000612c22612c1d83612dbd565b612b55565b9050919050565b6000612c3c612c3783612dbd565b612b75565b9050919050565b6000612c56612c5183612dbd565b612b82565b9050919050565b612c6682612dac565b810181811067ffffffffffffffff82111715612c8557612c84612d64565b5b80604052505050565b6000612c9982612bf6565b91507fffffffffffffffffffffffffffffffffffffffffffffffffffffffffffffffff821415612ccc57612ccb612cd7565b5b600182019050919050565b7f4e487b7100000000000000000000000000000000000000000000000000000000600052601160045260246000fd5b7f4e487b7100000000000000000000000000000000000000000000000000000000600052601260045260246000fd5b7f4e487b7100000000000000000000000000000000000000000000000000000000600052603260045260246000fd5b7f4e487b7100000000000000000000000000000000000000000000000000000000600052604160045260246000fd5b600080fd5b600080fd5b600080fd5b600080fd5b600080fd5b6000601f19601f8301169050919050565b60008160001c9050919050565b7f4e6f7420666f756e640000000000000000000000000000000000000000000000600082015250565b7f6f726465722063616e63656c6c65640000000000000000000000000000000000600082015250565b7f4e6f7420617070726f766564206f72206f776e65722e00000000000000000000600082015250565b7f77726f6e672069642e0000000000000000000000000000000000000000000000600082015250565b7f436f73742073686f756c642062652067726561746572207468616e207a65726f60008201527f2e00000000000000000000000000000000000000000000000000000000000000602082015250565b7f546f6b656e20697320616c726561647920706c6163656420612073656c6c206f60008201527f7264657200000000000000000000000000000000000000000000000000000000602082015250565b50565b7f4e6f742073656c6c657200000000000000000000000000000000000000000000600082015250565b7f6974656d20736f6c640000000000000000000000000000000000000000000000600082015250565b7f7472616e73666572206661696c65640000000000000000000000000000000000600082015250565b7f5265656e7472616e637947756172643a207265656e7472616e742063616c6c00600082015250565b612fbc81612b8c565b8114612fc757600080fd5b50565b612fd381612b9e565b8114612fde57600080fd5b50565b612fea81612bf6565b8114612ff557600080fd5b5056fea26469706673582212204de306604f3816219b9234a6587290fd09f74b918c3b3270f87a534273b9876d64736f6c63430008060033",
  "immutableReferences": {},
  "source": "// SPDX-License-Identifier: MIT\r\npragma solidity ^0.8.2;\r\n\r\nimport \"@openzeppelin/contracts-upgradeable/security/ReentrancyGuardUpgradeable.sol\";\r\nimport \"@openzeppelin/contracts-upgradeable/utils/CountersUpgradeable.sol\";\r\nimport \"@openzeppelin/contracts-upgradeable/utils/math/SafeMathUpgradeable.sol\";\r\nimport \"@openzeppelin/contracts-upgradeable/token/ERC721/utils/ERC721HolderUpgradeable.sol\";\r\nimport \"../tokens/FunNFT.sol\";\r\n\r\ncontract Exchange is ReentrancyGuardUpgradeable, ERC721HolderUpgradeable {\r\n    using CountersUpgradeable for CountersUpgradeable.Counter;\r\n    using SafeMathUpgradeable for uint256;\r\n\r\n    struct Order {\r\n        uint256 id;\r\n        address seller;\r\n        address tokenAddress;\r\n        uint256 tokenId;\r\n        address buyer;\r\n        uint256 price;\r\n        bool isCancelled;\r\n    }\r\n\r\n\r\n    CountersUpgradeable.Counter internal _orderIdCounter;\r\n    CountersUpgradeable.Counter internal _orderSoldCounter;\r\n    mapping(uint256 => Order) private orders;\r\n\r\n    event New(uint256 indexed id, Order indexed order);\r\n    event Canceled(uint256 indexed id, Order indexed order);\r\n    event Sold(uint256 indexed id, Order indexed order);\r\n\r\n    constructor() {\r\n\r\n    }\r\n\r\n    modifier isValid(Order memory order) {\r\n        // seller asset\r\n        FunNFT token = FunNFT(order.tokenAddress);\r\n        address owner = token.ownerOf(order.tokenId);\r\n        require( owner == order.seller || token.isApprovedForAll(owner, order.seller) == true, \"Not approved or owner.\");\r\n\r\n        // buyer asset\r\n        require(order.price > 0, \"Cost should be greater than zero.\");\r\n\r\n        // token is already placed a sell order\r\n        require(isOpenedOrder(order.tokenAddress, order.tokenId) == false, \"Token is already placed a sell order\");\r\n        _;\r\n    }\r\n\r\n    function transferEth(address to, uint value) internal {\r\n        (bool success,) = to.call{ value: value }(\"\");\r\n        require(success, \"transfer failed\");\r\n    }\r\n\r\n    function sell(Order memory order) external nonReentrant isValid(order) {\r\n        FunNFT token = FunNFT(order.tokenAddress);\r\n\r\n        token.safeTransferFrom(order.seller, address(this), order.tokenId);\r\n\r\n        uint256 currentId = _orderIdCounter.current();\r\n\r\n        Order storage newOrder = orders[currentId];\r\n        newOrder.seller = order.seller;\r\n        newOrder.tokenAddress = order.tokenAddress;\r\n        newOrder.tokenId = order.tokenId;\r\n        newOrder.buyer =  order.buyer;\r\n        newOrder.price = order.price;\r\n        newOrder.isCancelled = order.isCancelled;\r\n        newOrder.id = currentId;\r\n\r\n        _orderIdCounter.increment();\r\n        emit New(currentId, newOrder);\r\n    }\r\n\r\n    function buy(uint256 orderId) external payable nonReentrant {\r\n        require(orderId >= 0 && orderId < _orderIdCounter.current(), \"wrong id.\");\r\n        \r\n        Order storage order = orders[orderId];\r\n        require(order.buyer == address(0), \"item sold\");\r\n        require(order.isCancelled == false, \"order cancelled\");\r\n\r\n        address buyer = msg.sender;\r\n\r\n        // transfer nft to buyer\r\n        FunNFT token = FunNFT(order.tokenAddress);\r\n        token.safeTransferFrom(address(this), buyer, order.tokenId);\r\n\r\n        // pay royalty for creator\r\n        uint256 money = order.price;\r\n        uint256 royalty = token.royaltyOf(order.tokenId);\r\n        address creator = token.creatorOf(order.tokenId);\r\n        if (royalty > 0){\r\n            uint256 temp = money.mul(royalty);\r\n            uint256 royaltyMoney = temp.div(100);\r\n            money = money.sub(royaltyMoney);\r\n            transferEth(creator, royaltyMoney);\r\n        }\r\n        \r\n        // transfer payment token from buyer to seller\r\n        transferEth(order.seller, money);\r\n\r\n        order.buyer = buyer;\r\n        _orderSoldCounter.increment();\r\n        emit Sold(orderId, order);\r\n    }\r\n\r\n    function cancel(uint256 orderId) external {\r\n        Order storage order = orders[orderId];\r\n        require(order.seller == msg.sender, \"Not seller\");\r\n        require(order.buyer == address(0), \"item sold\");\r\n\r\n        FunNFT token = FunNFT(order.tokenAddress);\r\n        token.safeTransferFrom(address(this), order.seller, order.tokenId);\r\n\r\n        orders[orderId].isCancelled = true;\r\n        emit Canceled(orderId, order);\r\n    }\r\n\r\n    /* Returns all unsold orders */\r\n    function fetchOrders() public view returns (Order[] memory) {\r\n        uint256 itemCount = _orderIdCounter.current();\r\n        uint256 unsoldItemCount = _orderIdCounter.current() - _orderSoldCounter.current();\r\n        uint256 currentIndex = 0;\r\n\r\n        Order[] memory items = new Order[](unsoldItemCount);\r\n        for (uint256 i = 0; i < itemCount; i++) {\r\n            if (orders[i].buyer == address(0)) {\r\n                Order memory currentItem = orders[i];\r\n                items[currentIndex] = currentItem;\r\n                currentIndex += 1;\r\n            }\r\n        }\r\n        return items;\r\n    }\r\n\r\n  /* Returns only items that a user has been selling */\r\n    function fetchOrderOf(address seller) external view returns (Order[] memory) {\r\n        uint256 totalItemCount = _orderIdCounter.current();\r\n        uint256 itemCount = 0;\r\n        uint256 currentIndex = 0;\r\n\r\n        for (uint i = 0; i < totalItemCount; i++) {\r\n            if (orders[i].seller == seller && orders[i].buyer == address(0) && orders[i].isCancelled == false){\r\n                itemCount += 1;\r\n            }\r\n        }\r\n\r\n        Order[] memory items = new Order[](itemCount);\r\n        for (uint256 i = 0; i < totalItemCount; i++) {\r\n            if (orders[i].seller == seller && orders[i].buyer == address(0) && orders[i].isCancelled == false) {\r\n                Order memory currentItem = orders[i];\r\n                items[currentIndex] = currentItem;\r\n                currentIndex += 1;\r\n            }\r\n        }\r\n        return items;\r\n    }\r\n\r\n    /* Returns only items in a collection that had being selling */\r\n    function fetchOrderOfCollection(address collection) external view returns (Order[] memory) {\r\n        uint256 totalItemCount = _orderIdCounter.current();\r\n        uint256 itemCount = 0;\r\n        uint256 currentIndex = 0;\r\n\r\n        for (uint i = 0; i < totalItemCount; i++) {\r\n            if (orders[i].tokenAddress == collection && orders[i].buyer == address(0)){\r\n                itemCount += 1;\r\n            }\r\n        }\r\n\r\n        Order[] memory items = new Order[](itemCount);\r\n        for (uint256 i = 0; i < totalItemCount; i++) {\r\n            if (orders[i].tokenAddress == collection && orders[i].buyer == address(0)) {\r\n                Order memory currentItem = orders[i];\r\n                items[currentIndex] = currentItem;\r\n                currentIndex += 1;\r\n            }\r\n        }\r\n        return items;\r\n    }\r\n\r\n    function isOpenedOrder(address tokenAddress, uint256 tokenId) internal view returns(bool){\r\n        uint256 totalItemCount = _orderIdCounter.current();\r\n        uint256 index = totalItemCount;\r\n\r\n        for(uint256 i = 0; i < totalItemCount; i++){\r\n            if (orders[i].tokenAddress == tokenAddress && orders[i].tokenId == tokenId)\r\n            {\r\n                index = i;\r\n            }\r\n        }\r\n        if (index < totalItemCount && orders[index].buyer == address(0) && orders[index].isCancelled == false){\r\n            return true;\r\n        }\r\n        return false;\r\n    }\r\n\r\n    function getNewestOrderOf(address tokenAddress, uint256 tokenId) external view returns(Order memory){\r\n        uint256 totalItemCount = _orderIdCounter.current();\r\n        uint256 index = totalItemCount;\r\n\r\n        for(uint256 i = 0; i < totalItemCount; i++){\r\n            if (orders[i].tokenAddress == tokenAddress && orders[i].tokenId == tokenId)\r\n            {\r\n                index = i;\r\n            }\r\n        }\r\n        if (index < totalItemCount && orders[index].buyer == address(0) && orders[index].isCancelled == false){\r\n            return orders[index];\r\n        }\r\n        revert(\"Not found\");\r\n    }\r\n}",
  "sourcePath": "E:/LamViec/fun-exchange/contracts/exchange/Exchange.sol",
  "compiler": {
    "name": "solc",
    "version": "0.8.6+commit.11564f7e.Emscripten.clang"
  },
  "schemaVersion": "3.3.4",
  "updatedAt": "2021-12-14T10:21:04.825Z",
  "networkType": "ethereum",
  "devdoc": {
    "kind": "dev",
    "methods": {
      "onERC721Received(address,address,uint256,bytes)": {
        "details": "See {IERC721Receiver-onERC721Received}. Always returns `IERC721Receiver.onERC721Received.selector`."
      }
    },
    "version": 1
  },
  "userdoc": {
    "kind": "user",
    "methods": {},
    "version": 1
  }
}