{
  "contractName": "Exchange",
  "abi": [
    {
      "inputs": [],
      "stateMutability": "nonpayable",
      "type": "constructor"
    },
    {
      "anonymous": false,
      "inputs": [
        {
          "indexed": false,
          "internalType": "uint256",
          "name": "id",
          "type": "uint256"
        },
        {
          "indexed": false,
          "internalType": "address",
          "name": "seller",
          "type": "address"
        },
        {
          "indexed": false,
          "internalType": "address",
          "name": "tokenAddress",
          "type": "address"
        },
        {
          "indexed": false,
          "internalType": "uint256",
          "name": "tokenId",
          "type": "uint256"
        },
        {
          "indexed": false,
          "internalType": "uint256",
          "name": "price",
          "type": "uint256"
        }
      ],
      "name": "Canceled",
      "type": "event"
    },
    {
      "anonymous": false,
      "inputs": [
        {
          "indexed": false,
          "internalType": "uint256",
          "name": "id",
          "type": "uint256"
        },
        {
          "indexed": false,
          "internalType": "address",
          "name": "seller",
          "type": "address"
        },
        {
          "indexed": false,
          "internalType": "address",
          "name": "tokenAddress",
          "type": "address"
        },
        {
          "indexed": false,
          "internalType": "uint256",
          "name": "tokenId",
          "type": "uint256"
        },
        {
          "indexed": false,
          "internalType": "uint256",
          "name": "price",
          "type": "uint256"
        }
      ],
      "name": "New",
      "type": "event"
    },
    {
      "anonymous": false,
      "inputs": [
        {
          "indexed": false,
          "internalType": "uint256",
          "name": "id",
          "type": "uint256"
        },
        {
          "indexed": false,
          "internalType": "address",
          "name": "seller",
          "type": "address"
        },
        {
          "indexed": false,
          "internalType": "address",
          "name": "tokenAddress",
          "type": "address"
        },
        {
          "indexed": false,
          "internalType": "uint256",
          "name": "tokenId",
          "type": "uint256"
        },
        {
          "indexed": false,
          "internalType": "uint256",
          "name": "price",
          "type": "uint256"
        },
        {
          "indexed": false,
          "internalType": "address",
          "name": "buyer",
          "type": "address"
        }
      ],
      "name": "Sold",
      "type": "event"
    },
    {
      "inputs": [
        {
          "internalType": "address",
          "name": "",
          "type": "address"
        },
        {
          "internalType": "address",
          "name": "",
          "type": "address"
        },
        {
          "internalType": "uint256",
          "name": "",
          "type": "uint256"
        },
        {
          "internalType": "bytes",
          "name": "",
          "type": "bytes"
        }
      ],
      "name": "onERC721Received",
      "outputs": [
        {
          "internalType": "bytes4",
          "name": "",
          "type": "bytes4"
        }
      ],
      "stateMutability": "nonpayable",
      "type": "function"
    },
    {
      "inputs": [
        {
          "components": [
            {
              "internalType": "address",
              "name": "seller",
              "type": "address"
            },
            {
              "internalType": "address",
              "name": "tokenAddress",
              "type": "address"
            },
            {
              "internalType": "uint256",
              "name": "tokenId",
              "type": "uint256"
            },
            {
              "internalType": "address",
              "name": "buyer",
              "type": "address"
            },
            {
              "internalType": "uint256",
              "name": "price",
              "type": "uint256"
            },
            {
              "internalType": "bool",
              "name": "isCancelled",
              "type": "bool"
            }
          ],
          "internalType": "struct Exchange.Order",
          "name": "order",
          "type": "tuple"
        }
      ],
      "name": "sell",
      "outputs": [],
      "stateMutability": "nonpayable",
      "type": "function"
    },
    {
      "inputs": [
        {
          "internalType": "uint256",
          "name": "orderId",
          "type": "uint256"
        }
      ],
      "name": "buy",
      "outputs": [],
      "stateMutability": "nonpayable",
      "type": "function"
    },
    {
      "inputs": [
        {
          "internalType": "uint256",
          "name": "orderId",
          "type": "uint256"
        }
      ],
      "name": "cancel",
      "outputs": [],
      "stateMutability": "nonpayable",
      "type": "function"
    },
    {
      "inputs": [],
      "name": "fetchOrders",
      "outputs": [
        {
          "components": [
            {
              "internalType": "address",
              "name": "seller",
              "type": "address"
            },
            {
              "internalType": "address",
              "name": "tokenAddress",
              "type": "address"
            },
            {
              "internalType": "uint256",
              "name": "tokenId",
              "type": "uint256"
            },
            {
              "internalType": "address",
              "name": "buyer",
              "type": "address"
            },
            {
              "internalType": "uint256",
              "name": "price",
              "type": "uint256"
            },
            {
              "internalType": "bool",
              "name": "isCancelled",
              "type": "bool"
            }
          ],
          "internalType": "struct Exchange.Order[]",
          "name": "",
          "type": "tuple[]"
        }
      ],
      "stateMutability": "view",
      "type": "function",
      "constant": true
    },
    {
      "inputs": [
        {
          "internalType": "address",
          "name": "seller",
          "type": "address"
        }
      ],
      "name": "fetchOrderOf",
      "outputs": [
        {
          "components": [
            {
              "internalType": "address",
              "name": "seller",
              "type": "address"
            },
            {
              "internalType": "address",
              "name": "tokenAddress",
              "type": "address"
            },
            {
              "internalType": "uint256",
              "name": "tokenId",
              "type": "uint256"
            },
            {
              "internalType": "address",
              "name": "buyer",
              "type": "address"
            },
            {
              "internalType": "uint256",
              "name": "price",
              "type": "uint256"
            },
            {
              "internalType": "bool",
              "name": "isCancelled",
              "type": "bool"
            }
          ],
          "internalType": "struct Exchange.Order[]",
          "name": "",
          "type": "tuple[]"
        }
      ],
      "stateMutability": "view",
      "type": "function",
      "constant": true
    },
    {
      "inputs": [
        {
          "internalType": "address",
          "name": "collection",
          "type": "address"
        }
      ],
      "name": "fetchOrderOfCollection",
      "outputs": [
        {
          "components": [
            {
              "internalType": "address",
              "name": "seller",
              "type": "address"
            },
            {
              "internalType": "address",
              "name": "tokenAddress",
              "type": "address"
            },
            {
              "internalType": "uint256",
              "name": "tokenId",
              "type": "uint256"
            },
            {
              "internalType": "address",
              "name": "buyer",
              "type": "address"
            },
            {
              "internalType": "uint256",
              "name": "price",
              "type": "uint256"
            },
            {
              "internalType": "bool",
              "name": "isCancelled",
              "type": "bool"
            }
          ],
          "internalType": "struct Exchange.Order[]",
          "name": "",
          "type": "tuple[]"
        }
      ],
      "stateMutability": "view",
      "type": "function",
      "constant": true
    }
  ],
  "bytecode": "0x608060405234801561001057600080fd5b50612799806100206000396000f3fe608060405234801561001057600080fd5b506004361061007d5760003560e01c806340e58ee51161005b57806340e58ee514610100578063a6374a021461011c578063a8a494f214610138578063d96a094a146101685761007d565b80630809754914610082578063150b7a02146100a0578063375424ed146100d0575b600080fd5b61008a610184565b6040516100979190611ffe565b60405180910390f35b6100ba60048036038101906100b59190611bcc565b610426565b6040516100c79190612020565b60405180910390f35b6100ea60048036038101906100e59190611b72565b61043a565b6040516100f79190611ffe565b60405180910390f35b61011a60048036038101906101159190611ca9565b610832565b005b61013660048036038101906101319190611c7c565b610af1565b005b610152600480360381019061014d9190611b72565b610f4d565b60405161015f9190611ffe565b60405180910390f35b610182600480360381019061017d9190611ca9565b611345565b005b606060006101926065611853565b905060006101a06066611853565b6101aa6065611853565b6101b49190612396565b90506000808267ffffffffffffffff8111156101d3576101d2612554565b5b60405190808252806020026020018201604052801561020c57816020015b6101f961196a565b8152602001906001900390816101f15790505b50905060005b8481101561041b57600073ffffffffffffffffffffffffffffffffffffffff166067600083815260200190815260200160002060030160009054906101000a900473ffffffffffffffffffffffffffffffffffffffff1673ffffffffffffffffffffffffffffffffffffffff161415610408576000606760008381526020019081526020016000206040518060c00160405290816000820160009054906101000a900473ffffffffffffffffffffffffffffffffffffffff1673ffffffffffffffffffffffffffffffffffffffff1673ffffffffffffffffffffffffffffffffffffffff1681526020016001820160009054906101000a900473ffffffffffffffffffffffffffffffffffffffff1673ffffffffffffffffffffffffffffffffffffffff1673ffffffffffffffffffffffffffffffffffffffff168152602001600282015481526020016003820160009054906101000a900473ffffffffffffffffffffffffffffffffffffffff1673ffffffffffffffffffffffffffffffffffffffff1673ffffffffffffffffffffffffffffffffffffffff168152602001600482015481526020016005820160009054906101000a900460ff1615151515815250509050808385815181106103ec576103eb612525565b5b602002602001018190525060018461040491906122b5565b9350505b80806104139061247e565b915050610212565b508094505050505090565b600063150b7a0260e01b9050949350505050565b606060006104486065611853565b905060008060005b83811015610553578573ffffffffffffffffffffffffffffffffffffffff166067600083815260200190815260200160002060000160009054906101000a900473ffffffffffffffffffffffffffffffffffffffff1673ffffffffffffffffffffffffffffffffffffffff1614801561052b5750600073ffffffffffffffffffffffffffffffffffffffff166067600083815260200190815260200160002060030160009054906101000a900473ffffffffffffffffffffffffffffffffffffffff1673ffffffffffffffffffffffffffffffffffffffff16145b156105405760018361053d91906122b5565b92505b808061054b9061247e565b915050610450565b5060008267ffffffffffffffff8111156105705761056f612554565b5b6040519080825280602002602001820160405280156105a957816020015b61059661196a565b81526020019060019003908161058e5790505b50905060005b84811015610825578673ffffffffffffffffffffffffffffffffffffffff166067600083815260200190815260200160002060000160009054906101000a900473ffffffffffffffffffffffffffffffffffffffff1673ffffffffffffffffffffffffffffffffffffffff1614801561068a5750600073ffffffffffffffffffffffffffffffffffffffff166067600083815260200190815260200160002060030160009054906101000a900473ffffffffffffffffffffffffffffffffffffffff1673ffffffffffffffffffffffffffffffffffffffff16145b15610812576000606760008381526020019081526020016000206040518060c00160405290816000820160009054906101000a900473ffffffffffffffffffffffffffffffffffffffff1673ffffffffffffffffffffffffffffffffffffffff1673ffffffffffffffffffffffffffffffffffffffff1681526020016001820160009054906101000a900473ffffffffffffffffffffffffffffffffffffffff1673ffffffffffffffffffffffffffffffffffffffff1673ffffffffffffffffffffffffffffffffffffffff168152602001600282015481526020016003820160009054906101000a900473ffffffffffffffffffffffffffffffffffffffff1673ffffffffffffffffffffffffffffffffffffffff1673ffffffffffffffffffffffffffffffffffffffff168152602001600482015481526020016005820160009054906101000a900460ff1615151515815250509050808385815181106107f6576107f5612525565b5b602002602001018190525060018461080e91906122b5565b9350505b808061081d9061247e565b9150506105af565b5080945050505050919050565b60006067600083815260200190815260200160002090503373ffffffffffffffffffffffffffffffffffffffff168160000160009054906101000a900473ffffffffffffffffffffffffffffffffffffffff1673ffffffffffffffffffffffffffffffffffffffff16146108db576040517f08c379a00000000000000000000000000000000000000000000000000000000081526004016108d2906120bb565b60405180910390fd5b600073ffffffffffffffffffffffffffffffffffffffff168160030160009054906101000a900473ffffffffffffffffffffffffffffffffffffffff1673ffffffffffffffffffffffffffffffffffffffff161461096e576040517f08c379a0000000000000000000000000000000000000000000000000000000008152600401610965906120db565b60405180910390fd5b60008160010160009054906101000a900473ffffffffffffffffffffffffffffffffffffffff1690508073ffffffffffffffffffffffffffffffffffffffff166342842e0e308460000160009054906101000a900473ffffffffffffffffffffffffffffffffffffffff1685600201546040518463ffffffff1660e01b81526004016109fc93929190611fc7565b600060405180830381600087803b158015610a1657600080fd5b505af1158015610a2a573d6000803e3d6000fd5b5050505060016067600085815260200190815260200160002060050160006101000a81548160ff0219169083151502179055507fe77639e599bc34c8288b626c10f33662e551a4ebda7304f84a44f5ad37c3004c838360000160009054906101000a900473ffffffffffffffffffffffffffffffffffffffff168460010160009054906101000a900473ffffffffffffffffffffffffffffffffffffffff1685600201548660040154604051610ae4959493929190612156565b60405180910390a1505050565b60026001541415610b37576040517f08c379a0000000000000000000000000000000000000000000000000000000008152600401610b2e9061211b565b60405180910390fd5b60026001819055508060008160200151905060008173ffffffffffffffffffffffffffffffffffffffff16636352211e84604001516040518263ffffffff1660e01b8152600401610b88919061213b565b60206040518083038186803b158015610ba057600080fd5b505afa158015610bb4573d6000803e3d6000fd5b505050506040513d601f19601f82011682018060405250810190610bd89190611b9f565b9050826000015173ffffffffffffffffffffffffffffffffffffffff168173ffffffffffffffffffffffffffffffffffffffff161480610caa5750600115158273ffffffffffffffffffffffffffffffffffffffff1663e985e9c58386600001516040518363ffffffff1660e01b8152600401610c56929190611f9e565b60206040518083038186803b158015610c6e57600080fd5b505afa158015610c82573d6000803e3d6000fd5b505050506040513d601f19601f82011682018060405250810190610ca69190611c4f565b1515145b610ce9576040517f08c379a0000000000000000000000000000000000000000000000000000000008152600401610ce09061205b565b60405180910390fd5b6000836080015111610d30576040517f08c379a0000000000000000000000000000000000000000000000000000000008152600401610d279061209b565b60405180910390fd5b6000846020015190508073ffffffffffffffffffffffffffffffffffffffff166342842e0e86600001513088604001516040518463ffffffff1660e01b8152600401610d7e93929190611fc7565b600060405180830381600087803b158015610d9857600080fd5b505af1158015610dac573d6000803e3d6000fd5b505050506000610dbc6065611853565b9050600060676000838152602001908152602001600020905086600001518160000160006101000a81548173ffffffffffffffffffffffffffffffffffffffff021916908373ffffffffffffffffffffffffffffffffffffffff16021790555086602001518160010160006101000a81548173ffffffffffffffffffffffffffffffffffffffff021916908373ffffffffffffffffffffffffffffffffffffffff1602179055508660400151816002018190555086606001518160030160006101000a81548173ffffffffffffffffffffffffffffffffffffffff021916908373ffffffffffffffffffffffffffffffffffffffff160217905550866080015181600401819055508660a001518160050160006101000a81548160ff021916908315150217905550610eee6065611861565b7f7a7b1b66fc2243f77909d2a7e980b6402c77c6882752e21fdfbb186bca12298982886000015189602001518a604001518b60800151604051610f35959493929190612156565b60405180910390a15050505050506001808190555050565b60606000610f5b6065611853565b905060008060005b83811015611066578573ffffffffffffffffffffffffffffffffffffffff166067600083815260200190815260200160002060010160009054906101000a900473ffffffffffffffffffffffffffffffffffffffff1673ffffffffffffffffffffffffffffffffffffffff1614801561103e5750600073ffffffffffffffffffffffffffffffffffffffff166067600083815260200190815260200160002060030160009054906101000a900473ffffffffffffffffffffffffffffffffffffffff1673ffffffffffffffffffffffffffffffffffffffff16145b156110535760018361105091906122b5565b92505b808061105e9061247e565b915050610f63565b5060008267ffffffffffffffff81111561108357611082612554565b5b6040519080825280602002602001820160405280156110bc57816020015b6110a961196a565b8152602001906001900390816110a15790505b50905060005b84811015611338578673ffffffffffffffffffffffffffffffffffffffff166067600083815260200190815260200160002060010160009054906101000a900473ffffffffffffffffffffffffffffffffffffffff1673ffffffffffffffffffffffffffffffffffffffff1614801561119d5750600073ffffffffffffffffffffffffffffffffffffffff166067600083815260200190815260200160002060030160009054906101000a900473ffffffffffffffffffffffffffffffffffffffff1673ffffffffffffffffffffffffffffffffffffffff16145b15611325576000606760008381526020019081526020016000206040518060c00160405290816000820160009054906101000a900473ffffffffffffffffffffffffffffffffffffffff1673ffffffffffffffffffffffffffffffffffffffff1673ffffffffffffffffffffffffffffffffffffffff1681526020016001820160009054906101000a900473ffffffffffffffffffffffffffffffffffffffff1673ffffffffffffffffffffffffffffffffffffffff1673ffffffffffffffffffffffffffffffffffffffff168152602001600282015481526020016003820160009054906101000a900473ffffffffffffffffffffffffffffffffffffffff1673ffffffffffffffffffffffffffffffffffffffff1673ffffffffffffffffffffffffffffffffffffffff168152602001600482015481526020016005820160009054906101000a900460ff16151515158152505090508083858151811061130957611308612525565b5b602002602001018190525060018461132191906122b5565b9350505b80806113309061247e565b9150506110c2565b5080945050505050919050565b6002600154141561138b576040517f08c379a00000000000000000000000000000000000000000000000000000000081526004016113829061211b565b60405180910390fd5b6002600181905550600081101580156113ac57506113a96065611853565b81105b6113eb576040517f08c379a00000000000000000000000000000000000000000000000000000000081526004016113e29061207b565b60405180910390fd5b6000606760008381526020019081526020016000209050600073ffffffffffffffffffffffffffffffffffffffff168160030160009054906101000a900473ffffffffffffffffffffffffffffffffffffffff1673ffffffffffffffffffffffffffffffffffffffff1614611495576040517f08c379a000000000000000000000000000000000000000000000000000000000815260040161148c906120db565b60405180910390fd5b600015158160050160009054906101000a900460ff161515146114ed576040517f08c379a00000000000000000000000000000000000000000000000000000000081526004016114e49061203b565b60405180910390fd5b600033905060008260010160009054906101000a900473ffffffffffffffffffffffffffffffffffffffff1690508073ffffffffffffffffffffffffffffffffffffffff166342842e0e308486600201546040518463ffffffff1660e01b815260040161155c93929190611fc7565b600060405180830381600087803b15801561157657600080fd5b505af115801561158a573d6000803e3d6000fd5b5050505060008360040154905060008273ffffffffffffffffffffffffffffffffffffffff1663d26509b186600201546040518263ffffffff1660e01b81526004016115d6919061213b565b60206040518083038186803b1580156115ee57600080fd5b505afa158015611602573d6000803e3d6000fd5b505050506040513d601f19601f820116820180604052508101906116269190611cd6565b905060008373ffffffffffffffffffffffffffffffffffffffff1663589a174387600201546040518263ffffffff1660e01b8152600401611667919061213b565b60206040518083038186803b15801561167f57600080fd5b505afa158015611693573d6000803e3d6000fd5b505050506040513d601f19601f820116820180604052508101906116b79190611b9f565b905060008211156117135760006116d7838561187790919063ffffffff16565b905060006116ef60648361188d90919063ffffffff16565b905061170481866118a390919063ffffffff16565b945061171083826118b9565b50505b6117418660000160009054906101000a900473ffffffffffffffffffffffffffffffffffffffff16846118b9565b848660030160006101000a81548173ffffffffffffffffffffffffffffffffffffffff021916908373ffffffffffffffffffffffffffffffffffffffff16021790555061178e6066611861565b7fd19a3b5b3a3b067479f081e779b34a8af25751666f5352862460212a15586a4c878760000160009054906101000a900473ffffffffffffffffffffffffffffffffffffffff168860010160009054906101000a900473ffffffffffffffffffffffffffffffffffffffff1689600201548a600401548b60030160009054906101000a900473ffffffffffffffffffffffffffffffffffffffff1660405161183b969594939291906121a9565b60405180910390a15050505050506001808190555050565b600081600001549050919050565b6001816000016000828254019250508190555050565b60008183611885919061233c565b905092915050565b6000818361189b919061230b565b905092915050565b600081836118b19190612396565b905092915050565b60008273ffffffffffffffffffffffffffffffffffffffff16826040516118df90611f89565b60006040518083038185875af1925050503d806000811461191c576040519150601f19603f3d011682016040523d82523d6000602084013e611921565b606091505b5050905080611965576040517f08c379a000000000000000000000000000000000000000000000000000000000815260040161195c906120fb565b60405180910390fd5b505050565b6040518060c00160405280600073ffffffffffffffffffffffffffffffffffffffff168152602001600073ffffffffffffffffffffffffffffffffffffffff16815260200160008152602001600073ffffffffffffffffffffffffffffffffffffffff168152602001600081526020016000151581525090565b60006119f76119f28461222f565b61220a565b905082815260208101848484011115611a1357611a1261258d565b5b611a1e84828561243e565b509392505050565b600081359050611a358161271e565b92915050565b600081519050611a4a8161271e565b92915050565b600081359050611a5f81612735565b92915050565b600081519050611a7481612735565b92915050565b600082601f830112611a8f57611a8e612583565b5b8135611a9f8482602086016119e4565b91505092915050565b600060c08284031215611abe57611abd612588565b5b611ac860c061220a565b90506000611ad884828501611a26565b6000830152506020611aec84828501611a26565b6020830152506040611b0084828501611b48565b6040830152506060611b1484828501611a26565b6060830152506080611b2884828501611b48565b60808301525060a0611b3c84828501611a50565b60a08301525092915050565b600081359050611b578161274c565b92915050565b600081519050611b6c8161274c565b92915050565b600060208284031215611b8857611b87612597565b5b6000611b9684828501611a26565b91505092915050565b600060208284031215611bb557611bb4612597565b5b6000611bc384828501611a3b565b91505092915050565b60008060008060808587031215611be657611be5612597565b5b6000611bf487828801611a26565b9450506020611c0587828801611a26565b9350506040611c1687828801611b48565b925050606085013567ffffffffffffffff811115611c3757611c36612592565b5b611c4387828801611a7a565b91505092959194509250565b600060208284031215611c6557611c64612597565b5b6000611c7384828501611a65565b91505092915050565b600060c08284031215611c9257611c91612597565b5b6000611ca084828501611aa8565b91505092915050565b600060208284031215611cbf57611cbe612597565b5b6000611ccd84828501611b48565b91505092915050565b600060208284031215611cec57611ceb612597565b5b6000611cfa84828501611b5d565b91505092915050565b6000611d0f8383611ef0565b60c08301905092915050565b611d24816123ca565b82525050565b611d33816123ca565b82525050565b6000611d4482612270565b611d4e8185612288565b9350611d5983612260565b8060005b83811015611d8a578151611d718882611d03565b9750611d7c8361227b565b925050600181019050611d5d565b5085935050505092915050565b611da0816123dc565b82525050565b611daf816123e8565b82525050565b6000611dc2600f836122a4565b9150611dcd826125ad565b602082019050919050565b6000611de56016836122a4565b9150611df0826125d6565b602082019050919050565b6000611e086009836122a4565b9150611e13826125ff565b602082019050919050565b6000611e2b6021836122a4565b9150611e3682612628565b604082019050919050565b6000611e4e600083612299565b9150611e5982612677565b600082019050919050565b6000611e71600a836122a4565b9150611e7c8261267a565b602082019050919050565b6000611e946009836122a4565b9150611e9f826126a3565b602082019050919050565b6000611eb7600f836122a4565b9150611ec2826126cc565b602082019050919050565b6000611eda601f836122a4565b9150611ee5826126f5565b602082019050919050565b60c082016000820151611f066000850182611d1b565b506020820151611f196020850182611d1b565b506040820151611f2c6040850182611f6b565b506060820151611f3f6060850182611d1b565b506080820151611f526080850182611f6b565b5060a0820151611f6560a0850182611d97565b50505050565b611f7481612434565b82525050565b611f8381612434565b82525050565b6000611f9482611e41565b9150819050919050565b6000604082019050611fb36000830185611d2a565b611fc06020830184611d2a565b9392505050565b6000606082019050611fdc6000830186611d2a565b611fe96020830185611d2a565b611ff66040830184611f7a565b949350505050565b600060208201905081810360008301526120188184611d39565b905092915050565b60006020820190506120356000830184611da6565b92915050565b6000602082019050818103600083015261205481611db5565b9050919050565b6000602082019050818103600083015261207481611dd8565b9050919050565b6000602082019050818103600083015261209481611dfb565b9050919050565b600060208201905081810360008301526120b481611e1e565b9050919050565b600060208201905081810360008301526120d481611e64565b9050919050565b600060208201905081810360008301526120f481611e87565b9050919050565b6000602082019050818103600083015261211481611eaa565b9050919050565b6000602082019050818103600083015261213481611ecd565b9050919050565b60006020820190506121506000830184611f7a565b92915050565b600060a08201905061216b6000830188611f7a565b6121786020830187611d2a565b6121856040830186611d2a565b6121926060830185611f7a565b61219f6080830184611f7a565b9695505050505050565b600060c0820190506121be6000830189611f7a565b6121cb6020830188611d2a565b6121d86040830187611d2a565b6121e56060830186611f7a565b6121f26080830185611f7a565b6121ff60a0830184611d2a565b979650505050505050565b6000612214612225565b9050612220828261244d565b919050565b6000604051905090565b600067ffffffffffffffff82111561224a57612249612554565b5b6122538261259c565b9050602081019050919050565b6000819050602082019050919050565b600081519050919050565b6000602082019050919050565b600082825260208201905092915050565b600081905092915050565b600082825260208201905092915050565b60006122c082612434565b91506122cb83612434565b9250827fffffffffffffffffffffffffffffffffffffffffffffffffffffffffffffffff03821115612300576122ff6124c7565b5b828201905092915050565b600061231682612434565b915061232183612434565b925082612331576123306124f6565b5b828204905092915050565b600061234782612434565b915061235283612434565b9250817fffffffffffffffffffffffffffffffffffffffffffffffffffffffffffffffff048311821515161561238b5761238a6124c7565b5b828202905092915050565b60006123a182612434565b91506123ac83612434565b9250828210156123bf576123be6124c7565b5b828203905092915050565b60006123d582612414565b9050919050565b60008115159050919050565b60007fffffffff0000000000000000000000000000000000000000000000000000000082169050919050565b600073ffffffffffffffffffffffffffffffffffffffff82169050919050565b6000819050919050565b82818337600083830152505050565b6124568261259c565b810181811067ffffffffffffffff8211171561247557612474612554565b5b80604052505050565b600061248982612434565b91507fffffffffffffffffffffffffffffffffffffffffffffffffffffffffffffffff8214156124bc576124bb6124c7565b5b600182019050919050565b7f4e487b7100000000000000000000000000000000000000000000000000000000600052601160045260246000fd5b7f4e487b7100000000000000000000000000000000000000000000000000000000600052601260045260246000fd5b7f4e487b7100000000000000000000000000000000000000000000000000000000600052603260045260246000fd5b7f4e487b7100000000000000000000000000000000000000000000000000000000600052604160045260246000fd5b600080fd5b600080fd5b600080fd5b600080fd5b600080fd5b6000601f19601f8301169050919050565b7f6f726465722063616e63656c6c65640000000000000000000000000000000000600082015250565b7f4e6f7420617070726f766564206f72206f776e65722e00000000000000000000600082015250565b7f77726f6e672069642e0000000000000000000000000000000000000000000000600082015250565b7f436f73742073686f756c642062652067726561746572207468616e207a65726f60008201527f2e00000000000000000000000000000000000000000000000000000000000000602082015250565b50565b7f4e6f742073656c6c657200000000000000000000000000000000000000000000600082015250565b7f6974656d20736f6c640000000000000000000000000000000000000000000000600082015250565b7f7472616e73666572206661696c65640000000000000000000000000000000000600082015250565b7f5265656e7472616e637947756172643a207265656e7472616e742063616c6c00600082015250565b612727816123ca565b811461273257600080fd5b50565b61273e816123dc565b811461274957600080fd5b50565b61275581612434565b811461276057600080fd5b5056fea26469706673582212208f8f7d335f90ae9d323c3cca314d8416ef92a586eb554356f9c60fae9a4f945864736f6c63430008060033",
  "immutableReferences": {},
  "source": "// SPDX-License-Identifier: MIT\r\npragma solidity ^0.8.2;\r\n\r\nimport \"@openzeppelin/contracts-upgradeable/security/ReentrancyGuardUpgradeable.sol\";\r\nimport \"@openzeppelin/contracts-upgradeable/utils/CountersUpgradeable.sol\";\r\nimport \"@openzeppelin/contracts-upgradeable/utils/math/SafeMathUpgradeable.sol\";\r\nimport \"@openzeppelin/contracts-upgradeable/token/ERC721/utils/ERC721HolderUpgradeable.sol\";\r\nimport \"../tokens/FunNFT.sol\";\r\n\r\ncontract Exchange is ReentrancyGuardUpgradeable, ERC721HolderUpgradeable {\r\n    using CountersUpgradeable for CountersUpgradeable.Counter;\r\n    using SafeMathUpgradeable for uint256;\r\n\r\n    struct Order {\r\n        address seller;\r\n        address tokenAddress;\r\n        uint256 tokenId;\r\n        address buyer;\r\n        uint256 price;\r\n        bool isCancelled;\r\n    }\r\n\r\n\r\n    CountersUpgradeable.Counter internal _orderIdCounter;\r\n    CountersUpgradeable.Counter internal _orderSoldCounter;\r\n    mapping(uint256 => Order) private orders;\r\n\r\n    event New(uint256 id, address seller, address tokenAddress, uint256 tokenId, uint256 price);\r\n    event Canceled(uint256 id, address seller, address tokenAddress, uint256 tokenId, uint256 price);\r\n    event Sold(uint256 id, address seller, address tokenAddress, uint256 tokenId, uint256 price, address buyer);\r\n\r\n    constructor() {\r\n\r\n    }\r\n\r\n    modifier isValid(Order memory order) {\r\n        // seller asset\r\n        FunNFT token = FunNFT(order.tokenAddress);\r\n        address owner = token.ownerOf(order.tokenId);\r\n        require( owner == order.seller || token.isApprovedForAll(owner, order.seller) == true, \"Not approved or owner.\");\r\n\r\n        // buyer asset\r\n        require(order.price > 0, \"Cost should be greater than zero.\");\r\n        _;\r\n    }\r\n\r\n    function transferEth(address to, uint value) internal {\r\n        (bool success,) = to.call{ value: value }(\"\");\r\n        require(success, \"transfer failed\");\r\n    }\r\n\r\n    function sell(Order memory order) external nonReentrant isValid(order) {\r\n        FunNFT token = FunNFT(order.tokenAddress);\r\n\r\n        token.safeTransferFrom(order.seller, address(this), order.tokenId);\r\n\r\n        uint256 currentId = _orderIdCounter.current();\r\n\r\n        Order storage newOrder = orders[currentId];\r\n        newOrder.seller = order.seller;\r\n        newOrder.tokenAddress = order.tokenAddress;\r\n        newOrder.tokenId = order.tokenId;\r\n        newOrder.buyer =  order.buyer;\r\n        newOrder.price = order.price;\r\n        newOrder.isCancelled = order.isCancelled;\r\n\r\n        _orderIdCounter.increment();\r\n        emit New(currentId, order.seller, order.tokenAddress, order.tokenId, order.price);\r\n    }\r\n\r\n    function buy(uint256 orderId) external nonReentrant {\r\n        require(orderId >= 0 && orderId < _orderIdCounter.current(), \"wrong id.\");\r\n        \r\n        Order storage order = orders[orderId];\r\n        require(order.buyer == address(0), \"item sold\");\r\n        require(order.isCancelled == false, \"order cancelled\");\r\n\r\n        address buyer = msg.sender;\r\n\r\n        // transfer nft to buyer\r\n        FunNFT token = FunNFT(order.tokenAddress);\r\n        token.safeTransferFrom(address(this), buyer, order.tokenId);\r\n\r\n        // pay royalty for creator\r\n        uint256 money = order.price;\r\n        uint256 royalty = token.royaltyOf(order.tokenId);\r\n        address creator = token.creatorOf(order.tokenId);\r\n        if (royalty > 0){\r\n            uint256 temp = money.mul(royalty);\r\n            uint256 royaltyMoney = temp.div(100);\r\n            money = money.sub(royaltyMoney);\r\n            transferEth(creator, royaltyMoney);\r\n        }\r\n        \r\n        // transfer payment token from buyer to seller\r\n        transferEth(order.seller, money);\r\n\r\n        order.buyer = buyer;\r\n        _orderSoldCounter.increment();\r\n        emit Sold(orderId, order.seller, order.tokenAddress, order.tokenId, order.price, order.buyer);\r\n    }\r\n\r\n    function cancel(uint256 orderId) external {\r\n        Order storage order = orders[orderId];\r\n        require(order.seller == msg.sender, \"Not seller\");\r\n        require(order.buyer == address(0), \"item sold\");\r\n\r\n        FunNFT token = FunNFT(order.tokenAddress);\r\n        token.safeTransferFrom(address(this), order.seller, order.tokenId);\r\n\r\n        orders[orderId].isCancelled = true;\r\n        emit Canceled(orderId, order.seller, order.tokenAddress, order.tokenId, order.price);\r\n    }\r\n\r\n    /* Returns all unsold orders */\r\n    function fetchOrders() public view returns (Order[] memory) {\r\n        uint256 itemCount = _orderIdCounter.current();\r\n        uint256 unsoldItemCount = _orderIdCounter.current() - _orderSoldCounter.current();\r\n        uint256 currentIndex = 0;\r\n\r\n        Order[] memory items = new Order[](unsoldItemCount);\r\n        for (uint256 i = 0; i < itemCount; i++) {\r\n            if (orders[i].buyer == address(0)) {\r\n                Order memory currentItem = orders[i];\r\n                items[currentIndex] = currentItem;\r\n                currentIndex += 1;\r\n            }\r\n        }\r\n        return items;\r\n    }\r\n\r\n  /* Returns only items that a user has been selling */\r\n    function fetchOrderOf(address seller) external view returns (Order[] memory) {\r\n        uint256 totalItemCount = _orderIdCounter.current();\r\n        uint256 itemCount = 0;\r\n        uint256 currentIndex = 0;\r\n\r\n        for (uint i = 0; i < totalItemCount; i++) {\r\n            if (orders[i].seller == seller && orders[i].buyer == address(0)){\r\n                itemCount += 1;\r\n            }\r\n        }\r\n\r\n        Order[] memory items = new Order[](itemCount);\r\n        for (uint256 i = 0; i < totalItemCount; i++) {\r\n            if (orders[i].seller == seller && orders[i].buyer == address(0)) {\r\n                Order memory currentItem = orders[i];\r\n                items[currentIndex] = currentItem;\r\n                currentIndex += 1;\r\n            }\r\n        }\r\n        return items;\r\n    }\r\n\r\n    /* Returns only items in a collection that had being selling */\r\n    function fetchOrderOfCollection(address collection) external view returns (Order[] memory) {\r\n        uint256 totalItemCount = _orderIdCounter.current();\r\n        uint256 itemCount = 0;\r\n        uint256 currentIndex = 0;\r\n\r\n        for (uint i = 0; i < totalItemCount; i++) {\r\n            if (orders[i].tokenAddress == collection && orders[i].buyer == address(0)){\r\n                itemCount += 1;\r\n            }\r\n        }\r\n\r\n        Order[] memory items = new Order[](itemCount);\r\n        for (uint256 i = 0; i < totalItemCount; i++) {\r\n            if (orders[i].tokenAddress == collection && orders[i].buyer == address(0)) {\r\n                Order memory currentItem = orders[i];\r\n                items[currentIndex] = currentItem;\r\n                currentIndex += 1;\r\n            }\r\n        }\r\n        return items;\r\n    }\r\n}",
  "sourcePath": "E:/LamViec/fun-exchange/contracts/exchange/Exchange.sol",
  "compiler": {
    "name": "solc",
    "version": "0.8.6+commit.11564f7e.Emscripten.clang"
  },
  "schemaVersion": "3.3.4",
  "updatedAt": "2021-12-03T09:10:01.484Z",
  "networkType": "ethereum",
  "devdoc": {
    "kind": "dev",
    "methods": {
      "onERC721Received(address,address,uint256,bytes)": {
        "details": "See {IERC721Receiver-onERC721Received}. Always returns `IERC721Receiver.onERC721Received.selector`."
      }
    },
    "version": 1
  },
  "userdoc": {
    "kind": "user",
    "methods": {},
    "version": 1
  }
}