{
  "contractName": "FunNFT",
  "abi": [
    {
      "inputs": [],
      "stateMutability": "nonpayable",
      "type": "constructor"
    },
    {
      "anonymous": false,
      "inputs": [
        {
          "indexed": true,
          "internalType": "address",
          "name": "owner",
          "type": "address"
        },
        {
          "indexed": true,
          "internalType": "address",
          "name": "approved",
          "type": "address"
        },
        {
          "indexed": true,
          "internalType": "uint256",
          "name": "tokenId",
          "type": "uint256"
        }
      ],
      "name": "Approval",
      "type": "event"
    },
    {
      "anonymous": false,
      "inputs": [
        {
          "indexed": true,
          "internalType": "address",
          "name": "owner",
          "type": "address"
        },
        {
          "indexed": true,
          "internalType": "address",
          "name": "operator",
          "type": "address"
        },
        {
          "indexed": false,
          "internalType": "bool",
          "name": "approved",
          "type": "bool"
        }
      ],
      "name": "ApprovalForAll",
      "type": "event"
    },
    {
      "anonymous": false,
      "inputs": [
        {
          "indexed": false,
          "internalType": "uint256",
          "name": "tokenId",
          "type": "uint256"
        },
        {
          "indexed": false,
          "internalType": "address",
          "name": "creator",
          "type": "address"
        },
        {
          "indexed": false,
          "internalType": "uint256",
          "name": "royalty",
          "type": "uint256"
        }
      ],
      "name": "Creator",
      "type": "event"
    },
    {
      "anonymous": false,
      "inputs": [
        {
          "indexed": true,
          "internalType": "address",
          "name": "operator",
          "type": "address"
        },
        {
          "indexed": false,
          "internalType": "bool",
          "name": "hasApproval",
          "type": "bool"
        }
      ],
      "name": "DefaultApproval",
      "type": "event"
    },
    {
      "anonymous": false,
      "inputs": [
        {
          "indexed": true,
          "internalType": "address",
          "name": "previousOwner",
          "type": "address"
        },
        {
          "indexed": true,
          "internalType": "address",
          "name": "newOwner",
          "type": "address"
        }
      ],
      "name": "OwnershipTransferred",
      "type": "event"
    },
    {
      "anonymous": false,
      "inputs": [
        {
          "indexed": true,
          "internalType": "address",
          "name": "from",
          "type": "address"
        },
        {
          "indexed": true,
          "internalType": "address",
          "name": "to",
          "type": "address"
        },
        {
          "indexed": true,
          "internalType": "uint256",
          "name": "tokenId",
          "type": "uint256"
        }
      ],
      "name": "Transfer",
      "type": "event"
    },
    {
      "inputs": [
        {
          "internalType": "address",
          "name": "to",
          "type": "address"
        },
        {
          "internalType": "uint256",
          "name": "tokenId",
          "type": "uint256"
        }
      ],
      "name": "approve",
      "outputs": [],
      "stateMutability": "nonpayable",
      "type": "function"
    },
    {
      "inputs": [
        {
          "internalType": "address",
          "name": "owner",
          "type": "address"
        }
      ],
      "name": "balanceOf",
      "outputs": [
        {
          "internalType": "uint256",
          "name": "",
          "type": "uint256"
        }
      ],
      "stateMutability": "view",
      "type": "function",
      "constant": true
    },
    {
      "inputs": [],
      "name": "baseTokenURI",
      "outputs": [
        {
          "internalType": "string",
          "name": "",
          "type": "string"
        }
      ],
      "stateMutability": "view",
      "type": "function",
      "constant": true
    },
    {
      "inputs": [
        {
          "internalType": "uint256",
          "name": "tokenId",
          "type": "uint256"
        }
      ],
      "name": "burn",
      "outputs": [],
      "stateMutability": "nonpayable",
      "type": "function"
    },
    {
      "inputs": [
        {
          "internalType": "address",
          "name": "creator",
          "type": "address"
        }
      ],
      "name": "createdTokenOf",
      "outputs": [
        {
          "internalType": "uint256",
          "name": "",
          "type": "uint256"
        }
      ],
      "stateMutability": "view",
      "type": "function",
      "constant": true
    },
    {
      "inputs": [
        {
          "internalType": "address",
          "name": "creator",
          "type": "address"
        },
        {
          "internalType": "uint256",
          "name": "index",
          "type": "uint256"
        }
      ],
      "name": "createdTokenOfCreatorByIndex",
      "outputs": [
        {
          "internalType": "uint256",
          "name": "",
          "type": "uint256"
        }
      ],
      "stateMutability": "view",
      "type": "function",
      "constant": true
    },
    {
      "inputs": [
        {
          "internalType": "uint256",
          "name": "tokenId",
          "type": "uint256"
        }
      ],
      "name": "creatorOf",
      "outputs": [
        {
          "internalType": "address",
          "name": "",
          "type": "address"
        }
      ],
      "stateMutability": "view",
      "type": "function",
      "constant": true
    },
    {
      "inputs": [
        {
          "internalType": "uint256",
          "name": "tokenId",
          "type": "uint256"
        }
      ],
      "name": "getApproved",
      "outputs": [
        {
          "internalType": "address",
          "name": "",
          "type": "address"
        }
      ],
      "stateMutability": "view",
      "type": "function",
      "constant": true
    },
    {
      "inputs": [
        {
          "internalType": "address",
          "name": "owner",
          "type": "address"
        },
        {
          "internalType": "address",
          "name": "operator",
          "type": "address"
        }
      ],
      "name": "isApprovedForAll",
      "outputs": [
        {
          "internalType": "bool",
          "name": "",
          "type": "bool"
        }
      ],
      "stateMutability": "view",
      "type": "function",
      "constant": true
    },
    {
      "inputs": [],
      "name": "name",
      "outputs": [
        {
          "internalType": "string",
          "name": "",
          "type": "string"
        }
      ],
      "stateMutability": "view",
      "type": "function",
      "constant": true
    },
    {
      "inputs": [],
      "name": "owner",
      "outputs": [
        {
          "internalType": "address",
          "name": "",
          "type": "address"
        }
      ],
      "stateMutability": "view",
      "type": "function",
      "constant": true
    },
    {
      "inputs": [
        {
          "internalType": "uint256",
          "name": "tokenId",
          "type": "uint256"
        }
      ],
      "name": "ownerOf",
      "outputs": [
        {
          "internalType": "address",
          "name": "",
          "type": "address"
        }
      ],
      "stateMutability": "view",
      "type": "function",
      "constant": true
    },
    {
      "inputs": [],
      "name": "renounceOwnership",
      "outputs": [],
      "stateMutability": "nonpayable",
      "type": "function"
    },
    {
      "inputs": [
        {
          "internalType": "uint256",
          "name": "tokenId",
          "type": "uint256"
        }
      ],
      "name": "royaltyOf",
      "outputs": [
        {
          "internalType": "uint256",
          "name": "",
          "type": "uint256"
        }
      ],
      "stateMutability": "view",
      "type": "function",
      "constant": true
    },
    {
      "inputs": [
        {
          "internalType": "address",
          "name": "from",
          "type": "address"
        },
        {
          "internalType": "address",
          "name": "to",
          "type": "address"
        },
        {
          "internalType": "uint256",
          "name": "tokenId",
          "type": "uint256"
        }
      ],
      "name": "safeTransferFrom",
      "outputs": [],
      "stateMutability": "nonpayable",
      "type": "function"
    },
    {
      "inputs": [
        {
          "internalType": "address",
          "name": "from",
          "type": "address"
        },
        {
          "internalType": "address",
          "name": "to",
          "type": "address"
        },
        {
          "internalType": "uint256",
          "name": "tokenId",
          "type": "uint256"
        },
        {
          "internalType": "bytes",
          "name": "_data",
          "type": "bytes"
        }
      ],
      "name": "safeTransferFrom",
      "outputs": [],
      "stateMutability": "nonpayable",
      "type": "function"
    },
    {
      "inputs": [
        {
          "internalType": "address",
          "name": "operator",
          "type": "address"
        },
        {
          "internalType": "bool",
          "name": "approved",
          "type": "bool"
        }
      ],
      "name": "setApprovalForAll",
      "outputs": [],
      "stateMutability": "nonpayable",
      "type": "function"
    },
    {
      "inputs": [
        {
          "internalType": "address",
          "name": "operator",
          "type": "address"
        },
        {
          "internalType": "bool",
          "name": "hasApproval",
          "type": "bool"
        }
      ],
      "name": "setDefaultApproval",
      "outputs": [],
      "stateMutability": "nonpayable",
      "type": "function"
    },
    {
      "inputs": [
        {
          "internalType": "bytes4",
          "name": "interfaceId",
          "type": "bytes4"
        }
      ],
      "name": "supportsInterface",
      "outputs": [
        {
          "internalType": "bool",
          "name": "",
          "type": "bool"
        }
      ],
      "stateMutability": "view",
      "type": "function",
      "constant": true
    },
    {
      "inputs": [],
      "name": "symbol",
      "outputs": [
        {
          "internalType": "string",
          "name": "",
          "type": "string"
        }
      ],
      "stateMutability": "view",
      "type": "function",
      "constant": true
    },
    {
      "inputs": [
        {
          "internalType": "uint256",
          "name": "index",
          "type": "uint256"
        }
      ],
      "name": "tokenByIndex",
      "outputs": [
        {
          "internalType": "uint256",
          "name": "",
          "type": "uint256"
        }
      ],
      "stateMutability": "view",
      "type": "function",
      "constant": true
    },
    {
      "inputs": [
        {
          "internalType": "address",
          "name": "owner",
          "type": "address"
        },
        {
          "internalType": "uint256",
          "name": "index",
          "type": "uint256"
        }
      ],
      "name": "tokenOfOwnerByIndex",
      "outputs": [
        {
          "internalType": "uint256",
          "name": "",
          "type": "uint256"
        }
      ],
      "stateMutability": "view",
      "type": "function",
      "constant": true
    },
    {
      "inputs": [
        {
          "internalType": "uint256",
          "name": "tokenId",
          "type": "uint256"
        }
      ],
      "name": "tokenURI",
      "outputs": [
        {
          "internalType": "string",
          "name": "",
          "type": "string"
        }
      ],
      "stateMutability": "view",
      "type": "function",
      "constant": true
    },
    {
      "inputs": [],
      "name": "totalSupply",
      "outputs": [
        {
          "internalType": "uint256",
          "name": "",
          "type": "uint256"
        }
      ],
      "stateMutability": "view",
      "type": "function",
      "constant": true
    },
    {
      "inputs": [
        {
          "internalType": "address",
          "name": "from",
          "type": "address"
        },
        {
          "internalType": "address",
          "name": "to",
          "type": "address"
        },
        {
          "internalType": "uint256",
          "name": "tokenId",
          "type": "uint256"
        }
      ],
      "name": "transferFrom",
      "outputs": [],
      "stateMutability": "nonpayable",
      "type": "function"
    },
    {
      "inputs": [
        {
          "internalType": "address",
          "name": "newOwner",
          "type": "address"
        }
      ],
      "name": "transferOwnership",
      "outputs": [],
      "stateMutability": "nonpayable",
      "type": "function"
    },
    {
      "inputs": [
        {
          "internalType": "string",
          "name": "_name",
          "type": "string"
        },
        {
          "internalType": "string",
          "name": "_symbol",
          "type": "string"
        },
        {
          "internalType": "string",
          "name": "_baseTokenURI",
          "type": "string"
        },
        {
          "internalType": "string",
          "name": "_thumbnail",
          "type": "string"
        }
      ],
      "name": "initialize",
      "outputs": [],
      "stateMutability": "nonpayable",
      "type": "function"
    },
    {
      "inputs": [
        {
          "components": [
            {
              "internalType": "uint256",
              "name": "tokenId",
              "type": "uint256"
            },
            {
              "internalType": "string",
              "name": "uri",
              "type": "string"
            },
            {
              "internalType": "address",
              "name": "creator",
              "type": "address"
            },
            {
              "internalType": "uint256",
              "name": "royalty",
              "type": "uint256"
            },
            {
              "internalType": "bytes",
              "name": "signature",
              "type": "bytes"
            }
          ],
          "internalType": "struct FunNFT.Mint721Data",
          "name": "data",
          "type": "tuple"
        },
        {
          "internalType": "address",
          "name": "from",
          "type": "address"
        },
        {
          "internalType": "address",
          "name": "to",
          "type": "address"
        }
      ],
      "name": "transferOrMint",
      "outputs": [],
      "stateMutability": "nonpayable",
      "type": "function"
    },
    {
      "inputs": [
        {
          "components": [
            {
              "internalType": "uint256",
              "name": "tokenId",
              "type": "uint256"
            },
            {
              "internalType": "string",
              "name": "uri",
              "type": "string"
            },
            {
              "internalType": "address",
              "name": "creator",
              "type": "address"
            },
            {
              "internalType": "uint256",
              "name": "royalty",
              "type": "uint256"
            },
            {
              "internalType": "bytes",
              "name": "signature",
              "type": "bytes"
            }
          ],
          "internalType": "struct FunNFT.Mint721Data",
          "name": "data",
          "type": "tuple"
        },
        {
          "internalType": "address",
          "name": "to",
          "type": "address"
        }
      ],
      "name": "mintAndTransfer",
      "outputs": [],
      "stateMutability": "nonpayable",
      "type": "function"
    },
    {
      "inputs": [],
      "name": "getThumbnail",
      "outputs": [
        {
          "internalType": "string",
          "name": "",
          "type": "string"
        }
      ],
      "stateMutability": "view",
      "type": "function",
      "constant": true
    }
  ],
  "bytecode": "0x60806040523480156200001157600080fd5b50600060019054906101000a900460ff168062000039575060008054906101000a900460ff16155b6200007b576040517f08c379a000000000000000000000000000000000000000000000000000000000815260040162000072906200011c565b60405180910390fd5b60008060019054906101000a900460ff161590508015620000cc576001600060016101000a81548160ff02191690831515021790555060016000806101000a81548160ff0219169083151502179055505b8015620000ee5760008060016101000a81548160ff0219169083151502179055505b506200019e565b600062000104602e836200013e565b915062000111826200014f565b604082019050919050565b600060208201905081810360008301526200013781620000f5565b9050919050565b600082825260208201905092915050565b7f496e697469616c697a61626c653a20636f6e747261637420697320616c72656160008201527f647920696e697469616c697a6564000000000000000000000000000000000000602082015250565b615d5380620001ae6000396000f3fe608060405234801561001057600080fd5b50600436106101da5760003560e01c80636352211e11610104578063a523d35e116100a2578063d547cfb711610071578063d547cfb714610589578063e1d74083146105a7578063e985e9c5146105c5578063f2fde38b146105f5576101da565b8063a523d35e146104f1578063b88d4fde1461050d578063c87b56dd14610529578063d26509b114610559576101da565b8063851c9d55116100de578063851c9d55146104695780638da5cb5b1461049957806395d89b41146104b7578063a22cb465146104d5576101da565b80636352211e146103ff57806370a082311461042f578063715018a61461045f576101da565b806323b872dd1161017c57806342966c681161014b57806342966c68146103675780634f6ccce714610383578063589a1743146103b35780635eeb6b14146103e3576101da565b806323b872dd146102e35780632f745c59146102ff57806341f010de1461032f57806342842e0e1461034b576101da565b8063081812fc116101b8578063081812fc1461025d578063095ea7b31461028d57806318054c37146102a957806318160ddd146102c5576101da565b806301ffc9a7146101df57806304e159191461020f57806306fdde031461023f575b600080fd5b6101f960048036038101906101f49190614310565b610611565b6040516102069190614b59565b60405180910390f35b6102296004803603810190610224919061414d565b610623565b6040516102369190614f7b565b60405180910390f35b6102476106da565b6040516102549190614bb9565b60405180910390f35b6102776004803603810190610272919061450c565b61076c565b6040516102849190614af2565b60405180910390f35b6102a760048036038101906102a291906142d0565b6107f1565b005b6102c360048036038101906102be9190614290565b610909565b005b6102cd610993565b6040516102da9190614f7b565b60405180910390f35b6102fd60048036038101906102f891906141ba565b6109a0565b005b610319600480360381019061031491906142d0565b610a00565b6040516103269190614f7b565b60405180910390f35b61034960048036038101906103449190614441565b610aa5565b005b610365600480360381019061036091906141ba565b610bed565b005b610381600480360381019061037c919061450c565b610c0d565b005b61039d6004803603810190610398919061450c565b610c69565b6040516103aa9190614f7b565b60405180910390f35b6103cd60048036038101906103c8919061450c565b610cda565b6040516103da9190614af2565b60405180910390f35b6103fd60048036038101906103f8919061449d565b610d18565b005b6104196004803603810190610414919061450c565b610d4e565b6040516104269190614af2565b60405180910390f35b6104496004803603810190610444919061414d565b610e00565b6040516104569190614f7b565b60405180910390f35b610467610eb8565b005b610483600480360381019061047e91906142d0565b610f40565b6040516104909190614f7b565b60405180910390f35b6104a1611041565b6040516104ae9190614af2565b60405180910390f35b6104bf61106c565b6040516104cc9190614bb9565b60405180910390f35b6104ef60048036038101906104ea9190614290565b6110fe565b005b61050b6004803603810190610506919061436a565b61127f565b005b6105276004803603810190610522919061420d565b6113b6565b005b610543600480360381019061053e919061450c565b611418565b6040516105509190614bb9565b60405180910390f35b610573600480360381019061056e919061450c565b61142a565b6040516105809190614f7b565b60405180910390f35b610591611448565b60405161059e9190614bb9565b60405180910390f35b6105af6114d7565b6040516105bc9190614bb9565b60405180910390f35b6105df60048036038101906105da919061417a565b61156a565b6040516105ec9190614b59565b60405180910390f35b61060f600480360381019061060a919061414d565b6115d3565b005b600061061c826116cb565b9050919050565b6000806000905060006106376101606116dd565b905060005b818110156106cf578473ffffffffffffffffffffffffffffffffffffffff16610162600083815260200190815260200160002060009054906101000a900473ffffffffffffffffffffffffffffffffffffffff1673ffffffffffffffffffffffffffffffffffffffff1614156106bc576001836106b99190615097565b92505b80806106c790615282565b91505061063c565b508192505050919050565b6060606580546106e99061521f565b80601f01602080910402602001604051908101604052809291908181526020018280546107159061521f565b80156107625780601f1061073757610100808354040283529160200191610762565b820191906000526020600020905b81548152906001019060200180831161074557829003601f168201915b5050505050905090565b6000610777826116eb565b6107b6576040517f08c379a00000000000000000000000000000000000000000000000000000000081526004016107ad90614e7b565b60405180910390fd5b6069600083815260200190815260200160002060009054906101000a900473ffffffffffffffffffffffffffffffffffffffff169050919050565b60006107fc82610d4e565b90508073ffffffffffffffffffffffffffffffffffffffff168373ffffffffffffffffffffffffffffffffffffffff16141561086d576040517f08c379a000000000000000000000000000000000000000000000000000000000815260040161086490614efb565b60405180910390fd5b8073ffffffffffffffffffffffffffffffffffffffff1661088c611757565b73ffffffffffffffffffffffffffffffffffffffff1614806108bb57506108ba816108b5611757565b61156a565b5b6108fa576040517f08c379a00000000000000000000000000000000000000000000000000000000081526004016108f190614d7b565b60405180910390fd5b610904838361175f565b505050565b610911611757565b73ffffffffffffffffffffffffffffffffffffffff1661092f611041565b73ffffffffffffffffffffffffffffffffffffffff1614610985576040517f08c379a000000000000000000000000000000000000000000000000000000000815260040161097c90614e9b565b60405180910390fd5b61098f8282611818565b5050565b6000609980549050905090565b6109b16109ab611757565b826118c2565b6109f0576040517f08c379a00000000000000000000000000000000000000000000000000000000081526004016109e790614f1b565b60405180910390fd5b6109fb83838361192b565b505050565b6000610a0b83610e00565b8210610a4c576040517f08c379a0000000000000000000000000000000000000000000000000000000008152600401610a4390614c1b565b60405180910390fd5b609760008473ffffffffffffffffffffffffffffffffffffffff1673ffffffffffffffffffffffffffffffffffffffff168152602001908152602001600020600083815260200190815260200160002054905092915050565b60003390506000836040015190508073ffffffffffffffffffffffffffffffffffffffff168273ffffffffffffffffffffffffffffffffffffffff161480610af35750610af2818361156a565b5b610b32576040517f08c379a0000000000000000000000000000000000000000000000000000000008152600401610b2990614f1b565b60405180910390fd5b6000610b473086604001518760200151611b87565b9050610b57818660800151611bc5565b610b96576040517f08c379a0000000000000000000000000000000000000000000000000000000008152600401610b8d90614d1b565b60405180910390fd5b610baa84610ba56101606116dd565b611c0e565b610bc3610bb86101606116dd565b838760600151611c2c565b610bdb610bd16101606116dd565b8660200151611d1c565b610be6610160611d90565b5050505050565b610c08838383604051806020016040528060008152506113b6565b505050565b610c1e610c18611757565b826118c2565b610c5d576040517f08c379a0000000000000000000000000000000000000000000000000000000008152600401610c5490614f5b565b60405180910390fd5b610c6681611da6565b50565b6000610c73610993565b8210610cb4576040517f08c379a0000000000000000000000000000000000000000000000000000000008152600401610cab90614f3b565b60405180910390fd5b60998281548110610cc857610cc7615415565b5b90600052602060002001549050919050565b6000610162600083815260200190815260200160002060009054906101000a900473ffffffffffffffffffffffffffffffffffffffff169050919050565b610d2583600001516116eb565b15610d3e57610d3982828560000151610bed565b610d49565b610d488382610aa5565b5b505050565b6000806067600084815260200190815260200160002060009054906101000a900473ffffffffffffffffffffffffffffffffffffffff169050600073ffffffffffffffffffffffffffffffffffffffff168173ffffffffffffffffffffffffffffffffffffffff161415610df7576040517f08c379a0000000000000000000000000000000000000000000000000000000008152600401610dee90614dbb565b60405180910390fd5b80915050919050565b60008073ffffffffffffffffffffffffffffffffffffffff168273ffffffffffffffffffffffffffffffffffffffff161415610e71576040517f08c379a0000000000000000000000000000000000000000000000000000000008152600401610e6890614d9b565b60405180910390fd5b606860008373ffffffffffffffffffffffffffffffffffffffff1673ffffffffffffffffffffffffffffffffffffffff168152602001908152602001600020549050919050565b610ec0611757565b73ffffffffffffffffffffffffffffffffffffffff16610ede611041565b73ffffffffffffffffffffffffffffffffffffffff1614610f34576040517f08c379a0000000000000000000000000000000000000000000000000000000008152600401610f2b90614e9b565b60405180910390fd5b610f3e6000611db2565b565b600080600090506000610f546101606116dd565b905060005b81811015610fff578573ffffffffffffffffffffffffffffffffffffffff16610162600083815260200190815260200160002060009054906101000a900473ffffffffffffffffffffffffffffffffffffffff1673ffffffffffffffffffffffffffffffffffffffff161415610fec57600183610fd69190615097565b925084831415610feb5780935050505061103b565b5b8080610ff790615282565b915050610f59565b506040517f08c379a000000000000000000000000000000000000000000000000000000000815260040161103290614c7b565b60405180910390fd5b92915050565b600061012e60009054906101000a900473ffffffffffffffffffffffffffffffffffffffff16905090565b60606066805461107b9061521f565b80601f01602080910402602001604051908101604052809291908181526020018280546110a79061521f565b80156110f45780601f106110c9576101008083540402835291602001916110f4565b820191906000526020600020905b8154815290600101906020018083116110d757829003601f168201915b5050505050905090565b611106611757565b73ffffffffffffffffffffffffffffffffffffffff168273ffffffffffffffffffffffffffffffffffffffff161415611174576040517f08c379a000000000000000000000000000000000000000000000000000000000815260040161116b90614cfb565b60405180910390fd5b80606a6000611181611757565b73ffffffffffffffffffffffffffffffffffffffff1673ffffffffffffffffffffffffffffffffffffffff16815260200190815260200160002060008473ffffffffffffffffffffffffffffffffffffffff1673ffffffffffffffffffffffffffffffffffffffff16815260200190815260200160002060006101000a81548160ff0219169083151502179055508173ffffffffffffffffffffffffffffffffffffffff1661122e611757565b73ffffffffffffffffffffffffffffffffffffffff167f17307eab39ab6107e8899845ad3d59bd9653f200f220920489ca2b5937696c31836040516112739190614b59565b60405180910390a35050565b600060019054906101000a900460ff16806112a5575060008054906101000a900460ff16155b6112e4576040517f08c379a00000000000000000000000000000000000000000000000000000000081526004016112db90614dfb565b60405180910390fd5b60008060019054906101000a900460ff161590508015611334576001600060016101000a81548160ff02191690831515021790555060016000806101000a81548160ff0219169083151502179055505b61133e8585611e7a565b611346611f6f565b61134e612060565b611356612151565b61135e612242565b826101619080519060200190611375929190613e5d565b5081610164908051906020019061138d929190613e5d565b5080156113af5760008060016101000a81548160ff0219169083151502179055505b5050505050565b6113c76113c1611757565b836118c2565b611406576040517f08c379a00000000000000000000000000000000000000000000000000000000081526004016113fd90614f1b565b60405180910390fd5b6114128484848461232b565b50505050565b606061142382612387565b9050919050565b60006101636000838152602001908152602001600020549050919050565b61016180546114569061521f565b80601f01602080910402602001604051908101604052809291908181526020018280546114829061521f565b80156114cf5780601f106114a4576101008083540402835291602001916114cf565b820191906000526020600020905b8154815290600101906020018083116114b257829003601f168201915b505050505081565b606061016480546114e79061521f565b80601f01602080910402602001604051908101604052809291908181526020018280546115139061521f565b80156115605780601f1061153557610100808354040283529160200191611560565b820191906000526020600020905b81548152906001019060200180831161154357829003601f168201915b5050505050905090565b600061012d60008373ffffffffffffffffffffffffffffffffffffffff1673ffffffffffffffffffffffffffffffffffffffff16815260200190815260200160002060009054906101000a900460ff16806115cb57506115ca83836124d9565b5b905092915050565b6115db611757565b73ffffffffffffffffffffffffffffffffffffffff166115f9611041565b73ffffffffffffffffffffffffffffffffffffffff161461164f576040517f08c379a000000000000000000000000000000000000000000000000000000000815260040161164690614e9b565b60405180910390fd5b600073ffffffffffffffffffffffffffffffffffffffff168173ffffffffffffffffffffffffffffffffffffffff1614156116bf576040517f08c379a00000000000000000000000000000000000000000000000000000000081526004016116b690614c5b565b60405180910390fd5b6116c881611db2565b50565b60006116d68261256d565b9050919050565b600081600001549050919050565b60008073ffffffffffffffffffffffffffffffffffffffff166067600084815260200190815260200160002060009054906101000a900473ffffffffffffffffffffffffffffffffffffffff1673ffffffffffffffffffffffffffffffffffffffff1614159050919050565b600033905090565b816069600083815260200190815260200160002060006101000a81548173ffffffffffffffffffffffffffffffffffffffff021916908373ffffffffffffffffffffffffffffffffffffffff160217905550808273ffffffffffffffffffffffffffffffffffffffff166117d283610d4e565b73ffffffffffffffffffffffffffffffffffffffff167f8c5be1e5ebec7d5bd14f71427d1e84f3dd0314c0f7b2291e5b200ac8c7c3b92560405160405180910390a45050565b8061012d60008473ffffffffffffffffffffffffffffffffffffffff1673ffffffffffffffffffffffffffffffffffffffff16815260200190815260200160002060006101000a81548160ff0219169083151502179055508173ffffffffffffffffffffffffffffffffffffffff167f270dbb8ba4292910ae92862466486be25c355c837270a3d8824b36a8bc7c653b826040516118b69190614b59565b60405180910390a25050565b600061012d60008473ffffffffffffffffffffffffffffffffffffffff1673ffffffffffffffffffffffffffffffffffffffff16815260200190815260200160002060009054906101000a900460ff16806119235750611922838361257f565b5b905092915050565b8273ffffffffffffffffffffffffffffffffffffffff1661194b82610d4e565b73ffffffffffffffffffffffffffffffffffffffff16146119a1576040517f08c379a000000000000000000000000000000000000000000000000000000000815260040161199890614ebb565b60405180910390fd5b600073ffffffffffffffffffffffffffffffffffffffff168273ffffffffffffffffffffffffffffffffffffffff161415611a11576040517f08c379a0000000000000000000000000000000000000000000000000000000008152600401611a0890614cdb565b60405180910390fd5b611a1c83838361265d565b611a2760008261175f565b6001606860008573ffffffffffffffffffffffffffffffffffffffff1673ffffffffffffffffffffffffffffffffffffffff1681526020019081526020016000206000828254611a77919061511e565b925050819055506001606860008473ffffffffffffffffffffffffffffffffffffffff1673ffffffffffffffffffffffffffffffffffffffff1681526020019081526020016000206000828254611ace9190615097565b92505081905550816067600083815260200190815260200160002060006101000a81548173ffffffffffffffffffffffffffffffffffffffff021916908373ffffffffffffffffffffffffffffffffffffffff160217905550808273ffffffffffffffffffffffffffffffffffffffff168473ffffffffffffffffffffffffffffffffffffffff167fddf252ad1be2c89b69c2b068fc378daa952ba7f163c4a11628f55a4df523b3ef60405160405180910390a4505050565b6000611bbc848484604051602001611ba193929190614a6f565b6040516020818303038152906040528051906020012061266d565b90509392505050565b6000611bd1838361269d565b73ffffffffffffffffffffffffffffffffffffffff16611bef611041565b73ffffffffffffffffffffffffffffffffffffffff1614905092915050565b611c288282604051806020016040528060008152506126c4565b5050565b6028811115611c70576040517f08c379a0000000000000000000000000000000000000000000000000000000008152600401611c6790614cbb565b60405180910390fd5b81610162600085815260200190815260200160002060006101000a81548173ffffffffffffffffffffffffffffffffffffffff021916908373ffffffffffffffffffffffffffffffffffffffff160217905550806101636000858152602001908152602001600020819055507f6b7cf5856d17260bc32731a72e775520bc629b91e1faab58b4661f3e6ce22a0f838383604051611d0f93929190614f96565b60405180910390a1505050565b611d25826116eb565b611d64576040517f08c379a0000000000000000000000000000000000000000000000000000000008152600401611d5b90614ddb565b60405180910390fd5b8060c960008481526020019081526020016000209080519060200190611d8b929190613e5d565b505050565b6001816000016000828254019250508190555050565b611daf8161271f565b50565b600061012e60009054906101000a900473ffffffffffffffffffffffffffffffffffffffff1690508161012e60006101000a81548173ffffffffffffffffffffffffffffffffffffffff021916908373ffffffffffffffffffffffffffffffffffffffff1602179055508173ffffffffffffffffffffffffffffffffffffffff168173ffffffffffffffffffffffffffffffffffffffff167f8be0079c531659141344cd1fd0a4f28419497f9722a3daafe3b4186f6b6457e060405160405180910390a35050565b600060019054906101000a900460ff1680611ea0575060008054906101000a900460ff16155b611edf576040517f08c379a0000000000000000000000000000000000000000000000000000000008152600401611ed690614dfb565b60405180910390fd5b60008060019054906101000a900460ff161590508015611f2f576001600060016101000a81548160ff02191690831515021790555060016000806101000a81548160ff0219169083151502179055505b611f37612772565b611f3f61284b565b611f498383612924565b8015611f6a5760008060016101000a81548160ff0219169083151502179055505b505050565b600060019054906101000a900460ff1680611f95575060008054906101000a900460ff16155b611fd4576040517f08c379a0000000000000000000000000000000000000000000000000000000008152600401611fcb90614dfb565b60405180910390fd5b60008060019054906101000a900460ff161590508015612024576001600060016101000a81548160ff02191690831515021790555060016000806101000a81548160ff0219169083151502179055505b61202c612772565b61203461284b565b61203c612a2d565b801561205d5760008060016101000a81548160ff0219169083151502179055505b50565b600060019054906101000a900460ff1680612086575060008054906101000a900460ff16155b6120c5576040517f08c379a00000000000000000000000000000000000000000000000000000000081526004016120bc90614dfb565b60405180910390fd5b60008060019054906101000a900460ff161590508015612115576001600060016101000a81548160ff02191690831515021790555060016000806101000a81548160ff0219169083151502179055505b61211d612772565b61212561284b565b61212d612b06565b801561214e5760008060016101000a81548160ff0219169083151502179055505b50565b600060019054906101000a900460ff1680612177575060008054906101000a900460ff16155b6121b6576040517f08c379a00000000000000000000000000000000000000000000000000000000081526004016121ad90614dfb565b60405180910390fd5b60008060019054906101000a900460ff161590508015612206576001600060016101000a81548160ff02191690831515021790555060016000806101000a81548160ff0219169083151502179055505b61220e612772565b61221661284b565b61221e612bdf565b801561223f5760008060016101000a81548160ff0219169083151502179055505b50565b600060019054906101000a900460ff1680612268575060008054906101000a900460ff16155b6122a7576040517f08c379a000000000000000000000000000000000000000000000000000000000815260040161229e90614dfb565b60405180910390fd5b60008060019054906101000a900460ff1615905080156122f7576001600060016101000a81548160ff02191690831515021790555060016000806101000a81548160ff0219169083151502179055505b6122ff612772565b612307612cb8565b80156123285760008060016101000a81548160ff0219169083151502179055505b50565b61233684848461192b565b61234284848484612da1565b612381576040517f08c379a000000000000000000000000000000000000000000000000000000000815260040161237890614c3b565b60405180910390fd5b50505050565b6060612392826116eb565b6123d1576040517f08c379a00000000000000000000000000000000000000000000000000000000081526004016123c890614e5b565b60405180910390fd5b600060c9600084815260200190815260200160002080546123f19061521f565b80601f016020809104026020016040519081016040528092919081815260200182805461241d9061521f565b801561246a5780601f1061243f5761010080835404028352916020019161246a565b820191906000526020600020905b81548152906001019060200180831161244d57829003601f168201915b50505050509050600061247b612f38565b90506000815114156124915781925050506124d4565b6000825111156124c65780826040516020016124ae929190614aa8565b604051602081830303815290604052925050506124d4565b6124cf84612fcb565b925050505b919050565b6000606a60008473ffffffffffffffffffffffffffffffffffffffff1673ffffffffffffffffffffffffffffffffffffffff16815260200190815260200160002060008373ffffffffffffffffffffffffffffffffffffffff1673ffffffffffffffffffffffffffffffffffffffff16815260200190815260200160002060009054906101000a900460ff16905092915050565b600061257882613072565b9050919050565b600061258a826116eb565b6125c9576040517f08c379a00000000000000000000000000000000000000000000000000000000081526004016125c090614d5b565b60405180910390fd5b60006125d483610d4e565b90508073ffffffffffffffffffffffffffffffffffffffff168473ffffffffffffffffffffffffffffffffffffffff16148061264357508373ffffffffffffffffffffffffffffffffffffffff1661262b8461076c565b73ffffffffffffffffffffffffffffffffffffffff16145b806126545750612653818561156a565b5b91505092915050565b6126688383836130ec565b505050565b6000816040516020016126809190614acc565b604051602081830303815290604052805190602001209050919050565b60008060006126ac8585613200565b915091506126b981613283565b819250505092915050565b6126ce8383613458565b6126db6000848484612da1565b61271a576040517f08c379a000000000000000000000000000000000000000000000000000000000815260040161271190614c3b565b60405180910390fd5b505050565b61272881613626565b600060c9600083815260200190815260200160002080546127489061521f565b90501461276f5760c96000828152602001908152602001600020600061276e9190613ee3565b5b50565b600060019054906101000a900460ff1680612798575060008054906101000a900460ff16155b6127d7576040517f08c379a00000000000000000000000000000000000000000000000000000000081526004016127ce90614dfb565b60405180910390fd5b60008060019054906101000a900460ff161590508015612827576001600060016101000a81548160ff02191690831515021790555060016000806101000a81548160ff0219169083151502179055505b80156128485760008060016101000a81548160ff0219169083151502179055505b50565b600060019054906101000a900460ff1680612871575060008054906101000a900460ff16155b6128b0576040517f08c379a00000000000000000000000000000000000000000000000000000000081526004016128a790614dfb565b60405180910390fd5b60008060019054906101000a900460ff161590508015612900576001600060016101000a81548160ff02191690831515021790555060016000806101000a81548160ff0219169083151502179055505b80156129215760008060016101000a81548160ff0219169083151502179055505b50565b600060019054906101000a900460ff168061294a575060008054906101000a900460ff16155b612989576040517f08c379a000000000000000000000000000000000000000000000000000000000815260040161298090614dfb565b60405180910390fd5b60008060019054906101000a900460ff1615905080156129d9576001600060016101000a81548160ff02191690831515021790555060016000806101000a81548160ff0219169083151502179055505b82606590805190602001906129ef929190613e5d565b508160669080519060200190612a06929190613e5d565b508015612a285760008060016101000a81548160ff0219169083151502179055505b505050565b600060019054906101000a900460ff1680612a53575060008054906101000a900460ff16155b612a92576040517f08c379a0000000000000000000000000000000000000000000000000000000008152600401612a8990614dfb565b60405180910390fd5b60008060019054906101000a900460ff161590508015612ae2576001600060016101000a81548160ff02191690831515021790555060016000806101000a81548160ff0219169083151502179055505b8015612b035760008060016101000a81548160ff0219169083151502179055505b50565b600060019054906101000a900460ff1680612b2c575060008054906101000a900460ff16155b612b6b576040517f08c379a0000000000000000000000000000000000000000000000000000000008152600401612b6290614dfb565b60405180910390fd5b60008060019054906101000a900460ff161590508015612bbb576001600060016101000a81548160ff02191690831515021790555060016000806101000a81548160ff0219169083151502179055505b8015612bdc5760008060016101000a81548160ff0219169083151502179055505b50565b600060019054906101000a900460ff1680612c05575060008054906101000a900460ff16155b612c44576040517f08c379a0000000000000000000000000000000000000000000000000000000008152600401612c3b90614dfb565b60405180910390fd5b60008060019054906101000a900460ff161590508015612c94576001600060016101000a81548160ff02191690831515021790555060016000806101000a81548160ff0219169083151502179055505b8015612cb55760008060016101000a81548160ff0219169083151502179055505b50565b600060019054906101000a900460ff1680612cde575060008054906101000a900460ff16155b612d1d576040517f08c379a0000000000000000000000000000000000000000000000000000000008152600401612d1490614dfb565b60405180910390fd5b60008060019054906101000a900460ff161590508015612d6d576001600060016101000a81548160ff02191690831515021790555060016000806101000a81548160ff0219169083151502179055505b612d7d612d78611757565b611db2565b8015612d9e5760008060016101000a81548160ff0219169083151502179055505b50565b6000612dc28473ffffffffffffffffffffffffffffffffffffffff16613737565b15612f2b578373ffffffffffffffffffffffffffffffffffffffff1663150b7a02612deb611757565b8786866040518563ffffffff1660e01b8152600401612e0d9493929190614b0d565b602060405180830381600087803b158015612e2757600080fd5b505af1925050508015612e5857506040513d601f19601f82011682018060405250810190612e55919061433d565b60015b612edb573d8060008114612e88576040519150601f19603f3d011682016040523d82523d6000602084013e612e8d565b606091505b50600081511415612ed3576040517f08c379a0000000000000000000000000000000000000000000000000000000008152600401612eca90614c3b565b60405180910390fd5b805181602001fd5b63150b7a0260e01b7bffffffffffffffffffffffffffffffffffffffffffffffffffffffff1916817bffffffffffffffffffffffffffffffffffffffffffffffffffffffff191614915050612f30565b600190505b949350505050565b60606101618054612f489061521f565b80601f0160208091040260200160405190810160405280929190818152602001828054612f749061521f565b8015612fc15780601f10612f9657610100808354040283529160200191612fc1565b820191906000526020600020905b815481529060010190602001808311612fa457829003601f168201915b5050505050905090565b6060612fd6826116eb565b613015576040517f08c379a000000000000000000000000000000000000000000000000000000000815260040161300c90614edb565b60405180910390fd5b600061301f612f38565b9050600081511161303f576040518060200160405280600081525061306a565b806130498461374a565b60405160200161305a929190614aa8565b6040516020818303038152906040525b915050919050565b60007f780e9d63000000000000000000000000000000000000000000000000000000007bffffffffffffffffffffffffffffffffffffffffffffffffffffffff1916827bffffffffffffffffffffffffffffffffffffffffffffffffffffffff191614806130e557506130e4826138ab565b5b9050919050565b6130f783838361398d565b600073ffffffffffffffffffffffffffffffffffffffff168373ffffffffffffffffffffffffffffffffffffffff16141561313a5761313581613992565b613179565b8173ffffffffffffffffffffffffffffffffffffffff168373ffffffffffffffffffffffffffffffffffffffff16146131785761317783826139db565b5b5b600073ffffffffffffffffffffffffffffffffffffffff168273ffffffffffffffffffffffffffffffffffffffff1614156131bc576131b781613b48565b6131fb565b8273ffffffffffffffffffffffffffffffffffffffff168273ffffffffffffffffffffffffffffffffffffffff16146131fa576131f98282613c19565b5b5b505050565b6000806041835114156132425760008060006020860151925060408601519150606086015160001a905061323687828585613c98565b9450945050505061327c565b604083511415613273576000806020850151915060408501519050613268868383613da5565b93509350505061327c565b60006002915091505b9250929050565b6000600481111561329757613296615388565b5b8160048111156132aa576132a9615388565b5b14156132b557613455565b600160048111156132c9576132c8615388565b5b8160048111156132dc576132db615388565b5b141561331d576040517f08c379a000000000000000000000000000000000000000000000000000000000815260040161331490614bdb565b60405180910390fd5b6002600481111561333157613330615388565b5b81600481111561334457613343615388565b5b1415613385576040517f08c379a000000000000000000000000000000000000000000000000000000000815260040161337c90614bfb565b60405180910390fd5b6003600481111561339957613398615388565b5b8160048111156133ac576133ab615388565b5b14156133ed576040517f08c379a00000000000000000000000000000000000000000000000000000000081526004016133e490614d3b565b60405180910390fd5b600480811115613400576133ff615388565b5b81600481111561341357613412615388565b5b1415613454576040517f08c379a000000000000000000000000000000000000000000000000000000000815260040161344b90614e1b565b60405180910390fd5b5b50565b600073ffffffffffffffffffffffffffffffffffffffff168273ffffffffffffffffffffffffffffffffffffffff1614156134c8576040517f08c379a00000000000000000000000000000000000000000000000000000000081526004016134bf90614e3b565b60405180910390fd5b6134d1816116eb565b15613511576040517f08c379a000000000000000000000000000000000000000000000000000000000815260040161350890614c9b565b60405180910390fd5b61351d6000838361265d565b6001606860008473ffffffffffffffffffffffffffffffffffffffff1673ffffffffffffffffffffffffffffffffffffffff168152602001908152602001600020600082825461356d9190615097565b92505081905550816067600083815260200190815260200160002060006101000a81548173ffffffffffffffffffffffffffffffffffffffff021916908373ffffffffffffffffffffffffffffffffffffffff160217905550808273ffffffffffffffffffffffffffffffffffffffff16600073ffffffffffffffffffffffffffffffffffffffff167fddf252ad1be2c89b69c2b068fc378daa952ba7f163c4a11628f55a4df523b3ef60405160405180910390a45050565b600061363182610d4e565b905061363f8160008461265d565b61364a60008361175f565b6001606860008373ffffffffffffffffffffffffffffffffffffffff1673ffffffffffffffffffffffffffffffffffffffff168152602001908152602001600020600082825461369a919061511e565b925050819055506067600083815260200190815260200160002060006101000a81549073ffffffffffffffffffffffffffffffffffffffff021916905581600073ffffffffffffffffffffffffffffffffffffffff168273ffffffffffffffffffffffffffffffffffffffff167fddf252ad1be2c89b69c2b068fc378daa952ba7f163c4a11628f55a4df523b3ef60405160405180910390a45050565b600080823b905060008111915050919050565b60606000821415613792576040518060400160405280600181526020017f300000000000000000000000000000000000000000000000000000000000000081525090506138a6565b600082905060005b600082146137c45780806137ad90615282565b915050600a826137bd91906150ed565b915061379a565b60008167ffffffffffffffff8111156137e0576137df615444565b5b6040519080825280601f01601f1916602001820160405280156138125781602001600182028036833780820191505090505b5090505b6000851461389f5760018261382b919061511e565b9150600a8561383a91906152f9565b60306138469190615097565b60f81b81838151811061385c5761385b615415565b5b60200101907effffffffffffffffffffffffffffffffffffffffffffffffffffffffffffff1916908160001a905350600a8561389891906150ed565b9450613816565b8093505050505b919050565b60007f80ac58cd000000000000000000000000000000000000000000000000000000007bffffffffffffffffffffffffffffffffffffffffffffffffffffffff1916827bffffffffffffffffffffffffffffffffffffffffffffffffffffffff1916148061397657507f5b5e139f000000000000000000000000000000000000000000000000000000007bffffffffffffffffffffffffffffffffffffffffffffffffffffffff1916827bffffffffffffffffffffffffffffffffffffffffffffffffffffffff1916145b80613986575061398582613df3565b5b9050919050565b505050565b609980549050609a600083815260200190815260200160002081905550609981908060018154018082558091505060019003906000526020600020016000909190919091505550565b600060016139e884610e00565b6139f2919061511e565b9050600060986000848152602001908152602001600020549050818114613ad7576000609760008673ffffffffffffffffffffffffffffffffffffffff1673ffffffffffffffffffffffffffffffffffffffff168152602001908152602001600020600084815260200190815260200160002054905080609760008773ffffffffffffffffffffffffffffffffffffffff1673ffffffffffffffffffffffffffffffffffffffff168152602001908152602001600020600084815260200190815260200160002081905550816098600083815260200190815260200160002081905550505b6098600084815260200190815260200160002060009055609760008573ffffffffffffffffffffffffffffffffffffffff1673ffffffffffffffffffffffffffffffffffffffff16815260200190815260200160002060008381526020019081526020016000206000905550505050565b60006001609980549050613b5c919061511e565b90506000609a6000848152602001908152602001600020549050600060998381548110613b8c57613b8b615415565b5b906000526020600020015490508060998381548110613bae57613bad615415565b5b906000526020600020018190555081609a600083815260200190815260200160002081905550609a6000858152602001908152602001600020600090556099805480613bfd57613bfc6153e6565b5b6001900381819060005260206000200160009055905550505050565b6000613c2483610e00565b905081609760008573ffffffffffffffffffffffffffffffffffffffff1673ffffffffffffffffffffffffffffffffffffffff168152602001908152602001600020600083815260200190815260200160002081905550806098600084815260200190815260200160002081905550505050565b6000807f7fffffffffffffffffffffffffffffff5d576e7357a4501ddfe92f46681b20a08360001c1115613cd3576000600391509150613d9c565b601b8560ff1614158015613ceb5750601c8560ff1614155b15613cfd576000600491509150613d9c565b600060018787878760405160008152602001604052604051613d229493929190614b74565b6020604051602081039080840390855afa158015613d44573d6000803e3d6000fd5b505050602060405103519050600073ffffffffffffffffffffffffffffffffffffffff168173ffffffffffffffffffffffffffffffffffffffff161415613d9357600060019250925050613d9c565b80600092509250505b94509492505050565b6000806000807f7fffffffffffffffffffffffffffffffffffffffffffffffffffffffffffffff85169150601b8560ff1c019050613de587828885613c98565b935093505050935093915050565b60007f01ffc9a7000000000000000000000000000000000000000000000000000000007bffffffffffffffffffffffffffffffffffffffffffffffffffffffff1916827bffffffffffffffffffffffffffffffffffffffffffffffffffffffff1916149050919050565b828054613e699061521f565b90600052602060002090601f016020900481019282613e8b5760008555613ed2565b82601f10613ea457805160ff1916838001178555613ed2565b82800160010185558215613ed2579182015b82811115613ed1578251825591602001919060010190613eb6565b5b509050613edf9190613f23565b5090565b508054613eef9061521f565b6000825580601f10613f015750613f20565b601f016020900490600052602060002090810190613f1f9190613f23565b5b50565b5b80821115613f3c576000816000905550600101613f24565b5090565b6000613f53613f4e84614ff2565b614fcd565b905082815260208101848484011115613f6f57613f6e615482565b5b613f7a8482856151dd565b509392505050565b6000613f95613f9084615023565b614fcd565b905082815260208101848484011115613fb157613fb0615482565b5b613fbc8482856151dd565b509392505050565b600081359050613fd381615cc1565b92915050565b600081359050613fe881615cd8565b92915050565b600081359050613ffd81615cef565b92915050565b60008151905061401281615cef565b92915050565b600082601f83011261402d5761402c615473565b5b813561403d848260208601613f40565b91505092915050565b600082601f83011261405b5761405a615473565b5b813561406b848260208601613f82565b91505092915050565b600060a0828403121561408a57614089615478565b5b61409460a0614fcd565b905060006140a484828501614138565b600083015250602082013567ffffffffffffffff8111156140c8576140c761547d565b5b6140d484828501614046565b60208301525060406140e884828501613fc4565b60408301525060606140fc84828501614138565b606083015250608082013567ffffffffffffffff8111156141205761411f61547d565b5b61412c84828501614018565b60808301525092915050565b60008135905061414781615d06565b92915050565b6000602082840312156141635761416261548c565b5b600061417184828501613fc4565b91505092915050565b600080604083850312156141915761419061548c565b5b600061419f85828601613fc4565b92505060206141b085828601613fc4565b9150509250929050565b6000806000606084860312156141d3576141d261548c565b5b60006141e186828701613fc4565b93505060206141f286828701613fc4565b925050604061420386828701614138565b9150509250925092565b600080600080608085870312156142275761422661548c565b5b600061423587828801613fc4565b945050602061424687828801613fc4565b935050604061425787828801614138565b925050606085013567ffffffffffffffff81111561427857614277615487565b5b61428487828801614018565b91505092959194509250565b600080604083850312156142a7576142a661548c565b5b60006142b585828601613fc4565b92505060206142c685828601613fd9565b9150509250929050565b600080604083850312156142e7576142e661548c565b5b60006142f585828601613fc4565b925050602061430685828601614138565b9150509250929050565b6000602082840312156143265761432561548c565b5b600061433484828501613fee565b91505092915050565b6000602082840312156143535761435261548c565b5b600061436184828501614003565b91505092915050565b600080600080608085870312156143845761438361548c565b5b600085013567ffffffffffffffff8111156143a2576143a1615487565b5b6143ae87828801614046565b945050602085013567ffffffffffffffff8111156143cf576143ce615487565b5b6143db87828801614046565b935050604085013567ffffffffffffffff8111156143fc576143fb615487565b5b61440887828801614046565b925050606085013567ffffffffffffffff81111561442957614428615487565b5b61443587828801614046565b91505092959194509250565b600080604083850312156144585761445761548c565b5b600083013567ffffffffffffffff81111561447657614475615487565b5b61448285828601614074565b925050602061449385828601613fc4565b9150509250929050565b6000806000606084860312156144b6576144b561548c565b5b600084013567ffffffffffffffff8111156144d4576144d3615487565b5b6144e086828701614074565b93505060206144f186828701613fc4565b925050604061450286828701613fc4565b9150509250925092565b6000602082840312156145225761452161548c565b5b600061453084828501614138565b91505092915050565b61454281615152565b82525050565b61455961455482615152565b6152cb565b82525050565b61456881615164565b82525050565b61457781615170565b82525050565b61458e61458982615170565b6152dd565b82525050565b600061459f82615054565b6145a9818561506a565b93506145b98185602086016151ec565b6145c281615491565b840191505092915050565b60006145d88261505f565b6145e2818561507b565b93506145f28185602086016151ec565b6145fb81615491565b840191505092915050565b60006146118261505f565b61461b818561508c565b935061462b8185602086016151ec565b80840191505092915050565b600061464460188361507b565b915061464f826154af565b602082019050919050565b6000614667601f8361507b565b9150614672826154d8565b602082019050919050565b600061468a601c8361508c565b915061469582615501565b601c82019050919050565b60006146ad602b8361507b565b91506146b88261552a565b604082019050919050565b60006146d060328361507b565b91506146db82615579565b604082019050919050565b60006146f360268361507b565b91506146fe826155c8565b604082019050919050565b6000614716602e8361507b565b915061472182615617565b604082019050919050565b6000614739601c8361507b565b915061474482615666565b602082019050919050565b600061475c60218361507b565b91506147678261568f565b604082019050919050565b600061477f60248361507b565b915061478a826156de565b604082019050919050565b60006147a260198361507b565b91506147ad8261572d565b602082019050919050565b60006147c560118361507b565b91506147d082615756565b602082019050919050565b60006147e860228361507b565b91506147f38261577f565b604082019050919050565b600061480b602c8361507b565b9150614816826157ce565b604082019050919050565b600061482e60388361507b565b91506148398261581d565b604082019050919050565b6000614851602a8361507b565b915061485c8261586c565b604082019050919050565b600061487460298361507b565b915061487f826158bb565b604082019050919050565b6000614897602e8361507b565b91506148a28261590a565b604082019050919050565b60006148ba602e8361507b565b91506148c582615959565b604082019050919050565b60006148dd60228361507b565b91506148e8826159a8565b604082019050919050565b600061490060208361507b565b915061490b826159f7565b602082019050919050565b600061492360318361507b565b915061492e82615a20565b604082019050919050565b6000614946602c8361507b565b915061495182615a6f565b604082019050919050565b600061496960208361507b565b915061497482615abe565b602082019050919050565b600061498c60298361507b565b915061499782615ae7565b604082019050919050565b60006149af602f8361507b565b91506149ba82615b36565b604082019050919050565b60006149d260218361507b565b91506149dd82615b85565b604082019050919050565b60006149f560318361507b565b9150614a0082615bd4565b604082019050919050565b6000614a18602c8361507b565b9150614a2382615c23565b604082019050919050565b6000614a3b60308361507b565b9150614a4682615c72565b604082019050919050565b614a5a816151c6565b82525050565b614a69816151d0565b82525050565b6000614a7b8286614548565b601482019150614a8b8285614548565b601482019150614a9b8284614606565b9150819050949350505050565b6000614ab48285614606565b9150614ac08284614606565b91508190509392505050565b6000614ad78261467d565b9150614ae3828461457d565b60208201915081905092915050565b6000602082019050614b076000830184614539565b92915050565b6000608082019050614b226000830187614539565b614b2f6020830186614539565b614b3c6040830185614a51565b8181036060830152614b4e8184614594565b905095945050505050565b6000602082019050614b6e600083018461455f565b92915050565b6000608082019050614b89600083018761456e565b614b966020830186614a60565b614ba3604083018561456e565b614bb0606083018461456e565b95945050505050565b60006020820190508181036000830152614bd381846145cd565b905092915050565b60006020820190508181036000830152614bf481614637565b9050919050565b60006020820190508181036000830152614c148161465a565b9050919050565b60006020820190508181036000830152614c34816146a0565b9050919050565b60006020820190508181036000830152614c54816146c3565b9050919050565b60006020820190508181036000830152614c74816146e6565b9050919050565b60006020820190508181036000830152614c9481614709565b9050919050565b60006020820190508181036000830152614cb48161472c565b9050919050565b60006020820190508181036000830152614cd48161474f565b9050919050565b60006020820190508181036000830152614cf481614772565b9050919050565b60006020820190508181036000830152614d1481614795565b9050919050565b60006020820190508181036000830152614d34816147b8565b9050919050565b60006020820190508181036000830152614d54816147db565b9050919050565b60006020820190508181036000830152614d74816147fe565b9050919050565b60006020820190508181036000830152614d9481614821565b9050919050565b60006020820190508181036000830152614db481614844565b9050919050565b60006020820190508181036000830152614dd481614867565b9050919050565b60006020820190508181036000830152614df48161488a565b9050919050565b60006020820190508181036000830152614e14816148ad565b9050919050565b60006020820190508181036000830152614e34816148d0565b9050919050565b60006020820190508181036000830152614e54816148f3565b9050919050565b60006020820190508181036000830152614e7481614916565b9050919050565b60006020820190508181036000830152614e9481614939565b9050919050565b60006020820190508181036000830152614eb48161495c565b9050919050565b60006020820190508181036000830152614ed48161497f565b9050919050565b60006020820190508181036000830152614ef4816149a2565b9050919050565b60006020820190508181036000830152614f14816149c5565b9050919050565b60006020820190508181036000830152614f34816149e8565b9050919050565b60006020820190508181036000830152614f5481614a0b565b9050919050565b60006020820190508181036000830152614f7481614a2e565b9050919050565b6000602082019050614f906000830184614a51565b92915050565b6000606082019050614fab6000830186614a51565b614fb86020830185614539565b614fc56040830184614a51565b949350505050565b6000614fd7614fe8565b9050614fe38282615251565b919050565b6000604051905090565b600067ffffffffffffffff82111561500d5761500c615444565b5b61501682615491565b9050602081019050919050565b600067ffffffffffffffff82111561503e5761503d615444565b5b61504782615491565b9050602081019050919050565b600081519050919050565b600081519050919050565b600082825260208201905092915050565b600082825260208201905092915050565b600081905092915050565b60006150a2826151c6565b91506150ad836151c6565b9250827fffffffffffffffffffffffffffffffffffffffffffffffffffffffffffffffff038211156150e2576150e161532a565b5b828201905092915050565b60006150f8826151c6565b9150615103836151c6565b92508261511357615112615359565b5b828204905092915050565b6000615129826151c6565b9150615134836151c6565b9250828210156151475761514661532a565b5b828203905092915050565b600061515d826151a6565b9050919050565b60008115159050919050565b6000819050919050565b60007fffffffff0000000000000000000000000000000000000000000000000000000082169050919050565b600073ffffffffffffffffffffffffffffffffffffffff82169050919050565b6000819050919050565b600060ff82169050919050565b82818337600083830152505050565b60005b8381101561520a5780820151818401526020810190506151ef565b83811115615219576000848401525b50505050565b6000600282049050600182168061523757607f821691505b6020821081141561524b5761524a6153b7565b5b50919050565b61525a82615491565b810181811067ffffffffffffffff8211171561527957615278615444565b5b80604052505050565b600061528d826151c6565b91507fffffffffffffffffffffffffffffffffffffffffffffffffffffffffffffffff8214156152c0576152bf61532a565b5b600182019050919050565b60006152d6826152e7565b9050919050565b6000819050919050565b60006152f2826154a2565b9050919050565b6000615304826151c6565b915061530f836151c6565b92508261531f5761531e615359565b5b828206905092915050565b7f4e487b7100000000000000000000000000000000000000000000000000000000600052601160045260246000fd5b7f4e487b7100000000000000000000000000000000000000000000000000000000600052601260045260246000fd5b7f4e487b7100000000000000000000000000000000000000000000000000000000600052602160045260246000fd5b7f4e487b7100000000000000000000000000000000000000000000000000000000600052602260045260246000fd5b7f4e487b7100000000000000000000000000000000000000000000000000000000600052603160045260246000fd5b7f4e487b7100000000000000000000000000000000000000000000000000000000600052603260045260246000fd5b7f4e487b7100000000000000000000000000000000000000000000000000000000600052604160045260246000fd5b600080fd5b600080fd5b600080fd5b600080fd5b600080fd5b600080fd5b6000601f19601f8301169050919050565b60008160601b9050919050565b7f45434453413a20696e76616c6964207369676e61747572650000000000000000600082015250565b7f45434453413a20696e76616c6964207369676e6174757265206c656e67746800600082015250565b7f19457468657265756d205369676e6564204d6573736167653a0a333200000000600082015250565b7f455243373231456e756d657261626c653a206f776e657220696e646578206f7560008201527f74206f6620626f756e6473000000000000000000000000000000000000000000602082015250565b7f4552433732313a207472616e7366657220746f206e6f6e20455243373231526560008201527f63656976657220696d706c656d656e7465720000000000000000000000000000602082015250565b7f4f776e61626c653a206e6577206f776e657220697320746865207a65726f206160008201527f6464726573730000000000000000000000000000000000000000000000000000602082015250565b7f5468697320746f6b656e20646964206e6f74206265206372656174656420627960008201527f20746869732063726561746f722e000000000000000000000000000000000000602082015250565b7f4552433732313a20746f6b656e20616c7265616479206d696e74656400000000600082015250565b7f726f79616c74792063616e6e6f742062652067726561746572207468616e203460008201527f3000000000000000000000000000000000000000000000000000000000000000602082015250565b7f4552433732313a207472616e7366657220746f20746865207a65726f2061646460008201527f7265737300000000000000000000000000000000000000000000000000000000602082015250565b7f4552433732313a20617070726f766520746f2063616c6c657200000000000000600082015250565b7f496e76616c6964207369676e6174757265000000000000000000000000000000600082015250565b7f45434453413a20696e76616c6964207369676e6174757265202773272076616c60008201527f7565000000000000000000000000000000000000000000000000000000000000602082015250565b7f4552433732313a206f70657261746f7220717565727920666f72206e6f6e657860008201527f697374656e7420746f6b656e0000000000000000000000000000000000000000602082015250565b7f4552433732313a20617070726f76652063616c6c6572206973206e6f74206f7760008201527f6e6572206e6f7220617070726f76656420666f7220616c6c0000000000000000602082015250565b7f4552433732313a2062616c616e636520717565727920666f7220746865207a6560008201527f726f206164647265737300000000000000000000000000000000000000000000602082015250565b7f4552433732313a206f776e657220717565727920666f72206e6f6e657869737460008201527f656e7420746f6b656e0000000000000000000000000000000000000000000000602082015250565b7f45524337323155524953746f726167653a2055524920736574206f66206e6f6e60008201527f6578697374656e7420746f6b656e000000000000000000000000000000000000602082015250565b7f496e697469616c697a61626c653a20636f6e747261637420697320616c72656160008201527f647920696e697469616c697a6564000000000000000000000000000000000000602082015250565b7f45434453413a20696e76616c6964207369676e6174757265202776272076616c60008201527f7565000000000000000000000000000000000000000000000000000000000000602082015250565b7f4552433732313a206d696e7420746f20746865207a65726f2061646472657373600082015250565b7f45524337323155524953746f726167653a2055524920717565727920666f722060008201527f6e6f6e6578697374656e7420746f6b656e000000000000000000000000000000602082015250565b7f4552433732313a20617070726f76656420717565727920666f72206e6f6e657860008201527f697374656e7420746f6b656e0000000000000000000000000000000000000000602082015250565b7f4f776e61626c653a2063616c6c6572206973206e6f7420746865206f776e6572600082015250565b7f4552433732313a207472616e73666572206f6620746f6b656e2074686174206960008201527f73206e6f74206f776e0000000000000000000000000000000000000000000000602082015250565b7f4552433732314d657461646174613a2055524920717565727920666f72206e6f60008201527f6e6578697374656e7420746f6b656e0000000000000000000000000000000000602082015250565b7f4552433732313a20617070726f76616c20746f2063757272656e74206f776e6560008201527f7200000000000000000000000000000000000000000000000000000000000000602082015250565b7f4552433732313a207472616e736665722063616c6c6572206973206e6f74206f60008201527f776e6572206e6f7220617070726f766564000000000000000000000000000000602082015250565b7f455243373231456e756d657261626c653a20676c6f62616c20696e646578206f60008201527f7574206f6620626f756e64730000000000000000000000000000000000000000602082015250565b7f4552433732314275726e61626c653a2063616c6c6572206973206e6f74206f7760008201527f6e6572206e6f7220617070726f76656400000000000000000000000000000000602082015250565b615cca81615152565b8114615cd557600080fd5b50565b615ce181615164565b8114615cec57600080fd5b50565b615cf88161517a565b8114615d0357600080fd5b50565b615d0f816151c6565b8114615d1a57600080fd5b5056fea26469706673582212205275542bf1e3dbbec5c416fb97b6828cb3073760cc15139d6d9ad54e28f6d70664736f6c63430008060033",
  "immutableReferences": {},
  "source": "// SPDX-License-Identifier: MIT\r\npragma solidity >=0.4.22 <0.9.0;\r\n\r\nimport \"@openzeppelin/contracts-upgradeable/utils/CountersUpgradeable.sol\";\r\nimport \"@openzeppelin/contracts-upgradeable/utils/cryptography/ECDSAUpgradeable.sol\";\r\nimport \"./NFTBase.sol\";\r\n\r\ncontract FunNFT is NFTBase {\r\n    using CountersUpgradeable for CountersUpgradeable.Counter;\r\n    /// @custom:oz-upgrades-unsafe-allow constructor\r\n    constructor() initializer {}\r\n    struct Mint721Data {\r\n        uint256 tokenId;\r\n        string uri;\r\n        address creator;\r\n        uint256 royalty;\r\n        bytes signature;\r\n    }\r\n    string private thumbnail;\r\n\r\n    function initialize(string memory _name, string memory _symbol, string memory _baseTokenURI, string memory _thumbnail) \r\n    initializer \r\n    public {\r\n        __ERC721_init(_name, _symbol);\r\n        __ERC721Enumerable_init();\r\n        __ERC721URIStorage_init();\r\n        __ERC721Burnable_init();\r\n        __Ownable_init();\r\n\r\n        baseTokenURI = _baseTokenURI;\r\n        thumbnail = _thumbnail;\r\n    }\r\n\r\n    function transferOrMint(Mint721Data memory data, address from, address to) external {\r\n        if (_exists(data.tokenId)) {\r\n            safeTransferFrom(from, to, data.tokenId);\r\n        } else {\r\n            mintAndTransfer(data, to);\r\n        }\r\n    }\r\n\r\n    function mintAndTransfer(Mint721Data memory data, address to) public {\r\n        address minter = msg.sender;\r\n        address creator = data.creator;\r\n\r\n        require(minter == creator || isApprovedForAll(creator, minter), \"ERC721: transfer caller is not owner nor approved\");\r\n\r\n        /*\r\n        Lazy minting \r\n        */\r\n\r\n        bytes32 digest = _hash(address(this), data.creator, data.uri);\r\n        require(_verify(digest, data.signature), \"Invalid signature\");\r\n\r\n        _safeMint(to, _tokenIdCounter.current());\r\n        _saveCreator(_tokenIdCounter.current(), creator, data.royalty);\r\n        _setTokenURI(_tokenIdCounter.current(), data.uri);\r\n        /* \r\n        Save royalty\r\n        */\r\n        _tokenIdCounter.increment();\r\n    }\r\n\r\n    function _hash(address collection, address creator, string memory uri)\r\n    internal pure returns (bytes32)\r\n    {\r\n        return ECDSAUpgradeable.toEthSignedMessageHash(keccak256(abi.encodePacked(collection, creator, uri)));\r\n    }\r\n\r\n    function _verify(bytes32 digest, bytes memory signature)\r\n    internal view returns (bool)\r\n    {\r\n        return owner() == ECDSAUpgradeable.recover(digest, signature);\r\n\r\n    }\r\n\r\n    function getThumbnail() external view returns(string memory) {\r\n        return thumbnail;\r\n    }\r\n}",
  "sourcePath": "E:\\LamViec\\fun-exchange\\contracts\\tokens\\FunNFT.sol",
  "compiler": {
    "name": "solc",
    "version": "0.8.6+commit.11564f7e.Emscripten.clang"
  },
  "schemaVersion": "3.3.4",
  "updatedAt": "2021-12-03T09:10:01.571Z",
  "networkType": "ethereum",
  "devdoc": {
    "kind": "dev",
    "methods": {
      "approve(address,uint256)": {
        "details": "See {IERC721-approve}."
      },
      "balanceOf(address)": {
        "details": "See {IERC721-balanceOf}."
      },
      "burn(uint256)": {
        "details": "Burns `tokenId`. See {ERC721-_burn}. Requirements: - The caller must own `tokenId` or be an approved operator."
      },
      "constructor": {
        "custom:oz-upgrades-unsafe-allow": "constructor"
      },
      "getApproved(uint256)": {
        "details": "See {IERC721-getApproved}."
      },
      "isApprovedForAll(address,address)": {
        "details": "See {IERC721-isApprovedForAll}."
      },
      "name()": {
        "details": "See {IERC721Metadata-name}."
      },
      "owner()": {
        "details": "Returns the address of the current owner."
      },
      "ownerOf(uint256)": {
        "details": "See {IERC721-ownerOf}."
      },
      "renounceOwnership()": {
        "details": "Leaves the contract without owner. It will not be possible to call `onlyOwner` functions anymore. Can only be called by the current owner. NOTE: Renouncing ownership will leave the contract without an owner, thereby removing any functionality that is only available to the owner."
      },
      "safeTransferFrom(address,address,uint256)": {
        "details": "See {IERC721-safeTransferFrom}."
      },
      "safeTransferFrom(address,address,uint256,bytes)": {
        "details": "See {IERC721-safeTransferFrom}."
      },
      "setApprovalForAll(address,bool)": {
        "details": "See {IERC721-setApprovalForAll}."
      },
      "symbol()": {
        "details": "See {IERC721Metadata-symbol}."
      },
      "tokenByIndex(uint256)": {
        "details": "See {IERC721Enumerable-tokenByIndex}."
      },
      "tokenOfOwnerByIndex(address,uint256)": {
        "details": "See {IERC721Enumerable-tokenOfOwnerByIndex}."
      },
      "totalSupply()": {
        "details": "See {IERC721Enumerable-totalSupply}."
      },
      "transferFrom(address,address,uint256)": {
        "details": "See {IERC721-transferFrom}."
      },
      "transferOwnership(address)": {
        "details": "Transfers ownership of the contract to a new account (`newOwner`). Can only be called by the current owner."
      }
    },
    "version": 1
  },
  "userdoc": {
    "kind": "user",
    "methods": {},
    "version": 1
  }
}