{
  "contractName": "FunNFT",
  "abi": [
    {
      "inputs": [],
      "stateMutability": "nonpayable",
      "type": "constructor"
    },
    {
      "anonymous": false,
      "inputs": [
        {
          "indexed": true,
          "internalType": "address",
          "name": "owner",
          "type": "address"
        },
        {
          "indexed": true,
          "internalType": "address",
          "name": "approved",
          "type": "address"
        },
        {
          "indexed": true,
          "internalType": "uint256",
          "name": "tokenId",
          "type": "uint256"
        }
      ],
      "name": "Approval",
      "type": "event"
    },
    {
      "anonymous": false,
      "inputs": [
        {
          "indexed": true,
          "internalType": "address",
          "name": "owner",
          "type": "address"
        },
        {
          "indexed": true,
          "internalType": "address",
          "name": "operator",
          "type": "address"
        },
        {
          "indexed": false,
          "internalType": "bool",
          "name": "approved",
          "type": "bool"
        }
      ],
      "name": "ApprovalForAll",
      "type": "event"
    },
    {
      "anonymous": false,
      "inputs": [
        {
          "indexed": false,
          "internalType": "uint256",
          "name": "tokenId",
          "type": "uint256"
        },
        {
          "indexed": false,
          "internalType": "address",
          "name": "creator",
          "type": "address"
        },
        {
          "indexed": false,
          "internalType": "uint256",
          "name": "royalty",
          "type": "uint256"
        }
      ],
      "name": "Creator",
      "type": "event"
    },
    {
      "anonymous": false,
      "inputs": [
        {
          "indexed": true,
          "internalType": "address",
          "name": "operator",
          "type": "address"
        },
        {
          "indexed": false,
          "internalType": "bool",
          "name": "hasApproval",
          "type": "bool"
        }
      ],
      "name": "DefaultApproval",
      "type": "event"
    },
    {
      "anonymous": false,
      "inputs": [
        {
          "indexed": true,
          "internalType": "address",
          "name": "previousOwner",
          "type": "address"
        },
        {
          "indexed": true,
          "internalType": "address",
          "name": "newOwner",
          "type": "address"
        }
      ],
      "name": "OwnershipTransferred",
      "type": "event"
    },
    {
      "anonymous": false,
      "inputs": [
        {
          "indexed": true,
          "internalType": "address",
          "name": "from",
          "type": "address"
        },
        {
          "indexed": true,
          "internalType": "address",
          "name": "to",
          "type": "address"
        },
        {
          "indexed": true,
          "internalType": "uint256",
          "name": "tokenId",
          "type": "uint256"
        }
      ],
      "name": "Transfer",
      "type": "event"
    },
    {
      "inputs": [
        {
          "internalType": "address",
          "name": "to",
          "type": "address"
        },
        {
          "internalType": "uint256",
          "name": "tokenId",
          "type": "uint256"
        }
      ],
      "name": "approve",
      "outputs": [],
      "stateMutability": "nonpayable",
      "type": "function"
    },
    {
      "inputs": [
        {
          "internalType": "address",
          "name": "owner",
          "type": "address"
        }
      ],
      "name": "balanceOf",
      "outputs": [
        {
          "internalType": "uint256",
          "name": "",
          "type": "uint256"
        }
      ],
      "stateMutability": "view",
      "type": "function",
      "constant": true
    },
    {
      "inputs": [],
      "name": "baseTokenURI",
      "outputs": [
        {
          "internalType": "string",
          "name": "",
          "type": "string"
        }
      ],
      "stateMutability": "view",
      "type": "function",
      "constant": true
    },
    {
      "inputs": [
        {
          "internalType": "uint256",
          "name": "tokenId",
          "type": "uint256"
        }
      ],
      "name": "burn",
      "outputs": [],
      "stateMutability": "nonpayable",
      "type": "function"
    },
    {
      "inputs": [
        {
          "internalType": "address",
          "name": "creator",
          "type": "address"
        }
      ],
      "name": "createdTokenOf",
      "outputs": [
        {
          "internalType": "uint256",
          "name": "",
          "type": "uint256"
        }
      ],
      "stateMutability": "view",
      "type": "function",
      "constant": true
    },
    {
      "inputs": [
        {
          "internalType": "address",
          "name": "creator",
          "type": "address"
        },
        {
          "internalType": "uint256",
          "name": "index",
          "type": "uint256"
        }
      ],
      "name": "createdTokenOfCreatorByIndex",
      "outputs": [
        {
          "internalType": "uint256",
          "name": "",
          "type": "uint256"
        }
      ],
      "stateMutability": "view",
      "type": "function",
      "constant": true
    },
    {
      "inputs": [
        {
          "internalType": "uint256",
          "name": "tokenId",
          "type": "uint256"
        }
      ],
      "name": "creatorOf",
      "outputs": [
        {
          "internalType": "address",
          "name": "",
          "type": "address"
        }
      ],
      "stateMutability": "view",
      "type": "function",
      "constant": true
    },
    {
      "inputs": [
        {
          "internalType": "uint256",
          "name": "tokenId",
          "type": "uint256"
        }
      ],
      "name": "getApproved",
      "outputs": [
        {
          "internalType": "address",
          "name": "",
          "type": "address"
        }
      ],
      "stateMutability": "view",
      "type": "function",
      "constant": true
    },
    {
      "inputs": [
        {
          "internalType": "address",
          "name": "owner",
          "type": "address"
        },
        {
          "internalType": "address",
          "name": "operator",
          "type": "address"
        }
      ],
      "name": "isApprovedForAll",
      "outputs": [
        {
          "internalType": "bool",
          "name": "",
          "type": "bool"
        }
      ],
      "stateMutability": "view",
      "type": "function",
      "constant": true
    },
    {
      "inputs": [],
      "name": "name",
      "outputs": [
        {
          "internalType": "string",
          "name": "",
          "type": "string"
        }
      ],
      "stateMutability": "view",
      "type": "function",
      "constant": true
    },
    {
      "inputs": [],
      "name": "owner",
      "outputs": [
        {
          "internalType": "address",
          "name": "",
          "type": "address"
        }
      ],
      "stateMutability": "view",
      "type": "function",
      "constant": true
    },
    {
      "inputs": [
        {
          "internalType": "uint256",
          "name": "tokenId",
          "type": "uint256"
        }
      ],
      "name": "ownerOf",
      "outputs": [
        {
          "internalType": "address",
          "name": "",
          "type": "address"
        }
      ],
      "stateMutability": "view",
      "type": "function",
      "constant": true
    },
    {
      "inputs": [],
      "name": "renounceOwnership",
      "outputs": [],
      "stateMutability": "nonpayable",
      "type": "function"
    },
    {
      "inputs": [
        {
          "internalType": "uint256",
          "name": "tokenId",
          "type": "uint256"
        }
      ],
      "name": "royaltyOf",
      "outputs": [
        {
          "internalType": "uint256",
          "name": "",
          "type": "uint256"
        }
      ],
      "stateMutability": "view",
      "type": "function",
      "constant": true
    },
    {
      "inputs": [
        {
          "internalType": "address",
          "name": "from",
          "type": "address"
        },
        {
          "internalType": "address",
          "name": "to",
          "type": "address"
        },
        {
          "internalType": "uint256",
          "name": "tokenId",
          "type": "uint256"
        }
      ],
      "name": "safeTransferFrom",
      "outputs": [],
      "stateMutability": "nonpayable",
      "type": "function"
    },
    {
      "inputs": [
        {
          "internalType": "address",
          "name": "from",
          "type": "address"
        },
        {
          "internalType": "address",
          "name": "to",
          "type": "address"
        },
        {
          "internalType": "uint256",
          "name": "tokenId",
          "type": "uint256"
        },
        {
          "internalType": "bytes",
          "name": "_data",
          "type": "bytes"
        }
      ],
      "name": "safeTransferFrom",
      "outputs": [],
      "stateMutability": "nonpayable",
      "type": "function"
    },
    {
      "inputs": [
        {
          "internalType": "address",
          "name": "operator",
          "type": "address"
        },
        {
          "internalType": "bool",
          "name": "approved",
          "type": "bool"
        }
      ],
      "name": "setApprovalForAll",
      "outputs": [],
      "stateMutability": "nonpayable",
      "type": "function"
    },
    {
      "inputs": [
        {
          "internalType": "address",
          "name": "operator",
          "type": "address"
        },
        {
          "internalType": "bool",
          "name": "hasApproval",
          "type": "bool"
        }
      ],
      "name": "setDefaultApproval",
      "outputs": [],
      "stateMutability": "nonpayable",
      "type": "function"
    },
    {
      "inputs": [
        {
          "internalType": "bytes4",
          "name": "interfaceId",
          "type": "bytes4"
        }
      ],
      "name": "supportsInterface",
      "outputs": [
        {
          "internalType": "bool",
          "name": "",
          "type": "bool"
        }
      ],
      "stateMutability": "view",
      "type": "function",
      "constant": true
    },
    {
      "inputs": [],
      "name": "symbol",
      "outputs": [
        {
          "internalType": "string",
          "name": "",
          "type": "string"
        }
      ],
      "stateMutability": "view",
      "type": "function",
      "constant": true
    },
    {
      "inputs": [
        {
          "internalType": "uint256",
          "name": "index",
          "type": "uint256"
        }
      ],
      "name": "tokenByIndex",
      "outputs": [
        {
          "internalType": "uint256",
          "name": "",
          "type": "uint256"
        }
      ],
      "stateMutability": "view",
      "type": "function",
      "constant": true
    },
    {
      "inputs": [
        {
          "internalType": "address",
          "name": "owner",
          "type": "address"
        },
        {
          "internalType": "uint256",
          "name": "index",
          "type": "uint256"
        }
      ],
      "name": "tokenOfOwnerByIndex",
      "outputs": [
        {
          "internalType": "uint256",
          "name": "",
          "type": "uint256"
        }
      ],
      "stateMutability": "view",
      "type": "function",
      "constant": true
    },
    {
      "inputs": [
        {
          "internalType": "uint256",
          "name": "tokenId",
          "type": "uint256"
        }
      ],
      "name": "tokenURI",
      "outputs": [
        {
          "internalType": "string",
          "name": "",
          "type": "string"
        }
      ],
      "stateMutability": "view",
      "type": "function",
      "constant": true
    },
    {
      "inputs": [],
      "name": "totalSupply",
      "outputs": [
        {
          "internalType": "uint256",
          "name": "",
          "type": "uint256"
        }
      ],
      "stateMutability": "view",
      "type": "function",
      "constant": true
    },
    {
      "inputs": [
        {
          "internalType": "address",
          "name": "from",
          "type": "address"
        },
        {
          "internalType": "address",
          "name": "to",
          "type": "address"
        },
        {
          "internalType": "uint256",
          "name": "tokenId",
          "type": "uint256"
        }
      ],
      "name": "transferFrom",
      "outputs": [],
      "stateMutability": "nonpayable",
      "type": "function"
    },
    {
      "inputs": [
        {
          "internalType": "address",
          "name": "newOwner",
          "type": "address"
        }
      ],
      "name": "transferOwnership",
      "outputs": [],
      "stateMutability": "nonpayable",
      "type": "function"
    },
    {
      "inputs": [
        {
          "internalType": "string",
          "name": "_name",
          "type": "string"
        },
        {
          "internalType": "string",
          "name": "_symbol",
          "type": "string"
        },
        {
          "internalType": "string",
          "name": "_thumbnail",
          "type": "string"
        }
      ],
      "name": "initialize",
      "outputs": [],
      "stateMutability": "nonpayable",
      "type": "function"
    },
    {
      "inputs": [
        {
          "components": [
            {
              "internalType": "uint256",
              "name": "tokenId",
              "type": "uint256"
            },
            {
              "internalType": "string",
              "name": "uri",
              "type": "string"
            },
            {
              "internalType": "address",
              "name": "creator",
              "type": "address"
            },
            {
              "internalType": "uint256",
              "name": "royalty",
              "type": "uint256"
            },
            {
              "internalType": "bytes",
              "name": "signature",
              "type": "bytes"
            }
          ],
          "internalType": "struct FunNFT.Mint721Data",
          "name": "data",
          "type": "tuple"
        },
        {
          "internalType": "address",
          "name": "from",
          "type": "address"
        },
        {
          "internalType": "address",
          "name": "to",
          "type": "address"
        }
      ],
      "name": "transferOrMint",
      "outputs": [],
      "stateMutability": "nonpayable",
      "type": "function"
    },
    {
      "inputs": [
        {
          "components": [
            {
              "internalType": "uint256",
              "name": "tokenId",
              "type": "uint256"
            },
            {
              "internalType": "string",
              "name": "uri",
              "type": "string"
            },
            {
              "internalType": "address",
              "name": "creator",
              "type": "address"
            },
            {
              "internalType": "uint256",
              "name": "royalty",
              "type": "uint256"
            },
            {
              "internalType": "bytes",
              "name": "signature",
              "type": "bytes"
            }
          ],
          "internalType": "struct FunNFT.Mint721Data",
          "name": "data",
          "type": "tuple"
        },
        {
          "internalType": "address",
          "name": "to",
          "type": "address"
        }
      ],
      "name": "mintAndTransfer",
      "outputs": [],
      "stateMutability": "nonpayable",
      "type": "function"
    },
    {
      "inputs": [],
      "name": "getThumbnail",
      "outputs": [
        {
          "internalType": "string",
          "name": "",
          "type": "string"
        }
      ],
      "stateMutability": "view",
      "type": "function",
      "constant": true
    }
  ],
  "bytecode": "0x60806040523480156200001157600080fd5b50600060019054906101000a900460ff168062000039575060008054906101000a900460ff16155b6200007b576040517f08c379a000000000000000000000000000000000000000000000000000000000815260040162000072906200011c565b60405180910390fd5b60008060019054906101000a900460ff161590508015620000cc576001600060016101000a81548160ff02191690831515021790555060016000806101000a81548160ff0219169083151502179055505b8015620000ee5760008060016101000a81548160ff0219169083151502179055505b506200019e565b600062000104602e836200013e565b915062000111826200014f565b604082019050919050565b600060208201905081810360008301526200013781620000f5565b9050919050565b600082825260208201905092915050565b7f496e697469616c697a61626c653a20636f6e747261637420697320616c72656160008201527f647920696e697469616c697a6564000000000000000000000000000000000000602082015250565b615d0a80620001ae6000396000f3fe608060405234801561001057600080fd5b50600436106101da5760003560e01c80636352211e11610104578063a6487c53116100a2578063d547cfb711610071578063d547cfb714610589578063e1d74083146105a7578063e985e9c5146105c5578063f2fde38b146105f5576101da565b8063a6487c53146104f1578063b88d4fde1461050d578063c87b56dd14610529578063d26509b114610559576101da565b8063851c9d55116100de578063851c9d55146104695780638da5cb5b1461049957806395d89b41146104b7578063a22cb465146104d5576101da565b80636352211e146103ff57806370a082311461042f578063715018a61461045f576101da565b806323b872dd1161017c57806342966c681161014b57806342966c68146103675780634f6ccce714610383578063589a1743146103b35780635eeb6b14146103e3576101da565b806323b872dd146102e35780632f745c59146102ff57806341f010de1461032f57806342842e0e1461034b576101da565b8063081812fc116101b8578063081812fc1461025d578063095ea7b31461028d57806318054c37146102a957806318160ddd146102c5576101da565b806301ffc9a7146101df57806304e159191461020f57806306fdde031461023f575b600080fd5b6101f960048036038101906101f491906142f7565b610611565b6040516102069190614b10565b60405180910390f35b61022960048036038101906102249190614134565b610623565b6040516102369190614f32565b60405180910390f35b6102476106da565b6040516102549190614b70565b60405180910390f35b610277600480360381019061027291906144c3565b61076c565b6040516102849190614aa9565b60405180910390f35b6102a760048036038101906102a291906142b7565b6107f1565b005b6102c360048036038101906102be9190614277565b610909565b005b6102cd610993565b6040516102da9190614f32565b60405180910390f35b6102fd60048036038101906102f891906141a1565b6109a0565b005b610319600480360381019061031491906142b7565b610a00565b6040516103269190614f32565b60405180910390f35b610349600480360381019061034491906143f8565b610aa5565b005b610365600480360381019061036091906141a1565b610bed565b005b610381600480360381019061037c91906144c3565b610c0d565b005b61039d600480360381019061039891906144c3565b610c69565b6040516103aa9190614f32565b60405180910390f35b6103cd60048036038101906103c891906144c3565b610cda565b6040516103da9190614aa9565b60405180910390f35b6103fd60048036038101906103f89190614454565b610d18565b005b610419600480360381019061041491906144c3565b610d4e565b6040516104269190614aa9565b60405180910390f35b61044960048036038101906104449190614134565b610e00565b6040516104569190614f32565b60405180910390f35b610467610eb8565b005b610483600480360381019061047e91906142b7565b610f40565b6040516104909190614f32565b60405180910390f35b6104a1611041565b6040516104ae9190614aa9565b60405180910390f35b6104bf61106c565b6040516104cc9190614b70565b60405180910390f35b6104ef60048036038101906104ea9190614277565b6110fe565b005b61050b60048036038101906105069190614351565b61127f565b005b610527600480360381019061052291906141f4565b61139d565b005b610543600480360381019061053e91906144c3565b6113ff565b6040516105509190614b70565b60405180910390f35b610573600480360381019061056e91906144c3565b611411565b6040516105809190614f32565b60405180910390f35b61059161142f565b60405161059e9190614b70565b60405180910390f35b6105af6114be565b6040516105bc9190614b70565b60405180910390f35b6105df60048036038101906105da9190614161565b611551565b6040516105ec9190614b10565b60405180910390f35b61060f600480360381019061060a9190614134565b6115ba565b005b600061061c826116b2565b9050919050565b6000806000905060006106376101606116c4565b905060005b818110156106cf578473ffffffffffffffffffffffffffffffffffffffff16610162600083815260200190815260200160002060009054906101000a900473ffffffffffffffffffffffffffffffffffffffff1673ffffffffffffffffffffffffffffffffffffffff1614156106bc576001836106b9919061504e565b92505b80806106c790615239565b91505061063c565b508192505050919050565b6060606580546106e9906151d6565b80601f0160208091040260200160405190810160405280929190818152602001828054610715906151d6565b80156107625780601f1061073757610100808354040283529160200191610762565b820191906000526020600020905b81548152906001019060200180831161074557829003601f168201915b5050505050905090565b6000610777826116d2565b6107b6576040517f08c379a00000000000000000000000000000000000000000000000000000000081526004016107ad90614e32565b60405180910390fd5b6069600083815260200190815260200160002060009054906101000a900473ffffffffffffffffffffffffffffffffffffffff169050919050565b60006107fc82610d4e565b90508073ffffffffffffffffffffffffffffffffffffffff168373ffffffffffffffffffffffffffffffffffffffff16141561086d576040517f08c379a000000000000000000000000000000000000000000000000000000000815260040161086490614eb2565b60405180910390fd5b8073ffffffffffffffffffffffffffffffffffffffff1661088c61173e565b73ffffffffffffffffffffffffffffffffffffffff1614806108bb57506108ba816108b561173e565b611551565b5b6108fa576040517f08c379a00000000000000000000000000000000000000000000000000000000081526004016108f190614d32565b60405180910390fd5b6109048383611746565b505050565b61091161173e565b73ffffffffffffffffffffffffffffffffffffffff1661092f611041565b73ffffffffffffffffffffffffffffffffffffffff1614610985576040517f08c379a000000000000000000000000000000000000000000000000000000000815260040161097c90614e52565b60405180910390fd5b61098f82826117ff565b5050565b6000609980549050905090565b6109b16109ab61173e565b826118a9565b6109f0576040517f08c379a00000000000000000000000000000000000000000000000000000000081526004016109e790614ed2565b60405180910390fd5b6109fb838383611912565b505050565b6000610a0b83610e00565b8210610a4c576040517f08c379a0000000000000000000000000000000000000000000000000000000008152600401610a4390614bd2565b60405180910390fd5b609760008473ffffffffffffffffffffffffffffffffffffffff1673ffffffffffffffffffffffffffffffffffffffff168152602001908152602001600020600083815260200190815260200160002054905092915050565b60003390506000836040015190508073ffffffffffffffffffffffffffffffffffffffff168273ffffffffffffffffffffffffffffffffffffffff161480610af35750610af28183611551565b5b610b32576040517f08c379a0000000000000000000000000000000000000000000000000000000008152600401610b2990614ed2565b60405180910390fd5b6000610b473086604001518760200151611b6e565b9050610b57818660800151611bac565b610b96576040517f08c379a0000000000000000000000000000000000000000000000000000000008152600401610b8d90614cd2565b60405180910390fd5b610baa84610ba56101606116c4565b611bf5565b610bc3610bb86101606116c4565b838760600151611c13565b610bdb610bd16101606116c4565b8660200151611d03565b610be6610160611d77565b5050505050565b610c088383836040518060200160405280600081525061139d565b505050565b610c1e610c1861173e565b826118a9565b610c5d576040517f08c379a0000000000000000000000000000000000000000000000000000000008152600401610c5490614f12565b60405180910390fd5b610c6681611d8d565b50565b6000610c73610993565b8210610cb4576040517f08c379a0000000000000000000000000000000000000000000000000000000008152600401610cab90614ef2565b60405180910390fd5b60998281548110610cc857610cc76153cc565b5b90600052602060002001549050919050565b6000610162600083815260200190815260200160002060009054906101000a900473ffffffffffffffffffffffffffffffffffffffff169050919050565b610d2583600001516116d2565b15610d3e57610d3982828560000151610bed565b610d49565b610d488382610aa5565b5b505050565b6000806067600084815260200190815260200160002060009054906101000a900473ffffffffffffffffffffffffffffffffffffffff169050600073ffffffffffffffffffffffffffffffffffffffff168173ffffffffffffffffffffffffffffffffffffffff161415610df7576040517f08c379a0000000000000000000000000000000000000000000000000000000008152600401610dee90614d72565b60405180910390fd5b80915050919050565b60008073ffffffffffffffffffffffffffffffffffffffff168273ffffffffffffffffffffffffffffffffffffffff161415610e71576040517f08c379a0000000000000000000000000000000000000000000000000000000008152600401610e6890614d52565b60405180910390fd5b606860008373ffffffffffffffffffffffffffffffffffffffff1673ffffffffffffffffffffffffffffffffffffffff168152602001908152602001600020549050919050565b610ec061173e565b73ffffffffffffffffffffffffffffffffffffffff16610ede611041565b73ffffffffffffffffffffffffffffffffffffffff1614610f34576040517f08c379a0000000000000000000000000000000000000000000000000000000008152600401610f2b90614e52565b60405180910390fd5b610f3e6000611d99565b565b600080600090506000610f546101606116c4565b905060005b81811015610fff578573ffffffffffffffffffffffffffffffffffffffff16610162600083815260200190815260200160002060009054906101000a900473ffffffffffffffffffffffffffffffffffffffff1673ffffffffffffffffffffffffffffffffffffffff161415610fec57600183610fd6919061504e565b925084831415610feb5780935050505061103b565b5b8080610ff790615239565b915050610f59565b506040517f08c379a000000000000000000000000000000000000000000000000000000000815260040161103290614c32565b60405180910390fd5b92915050565b600061012e60009054906101000a900473ffffffffffffffffffffffffffffffffffffffff16905090565b60606066805461107b906151d6565b80601f01602080910402602001604051908101604052809291908181526020018280546110a7906151d6565b80156110f45780601f106110c9576101008083540402835291602001916110f4565b820191906000526020600020905b8154815290600101906020018083116110d757829003601f168201915b5050505050905090565b61110661173e565b73ffffffffffffffffffffffffffffffffffffffff168273ffffffffffffffffffffffffffffffffffffffff161415611174576040517f08c379a000000000000000000000000000000000000000000000000000000000815260040161116b90614cb2565b60405180910390fd5b80606a600061118161173e565b73ffffffffffffffffffffffffffffffffffffffff1673ffffffffffffffffffffffffffffffffffffffff16815260200190815260200160002060008473ffffffffffffffffffffffffffffffffffffffff1673ffffffffffffffffffffffffffffffffffffffff16815260200190815260200160002060006101000a81548160ff0219169083151502179055508173ffffffffffffffffffffffffffffffffffffffff1661122e61173e565b73ffffffffffffffffffffffffffffffffffffffff167f17307eab39ab6107e8899845ad3d59bd9653f200f220920489ca2b5937696c31836040516112739190614b10565b60405180910390a35050565b600060019054906101000a900460ff16806112a5575060008054906101000a900460ff16155b6112e4576040517f08c379a00000000000000000000000000000000000000000000000000000000081526004016112db90614db2565b60405180910390fd5b60008060019054906101000a900460ff161590508015611334576001600060016101000a81548160ff02191690831515021790555060016000806101000a81548160ff0219169083151502179055505b61133e8484611e61565b611346611f56565b61134e612047565b611356612138565b61135e612229565b816101649080519060200190611375929190613e44565b5080156113975760008060016101000a81548160ff0219169083151502179055505b50505050565b6113ae6113a861173e565b836118a9565b6113ed576040517f08c379a00000000000000000000000000000000000000000000000000000000081526004016113e490614ed2565b60405180910390fd5b6113f984848484612312565b50505050565b606061140a8261236e565b9050919050565b60006101636000838152602001908152602001600020549050919050565b610161805461143d906151d6565b80601f0160208091040260200160405190810160405280929190818152602001828054611469906151d6565b80156114b65780601f1061148b576101008083540402835291602001916114b6565b820191906000526020600020905b81548152906001019060200180831161149957829003601f168201915b505050505081565b606061016480546114ce906151d6565b80601f01602080910402602001604051908101604052809291908181526020018280546114fa906151d6565b80156115475780601f1061151c57610100808354040283529160200191611547565b820191906000526020600020905b81548152906001019060200180831161152a57829003601f168201915b5050505050905090565b600061012d60008373ffffffffffffffffffffffffffffffffffffffff1673ffffffffffffffffffffffffffffffffffffffff16815260200190815260200160002060009054906101000a900460ff16806115b257506115b183836124c0565b5b905092915050565b6115c261173e565b73ffffffffffffffffffffffffffffffffffffffff166115e0611041565b73ffffffffffffffffffffffffffffffffffffffff1614611636576040517f08c379a000000000000000000000000000000000000000000000000000000000815260040161162d90614e52565b60405180910390fd5b600073ffffffffffffffffffffffffffffffffffffffff168173ffffffffffffffffffffffffffffffffffffffff1614156116a6576040517f08c379a000000000000000000000000000000000000000000000000000000000815260040161169d90614c12565b60405180910390fd5b6116af81611d99565b50565b60006116bd82612554565b9050919050565b600081600001549050919050565b60008073ffffffffffffffffffffffffffffffffffffffff166067600084815260200190815260200160002060009054906101000a900473ffffffffffffffffffffffffffffffffffffffff1673ffffffffffffffffffffffffffffffffffffffff1614159050919050565b600033905090565b816069600083815260200190815260200160002060006101000a81548173ffffffffffffffffffffffffffffffffffffffff021916908373ffffffffffffffffffffffffffffffffffffffff160217905550808273ffffffffffffffffffffffffffffffffffffffff166117b983610d4e565b73ffffffffffffffffffffffffffffffffffffffff167f8c5be1e5ebec7d5bd14f71427d1e84f3dd0314c0f7b2291e5b200ac8c7c3b92560405160405180910390a45050565b8061012d60008473ffffffffffffffffffffffffffffffffffffffff1673ffffffffffffffffffffffffffffffffffffffff16815260200190815260200160002060006101000a81548160ff0219169083151502179055508173ffffffffffffffffffffffffffffffffffffffff167f270dbb8ba4292910ae92862466486be25c355c837270a3d8824b36a8bc7c653b8260405161189d9190614b10565b60405180910390a25050565b600061012d60008473ffffffffffffffffffffffffffffffffffffffff1673ffffffffffffffffffffffffffffffffffffffff16815260200190815260200160002060009054906101000a900460ff168061190a57506119098383612566565b5b905092915050565b8273ffffffffffffffffffffffffffffffffffffffff1661193282610d4e565b73ffffffffffffffffffffffffffffffffffffffff1614611988576040517f08c379a000000000000000000000000000000000000000000000000000000000815260040161197f90614e72565b60405180910390fd5b600073ffffffffffffffffffffffffffffffffffffffff168273ffffffffffffffffffffffffffffffffffffffff1614156119f8576040517f08c379a00000000000000000000000000000000000000000000000000000000081526004016119ef90614c92565b60405180910390fd5b611a03838383612644565b611a0e600082611746565b6001606860008573ffffffffffffffffffffffffffffffffffffffff1673ffffffffffffffffffffffffffffffffffffffff1681526020019081526020016000206000828254611a5e91906150d5565b925050819055506001606860008473ffffffffffffffffffffffffffffffffffffffff1673ffffffffffffffffffffffffffffffffffffffff1681526020019081526020016000206000828254611ab5919061504e565b92505081905550816067600083815260200190815260200160002060006101000a81548173ffffffffffffffffffffffffffffffffffffffff021916908373ffffffffffffffffffffffffffffffffffffffff160217905550808273ffffffffffffffffffffffffffffffffffffffff168473ffffffffffffffffffffffffffffffffffffffff167fddf252ad1be2c89b69c2b068fc378daa952ba7f163c4a11628f55a4df523b3ef60405160405180910390a4505050565b6000611ba3848484604051602001611b8893929190614a26565b60405160208183030381529060405280519060200120612654565b90509392505050565b6000611bb88383612684565b73ffffffffffffffffffffffffffffffffffffffff16611bd6611041565b73ffffffffffffffffffffffffffffffffffffffff1614905092915050565b611c0f8282604051806020016040528060008152506126ab565b5050565b6028811115611c57576040517f08c379a0000000000000000000000000000000000000000000000000000000008152600401611c4e90614c72565b60405180910390fd5b81610162600085815260200190815260200160002060006101000a81548173ffffffffffffffffffffffffffffffffffffffff021916908373ffffffffffffffffffffffffffffffffffffffff160217905550806101636000858152602001908152602001600020819055507f6b7cf5856d17260bc32731a72e775520bc629b91e1faab58b4661f3e6ce22a0f838383604051611cf693929190614f4d565b60405180910390a1505050565b611d0c826116d2565b611d4b576040517f08c379a0000000000000000000000000000000000000000000000000000000008152600401611d4290614d92565b60405180910390fd5b8060c960008481526020019081526020016000209080519060200190611d72929190613e44565b505050565b6001816000016000828254019250508190555050565b611d9681612706565b50565b600061012e60009054906101000a900473ffffffffffffffffffffffffffffffffffffffff1690508161012e60006101000a81548173ffffffffffffffffffffffffffffffffffffffff021916908373ffffffffffffffffffffffffffffffffffffffff1602179055508173ffffffffffffffffffffffffffffffffffffffff168173ffffffffffffffffffffffffffffffffffffffff167f8be0079c531659141344cd1fd0a4f28419497f9722a3daafe3b4186f6b6457e060405160405180910390a35050565b600060019054906101000a900460ff1680611e87575060008054906101000a900460ff16155b611ec6576040517f08c379a0000000000000000000000000000000000000000000000000000000008152600401611ebd90614db2565b60405180910390fd5b60008060019054906101000a900460ff161590508015611f16576001600060016101000a81548160ff02191690831515021790555060016000806101000a81548160ff0219169083151502179055505b611f1e612759565b611f26612832565b611f30838361290b565b8015611f515760008060016101000a81548160ff0219169083151502179055505b505050565b600060019054906101000a900460ff1680611f7c575060008054906101000a900460ff16155b611fbb576040517f08c379a0000000000000000000000000000000000000000000000000000000008152600401611fb290614db2565b60405180910390fd5b60008060019054906101000a900460ff16159050801561200b576001600060016101000a81548160ff02191690831515021790555060016000806101000a81548160ff0219169083151502179055505b612013612759565b61201b612832565b612023612a14565b80156120445760008060016101000a81548160ff0219169083151502179055505b50565b600060019054906101000a900460ff168061206d575060008054906101000a900460ff16155b6120ac576040517f08c379a00000000000000000000000000000000000000000000000000000000081526004016120a390614db2565b60405180910390fd5b60008060019054906101000a900460ff1615905080156120fc576001600060016101000a81548160ff02191690831515021790555060016000806101000a81548160ff0219169083151502179055505b612104612759565b61210c612832565b612114612aed565b80156121355760008060016101000a81548160ff0219169083151502179055505b50565b600060019054906101000a900460ff168061215e575060008054906101000a900460ff16155b61219d576040517f08c379a000000000000000000000000000000000000000000000000000000000815260040161219490614db2565b60405180910390fd5b60008060019054906101000a900460ff1615905080156121ed576001600060016101000a81548160ff02191690831515021790555060016000806101000a81548160ff0219169083151502179055505b6121f5612759565b6121fd612832565b612205612bc6565b80156122265760008060016101000a81548160ff0219169083151502179055505b50565b600060019054906101000a900460ff168061224f575060008054906101000a900460ff16155b61228e576040517f08c379a000000000000000000000000000000000000000000000000000000000815260040161228590614db2565b60405180910390fd5b60008060019054906101000a900460ff1615905080156122de576001600060016101000a81548160ff02191690831515021790555060016000806101000a81548160ff0219169083151502179055505b6122e6612759565b6122ee612c9f565b801561230f5760008060016101000a81548160ff0219169083151502179055505b50565b61231d848484611912565b61232984848484612d88565b612368576040517f08c379a000000000000000000000000000000000000000000000000000000000815260040161235f90614bf2565b60405180910390fd5b50505050565b6060612379826116d2565b6123b8576040517f08c379a00000000000000000000000000000000000000000000000000000000081526004016123af90614e12565b60405180910390fd5b600060c9600084815260200190815260200160002080546123d8906151d6565b80601f0160208091040260200160405190810160405280929190818152602001828054612404906151d6565b80156124515780601f1061242657610100808354040283529160200191612451565b820191906000526020600020905b81548152906001019060200180831161243457829003601f168201915b505050505090506000612462612f1f565b90506000815114156124785781925050506124bb565b6000825111156124ad578082604051602001612495929190614a5f565b604051602081830303815290604052925050506124bb565b6124b684612fb2565b925050505b919050565b6000606a60008473ffffffffffffffffffffffffffffffffffffffff1673ffffffffffffffffffffffffffffffffffffffff16815260200190815260200160002060008373ffffffffffffffffffffffffffffffffffffffff1673ffffffffffffffffffffffffffffffffffffffff16815260200190815260200160002060009054906101000a900460ff16905092915050565b600061255f82613059565b9050919050565b6000612571826116d2565b6125b0576040517f08c379a00000000000000000000000000000000000000000000000000000000081526004016125a790614d12565b60405180910390fd5b60006125bb83610d4e565b90508073ffffffffffffffffffffffffffffffffffffffff168473ffffffffffffffffffffffffffffffffffffffff16148061262a57508373ffffffffffffffffffffffffffffffffffffffff166126128461076c565b73ffffffffffffffffffffffffffffffffffffffff16145b8061263b575061263a8185611551565b5b91505092915050565b61264f8383836130d3565b505050565b6000816040516020016126679190614a83565b604051602081830303815290604052805190602001209050919050565b600080600061269385856131e7565b915091506126a08161326a565b819250505092915050565b6126b5838361343f565b6126c26000848484612d88565b612701576040517f08c379a00000000000000000000000000000000000000000000000000000000081526004016126f890614bf2565b60405180910390fd5b505050565b61270f8161360d565b600060c96000838152602001908152602001600020805461272f906151d6565b9050146127565760c9600082815260200190815260200160002060006127559190613eca565b5b50565b600060019054906101000a900460ff168061277f575060008054906101000a900460ff16155b6127be576040517f08c379a00000000000000000000000000000000000000000000000000000000081526004016127b590614db2565b60405180910390fd5b60008060019054906101000a900460ff16159050801561280e576001600060016101000a81548160ff02191690831515021790555060016000806101000a81548160ff0219169083151502179055505b801561282f5760008060016101000a81548160ff0219169083151502179055505b50565b600060019054906101000a900460ff1680612858575060008054906101000a900460ff16155b612897576040517f08c379a000000000000000000000000000000000000000000000000000000000815260040161288e90614db2565b60405180910390fd5b60008060019054906101000a900460ff1615905080156128e7576001600060016101000a81548160ff02191690831515021790555060016000806101000a81548160ff0219169083151502179055505b80156129085760008060016101000a81548160ff0219169083151502179055505b50565b600060019054906101000a900460ff1680612931575060008054906101000a900460ff16155b612970576040517f08c379a000000000000000000000000000000000000000000000000000000000815260040161296790614db2565b60405180910390fd5b60008060019054906101000a900460ff1615905080156129c0576001600060016101000a81548160ff02191690831515021790555060016000806101000a81548160ff0219169083151502179055505b82606590805190602001906129d6929190613e44565b5081606690805190602001906129ed929190613e44565b508015612a0f5760008060016101000a81548160ff0219169083151502179055505b505050565b600060019054906101000a900460ff1680612a3a575060008054906101000a900460ff16155b612a79576040517f08c379a0000000000000000000000000000000000000000000000000000000008152600401612a7090614db2565b60405180910390fd5b60008060019054906101000a900460ff161590508015612ac9576001600060016101000a81548160ff02191690831515021790555060016000806101000a81548160ff0219169083151502179055505b8015612aea5760008060016101000a81548160ff0219169083151502179055505b50565b600060019054906101000a900460ff1680612b13575060008054906101000a900460ff16155b612b52576040517f08c379a0000000000000000000000000000000000000000000000000000000008152600401612b4990614db2565b60405180910390fd5b60008060019054906101000a900460ff161590508015612ba2576001600060016101000a81548160ff02191690831515021790555060016000806101000a81548160ff0219169083151502179055505b8015612bc35760008060016101000a81548160ff0219169083151502179055505b50565b600060019054906101000a900460ff1680612bec575060008054906101000a900460ff16155b612c2b576040517f08c379a0000000000000000000000000000000000000000000000000000000008152600401612c2290614db2565b60405180910390fd5b60008060019054906101000a900460ff161590508015612c7b576001600060016101000a81548160ff02191690831515021790555060016000806101000a81548160ff0219169083151502179055505b8015612c9c5760008060016101000a81548160ff0219169083151502179055505b50565b600060019054906101000a900460ff1680612cc5575060008054906101000a900460ff16155b612d04576040517f08c379a0000000000000000000000000000000000000000000000000000000008152600401612cfb90614db2565b60405180910390fd5b60008060019054906101000a900460ff161590508015612d54576001600060016101000a81548160ff02191690831515021790555060016000806101000a81548160ff0219169083151502179055505b612d64612d5f61173e565b611d99565b8015612d855760008060016101000a81548160ff0219169083151502179055505b50565b6000612da98473ffffffffffffffffffffffffffffffffffffffff1661371e565b15612f12578373ffffffffffffffffffffffffffffffffffffffff1663150b7a02612dd261173e565b8786866040518563ffffffff1660e01b8152600401612df49493929190614ac4565b602060405180830381600087803b158015612e0e57600080fd5b505af1925050508015612e3f57506040513d601f19601f82011682018060405250810190612e3c9190614324565b60015b612ec2573d8060008114612e6f576040519150601f19603f3d011682016040523d82523d6000602084013e612e74565b606091505b50600081511415612eba576040517f08c379a0000000000000000000000000000000000000000000000000000000008152600401612eb190614bf2565b60405180910390fd5b805181602001fd5b63150b7a0260e01b7bffffffffffffffffffffffffffffffffffffffffffffffffffffffff1916817bffffffffffffffffffffffffffffffffffffffffffffffffffffffff191614915050612f17565b600190505b949350505050565b60606101618054612f2f906151d6565b80601f0160208091040260200160405190810160405280929190818152602001828054612f5b906151d6565b8015612fa85780601f10612f7d57610100808354040283529160200191612fa8565b820191906000526020600020905b815481529060010190602001808311612f8b57829003601f168201915b5050505050905090565b6060612fbd826116d2565b612ffc576040517f08c379a0000000000000000000000000000000000000000000000000000000008152600401612ff390614e92565b60405180910390fd5b6000613006612f1f565b905060008151116130265760405180602001604052806000815250613051565b8061303084613731565b604051602001613041929190614a5f565b6040516020818303038152906040525b915050919050565b60007f780e9d63000000000000000000000000000000000000000000000000000000007bffffffffffffffffffffffffffffffffffffffffffffffffffffffff1916827bffffffffffffffffffffffffffffffffffffffffffffffffffffffff191614806130cc57506130cb82613892565b5b9050919050565b6130de838383613974565b600073ffffffffffffffffffffffffffffffffffffffff168373ffffffffffffffffffffffffffffffffffffffff1614156131215761311c81613979565b613160565b8173ffffffffffffffffffffffffffffffffffffffff168373ffffffffffffffffffffffffffffffffffffffff161461315f5761315e83826139c2565b5b5b600073ffffffffffffffffffffffffffffffffffffffff168273ffffffffffffffffffffffffffffffffffffffff1614156131a35761319e81613b2f565b6131e2565b8273ffffffffffffffffffffffffffffffffffffffff168273ffffffffffffffffffffffffffffffffffffffff16146131e1576131e08282613c00565b5b5b505050565b6000806041835114156132295760008060006020860151925060408601519150606086015160001a905061321d87828585613c7f565b94509450505050613263565b60408351141561325a57600080602085015191506040850151905061324f868383613d8c565b935093505050613263565b60006002915091505b9250929050565b6000600481111561327e5761327d61533f565b5b8160048111156132915761329061533f565b5b141561329c5761343c565b600160048111156132b0576132af61533f565b5b8160048111156132c3576132c261533f565b5b1415613304576040517f08c379a00000000000000000000000000000000000000000000000000000000081526004016132fb90614b92565b60405180910390fd5b600260048111156133185761331761533f565b5b81600481111561332b5761332a61533f565b5b141561336c576040517f08c379a000000000000000000000000000000000000000000000000000000000815260040161336390614bb2565b60405180910390fd5b600360048111156133805761337f61533f565b5b8160048111156133935761339261533f565b5b14156133d4576040517f08c379a00000000000000000000000000000000000000000000000000000000081526004016133cb90614cf2565b60405180910390fd5b6004808111156133e7576133e661533f565b5b8160048111156133fa576133f961533f565b5b141561343b576040517f08c379a000000000000000000000000000000000000000000000000000000000815260040161343290614dd2565b60405180910390fd5b5b50565b600073ffffffffffffffffffffffffffffffffffffffff168273ffffffffffffffffffffffffffffffffffffffff1614156134af576040517f08c379a00000000000000000000000000000000000000000000000000000000081526004016134a690614df2565b60405180910390fd5b6134b8816116d2565b156134f8576040517f08c379a00000000000000000000000000000000000000000000000000000000081526004016134ef90614c52565b60405180910390fd5b61350460008383612644565b6001606860008473ffffffffffffffffffffffffffffffffffffffff1673ffffffffffffffffffffffffffffffffffffffff1681526020019081526020016000206000828254613554919061504e565b92505081905550816067600083815260200190815260200160002060006101000a81548173ffffffffffffffffffffffffffffffffffffffff021916908373ffffffffffffffffffffffffffffffffffffffff160217905550808273ffffffffffffffffffffffffffffffffffffffff16600073ffffffffffffffffffffffffffffffffffffffff167fddf252ad1be2c89b69c2b068fc378daa952ba7f163c4a11628f55a4df523b3ef60405160405180910390a45050565b600061361882610d4e565b905061362681600084612644565b613631600083611746565b6001606860008373ffffffffffffffffffffffffffffffffffffffff1673ffffffffffffffffffffffffffffffffffffffff168152602001908152602001600020600082825461368191906150d5565b925050819055506067600083815260200190815260200160002060006101000a81549073ffffffffffffffffffffffffffffffffffffffff021916905581600073ffffffffffffffffffffffffffffffffffffffff168273ffffffffffffffffffffffffffffffffffffffff167fddf252ad1be2c89b69c2b068fc378daa952ba7f163c4a11628f55a4df523b3ef60405160405180910390a45050565b600080823b905060008111915050919050565b60606000821415613779576040518060400160405280600181526020017f3000000000000000000000000000000000000000000000000000000000000000815250905061388d565b600082905060005b600082146137ab57808061379490615239565b915050600a826137a491906150a4565b9150613781565b60008167ffffffffffffffff8111156137c7576137c66153fb565b5b6040519080825280601f01601f1916602001820160405280156137f95781602001600182028036833780820191505090505b5090505b600085146138865760018261381291906150d5565b9150600a8561382191906152b0565b603061382d919061504e565b60f81b818381518110613843576138426153cc565b5b60200101907effffffffffffffffffffffffffffffffffffffffffffffffffffffffffffff1916908160001a905350600a8561387f91906150a4565b94506137fd565b8093505050505b919050565b60007f80ac58cd000000000000000000000000000000000000000000000000000000007bffffffffffffffffffffffffffffffffffffffffffffffffffffffff1916827bffffffffffffffffffffffffffffffffffffffffffffffffffffffff1916148061395d57507f5b5e139f000000000000000000000000000000000000000000000000000000007bffffffffffffffffffffffffffffffffffffffffffffffffffffffff1916827bffffffffffffffffffffffffffffffffffffffffffffffffffffffff1916145b8061396d575061396c82613dda565b5b9050919050565b505050565b609980549050609a600083815260200190815260200160002081905550609981908060018154018082558091505060019003906000526020600020016000909190919091505550565b600060016139cf84610e00565b6139d991906150d5565b9050600060986000848152602001908152602001600020549050818114613abe576000609760008673ffffffffffffffffffffffffffffffffffffffff1673ffffffffffffffffffffffffffffffffffffffff168152602001908152602001600020600084815260200190815260200160002054905080609760008773ffffffffffffffffffffffffffffffffffffffff1673ffffffffffffffffffffffffffffffffffffffff168152602001908152602001600020600084815260200190815260200160002081905550816098600083815260200190815260200160002081905550505b6098600084815260200190815260200160002060009055609760008573ffffffffffffffffffffffffffffffffffffffff1673ffffffffffffffffffffffffffffffffffffffff16815260200190815260200160002060008381526020019081526020016000206000905550505050565b60006001609980549050613b4391906150d5565b90506000609a6000848152602001908152602001600020549050600060998381548110613b7357613b726153cc565b5b906000526020600020015490508060998381548110613b9557613b946153cc565b5b906000526020600020018190555081609a600083815260200190815260200160002081905550609a6000858152602001908152602001600020600090556099805480613be457613be361539d565b5b6001900381819060005260206000200160009055905550505050565b6000613c0b83610e00565b905081609760008573ffffffffffffffffffffffffffffffffffffffff1673ffffffffffffffffffffffffffffffffffffffff168152602001908152602001600020600083815260200190815260200160002081905550806098600084815260200190815260200160002081905550505050565b6000807f7fffffffffffffffffffffffffffffff5d576e7357a4501ddfe92f46681b20a08360001c1115613cba576000600391509150613d83565b601b8560ff1614158015613cd25750601c8560ff1614155b15613ce4576000600491509150613d83565b600060018787878760405160008152602001604052604051613d099493929190614b2b565b6020604051602081039080840390855afa158015613d2b573d6000803e3d6000fd5b505050602060405103519050600073ffffffffffffffffffffffffffffffffffffffff168173ffffffffffffffffffffffffffffffffffffffff161415613d7a57600060019250925050613d83565b80600092509250505b94509492505050565b6000806000807f7fffffffffffffffffffffffffffffffffffffffffffffffffffffffffffffff85169150601b8560ff1c019050613dcc87828885613c7f565b935093505050935093915050565b60007f01ffc9a7000000000000000000000000000000000000000000000000000000007bffffffffffffffffffffffffffffffffffffffffffffffffffffffff1916827bffffffffffffffffffffffffffffffffffffffffffffffffffffffff1916149050919050565b828054613e50906151d6565b90600052602060002090601f016020900481019282613e725760008555613eb9565b82601f10613e8b57805160ff1916838001178555613eb9565b82800160010185558215613eb9579182015b82811115613eb8578251825591602001919060010190613e9d565b5b509050613ec69190613f0a565b5090565b508054613ed6906151d6565b6000825580601f10613ee85750613f07565b601f016020900490600052602060002090810190613f069190613f0a565b5b50565b5b80821115613f23576000816000905550600101613f0b565b5090565b6000613f3a613f3584614fa9565b614f84565b905082815260208101848484011115613f5657613f55615439565b5b613f61848285615194565b509392505050565b6000613f7c613f7784614fda565b614f84565b905082815260208101848484011115613f9857613f97615439565b5b613fa3848285615194565b509392505050565b600081359050613fba81615c78565b92915050565b600081359050613fcf81615c8f565b92915050565b600081359050613fe481615ca6565b92915050565b600081519050613ff981615ca6565b92915050565b600082601f8301126140145761401361542a565b5b8135614024848260208601613f27565b91505092915050565b600082601f8301126140425761404161542a565b5b8135614052848260208601613f69565b91505092915050565b600060a082840312156140715761407061542f565b5b61407b60a0614f84565b9050600061408b8482850161411f565b600083015250602082013567ffffffffffffffff8111156140af576140ae615434565b5b6140bb8482850161402d565b60208301525060406140cf84828501613fab565b60408301525060606140e38482850161411f565b606083015250608082013567ffffffffffffffff81111561410757614106615434565b5b61411384828501613fff565b60808301525092915050565b60008135905061412e81615cbd565b92915050565b60006020828403121561414a57614149615443565b5b600061415884828501613fab565b91505092915050565b6000806040838503121561417857614177615443565b5b600061418685828601613fab565b925050602061419785828601613fab565b9150509250929050565b6000806000606084860312156141ba576141b9615443565b5b60006141c886828701613fab565b93505060206141d986828701613fab565b92505060406141ea8682870161411f565b9150509250925092565b6000806000806080858703121561420e5761420d615443565b5b600061421c87828801613fab565b945050602061422d87828801613fab565b935050604061423e8782880161411f565b925050606085013567ffffffffffffffff81111561425f5761425e61543e565b5b61426b87828801613fff565b91505092959194509250565b6000806040838503121561428e5761428d615443565b5b600061429c85828601613fab565b92505060206142ad85828601613fc0565b9150509250929050565b600080604083850312156142ce576142cd615443565b5b60006142dc85828601613fab565b92505060206142ed8582860161411f565b9150509250929050565b60006020828403121561430d5761430c615443565b5b600061431b84828501613fd5565b91505092915050565b60006020828403121561433a57614339615443565b5b600061434884828501613fea565b91505092915050565b60008060006060848603121561436a57614369615443565b5b600084013567ffffffffffffffff8111156143885761438761543e565b5b6143948682870161402d565b935050602084013567ffffffffffffffff8111156143b5576143b461543e565b5b6143c18682870161402d565b925050604084013567ffffffffffffffff8111156143e2576143e161543e565b5b6143ee8682870161402d565b9150509250925092565b6000806040838503121561440f5761440e615443565b5b600083013567ffffffffffffffff81111561442d5761442c61543e565b5b6144398582860161405b565b925050602061444a85828601613fab565b9150509250929050565b60008060006060848603121561446d5761446c615443565b5b600084013567ffffffffffffffff81111561448b5761448a61543e565b5b6144978682870161405b565b93505060206144a886828701613fab565b92505060406144b986828701613fab565b9150509250925092565b6000602082840312156144d9576144d8615443565b5b60006144e78482850161411f565b91505092915050565b6144f981615109565b82525050565b61451061450b82615109565b615282565b82525050565b61451f8161511b565b82525050565b61452e81615127565b82525050565b61454561454082615127565b615294565b82525050565b60006145568261500b565b6145608185615021565b93506145708185602086016151a3565b61457981615448565b840191505092915050565b600061458f82615016565b6145998185615032565b93506145a98185602086016151a3565b6145b281615448565b840191505092915050565b60006145c882615016565b6145d28185615043565b93506145e28185602086016151a3565b80840191505092915050565b60006145fb601883615032565b915061460682615466565b602082019050919050565b600061461e601f83615032565b91506146298261548f565b602082019050919050565b6000614641601c83615043565b915061464c826154b8565b601c82019050919050565b6000614664602b83615032565b915061466f826154e1565b604082019050919050565b6000614687603283615032565b915061469282615530565b604082019050919050565b60006146aa602683615032565b91506146b58261557f565b604082019050919050565b60006146cd602e83615032565b91506146d8826155ce565b604082019050919050565b60006146f0601c83615032565b91506146fb8261561d565b602082019050919050565b6000614713602183615032565b915061471e82615646565b604082019050919050565b6000614736602483615032565b915061474182615695565b604082019050919050565b6000614759601983615032565b9150614764826156e4565b602082019050919050565b600061477c601183615032565b91506147878261570d565b602082019050919050565b600061479f602283615032565b91506147aa82615736565b604082019050919050565b60006147c2602c83615032565b91506147cd82615785565b604082019050919050565b60006147e5603883615032565b91506147f0826157d4565b604082019050919050565b6000614808602a83615032565b915061481382615823565b604082019050919050565b600061482b602983615032565b915061483682615872565b604082019050919050565b600061484e602e83615032565b9150614859826158c1565b604082019050919050565b6000614871602e83615032565b915061487c82615910565b604082019050919050565b6000614894602283615032565b915061489f8261595f565b604082019050919050565b60006148b7602083615032565b91506148c2826159ae565b602082019050919050565b60006148da603183615032565b91506148e5826159d7565b604082019050919050565b60006148fd602c83615032565b915061490882615a26565b604082019050919050565b6000614920602083615032565b915061492b82615a75565b602082019050919050565b6000614943602983615032565b915061494e82615a9e565b604082019050919050565b6000614966602f83615032565b915061497182615aed565b604082019050919050565b6000614989602183615032565b915061499482615b3c565b604082019050919050565b60006149ac603183615032565b91506149b782615b8b565b604082019050919050565b60006149cf602c83615032565b91506149da82615bda565b604082019050919050565b60006149f2603083615032565b91506149fd82615c29565b604082019050919050565b614a118161517d565b82525050565b614a2081615187565b82525050565b6000614a3282866144ff565b601482019150614a4282856144ff565b601482019150614a5282846145bd565b9150819050949350505050565b6000614a6b82856145bd565b9150614a7782846145bd565b91508190509392505050565b6000614a8e82614634565b9150614a9a8284614534565b60208201915081905092915050565b6000602082019050614abe60008301846144f0565b92915050565b6000608082019050614ad960008301876144f0565b614ae660208301866144f0565b614af36040830185614a08565b8181036060830152614b05818461454b565b905095945050505050565b6000602082019050614b256000830184614516565b92915050565b6000608082019050614b406000830187614525565b614b4d6020830186614a17565b614b5a6040830185614525565b614b676060830184614525565b95945050505050565b60006020820190508181036000830152614b8a8184614584565b905092915050565b60006020820190508181036000830152614bab816145ee565b9050919050565b60006020820190508181036000830152614bcb81614611565b9050919050565b60006020820190508181036000830152614beb81614657565b9050919050565b60006020820190508181036000830152614c0b8161467a565b9050919050565b60006020820190508181036000830152614c2b8161469d565b9050919050565b60006020820190508181036000830152614c4b816146c0565b9050919050565b60006020820190508181036000830152614c6b816146e3565b9050919050565b60006020820190508181036000830152614c8b81614706565b9050919050565b60006020820190508181036000830152614cab81614729565b9050919050565b60006020820190508181036000830152614ccb8161474c565b9050919050565b60006020820190508181036000830152614ceb8161476f565b9050919050565b60006020820190508181036000830152614d0b81614792565b9050919050565b60006020820190508181036000830152614d2b816147b5565b9050919050565b60006020820190508181036000830152614d4b816147d8565b9050919050565b60006020820190508181036000830152614d6b816147fb565b9050919050565b60006020820190508181036000830152614d8b8161481e565b9050919050565b60006020820190508181036000830152614dab81614841565b9050919050565b60006020820190508181036000830152614dcb81614864565b9050919050565b60006020820190508181036000830152614deb81614887565b9050919050565b60006020820190508181036000830152614e0b816148aa565b9050919050565b60006020820190508181036000830152614e2b816148cd565b9050919050565b60006020820190508181036000830152614e4b816148f0565b9050919050565b60006020820190508181036000830152614e6b81614913565b9050919050565b60006020820190508181036000830152614e8b81614936565b9050919050565b60006020820190508181036000830152614eab81614959565b9050919050565b60006020820190508181036000830152614ecb8161497c565b9050919050565b60006020820190508181036000830152614eeb8161499f565b9050919050565b60006020820190508181036000830152614f0b816149c2565b9050919050565b60006020820190508181036000830152614f2b816149e5565b9050919050565b6000602082019050614f476000830184614a08565b92915050565b6000606082019050614f626000830186614a08565b614f6f60208301856144f0565b614f7c6040830184614a08565b949350505050565b6000614f8e614f9f565b9050614f9a8282615208565b919050565b6000604051905090565b600067ffffffffffffffff821115614fc457614fc36153fb565b5b614fcd82615448565b9050602081019050919050565b600067ffffffffffffffff821115614ff557614ff46153fb565b5b614ffe82615448565b9050602081019050919050565b600081519050919050565b600081519050919050565b600082825260208201905092915050565b600082825260208201905092915050565b600081905092915050565b60006150598261517d565b91506150648361517d565b9250827fffffffffffffffffffffffffffffffffffffffffffffffffffffffffffffffff03821115615099576150986152e1565b5b828201905092915050565b60006150af8261517d565b91506150ba8361517d565b9250826150ca576150c9615310565b5b828204905092915050565b60006150e08261517d565b91506150eb8361517d565b9250828210156150fe576150fd6152e1565b5b828203905092915050565b60006151148261515d565b9050919050565b60008115159050919050565b6000819050919050565b60007fffffffff0000000000000000000000000000000000000000000000000000000082169050919050565b600073ffffffffffffffffffffffffffffffffffffffff82169050919050565b6000819050919050565b600060ff82169050919050565b82818337600083830152505050565b60005b838110156151c15780820151818401526020810190506151a6565b838111156151d0576000848401525b50505050565b600060028204905060018216806151ee57607f821691505b602082108114156152025761520161536e565b5b50919050565b61521182615448565b810181811067ffffffffffffffff821117156152305761522f6153fb565b5b80604052505050565b60006152448261517d565b91507fffffffffffffffffffffffffffffffffffffffffffffffffffffffffffffffff821415615277576152766152e1565b5b600182019050919050565b600061528d8261529e565b9050919050565b6000819050919050565b60006152a982615459565b9050919050565b60006152bb8261517d565b91506152c68361517d565b9250826152d6576152d5615310565b5b828206905092915050565b7f4e487b7100000000000000000000000000000000000000000000000000000000600052601160045260246000fd5b7f4e487b7100000000000000000000000000000000000000000000000000000000600052601260045260246000fd5b7f4e487b7100000000000000000000000000000000000000000000000000000000600052602160045260246000fd5b7f4e487b7100000000000000000000000000000000000000000000000000000000600052602260045260246000fd5b7f4e487b7100000000000000000000000000000000000000000000000000000000600052603160045260246000fd5b7f4e487b7100000000000000000000000000000000000000000000000000000000600052603260045260246000fd5b7f4e487b7100000000000000000000000000000000000000000000000000000000600052604160045260246000fd5b600080fd5b600080fd5b600080fd5b600080fd5b600080fd5b600080fd5b6000601f19601f8301169050919050565b60008160601b9050919050565b7f45434453413a20696e76616c6964207369676e61747572650000000000000000600082015250565b7f45434453413a20696e76616c6964207369676e6174757265206c656e67746800600082015250565b7f19457468657265756d205369676e6564204d6573736167653a0a333200000000600082015250565b7f455243373231456e756d657261626c653a206f776e657220696e646578206f7560008201527f74206f6620626f756e6473000000000000000000000000000000000000000000602082015250565b7f4552433732313a207472616e7366657220746f206e6f6e20455243373231526560008201527f63656976657220696d706c656d656e7465720000000000000000000000000000602082015250565b7f4f776e61626c653a206e6577206f776e657220697320746865207a65726f206160008201527f6464726573730000000000000000000000000000000000000000000000000000602082015250565b7f5468697320746f6b656e20646964206e6f74206265206372656174656420627960008201527f20746869732063726561746f722e000000000000000000000000000000000000602082015250565b7f4552433732313a20746f6b656e20616c7265616479206d696e74656400000000600082015250565b7f726f79616c74792063616e6e6f742062652067726561746572207468616e203460008201527f3000000000000000000000000000000000000000000000000000000000000000602082015250565b7f4552433732313a207472616e7366657220746f20746865207a65726f2061646460008201527f7265737300000000000000000000000000000000000000000000000000000000602082015250565b7f4552433732313a20617070726f766520746f2063616c6c657200000000000000600082015250565b7f496e76616c6964207369676e6174757265000000000000000000000000000000600082015250565b7f45434453413a20696e76616c6964207369676e6174757265202773272076616c60008201527f7565000000000000000000000000000000000000000000000000000000000000602082015250565b7f4552433732313a206f70657261746f7220717565727920666f72206e6f6e657860008201527f697374656e7420746f6b656e0000000000000000000000000000000000000000602082015250565b7f4552433732313a20617070726f76652063616c6c6572206973206e6f74206f7760008201527f6e6572206e6f7220617070726f76656420666f7220616c6c0000000000000000602082015250565b7f4552433732313a2062616c616e636520717565727920666f7220746865207a6560008201527f726f206164647265737300000000000000000000000000000000000000000000602082015250565b7f4552433732313a206f776e657220717565727920666f72206e6f6e657869737460008201527f656e7420746f6b656e0000000000000000000000000000000000000000000000602082015250565b7f45524337323155524953746f726167653a2055524920736574206f66206e6f6e60008201527f6578697374656e7420746f6b656e000000000000000000000000000000000000602082015250565b7f496e697469616c697a61626c653a20636f6e747261637420697320616c72656160008201527f647920696e697469616c697a6564000000000000000000000000000000000000602082015250565b7f45434453413a20696e76616c6964207369676e6174757265202776272076616c60008201527f7565000000000000000000000000000000000000000000000000000000000000602082015250565b7f4552433732313a206d696e7420746f20746865207a65726f2061646472657373600082015250565b7f45524337323155524953746f726167653a2055524920717565727920666f722060008201527f6e6f6e6578697374656e7420746f6b656e000000000000000000000000000000602082015250565b7f4552433732313a20617070726f76656420717565727920666f72206e6f6e657860008201527f697374656e7420746f6b656e0000000000000000000000000000000000000000602082015250565b7f4f776e61626c653a2063616c6c6572206973206e6f7420746865206f776e6572600082015250565b7f4552433732313a207472616e73666572206f6620746f6b656e2074686174206960008201527f73206e6f74206f776e0000000000000000000000000000000000000000000000602082015250565b7f4552433732314d657461646174613a2055524920717565727920666f72206e6f60008201527f6e6578697374656e7420746f6b656e0000000000000000000000000000000000602082015250565b7f4552433732313a20617070726f76616c20746f2063757272656e74206f776e6560008201527f7200000000000000000000000000000000000000000000000000000000000000602082015250565b7f4552433732313a207472616e736665722063616c6c6572206973206e6f74206f60008201527f776e6572206e6f7220617070726f766564000000000000000000000000000000602082015250565b7f455243373231456e756d657261626c653a20676c6f62616c20696e646578206f60008201527f7574206f6620626f756e64730000000000000000000000000000000000000000602082015250565b7f4552433732314275726e61626c653a2063616c6c6572206973206e6f74206f7760008201527f6e6572206e6f7220617070726f76656400000000000000000000000000000000602082015250565b615c8181615109565b8114615c8c57600080fd5b50565b615c988161511b565b8114615ca357600080fd5b50565b615caf81615131565b8114615cba57600080fd5b50565b615cc68161517d565b8114615cd157600080fd5b5056fea264697066735822122029bd5cf2ba719ca3d6fff661a28074a157f1b697afac2449f44a042f45f841f064736f6c63430008060033",
  "immutableReferences": {},
  "source": "// SPDX-License-Identifier: MIT\r\npragma solidity >=0.4.22 <0.9.0;\r\n\r\nimport \"@openzeppelin/contracts-upgradeable/utils/CountersUpgradeable.sol\";\r\nimport \"@openzeppelin/contracts-upgradeable/utils/cryptography/ECDSAUpgradeable.sol\";\r\nimport \"./NFTBase.sol\";\r\n\r\ncontract FunNFT is NFTBase {\r\n    using CountersUpgradeable for CountersUpgradeable.Counter;\r\n    /// @custom:oz-upgrades-unsafe-allow constructor\r\n    constructor() initializer {}\r\n    struct Mint721Data {\r\n        uint256 tokenId;\r\n        string uri;\r\n        address creator;\r\n        uint256 royalty;\r\n        bytes signature;\r\n    }\r\n    string private thumbnail;\r\n\r\n    function initialize(string memory _name, string memory _symbol, string memory _thumbnail) \r\n    initializer \r\n    public {\r\n        __ERC721_init(_name, _symbol);\r\n        __ERC721Enumerable_init();\r\n        __ERC721URIStorage_init();\r\n        __ERC721Burnable_init();\r\n        __Ownable_init();\r\n        thumbnail = _thumbnail;\r\n    }\r\n\r\n    function transferOrMint(Mint721Data memory data, address from, address to) external {\r\n        if (_exists(data.tokenId)) {\r\n            safeTransferFrom(from, to, data.tokenId);\r\n        } else {\r\n            mintAndTransfer(data, to);\r\n        }\r\n    }\r\n\r\n    function mintAndTransfer(Mint721Data memory data, address to) public {\r\n        address minter = msg.sender;\r\n        address creator = data.creator;\r\n\r\n        require(minter == creator || isApprovedForAll(creator, minter), \"ERC721: transfer caller is not owner nor approved\");\r\n\r\n        /*\r\n        Lazy minting \r\n        */\r\n\r\n        bytes32 digest = _hash(address(this), data.creator, data.uri);\r\n        require(_verify(digest, data.signature), \"Invalid signature\");\r\n\r\n        _safeMint(to, _tokenIdCounter.current());\r\n        _saveCreator(_tokenIdCounter.current(), creator, data.royalty);\r\n        _setTokenURI(_tokenIdCounter.current(), data.uri);\r\n        /* \r\n        Save royalty\r\n        */\r\n        _tokenIdCounter.increment();\r\n    }\r\n\r\n    function _hash(address collection, address creator, string memory uri)\r\n    internal pure returns (bytes32)\r\n    {\r\n        return ECDSAUpgradeable.toEthSignedMessageHash(keccak256(abi.encodePacked(collection, creator, uri)));\r\n    }\r\n\r\n    function _verify(bytes32 digest, bytes memory signature)\r\n    internal view returns (bool)\r\n    {\r\n        return owner() == ECDSAUpgradeable.recover(digest, signature);\r\n\r\n    }\r\n\r\n    function getThumbnail() external view returns(string memory) {\r\n        return thumbnail;\r\n    }\r\n}",
  "sourcePath": "E:/LamViec/fun-exchange/contracts/tokens/FunNFT.sol",
  "compiler": {
    "name": "solc",
    "version": "0.8.6+commit.11564f7e.Emscripten.clang"
  },
  "schemaVersion": "3.3.4",
  "updatedAt": "2021-12-14T10:21:04.902Z",
  "networkType": "ethereum",
  "devdoc": {
    "kind": "dev",
    "methods": {
      "approve(address,uint256)": {
        "details": "See {IERC721-approve}."
      },
      "balanceOf(address)": {
        "details": "See {IERC721-balanceOf}."
      },
      "burn(uint256)": {
        "details": "Burns `tokenId`. See {ERC721-_burn}. Requirements: - The caller must own `tokenId` or be an approved operator."
      },
      "constructor": {
        "custom:oz-upgrades-unsafe-allow": "constructor"
      },
      "getApproved(uint256)": {
        "details": "See {IERC721-getApproved}."
      },
      "isApprovedForAll(address,address)": {
        "details": "See {IERC721-isApprovedForAll}."
      },
      "name()": {
        "details": "See {IERC721Metadata-name}."
      },
      "owner()": {
        "details": "Returns the address of the current owner."
      },
      "ownerOf(uint256)": {
        "details": "See {IERC721-ownerOf}."
      },
      "renounceOwnership()": {
        "details": "Leaves the contract without owner. It will not be possible to call `onlyOwner` functions anymore. Can only be called by the current owner. NOTE: Renouncing ownership will leave the contract without an owner, thereby removing any functionality that is only available to the owner."
      },
      "safeTransferFrom(address,address,uint256)": {
        "details": "See {IERC721-safeTransferFrom}."
      },
      "safeTransferFrom(address,address,uint256,bytes)": {
        "details": "See {IERC721-safeTransferFrom}."
      },
      "setApprovalForAll(address,bool)": {
        "details": "See {IERC721-setApprovalForAll}."
      },
      "symbol()": {
        "details": "See {IERC721Metadata-symbol}."
      },
      "tokenByIndex(uint256)": {
        "details": "See {IERC721Enumerable-tokenByIndex}."
      },
      "tokenOfOwnerByIndex(address,uint256)": {
        "details": "See {IERC721Enumerable-tokenOfOwnerByIndex}."
      },
      "totalSupply()": {
        "details": "See {IERC721Enumerable-totalSupply}."
      },
      "transferFrom(address,address,uint256)": {
        "details": "See {IERC721-transferFrom}."
      },
      "transferOwnership(address)": {
        "details": "Transfers ownership of the contract to a new account (`newOwner`). Can only be called by the current owner."
      }
    },
    "version": 1
  },
  "userdoc": {
    "kind": "user",
    "methods": {},
    "version": 1
  }
}