{
  "contractName": "FunNFT",
  "abi": [
    {
      "inputs": [],
      "stateMutability": "nonpayable",
      "type": "constructor"
    },
    {
      "anonymous": false,
      "inputs": [
        {
          "indexed": true,
          "internalType": "address",
          "name": "owner",
          "type": "address"
        },
        {
          "indexed": true,
          "internalType": "address",
          "name": "approved",
          "type": "address"
        },
        {
          "indexed": true,
          "internalType": "uint256",
          "name": "tokenId",
          "type": "uint256"
        }
      ],
      "name": "Approval",
      "type": "event"
    },
    {
      "anonymous": false,
      "inputs": [
        {
          "indexed": true,
          "internalType": "address",
          "name": "owner",
          "type": "address"
        },
        {
          "indexed": true,
          "internalType": "address",
          "name": "operator",
          "type": "address"
        },
        {
          "indexed": false,
          "internalType": "bool",
          "name": "approved",
          "type": "bool"
        }
      ],
      "name": "ApprovalForAll",
      "type": "event"
    },
    {
      "anonymous": false,
      "inputs": [
        {
          "indexed": false,
          "internalType": "uint256",
          "name": "tokenId",
          "type": "uint256"
        },
        {
          "indexed": false,
          "internalType": "address",
          "name": "creator",
          "type": "address"
        },
        {
          "indexed": false,
          "internalType": "uint256",
          "name": "royalty",
          "type": "uint256"
        }
      ],
      "name": "Creator",
      "type": "event"
    },
    {
      "anonymous": false,
      "inputs": [
        {
          "indexed": true,
          "internalType": "address",
          "name": "operator",
          "type": "address"
        },
        {
          "indexed": false,
          "internalType": "bool",
          "name": "hasApproval",
          "type": "bool"
        }
      ],
      "name": "DefaultApproval",
      "type": "event"
    },
    {
      "anonymous": false,
      "inputs": [
        {
          "indexed": true,
          "internalType": "address",
          "name": "previousOwner",
          "type": "address"
        },
        {
          "indexed": true,
          "internalType": "address",
          "name": "newOwner",
          "type": "address"
        }
      ],
      "name": "OwnershipTransferred",
      "type": "event"
    },
    {
      "anonymous": false,
      "inputs": [
        {
          "indexed": true,
          "internalType": "address",
          "name": "from",
          "type": "address"
        },
        {
          "indexed": true,
          "internalType": "address",
          "name": "to",
          "type": "address"
        },
        {
          "indexed": true,
          "internalType": "uint256",
          "name": "tokenId",
          "type": "uint256"
        }
      ],
      "name": "Transfer",
      "type": "event"
    },
    {
      "inputs": [
        {
          "internalType": "address",
          "name": "to",
          "type": "address"
        },
        {
          "internalType": "uint256",
          "name": "tokenId",
          "type": "uint256"
        }
      ],
      "name": "approve",
      "outputs": [],
      "stateMutability": "nonpayable",
      "type": "function"
    },
    {
      "inputs": [
        {
          "internalType": "address",
          "name": "owner",
          "type": "address"
        }
      ],
      "name": "balanceOf",
      "outputs": [
        {
          "internalType": "uint256",
          "name": "",
          "type": "uint256"
        }
      ],
      "stateMutability": "view",
      "type": "function"
    },
    {
      "inputs": [],
      "name": "baseTokenURI",
      "outputs": [
        {
          "internalType": "string",
          "name": "",
          "type": "string"
        }
      ],
      "stateMutability": "view",
      "type": "function"
    },
    {
      "inputs": [
        {
          "internalType": "uint256",
          "name": "tokenId",
          "type": "uint256"
        }
      ],
      "name": "burn",
      "outputs": [],
      "stateMutability": "nonpayable",
      "type": "function"
    },
    {
      "inputs": [
        {
          "internalType": "address",
          "name": "creator",
          "type": "address"
        }
      ],
      "name": "createdTokenOf",
      "outputs": [
        {
          "internalType": "uint256",
          "name": "",
          "type": "uint256"
        }
      ],
      "stateMutability": "view",
      "type": "function"
    },
    {
      "inputs": [
        {
          "internalType": "address",
          "name": "creator",
          "type": "address"
        },
        {
          "internalType": "uint256",
          "name": "index",
          "type": "uint256"
        }
      ],
      "name": "createdTokenOfCreatorByIndex",
      "outputs": [
        {
          "internalType": "uint256",
          "name": "",
          "type": "uint256"
        }
      ],
      "stateMutability": "view",
      "type": "function"
    },
    {
      "inputs": [
        {
          "internalType": "uint256",
          "name": "tokenId",
          "type": "uint256"
        }
      ],
      "name": "creatorOf",
      "outputs": [
        {
          "internalType": "address",
          "name": "",
          "type": "address"
        }
      ],
      "stateMutability": "view",
      "type": "function"
    },
    {
      "inputs": [
        {
          "internalType": "uint256",
          "name": "tokenId",
          "type": "uint256"
        }
      ],
      "name": "getApproved",
      "outputs": [
        {
          "internalType": "address",
          "name": "",
          "type": "address"
        }
      ],
      "stateMutability": "view",
      "type": "function"
    },
    {
      "inputs": [
        {
          "internalType": "address",
          "name": "owner",
          "type": "address"
        },
        {
          "internalType": "address",
          "name": "operator",
          "type": "address"
        }
      ],
      "name": "isApprovedForAll",
      "outputs": [
        {
          "internalType": "bool",
          "name": "",
          "type": "bool"
        }
      ],
      "stateMutability": "view",
      "type": "function"
    },
    {
      "inputs": [],
      "name": "name",
      "outputs": [
        {
          "internalType": "string",
          "name": "",
          "type": "string"
        }
      ],
      "stateMutability": "view",
      "type": "function"
    },
    {
      "inputs": [],
      "name": "owner",
      "outputs": [
        {
          "internalType": "address",
          "name": "",
          "type": "address"
        }
      ],
      "stateMutability": "view",
      "type": "function"
    },
    {
      "inputs": [
        {
          "internalType": "uint256",
          "name": "tokenId",
          "type": "uint256"
        }
      ],
      "name": "ownerOf",
      "outputs": [
        {
          "internalType": "address",
          "name": "",
          "type": "address"
        }
      ],
      "stateMutability": "view",
      "type": "function"
    },
    {
      "inputs": [],
      "name": "renounceOwnership",
      "outputs": [],
      "stateMutability": "nonpayable",
      "type": "function"
    },
    {
      "inputs": [
        {
          "internalType": "uint256",
          "name": "tokenId",
          "type": "uint256"
        }
      ],
      "name": "royaltyOf",
      "outputs": [
        {
          "internalType": "uint256",
          "name": "",
          "type": "uint256"
        }
      ],
      "stateMutability": "view",
      "type": "function"
    },
    {
      "inputs": [
        {
          "internalType": "address",
          "name": "from",
          "type": "address"
        },
        {
          "internalType": "address",
          "name": "to",
          "type": "address"
        },
        {
          "internalType": "uint256",
          "name": "tokenId",
          "type": "uint256"
        }
      ],
      "name": "safeTransferFrom",
      "outputs": [],
      "stateMutability": "nonpayable",
      "type": "function"
    },
    {
      "inputs": [
        {
          "internalType": "address",
          "name": "from",
          "type": "address"
        },
        {
          "internalType": "address",
          "name": "to",
          "type": "address"
        },
        {
          "internalType": "uint256",
          "name": "tokenId",
          "type": "uint256"
        },
        {
          "internalType": "bytes",
          "name": "_data",
          "type": "bytes"
        }
      ],
      "name": "safeTransferFrom",
      "outputs": [],
      "stateMutability": "nonpayable",
      "type": "function"
    },
    {
      "inputs": [
        {
          "internalType": "address",
          "name": "operator",
          "type": "address"
        },
        {
          "internalType": "bool",
          "name": "approved",
          "type": "bool"
        }
      ],
      "name": "setApprovalForAll",
      "outputs": [],
      "stateMutability": "nonpayable",
      "type": "function"
    },
    {
      "inputs": [
        {
          "internalType": "address",
          "name": "operator",
          "type": "address"
        },
        {
          "internalType": "bool",
          "name": "hasApproval",
          "type": "bool"
        }
      ],
      "name": "setDefaultApproval",
      "outputs": [],
      "stateMutability": "nonpayable",
      "type": "function"
    },
    {
      "inputs": [
        {
          "internalType": "bytes4",
          "name": "interfaceId",
          "type": "bytes4"
        }
      ],
      "name": "supportsInterface",
      "outputs": [
        {
          "internalType": "bool",
          "name": "",
          "type": "bool"
        }
      ],
      "stateMutability": "view",
      "type": "function"
    },
    {
      "inputs": [],
      "name": "symbol",
      "outputs": [
        {
          "internalType": "string",
          "name": "",
          "type": "string"
        }
      ],
      "stateMutability": "view",
      "type": "function"
    },
    {
      "inputs": [
        {
          "internalType": "uint256",
          "name": "index",
          "type": "uint256"
        }
      ],
      "name": "tokenByIndex",
      "outputs": [
        {
          "internalType": "uint256",
          "name": "",
          "type": "uint256"
        }
      ],
      "stateMutability": "view",
      "type": "function"
    },
    {
      "inputs": [
        {
          "internalType": "address",
          "name": "owner",
          "type": "address"
        },
        {
          "internalType": "uint256",
          "name": "index",
          "type": "uint256"
        }
      ],
      "name": "tokenOfOwnerByIndex",
      "outputs": [
        {
          "internalType": "uint256",
          "name": "",
          "type": "uint256"
        }
      ],
      "stateMutability": "view",
      "type": "function"
    },
    {
      "inputs": [
        {
          "internalType": "uint256",
          "name": "tokenId",
          "type": "uint256"
        }
      ],
      "name": "tokenURI",
      "outputs": [
        {
          "internalType": "string",
          "name": "",
          "type": "string"
        }
      ],
      "stateMutability": "view",
      "type": "function"
    },
    {
      "inputs": [],
      "name": "totalSupply",
      "outputs": [
        {
          "internalType": "uint256",
          "name": "",
          "type": "uint256"
        }
      ],
      "stateMutability": "view",
      "type": "function"
    },
    {
      "inputs": [
        {
          "internalType": "address",
          "name": "from",
          "type": "address"
        },
        {
          "internalType": "address",
          "name": "to",
          "type": "address"
        },
        {
          "internalType": "uint256",
          "name": "tokenId",
          "type": "uint256"
        }
      ],
      "name": "transferFrom",
      "outputs": [],
      "stateMutability": "nonpayable",
      "type": "function"
    },
    {
      "inputs": [
        {
          "internalType": "address",
          "name": "newOwner",
          "type": "address"
        }
      ],
      "name": "transferOwnership",
      "outputs": [],
      "stateMutability": "nonpayable",
      "type": "function"
    },
    {
      "inputs": [
        {
          "internalType": "string",
          "name": "_name",
          "type": "string"
        },
        {
          "internalType": "string",
          "name": "_symbol",
          "type": "string"
        },
        {
          "internalType": "string",
          "name": "_baseTokenURI",
          "type": "string"
        },
        {
          "internalType": "string",
          "name": "_thumbnail",
          "type": "string"
        }
      ],
      "name": "initialize",
      "outputs": [],
      "stateMutability": "nonpayable",
      "type": "function"
    },
    {
      "inputs": [
        {
          "components": [
            {
              "internalType": "uint256",
              "name": "tokenId",
              "type": "uint256"
            },
            {
              "internalType": "string",
              "name": "uri",
              "type": "string"
            },
            {
              "internalType": "address",
              "name": "creator",
              "type": "address"
            },
            {
              "internalType": "uint256",
              "name": "royalty",
              "type": "uint256"
            },
            {
              "internalType": "bytes",
              "name": "signature",
              "type": "bytes"
            }
          ],
          "internalType": "struct FunLibAsset.Mint721Data",
          "name": "data",
          "type": "tuple"
        },
        {
          "internalType": "address",
          "name": "from",
          "type": "address"
        },
        {
          "internalType": "address",
          "name": "to",
          "type": "address"
        }
      ],
      "name": "transferOrMint",
      "outputs": [],
      "stateMutability": "nonpayable",
      "type": "function"
    },
    {
      "inputs": [
        {
          "components": [
            {
              "internalType": "uint256",
              "name": "tokenId",
              "type": "uint256"
            },
            {
              "internalType": "string",
              "name": "uri",
              "type": "string"
            },
            {
              "internalType": "address",
              "name": "creator",
              "type": "address"
            },
            {
              "internalType": "uint256",
              "name": "royalty",
              "type": "uint256"
            },
            {
              "internalType": "bytes",
              "name": "signature",
              "type": "bytes"
            }
          ],
          "internalType": "struct FunLibAsset.Mint721Data",
          "name": "data",
          "type": "tuple"
        },
        {
          "internalType": "address",
          "name": "to",
          "type": "address"
        }
      ],
      "name": "mintAndTransfer",
      "outputs": [],
      "stateMutability": "nonpayable",
      "type": "function"
    },
    {
      "inputs": [],
      "name": "getThumbnail",
      "outputs": [
        {
          "internalType": "string",
          "name": "",
          "type": "string"
        }
      ],
      "stateMutability": "view",
      "type": "function"
    }
  ],
  "bytecode": "0x60806040523480156200001157600080fd5b50600060019054906101000a900460ff168062000039575060008054906101000a900460ff16155b6200007b576040517f08c379a000000000000000000000000000000000000000000000000000000000815260040162000072906200011c565b60405180910390fd5b60008060019054906101000a900460ff161590508015620000cc576001600060016101000a81548160ff02191690831515021790555060016000806101000a81548160ff0219169083151502179055505b8015620000ee5760008060016101000a81548160ff0219169083151502179055505b506200019e565b600062000104602e836200013e565b915062000111826200014f565b604082019050919050565b600060208201905081810360008301526200013781620000f5565b9050919050565b600082825260208201905092915050565b7f496e697469616c697a61626c653a20636f6e747261637420697320616c72656160008201527f647920696e697469616c697a6564000000000000000000000000000000000000602082015250565b615c7d80620001ae6000396000f3fe608060405234801561001057600080fd5b50600436106101da5760003560e01c80636352211e11610104578063a523d35e116100a2578063d547cfb711610071578063d547cfb714610589578063e1d74083146105a7578063e985e9c5146105c5578063f2fde38b146105f5576101da565b8063a523d35e146104f1578063b88d4fde1461050d578063c87b56dd14610529578063d26509b114610559576101da565b8063851c9d55116100de578063851c9d55146104695780638da5cb5b1461049957806395d89b41146104b7578063a22cb465146104d5576101da565b80636352211e146103ff57806370a082311461042f578063715018a61461045f576101da565b806323b872dd1161017c57806342966c681161014b57806342966c68146103675780634f6ccce714610383578063589a1743146103b35780635eeb6b14146103e3576101da565b806323b872dd146102e35780632f745c59146102ff57806341f010de1461032f57806342842e0e1461034b576101da565b8063081812fc116101b8578063081812fc1461025d578063095ea7b31461028d57806318054c37146102a957806318160ddd146102c5576101da565b806301ffc9a7146101df57806304e159191461020f57806306fdde031461023f575b600080fd5b6101f960048036038101906101f491906142cc565b610611565b6040516102069190614af2565b60405180910390f35b61022960048036038101906102249190614109565b610623565b6040516102369190614ef4565b60405180910390f35b6102476106da565b6040516102549190614b52565b60405180910390f35b610277600480360381019061027291906144c8565b61076c565b6040516102849190614a8b565b60405180910390f35b6102a760048036038101906102a2919061428c565b6107f1565b005b6102c360048036038101906102be919061424c565b610909565b005b6102cd610993565b6040516102da9190614ef4565b60405180910390f35b6102fd60048036038101906102f89190614176565b6109a0565b005b6103196004803603810190610314919061428c565b610a00565b6040516103269190614ef4565b60405180910390f35b610349600480360381019061034491906143fd565b610aa5565b005b61036560048036038101906103609190614176565b610bed565b005b610381600480360381019061037c91906144c8565b610c0d565b005b61039d600480360381019061039891906144c8565b610c69565b6040516103aa9190614ef4565b60405180910390f35b6103cd60048036038101906103c891906144c8565b610cda565b6040516103da9190614a8b565b60405180910390f35b6103fd60048036038101906103f89190614459565b610d18565b005b610419600480360381019061041491906144c8565b610d4e565b6040516104269190614a8b565b60405180910390f35b61044960048036038101906104449190614109565b610e00565b6040516104569190614ef4565b60405180910390f35b610467610eb8565b005b610483600480360381019061047e919061428c565b610f40565b6040516104909190614ef4565b60405180910390f35b6104a1611041565b6040516104ae9190614a8b565b60405180910390f35b6104bf61106c565b6040516104cc9190614b52565b60405180910390f35b6104ef60048036038101906104ea919061424c565b6110fe565b005b61050b60048036038101906105069190614326565b61127f565b005b610527600480360381019061052291906141c9565b6113b6565b005b610543600480360381019061053e91906144c8565b611418565b6040516105509190614b52565b60405180910390f35b610573600480360381019061056e91906144c8565b61142a565b6040516105809190614ef4565b60405180910390f35b610591611448565b60405161059e9190614b52565b60405180910390f35b6105af6114d7565b6040516105bc9190614b52565b60405180910390f35b6105df60048036038101906105da9190614136565b61156a565b6040516105ec9190614af2565b60405180910390f35b61060f600480360381019061060a9190614109565b6115d3565b005b600061061c826116cb565b9050919050565b6000806000905060006106376101606116dd565b905060005b818110156106cf578473ffffffffffffffffffffffffffffffffffffffff16610162600083815260200190815260200160002060009054906101000a900473ffffffffffffffffffffffffffffffffffffffff1673ffffffffffffffffffffffffffffffffffffffff1614156106bc576001836106b99190615010565b92505b80806106c7906151fb565b91505061063c565b508192505050919050565b6060606580546106e990615198565b80601f016020809104026020016040519081016040528092919081815260200182805461071590615198565b80156107625780601f1061073757610100808354040283529160200191610762565b820191906000526020600020905b81548152906001019060200180831161074557829003601f168201915b5050505050905090565b6000610777826116eb565b6107b6576040517f08c379a00000000000000000000000000000000000000000000000000000000081526004016107ad90614df4565b60405180910390fd5b6069600083815260200190815260200160002060009054906101000a900473ffffffffffffffffffffffffffffffffffffffff169050919050565b60006107fc82610d4e565b90508073ffffffffffffffffffffffffffffffffffffffff168373ffffffffffffffffffffffffffffffffffffffff16141561086d576040517f08c379a000000000000000000000000000000000000000000000000000000000815260040161086490614e74565b60405180910390fd5b8073ffffffffffffffffffffffffffffffffffffffff1661088c611757565b73ffffffffffffffffffffffffffffffffffffffff1614806108bb57506108ba816108b5611757565b61156a565b5b6108fa576040517f08c379a00000000000000000000000000000000000000000000000000000000081526004016108f190614cf4565b60405180910390fd5b610904838361175f565b505050565b610911611757565b73ffffffffffffffffffffffffffffffffffffffff1661092f611041565b73ffffffffffffffffffffffffffffffffffffffff1614610985576040517f08c379a000000000000000000000000000000000000000000000000000000000815260040161097c90614e14565b60405180910390fd5b61098f8282611818565b5050565b6000609980549050905090565b6109b16109ab611757565b826118c2565b6109f0576040517f08c379a00000000000000000000000000000000000000000000000000000000081526004016109e790614e94565b60405180910390fd5b6109fb83838361192b565b505050565b6000610a0b83610e00565b8210610a4c576040517f08c379a0000000000000000000000000000000000000000000000000000000008152600401610a4390614bb4565b60405180910390fd5b609760008473ffffffffffffffffffffffffffffffffffffffff1673ffffffffffffffffffffffffffffffffffffffff168152602001908152602001600020600083815260200190815260200160002054905092915050565b60003390506000836040015190508073ffffffffffffffffffffffffffffffffffffffff168273ffffffffffffffffffffffffffffffffffffffff161480610af35750610af2818361156a565b5b610b32576040517f08c379a0000000000000000000000000000000000000000000000000000000008152600401610b2990614e94565b60405180910390fd5b6000610b473086604001518760200151611b87565b9050610b57818660800151611bc5565b610b96576040517f08c379a0000000000000000000000000000000000000000000000000000000008152600401610b8d90614c94565b60405180910390fd5b610baa84610ba56101606116dd565b611c0e565b610bc3610bb86101606116dd565b838760600151611c2c565b610bdb610bd16101606116dd565b8660200151611cd8565b610be6610160611d4c565b5050505050565b610c08838383604051806020016040528060008152506113b6565b505050565b610c1e610c18611757565b826118c2565b610c5d576040517f08c379a0000000000000000000000000000000000000000000000000000000008152600401610c5490614ed4565b60405180910390fd5b610c6681611d62565b50565b6000610c73610993565b8210610cb4576040517f08c379a0000000000000000000000000000000000000000000000000000000008152600401610cab90614eb4565b60405180910390fd5b60998281548110610cc857610cc761538e565b5b90600052602060002001549050919050565b6000610162600083815260200190815260200160002060009054906101000a900473ffffffffffffffffffffffffffffffffffffffff169050919050565b610d2583600001516116eb565b15610d3e57610d3982828560000151610bed565b610d49565b610d488382610aa5565b5b505050565b6000806067600084815260200190815260200160002060009054906101000a900473ffffffffffffffffffffffffffffffffffffffff169050600073ffffffffffffffffffffffffffffffffffffffff168173ffffffffffffffffffffffffffffffffffffffff161415610df7576040517f08c379a0000000000000000000000000000000000000000000000000000000008152600401610dee90614d34565b60405180910390fd5b80915050919050565b60008073ffffffffffffffffffffffffffffffffffffffff168273ffffffffffffffffffffffffffffffffffffffff161415610e71576040517f08c379a0000000000000000000000000000000000000000000000000000000008152600401610e6890614d14565b60405180910390fd5b606860008373ffffffffffffffffffffffffffffffffffffffff1673ffffffffffffffffffffffffffffffffffffffff168152602001908152602001600020549050919050565b610ec0611757565b73ffffffffffffffffffffffffffffffffffffffff16610ede611041565b73ffffffffffffffffffffffffffffffffffffffff1614610f34576040517f08c379a0000000000000000000000000000000000000000000000000000000008152600401610f2b90614e14565b60405180910390fd5b610f3e6000611d6e565b565b600080600090506000610f546101606116dd565b905060005b81811015610fff578573ffffffffffffffffffffffffffffffffffffffff16610162600083815260200190815260200160002060009054906101000a900473ffffffffffffffffffffffffffffffffffffffff1673ffffffffffffffffffffffffffffffffffffffff161415610fec57600183610fd69190615010565b925084831415610feb5780935050505061103b565b5b8080610ff7906151fb565b915050610f59565b506040517f08c379a000000000000000000000000000000000000000000000000000000000815260040161103290614c14565b60405180910390fd5b92915050565b600061012e60009054906101000a900473ffffffffffffffffffffffffffffffffffffffff16905090565b60606066805461107b90615198565b80601f01602080910402602001604051908101604052809291908181526020018280546110a790615198565b80156110f45780601f106110c9576101008083540402835291602001916110f4565b820191906000526020600020905b8154815290600101906020018083116110d757829003601f168201915b5050505050905090565b611106611757565b73ffffffffffffffffffffffffffffffffffffffff168273ffffffffffffffffffffffffffffffffffffffff161415611174576040517f08c379a000000000000000000000000000000000000000000000000000000000815260040161116b90614c74565b60405180910390fd5b80606a6000611181611757565b73ffffffffffffffffffffffffffffffffffffffff1673ffffffffffffffffffffffffffffffffffffffff16815260200190815260200160002060008473ffffffffffffffffffffffffffffffffffffffff1673ffffffffffffffffffffffffffffffffffffffff16815260200190815260200160002060006101000a81548160ff0219169083151502179055508173ffffffffffffffffffffffffffffffffffffffff1661122e611757565b73ffffffffffffffffffffffffffffffffffffffff167f17307eab39ab6107e8899845ad3d59bd9653f200f220920489ca2b5937696c31836040516112739190614af2565b60405180910390a35050565b600060019054906101000a900460ff16806112a5575060008054906101000a900460ff16155b6112e4576040517f08c379a00000000000000000000000000000000000000000000000000000000081526004016112db90614d74565b60405180910390fd5b60008060019054906101000a900460ff161590508015611334576001600060016101000a81548160ff02191690831515021790555060016000806101000a81548160ff0219169083151502179055505b61133e8585611e36565b611346611f2b565b61134e61201c565b61135661210d565b61135e6121fe565b826101619080519060200190611375929190613e19565b5081610164908051906020019061138d929190613e19565b5080156113af5760008060016101000a81548160ff0219169083151502179055505b5050505050565b6113c76113c1611757565b836118c2565b611406576040517f08c379a00000000000000000000000000000000000000000000000000000000081526004016113fd90614e94565b60405180910390fd5b611412848484846122e7565b50505050565b606061142382612343565b9050919050565b60006101636000838152602001908152602001600020549050919050565b610161805461145690615198565b80601f016020809104026020016040519081016040528092919081815260200182805461148290615198565b80156114cf5780601f106114a4576101008083540402835291602001916114cf565b820191906000526020600020905b8154815290600101906020018083116114b257829003601f168201915b505050505081565b606061016480546114e790615198565b80601f016020809104026020016040519081016040528092919081815260200182805461151390615198565b80156115605780601f1061153557610100808354040283529160200191611560565b820191906000526020600020905b81548152906001019060200180831161154357829003601f168201915b5050505050905090565b600061012d60008373ffffffffffffffffffffffffffffffffffffffff1673ffffffffffffffffffffffffffffffffffffffff16815260200190815260200160002060009054906101000a900460ff16806115cb57506115ca8383612495565b5b905092915050565b6115db611757565b73ffffffffffffffffffffffffffffffffffffffff166115f9611041565b73ffffffffffffffffffffffffffffffffffffffff161461164f576040517f08c379a000000000000000000000000000000000000000000000000000000000815260040161164690614e14565b60405180910390fd5b600073ffffffffffffffffffffffffffffffffffffffff168173ffffffffffffffffffffffffffffffffffffffff1614156116bf576040517f08c379a00000000000000000000000000000000000000000000000000000000081526004016116b690614bf4565b60405180910390fd5b6116c881611d6e565b50565b60006116d682612529565b9050919050565b600081600001549050919050565b60008073ffffffffffffffffffffffffffffffffffffffff166067600084815260200190815260200160002060009054906101000a900473ffffffffffffffffffffffffffffffffffffffff1673ffffffffffffffffffffffffffffffffffffffff1614159050919050565b600033905090565b816069600083815260200190815260200160002060006101000a81548173ffffffffffffffffffffffffffffffffffffffff021916908373ffffffffffffffffffffffffffffffffffffffff160217905550808273ffffffffffffffffffffffffffffffffffffffff166117d283610d4e565b73ffffffffffffffffffffffffffffffffffffffff167f8c5be1e5ebec7d5bd14f71427d1e84f3dd0314c0f7b2291e5b200ac8c7c3b92560405160405180910390a45050565b8061012d60008473ffffffffffffffffffffffffffffffffffffffff1673ffffffffffffffffffffffffffffffffffffffff16815260200190815260200160002060006101000a81548160ff0219169083151502179055508173ffffffffffffffffffffffffffffffffffffffff167f270dbb8ba4292910ae92862466486be25c355c837270a3d8824b36a8bc7c653b826040516118b69190614af2565b60405180910390a25050565b600061012d60008473ffffffffffffffffffffffffffffffffffffffff1673ffffffffffffffffffffffffffffffffffffffff16815260200190815260200160002060009054906101000a900460ff16806119235750611922838361253b565b5b905092915050565b8273ffffffffffffffffffffffffffffffffffffffff1661194b82610d4e565b73ffffffffffffffffffffffffffffffffffffffff16146119a1576040517f08c379a000000000000000000000000000000000000000000000000000000000815260040161199890614e34565b60405180910390fd5b600073ffffffffffffffffffffffffffffffffffffffff168273ffffffffffffffffffffffffffffffffffffffff161415611a11576040517f08c379a0000000000000000000000000000000000000000000000000000000008152600401611a0890614c54565b60405180910390fd5b611a1c838383612619565b611a2760008261175f565b6001606860008573ffffffffffffffffffffffffffffffffffffffff1673ffffffffffffffffffffffffffffffffffffffff1681526020019081526020016000206000828254611a779190615097565b925050819055506001606860008473ffffffffffffffffffffffffffffffffffffffff1673ffffffffffffffffffffffffffffffffffffffff1681526020019081526020016000206000828254611ace9190615010565b92505081905550816067600083815260200190815260200160002060006101000a81548173ffffffffffffffffffffffffffffffffffffffff021916908373ffffffffffffffffffffffffffffffffffffffff160217905550808273ffffffffffffffffffffffffffffffffffffffff168473ffffffffffffffffffffffffffffffffffffffff167fddf252ad1be2c89b69c2b068fc378daa952ba7f163c4a11628f55a4df523b3ef60405160405180910390a4505050565b6000611bbc848484604051602001611ba193929190614a08565b60405160208183030381529060405280519060200120612629565b90509392505050565b6000611bd18383612659565b73ffffffffffffffffffffffffffffffffffffffff16611bef611041565b73ffffffffffffffffffffffffffffffffffffffff1614905092915050565b611c28828260405180602001604052806000815250612680565b5050565b81610162600085815260200190815260200160002060006101000a81548173ffffffffffffffffffffffffffffffffffffffff021916908373ffffffffffffffffffffffffffffffffffffffff160217905550806101636000858152602001908152602001600020819055507f6b7cf5856d17260bc32731a72e775520bc629b91e1faab58b4661f3e6ce22a0f838383604051611ccb93929190614f0f565b60405180910390a1505050565b611ce1826116eb565b611d20576040517f08c379a0000000000000000000000000000000000000000000000000000000008152600401611d1790614d54565b60405180910390fd5b8060c960008481526020019081526020016000209080519060200190611d47929190613e19565b505050565b6001816000016000828254019250508190555050565b611d6b816126db565b50565b600061012e60009054906101000a900473ffffffffffffffffffffffffffffffffffffffff1690508161012e60006101000a81548173ffffffffffffffffffffffffffffffffffffffff021916908373ffffffffffffffffffffffffffffffffffffffff1602179055508173ffffffffffffffffffffffffffffffffffffffff168173ffffffffffffffffffffffffffffffffffffffff167f8be0079c531659141344cd1fd0a4f28419497f9722a3daafe3b4186f6b6457e060405160405180910390a35050565b600060019054906101000a900460ff1680611e5c575060008054906101000a900460ff16155b611e9b576040517f08c379a0000000000000000000000000000000000000000000000000000000008152600401611e9290614d74565b60405180910390fd5b60008060019054906101000a900460ff161590508015611eeb576001600060016101000a81548160ff02191690831515021790555060016000806101000a81548160ff0219169083151502179055505b611ef361272e565b611efb612807565b611f0583836128e0565b8015611f265760008060016101000a81548160ff0219169083151502179055505b505050565b600060019054906101000a900460ff1680611f51575060008054906101000a900460ff16155b611f90576040517f08c379a0000000000000000000000000000000000000000000000000000000008152600401611f8790614d74565b60405180910390fd5b60008060019054906101000a900460ff161590508015611fe0576001600060016101000a81548160ff02191690831515021790555060016000806101000a81548160ff0219169083151502179055505b611fe861272e565b611ff0612807565b611ff86129e9565b80156120195760008060016101000a81548160ff0219169083151502179055505b50565b600060019054906101000a900460ff1680612042575060008054906101000a900460ff16155b612081576040517f08c379a000000000000000000000000000000000000000000000000000000000815260040161207890614d74565b60405180910390fd5b60008060019054906101000a900460ff1615905080156120d1576001600060016101000a81548160ff02191690831515021790555060016000806101000a81548160ff0219169083151502179055505b6120d961272e565b6120e1612807565b6120e9612ac2565b801561210a5760008060016101000a81548160ff0219169083151502179055505b50565b600060019054906101000a900460ff1680612133575060008054906101000a900460ff16155b612172576040517f08c379a000000000000000000000000000000000000000000000000000000000815260040161216990614d74565b60405180910390fd5b60008060019054906101000a900460ff1615905080156121c2576001600060016101000a81548160ff02191690831515021790555060016000806101000a81548160ff0219169083151502179055505b6121ca61272e565b6121d2612807565b6121da612b9b565b80156121fb5760008060016101000a81548160ff0219169083151502179055505b50565b600060019054906101000a900460ff1680612224575060008054906101000a900460ff16155b612263576040517f08c379a000000000000000000000000000000000000000000000000000000000815260040161225a90614d74565b60405180910390fd5b60008060019054906101000a900460ff1615905080156122b3576001600060016101000a81548160ff02191690831515021790555060016000806101000a81548160ff0219169083151502179055505b6122bb61272e565b6122c3612c74565b80156122e45760008060016101000a81548160ff0219169083151502179055505b50565b6122f284848461192b565b6122fe84848484612d5d565b61233d576040517f08c379a000000000000000000000000000000000000000000000000000000000815260040161233490614bd4565b60405180910390fd5b50505050565b606061234e826116eb565b61238d576040517f08c379a000000000000000000000000000000000000000000000000000000000815260040161238490614dd4565b60405180910390fd5b600060c9600084815260200190815260200160002080546123ad90615198565b80601f01602080910402602001604051908101604052809291908181526020018280546123d990615198565b80156124265780601f106123fb57610100808354040283529160200191612426565b820191906000526020600020905b81548152906001019060200180831161240957829003601f168201915b505050505090506000612437612ef4565b905060008151141561244d578192505050612490565b60008251111561248257808260405160200161246a929190614a41565b60405160208183030381529060405292505050612490565b61248b84612f87565b925050505b919050565b6000606a60008473ffffffffffffffffffffffffffffffffffffffff1673ffffffffffffffffffffffffffffffffffffffff16815260200190815260200160002060008373ffffffffffffffffffffffffffffffffffffffff1673ffffffffffffffffffffffffffffffffffffffff16815260200190815260200160002060009054906101000a900460ff16905092915050565b60006125348261302e565b9050919050565b6000612546826116eb565b612585576040517f08c379a000000000000000000000000000000000000000000000000000000000815260040161257c90614cd4565b60405180910390fd5b600061259083610d4e565b90508073ffffffffffffffffffffffffffffffffffffffff168473ffffffffffffffffffffffffffffffffffffffff1614806125ff57508373ffffffffffffffffffffffffffffffffffffffff166125e78461076c565b73ffffffffffffffffffffffffffffffffffffffff16145b80612610575061260f818561156a565b5b91505092915050565b6126248383836130a8565b505050565b60008160405160200161263c9190614a65565b604051602081830303815290604052805190602001209050919050565b600080600061266885856131bc565b915091506126758161323f565b819250505092915050565b61268a8383613414565b6126976000848484612d5d565b6126d6576040517f08c379a00000000000000000000000000000000000000000000000000000000081526004016126cd90614bd4565b60405180910390fd5b505050565b6126e4816135e2565b600060c96000838152602001908152602001600020805461270490615198565b90501461272b5760c96000828152602001908152602001600020600061272a9190613e9f565b5b50565b600060019054906101000a900460ff1680612754575060008054906101000a900460ff16155b612793576040517f08c379a000000000000000000000000000000000000000000000000000000000815260040161278a90614d74565b60405180910390fd5b60008060019054906101000a900460ff1615905080156127e3576001600060016101000a81548160ff02191690831515021790555060016000806101000a81548160ff0219169083151502179055505b80156128045760008060016101000a81548160ff0219169083151502179055505b50565b600060019054906101000a900460ff168061282d575060008054906101000a900460ff16155b61286c576040517f08c379a000000000000000000000000000000000000000000000000000000000815260040161286390614d74565b60405180910390fd5b60008060019054906101000a900460ff1615905080156128bc576001600060016101000a81548160ff02191690831515021790555060016000806101000a81548160ff0219169083151502179055505b80156128dd5760008060016101000a81548160ff0219169083151502179055505b50565b600060019054906101000a900460ff1680612906575060008054906101000a900460ff16155b612945576040517f08c379a000000000000000000000000000000000000000000000000000000000815260040161293c90614d74565b60405180910390fd5b60008060019054906101000a900460ff161590508015612995576001600060016101000a81548160ff02191690831515021790555060016000806101000a81548160ff0219169083151502179055505b82606590805190602001906129ab929190613e19565b5081606690805190602001906129c2929190613e19565b5080156129e45760008060016101000a81548160ff0219169083151502179055505b505050565b600060019054906101000a900460ff1680612a0f575060008054906101000a900460ff16155b612a4e576040517f08c379a0000000000000000000000000000000000000000000000000000000008152600401612a4590614d74565b60405180910390fd5b60008060019054906101000a900460ff161590508015612a9e576001600060016101000a81548160ff02191690831515021790555060016000806101000a81548160ff0219169083151502179055505b8015612abf5760008060016101000a81548160ff0219169083151502179055505b50565b600060019054906101000a900460ff1680612ae8575060008054906101000a900460ff16155b612b27576040517f08c379a0000000000000000000000000000000000000000000000000000000008152600401612b1e90614d74565b60405180910390fd5b60008060019054906101000a900460ff161590508015612b77576001600060016101000a81548160ff02191690831515021790555060016000806101000a81548160ff0219169083151502179055505b8015612b985760008060016101000a81548160ff0219169083151502179055505b50565b600060019054906101000a900460ff1680612bc1575060008054906101000a900460ff16155b612c00576040517f08c379a0000000000000000000000000000000000000000000000000000000008152600401612bf790614d74565b60405180910390fd5b60008060019054906101000a900460ff161590508015612c50576001600060016101000a81548160ff02191690831515021790555060016000806101000a81548160ff0219169083151502179055505b8015612c715760008060016101000a81548160ff0219169083151502179055505b50565b600060019054906101000a900460ff1680612c9a575060008054906101000a900460ff16155b612cd9576040517f08c379a0000000000000000000000000000000000000000000000000000000008152600401612cd090614d74565b60405180910390fd5b60008060019054906101000a900460ff161590508015612d29576001600060016101000a81548160ff02191690831515021790555060016000806101000a81548160ff0219169083151502179055505b612d39612d34611757565b611d6e565b8015612d5a5760008060016101000a81548160ff0219169083151502179055505b50565b6000612d7e8473ffffffffffffffffffffffffffffffffffffffff166136f3565b15612ee7578373ffffffffffffffffffffffffffffffffffffffff1663150b7a02612da7611757565b8786866040518563ffffffff1660e01b8152600401612dc99493929190614aa6565b602060405180830381600087803b158015612de357600080fd5b505af1925050508015612e1457506040513d601f19601f82011682018060405250810190612e1191906142f9565b60015b612e97573d8060008114612e44576040519150601f19603f3d011682016040523d82523d6000602084013e612e49565b606091505b50600081511415612e8f576040517f08c379a0000000000000000000000000000000000000000000000000000000008152600401612e8690614bd4565b60405180910390fd5b805181602001fd5b63150b7a0260e01b7bffffffffffffffffffffffffffffffffffffffffffffffffffffffff1916817bffffffffffffffffffffffffffffffffffffffffffffffffffffffff191614915050612eec565b600190505b949350505050565b60606101618054612f0490615198565b80601f0160208091040260200160405190810160405280929190818152602001828054612f3090615198565b8015612f7d5780601f10612f5257610100808354040283529160200191612f7d565b820191906000526020600020905b815481529060010190602001808311612f6057829003601f168201915b5050505050905090565b6060612f92826116eb565b612fd1576040517f08c379a0000000000000000000000000000000000000000000000000000000008152600401612fc890614e54565b60405180910390fd5b6000612fdb612ef4565b90506000815111612ffb5760405180602001604052806000815250613026565b8061300584613706565b604051602001613016929190614a41565b6040516020818303038152906040525b915050919050565b60007f780e9d63000000000000000000000000000000000000000000000000000000007bffffffffffffffffffffffffffffffffffffffffffffffffffffffff1916827bffffffffffffffffffffffffffffffffffffffffffffffffffffffff191614806130a157506130a082613867565b5b9050919050565b6130b3838383613949565b600073ffffffffffffffffffffffffffffffffffffffff168373ffffffffffffffffffffffffffffffffffffffff1614156130f6576130f18161394e565b613135565b8173ffffffffffffffffffffffffffffffffffffffff168373ffffffffffffffffffffffffffffffffffffffff1614613134576131338382613997565b5b5b600073ffffffffffffffffffffffffffffffffffffffff168273ffffffffffffffffffffffffffffffffffffffff1614156131785761317381613b04565b6131b7565b8273ffffffffffffffffffffffffffffffffffffffff168273ffffffffffffffffffffffffffffffffffffffff16146131b6576131b58282613bd5565b5b5b505050565b6000806041835114156131fe5760008060006020860151925060408601519150606086015160001a90506131f287828585613c54565b94509450505050613238565b60408351141561322f576000806020850151915060408501519050613224868383613d61565b935093505050613238565b60006002915091505b9250929050565b6000600481111561325357613252615301565b5b81600481111561326657613265615301565b5b141561327157613411565b6001600481111561328557613284615301565b5b81600481111561329857613297615301565b5b14156132d9576040517f08c379a00000000000000000000000000000000000000000000000000000000081526004016132d090614b74565b60405180910390fd5b600260048111156132ed576132ec615301565b5b816004811115613300576132ff615301565b5b1415613341576040517f08c379a000000000000000000000000000000000000000000000000000000000815260040161333890614b94565b60405180910390fd5b6003600481111561335557613354615301565b5b81600481111561336857613367615301565b5b14156133a9576040517f08c379a00000000000000000000000000000000000000000000000000000000081526004016133a090614cb4565b60405180910390fd5b6004808111156133bc576133bb615301565b5b8160048111156133cf576133ce615301565b5b1415613410576040517f08c379a000000000000000000000000000000000000000000000000000000000815260040161340790614d94565b60405180910390fd5b5b50565b600073ffffffffffffffffffffffffffffffffffffffff168273ffffffffffffffffffffffffffffffffffffffff161415613484576040517f08c379a000000000000000000000000000000000000000000000000000000000815260040161347b90614db4565b60405180910390fd5b61348d816116eb565b156134cd576040517f08c379a00000000000000000000000000000000000000000000000000000000081526004016134c490614c34565b60405180910390fd5b6134d960008383612619565b6001606860008473ffffffffffffffffffffffffffffffffffffffff1673ffffffffffffffffffffffffffffffffffffffff16815260200190815260200160002060008282546135299190615010565b92505081905550816067600083815260200190815260200160002060006101000a81548173ffffffffffffffffffffffffffffffffffffffff021916908373ffffffffffffffffffffffffffffffffffffffff160217905550808273ffffffffffffffffffffffffffffffffffffffff16600073ffffffffffffffffffffffffffffffffffffffff167fddf252ad1be2c89b69c2b068fc378daa952ba7f163c4a11628f55a4df523b3ef60405160405180910390a45050565b60006135ed82610d4e565b90506135fb81600084612619565b61360660008361175f565b6001606860008373ffffffffffffffffffffffffffffffffffffffff1673ffffffffffffffffffffffffffffffffffffffff16815260200190815260200160002060008282546136569190615097565b925050819055506067600083815260200190815260200160002060006101000a81549073ffffffffffffffffffffffffffffffffffffffff021916905581600073ffffffffffffffffffffffffffffffffffffffff168273ffffffffffffffffffffffffffffffffffffffff167fddf252ad1be2c89b69c2b068fc378daa952ba7f163c4a11628f55a4df523b3ef60405160405180910390a45050565b600080823b905060008111915050919050565b6060600082141561374e576040518060400160405280600181526020017f30000000000000000000000000000000000000000000000000000000000000008152509050613862565b600082905060005b60008214613780578080613769906151fb565b915050600a826137799190615066565b9150613756565b60008167ffffffffffffffff81111561379c5761379b6153bd565b5b6040519080825280601f01601f1916602001820160405280156137ce5781602001600182028036833780820191505090505b5090505b6000851461385b576001826137e79190615097565b9150600a856137f69190615272565b60306138029190615010565b60f81b8183815181106138185761381761538e565b5b60200101907effffffffffffffffffffffffffffffffffffffffffffffffffffffffffffff1916908160001a905350600a856138549190615066565b94506137d2565b8093505050505b919050565b60007f80ac58cd000000000000000000000000000000000000000000000000000000007bffffffffffffffffffffffffffffffffffffffffffffffffffffffff1916827bffffffffffffffffffffffffffffffffffffffffffffffffffffffff1916148061393257507f5b5e139f000000000000000000000000000000000000000000000000000000007bffffffffffffffffffffffffffffffffffffffffffffffffffffffff1916827bffffffffffffffffffffffffffffffffffffffffffffffffffffffff1916145b80613942575061394182613daf565b5b9050919050565b505050565b609980549050609a600083815260200190815260200160002081905550609981908060018154018082558091505060019003906000526020600020016000909190919091505550565b600060016139a484610e00565b6139ae9190615097565b9050600060986000848152602001908152602001600020549050818114613a93576000609760008673ffffffffffffffffffffffffffffffffffffffff1673ffffffffffffffffffffffffffffffffffffffff168152602001908152602001600020600084815260200190815260200160002054905080609760008773ffffffffffffffffffffffffffffffffffffffff1673ffffffffffffffffffffffffffffffffffffffff168152602001908152602001600020600084815260200190815260200160002081905550816098600083815260200190815260200160002081905550505b6098600084815260200190815260200160002060009055609760008573ffffffffffffffffffffffffffffffffffffffff1673ffffffffffffffffffffffffffffffffffffffff16815260200190815260200160002060008381526020019081526020016000206000905550505050565b60006001609980549050613b189190615097565b90506000609a6000848152602001908152602001600020549050600060998381548110613b4857613b4761538e565b5b906000526020600020015490508060998381548110613b6a57613b6961538e565b5b906000526020600020018190555081609a600083815260200190815260200160002081905550609a6000858152602001908152602001600020600090556099805480613bb957613bb861535f565b5b6001900381819060005260206000200160009055905550505050565b6000613be083610e00565b905081609760008573ffffffffffffffffffffffffffffffffffffffff1673ffffffffffffffffffffffffffffffffffffffff168152602001908152602001600020600083815260200190815260200160002081905550806098600084815260200190815260200160002081905550505050565b6000807f7fffffffffffffffffffffffffffffff5d576e7357a4501ddfe92f46681b20a08360001c1115613c8f576000600391509150613d58565b601b8560ff1614158015613ca75750601c8560ff1614155b15613cb9576000600491509150613d58565b600060018787878760405160008152602001604052604051613cde9493929190614b0d565b6020604051602081039080840390855afa158015613d00573d6000803e3d6000fd5b505050602060405103519050600073ffffffffffffffffffffffffffffffffffffffff168173ffffffffffffffffffffffffffffffffffffffff161415613d4f57600060019250925050613d58565b80600092509250505b94509492505050565b6000806000807f7fffffffffffffffffffffffffffffffffffffffffffffffffffffffffffffff85169150601b8560ff1c019050613da187828885613c54565b935093505050935093915050565b60007f01ffc9a7000000000000000000000000000000000000000000000000000000007bffffffffffffffffffffffffffffffffffffffffffffffffffffffff1916827bffffffffffffffffffffffffffffffffffffffffffffffffffffffff1916149050919050565b828054613e2590615198565b90600052602060002090601f016020900481019282613e475760008555613e8e565b82601f10613e6057805160ff1916838001178555613e8e565b82800160010185558215613e8e579182015b82811115613e8d578251825591602001919060010190613e72565b5b509050613e9b9190613edf565b5090565b508054613eab90615198565b6000825580601f10613ebd5750613edc565b601f016020900490600052602060002090810190613edb9190613edf565b5b50565b5b80821115613ef8576000816000905550600101613ee0565b5090565b6000613f0f613f0a84614f6b565b614f46565b905082815260208101848484011115613f2b57613f2a6153fb565b5b613f36848285615156565b509392505050565b6000613f51613f4c84614f9c565b614f46565b905082815260208101848484011115613f6d57613f6c6153fb565b5b613f78848285615156565b509392505050565b600081359050613f8f81615beb565b92915050565b600081359050613fa481615c02565b92915050565b600081359050613fb981615c19565b92915050565b600081519050613fce81615c19565b92915050565b600082601f830112613fe957613fe86153ec565b5b8135613ff9848260208601613efc565b91505092915050565b600082601f830112614017576140166153ec565b5b8135614027848260208601613f3e565b91505092915050565b600060a08284031215614046576140456153f1565b5b61405060a0614f46565b90506000614060848285016140f4565b600083015250602082013567ffffffffffffffff811115614084576140836153f6565b5b61409084828501614002565b60208301525060406140a484828501613f80565b60408301525060606140b8848285016140f4565b606083015250608082013567ffffffffffffffff8111156140dc576140db6153f6565b5b6140e884828501613fd4565b60808301525092915050565b60008135905061410381615c30565b92915050565b60006020828403121561411f5761411e615405565b5b600061412d84828501613f80565b91505092915050565b6000806040838503121561414d5761414c615405565b5b600061415b85828601613f80565b925050602061416c85828601613f80565b9150509250929050565b60008060006060848603121561418f5761418e615405565b5b600061419d86828701613f80565b93505060206141ae86828701613f80565b92505060406141bf868287016140f4565b9150509250925092565b600080600080608085870312156141e3576141e2615405565b5b60006141f187828801613f80565b945050602061420287828801613f80565b9350506040614213878288016140f4565b925050606085013567ffffffffffffffff81111561423457614233615400565b5b61424087828801613fd4565b91505092959194509250565b6000806040838503121561426357614262615405565b5b600061427185828601613f80565b925050602061428285828601613f95565b9150509250929050565b600080604083850312156142a3576142a2615405565b5b60006142b185828601613f80565b92505060206142c2858286016140f4565b9150509250929050565b6000602082840312156142e2576142e1615405565b5b60006142f084828501613faa565b91505092915050565b60006020828403121561430f5761430e615405565b5b600061431d84828501613fbf565b91505092915050565b600080600080608085870312156143405761433f615405565b5b600085013567ffffffffffffffff81111561435e5761435d615400565b5b61436a87828801614002565b945050602085013567ffffffffffffffff81111561438b5761438a615400565b5b61439787828801614002565b935050604085013567ffffffffffffffff8111156143b8576143b7615400565b5b6143c487828801614002565b925050606085013567ffffffffffffffff8111156143e5576143e4615400565b5b6143f187828801614002565b91505092959194509250565b6000806040838503121561441457614413615405565b5b600083013567ffffffffffffffff81111561443257614431615400565b5b61443e85828601614030565b925050602061444f85828601613f80565b9150509250929050565b60008060006060848603121561447257614471615405565b5b600084013567ffffffffffffffff8111156144905761448f615400565b5b61449c86828701614030565b93505060206144ad86828701613f80565b92505060406144be86828701613f80565b9150509250925092565b6000602082840312156144de576144dd615405565b5b60006144ec848285016140f4565b91505092915050565b6144fe816150cb565b82525050565b614515614510826150cb565b615244565b82525050565b614524816150dd565b82525050565b614533816150e9565b82525050565b61454a614545826150e9565b615256565b82525050565b600061455b82614fcd565b6145658185614fe3565b9350614575818560208601615165565b61457e8161540a565b840191505092915050565b600061459482614fd8565b61459e8185614ff4565b93506145ae818560208601615165565b6145b78161540a565b840191505092915050565b60006145cd82614fd8565b6145d78185615005565b93506145e7818560208601615165565b80840191505092915050565b6000614600601883614ff4565b915061460b82615428565b602082019050919050565b6000614623601f83614ff4565b915061462e82615451565b602082019050919050565b6000614646601c83615005565b91506146518261547a565b601c82019050919050565b6000614669602b83614ff4565b9150614674826154a3565b604082019050919050565b600061468c603283614ff4565b9150614697826154f2565b604082019050919050565b60006146af602683614ff4565b91506146ba82615541565b604082019050919050565b60006146d2602e83614ff4565b91506146dd82615590565b604082019050919050565b60006146f5601c83614ff4565b9150614700826155df565b602082019050919050565b6000614718602483614ff4565b915061472382615608565b604082019050919050565b600061473b601983614ff4565b915061474682615657565b602082019050919050565b600061475e601183614ff4565b915061476982615680565b602082019050919050565b6000614781602283614ff4565b915061478c826156a9565b604082019050919050565b60006147a4602c83614ff4565b91506147af826156f8565b604082019050919050565b60006147c7603883614ff4565b91506147d282615747565b604082019050919050565b60006147ea602a83614ff4565b91506147f582615796565b604082019050919050565b600061480d602983614ff4565b9150614818826157e5565b604082019050919050565b6000614830602e83614ff4565b915061483b82615834565b604082019050919050565b6000614853602e83614ff4565b915061485e82615883565b604082019050919050565b6000614876602283614ff4565b9150614881826158d2565b604082019050919050565b6000614899602083614ff4565b91506148a482615921565b602082019050919050565b60006148bc603183614ff4565b91506148c78261594a565b604082019050919050565b60006148df602c83614ff4565b91506148ea82615999565b604082019050919050565b6000614902602083614ff4565b915061490d826159e8565b602082019050919050565b6000614925602983614ff4565b915061493082615a11565b604082019050919050565b6000614948602f83614ff4565b915061495382615a60565b604082019050919050565b600061496b602183614ff4565b915061497682615aaf565b604082019050919050565b600061498e603183614ff4565b915061499982615afe565b604082019050919050565b60006149b1602c83614ff4565b91506149bc82615b4d565b604082019050919050565b60006149d4603083614ff4565b91506149df82615b9c565b604082019050919050565b6149f38161513f565b82525050565b614a0281615149565b82525050565b6000614a148286614504565b601482019150614a248285614504565b601482019150614a3482846145c2565b9150819050949350505050565b6000614a4d82856145c2565b9150614a5982846145c2565b91508190509392505050565b6000614a7082614639565b9150614a7c8284614539565b60208201915081905092915050565b6000602082019050614aa060008301846144f5565b92915050565b6000608082019050614abb60008301876144f5565b614ac860208301866144f5565b614ad560408301856149ea565b8181036060830152614ae78184614550565b905095945050505050565b6000602082019050614b07600083018461451b565b92915050565b6000608082019050614b22600083018761452a565b614b2f60208301866149f9565b614b3c604083018561452a565b614b49606083018461452a565b95945050505050565b60006020820190508181036000830152614b6c8184614589565b905092915050565b60006020820190508181036000830152614b8d816145f3565b9050919050565b60006020820190508181036000830152614bad81614616565b9050919050565b60006020820190508181036000830152614bcd8161465c565b9050919050565b60006020820190508181036000830152614bed8161467f565b9050919050565b60006020820190508181036000830152614c0d816146a2565b9050919050565b60006020820190508181036000830152614c2d816146c5565b9050919050565b60006020820190508181036000830152614c4d816146e8565b9050919050565b60006020820190508181036000830152614c6d8161470b565b9050919050565b60006020820190508181036000830152614c8d8161472e565b9050919050565b60006020820190508181036000830152614cad81614751565b9050919050565b60006020820190508181036000830152614ccd81614774565b9050919050565b60006020820190508181036000830152614ced81614797565b9050919050565b60006020820190508181036000830152614d0d816147ba565b9050919050565b60006020820190508181036000830152614d2d816147dd565b9050919050565b60006020820190508181036000830152614d4d81614800565b9050919050565b60006020820190508181036000830152614d6d81614823565b9050919050565b60006020820190508181036000830152614d8d81614846565b9050919050565b60006020820190508181036000830152614dad81614869565b9050919050565b60006020820190508181036000830152614dcd8161488c565b9050919050565b60006020820190508181036000830152614ded816148af565b9050919050565b60006020820190508181036000830152614e0d816148d2565b9050919050565b60006020820190508181036000830152614e2d816148f5565b9050919050565b60006020820190508181036000830152614e4d81614918565b9050919050565b60006020820190508181036000830152614e6d8161493b565b9050919050565b60006020820190508181036000830152614e8d8161495e565b9050919050565b60006020820190508181036000830152614ead81614981565b9050919050565b60006020820190508181036000830152614ecd816149a4565b9050919050565b60006020820190508181036000830152614eed816149c7565b9050919050565b6000602082019050614f0960008301846149ea565b92915050565b6000606082019050614f2460008301866149ea565b614f3160208301856144f5565b614f3e60408301846149ea565b949350505050565b6000614f50614f61565b9050614f5c82826151ca565b919050565b6000604051905090565b600067ffffffffffffffff821115614f8657614f856153bd565b5b614f8f8261540a565b9050602081019050919050565b600067ffffffffffffffff821115614fb757614fb66153bd565b5b614fc08261540a565b9050602081019050919050565b600081519050919050565b600081519050919050565b600082825260208201905092915050565b600082825260208201905092915050565b600081905092915050565b600061501b8261513f565b91506150268361513f565b9250827fffffffffffffffffffffffffffffffffffffffffffffffffffffffffffffffff0382111561505b5761505a6152a3565b5b828201905092915050565b60006150718261513f565b915061507c8361513f565b92508261508c5761508b6152d2565b5b828204905092915050565b60006150a28261513f565b91506150ad8361513f565b9250828210156150c0576150bf6152a3565b5b828203905092915050565b60006150d68261511f565b9050919050565b60008115159050919050565b6000819050919050565b60007fffffffff0000000000000000000000000000000000000000000000000000000082169050919050565b600073ffffffffffffffffffffffffffffffffffffffff82169050919050565b6000819050919050565b600060ff82169050919050565b82818337600083830152505050565b60005b83811015615183578082015181840152602081019050615168565b83811115615192576000848401525b50505050565b600060028204905060018216806151b057607f821691505b602082108114156151c4576151c3615330565b5b50919050565b6151d38261540a565b810181811067ffffffffffffffff821117156151f2576151f16153bd565b5b80604052505050565b60006152068261513f565b91507fffffffffffffffffffffffffffffffffffffffffffffffffffffffffffffffff821415615239576152386152a3565b5b600182019050919050565b600061524f82615260565b9050919050565b6000819050919050565b600061526b8261541b565b9050919050565b600061527d8261513f565b91506152888361513f565b925082615298576152976152d2565b5b828206905092915050565b7f4e487b7100000000000000000000000000000000000000000000000000000000600052601160045260246000fd5b7f4e487b7100000000000000000000000000000000000000000000000000000000600052601260045260246000fd5b7f4e487b7100000000000000000000000000000000000000000000000000000000600052602160045260246000fd5b7f4e487b7100000000000000000000000000000000000000000000000000000000600052602260045260246000fd5b7f4e487b7100000000000000000000000000000000000000000000000000000000600052603160045260246000fd5b7f4e487b7100000000000000000000000000000000000000000000000000000000600052603260045260246000fd5b7f4e487b7100000000000000000000000000000000000000000000000000000000600052604160045260246000fd5b600080fd5b600080fd5b600080fd5b600080fd5b600080fd5b600080fd5b6000601f19601f8301169050919050565b60008160601b9050919050565b7f45434453413a20696e76616c6964207369676e61747572650000000000000000600082015250565b7f45434453413a20696e76616c6964207369676e6174757265206c656e67746800600082015250565b7f19457468657265756d205369676e6564204d6573736167653a0a333200000000600082015250565b7f455243373231456e756d657261626c653a206f776e657220696e646578206f7560008201527f74206f6620626f756e6473000000000000000000000000000000000000000000602082015250565b7f4552433732313a207472616e7366657220746f206e6f6e20455243373231526560008201527f63656976657220696d706c656d656e7465720000000000000000000000000000602082015250565b7f4f776e61626c653a206e6577206f776e657220697320746865207a65726f206160008201527f6464726573730000000000000000000000000000000000000000000000000000602082015250565b7f5468697320746f6b656e20646964206e6f74206265206372656174656420627960008201527f20746869732063726561746f722e000000000000000000000000000000000000602082015250565b7f4552433732313a20746f6b656e20616c7265616479206d696e74656400000000600082015250565b7f4552433732313a207472616e7366657220746f20746865207a65726f2061646460008201527f7265737300000000000000000000000000000000000000000000000000000000602082015250565b7f4552433732313a20617070726f766520746f2063616c6c657200000000000000600082015250565b7f496e76616c6964207369676e6174757265000000000000000000000000000000600082015250565b7f45434453413a20696e76616c6964207369676e6174757265202773272076616c60008201527f7565000000000000000000000000000000000000000000000000000000000000602082015250565b7f4552433732313a206f70657261746f7220717565727920666f72206e6f6e657860008201527f697374656e7420746f6b656e0000000000000000000000000000000000000000602082015250565b7f4552433732313a20617070726f76652063616c6c6572206973206e6f74206f7760008201527f6e6572206e6f7220617070726f76656420666f7220616c6c0000000000000000602082015250565b7f4552433732313a2062616c616e636520717565727920666f7220746865207a6560008201527f726f206164647265737300000000000000000000000000000000000000000000602082015250565b7f4552433732313a206f776e657220717565727920666f72206e6f6e657869737460008201527f656e7420746f6b656e0000000000000000000000000000000000000000000000602082015250565b7f45524337323155524953746f726167653a2055524920736574206f66206e6f6e60008201527f6578697374656e7420746f6b656e000000000000000000000000000000000000602082015250565b7f496e697469616c697a61626c653a20636f6e747261637420697320616c72656160008201527f647920696e697469616c697a6564000000000000000000000000000000000000602082015250565b7f45434453413a20696e76616c6964207369676e6174757265202776272076616c60008201527f7565000000000000000000000000000000000000000000000000000000000000602082015250565b7f4552433732313a206d696e7420746f20746865207a65726f2061646472657373600082015250565b7f45524337323155524953746f726167653a2055524920717565727920666f722060008201527f6e6f6e6578697374656e7420746f6b656e000000000000000000000000000000602082015250565b7f4552433732313a20617070726f76656420717565727920666f72206e6f6e657860008201527f697374656e7420746f6b656e0000000000000000000000000000000000000000602082015250565b7f4f776e61626c653a2063616c6c6572206973206e6f7420746865206f776e6572600082015250565b7f4552433732313a207472616e73666572206f6620746f6b656e2074686174206960008201527f73206e6f74206f776e0000000000000000000000000000000000000000000000602082015250565b7f4552433732314d657461646174613a2055524920717565727920666f72206e6f60008201527f6e6578697374656e7420746f6b656e0000000000000000000000000000000000602082015250565b7f4552433732313a20617070726f76616c20746f2063757272656e74206f776e6560008201527f7200000000000000000000000000000000000000000000000000000000000000602082015250565b7f4552433732313a207472616e736665722063616c6c6572206973206e6f74206f60008201527f776e6572206e6f7220617070726f766564000000000000000000000000000000602082015250565b7f455243373231456e756d657261626c653a20676c6f62616c20696e646578206f60008201527f7574206f6620626f756e64730000000000000000000000000000000000000000602082015250565b7f4552433732314275726e61626c653a2063616c6c6572206973206e6f74206f7760008201527f6e6572206e6f7220617070726f76656400000000000000000000000000000000602082015250565b615bf4816150cb565b8114615bff57600080fd5b50565b615c0b816150dd565b8114615c1657600080fd5b50565b615c22816150f3565b8114615c2d57600080fd5b50565b615c398161513f565b8114615c4457600080fd5b5056fea264697066735822122053d6f55817dfd59b31bb8b2ec0c98176dd081b644c2cbd549d606aee2a1c8fcb64736f6c63430008060033",
  "immutableReferences": {},
  "source": "// SPDX-License-Identifier: MIT\r\npragma solidity >=0.4.22 <0.9.0;\r\n\r\nimport \"@openzeppelin/contracts-upgradeable/utils/CountersUpgradeable.sol\";\r\nimport \"@openzeppelin/contracts-upgradeable/utils/cryptography/ECDSAUpgradeable.sol\";\r\nimport \"../libraries/FunLibAsset.sol\";\r\nimport \"./NFTBase.sol\";\r\n\r\ncontract FunNFT is NFTBase {\r\n    using CountersUpgradeable for CountersUpgradeable.Counter;\r\n    /// @custom:oz-upgrades-unsafe-allow constructor\r\n    constructor() initializer {}\r\n    string private thumbnail;\r\n\r\n    function initialize(string memory _name, string memory _symbol, string memory _baseTokenURI, string memory _thumbnail) \r\n    initializer \r\n    public {\r\n        __ERC721_init(_name, _symbol);\r\n        __ERC721Enumerable_init();\r\n        __ERC721URIStorage_init();\r\n        __ERC721Burnable_init();\r\n        __Ownable_init();\r\n\r\n        baseTokenURI = _baseTokenURI;\r\n        thumbnail = _thumbnail;\r\n    }\r\n\r\n    function transferOrMint(FunLibAsset.Mint721Data memory data, address from, address to) external {\r\n        if (_exists(data.tokenId)) {\r\n            safeTransferFrom(from, to, data.tokenId);\r\n        } else {\r\n            mintAndTransfer(data, to);\r\n        }\r\n    }\r\n\r\n    function mintAndTransfer(FunLibAsset.Mint721Data memory data, address to) public {\r\n        address minter = msg.sender;\r\n        address creator = data.creator;\r\n\r\n        require(minter == creator || isApprovedForAll(creator, minter), \"ERC721: transfer caller is not owner nor approved\");\r\n\r\n        /*\r\n        Lazy minting will be suported soon...\r\n        */\r\n\r\n        bytes32 digest = _hash(address(this), data.creator, data.uri);\r\n        require(_verify(digest, data.signature), \"Invalid signature\");\r\n\r\n        _safeMint(to, _tokenIdCounter.current());\r\n        _saveCreator(_tokenIdCounter.current(), creator, data.royalty);\r\n        _setTokenURI(_tokenIdCounter.current(), data.uri);\r\n        /* \r\n        Save royalty\r\n        */\r\n        _tokenIdCounter.increment();\r\n    }\r\n\r\n    function _hash(address collection, address creator, string memory uri)\r\n    internal pure returns (bytes32)\r\n    {\r\n        return ECDSAUpgradeable.toEthSignedMessageHash(keccak256(abi.encodePacked(collection, creator, uri)));\r\n    }\r\n\r\n    function _verify(bytes32 digest, bytes memory signature)\r\n    internal view returns (bool)\r\n    {\r\n        return owner() == ECDSAUpgradeable.recover(digest, signature);\r\n\r\n    }\r\n\r\n    function getThumbnail() external view returns(string memory) {\r\n        return thumbnail;\r\n    }\r\n}",
  "sourcePath": "E:\\LamViec\\fun-exchange\\contracts\\tokens\\FunNFT.sol",
  "compiler": {
    "name": "solc",
    "version": "0.8.6+commit.11564f7e.Emscripten.clang"
  },
  "schemaVersion": "3.3.4",
  "updatedAt": "2021-11-25T07:41:55.512Z",
  "devdoc": {
    "kind": "dev",
    "methods": {
      "approve(address,uint256)": {
        "details": "See {IERC721-approve}."
      },
      "balanceOf(address)": {
        "details": "See {IERC721-balanceOf}."
      },
      "burn(uint256)": {
        "details": "Burns `tokenId`. See {ERC721-_burn}. Requirements: - The caller must own `tokenId` or be an approved operator."
      },
      "constructor": {
        "custom:oz-upgrades-unsafe-allow": "constructor"
      },
      "getApproved(uint256)": {
        "details": "See {IERC721-getApproved}."
      },
      "isApprovedForAll(address,address)": {
        "details": "See {IERC721-isApprovedForAll}."
      },
      "name()": {
        "details": "See {IERC721Metadata-name}."
      },
      "owner()": {
        "details": "Returns the address of the current owner."
      },
      "ownerOf(uint256)": {
        "details": "See {IERC721-ownerOf}."
      },
      "renounceOwnership()": {
        "details": "Leaves the contract without owner. It will not be possible to call `onlyOwner` functions anymore. Can only be called by the current owner. NOTE: Renouncing ownership will leave the contract without an owner, thereby removing any functionality that is only available to the owner."
      },
      "safeTransferFrom(address,address,uint256)": {
        "details": "See {IERC721-safeTransferFrom}."
      },
      "safeTransferFrom(address,address,uint256,bytes)": {
        "details": "See {IERC721-safeTransferFrom}."
      },
      "setApprovalForAll(address,bool)": {
        "details": "See {IERC721-setApprovalForAll}."
      },
      "symbol()": {
        "details": "See {IERC721Metadata-symbol}."
      },
      "tokenByIndex(uint256)": {
        "details": "See {IERC721Enumerable-tokenByIndex}."
      },
      "tokenOfOwnerByIndex(address,uint256)": {
        "details": "See {IERC721Enumerable-tokenOfOwnerByIndex}."
      },
      "totalSupply()": {
        "details": "See {IERC721Enumerable-totalSupply}."
      },
      "transferFrom(address,address,uint256)": {
        "details": "See {IERC721-transferFrom}."
      },
      "transferOwnership(address)": {
        "details": "Transfers ownership of the contract to a new account (`newOwner`). Can only be called by the current owner."
      }
    },
    "version": 1
  },
  "userdoc": {
    "kind": "user",
    "methods": {},
    "version": 1
  }
}