{
  "contractName": "FunToken",
  "abi": [
    {
      "inputs": [],
      "stateMutability": "nonpayable",
      "type": "constructor"
    },
    {
      "anonymous": false,
      "inputs": [
        {
          "indexed": true,
          "internalType": "address",
          "name": "owner",
          "type": "address"
        },
        {
          "indexed": true,
          "internalType": "address",
          "name": "spender",
          "type": "address"
        },
        {
          "indexed": false,
          "internalType": "uint256",
          "name": "value",
          "type": "uint256"
        }
      ],
      "name": "Approval",
      "type": "event"
    },
    {
      "anonymous": false,
      "inputs": [
        {
          "indexed": true,
          "internalType": "address",
          "name": "previousOwner",
          "type": "address"
        },
        {
          "indexed": true,
          "internalType": "address",
          "name": "newOwner",
          "type": "address"
        }
      ],
      "name": "OwnershipTransferred",
      "type": "event"
    },
    {
      "anonymous": false,
      "inputs": [
        {
          "indexed": true,
          "internalType": "address",
          "name": "from",
          "type": "address"
        },
        {
          "indexed": true,
          "internalType": "address",
          "name": "to",
          "type": "address"
        },
        {
          "indexed": false,
          "internalType": "uint256",
          "name": "value",
          "type": "uint256"
        }
      ],
      "name": "Transfer",
      "type": "event"
    },
    {
      "inputs": [
        {
          "internalType": "address",
          "name": "owner",
          "type": "address"
        },
        {
          "internalType": "address",
          "name": "spender",
          "type": "address"
        }
      ],
      "name": "allowance",
      "outputs": [
        {
          "internalType": "uint256",
          "name": "",
          "type": "uint256"
        }
      ],
      "stateMutability": "view",
      "type": "function",
      "constant": true
    },
    {
      "inputs": [
        {
          "internalType": "address",
          "name": "spender",
          "type": "address"
        },
        {
          "internalType": "uint256",
          "name": "amount",
          "type": "uint256"
        }
      ],
      "name": "approve",
      "outputs": [
        {
          "internalType": "bool",
          "name": "",
          "type": "bool"
        }
      ],
      "stateMutability": "nonpayable",
      "type": "function"
    },
    {
      "inputs": [
        {
          "internalType": "address",
          "name": "account",
          "type": "address"
        }
      ],
      "name": "balanceOf",
      "outputs": [
        {
          "internalType": "uint256",
          "name": "",
          "type": "uint256"
        }
      ],
      "stateMutability": "view",
      "type": "function",
      "constant": true
    },
    {
      "inputs": [
        {
          "internalType": "uint256",
          "name": "amount",
          "type": "uint256"
        }
      ],
      "name": "burn",
      "outputs": [],
      "stateMutability": "nonpayable",
      "type": "function"
    },
    {
      "inputs": [
        {
          "internalType": "address",
          "name": "account",
          "type": "address"
        },
        {
          "internalType": "uint256",
          "name": "amount",
          "type": "uint256"
        }
      ],
      "name": "burnFrom",
      "outputs": [],
      "stateMutability": "nonpayable",
      "type": "function"
    },
    {
      "inputs": [],
      "name": "decimals",
      "outputs": [
        {
          "internalType": "uint8",
          "name": "",
          "type": "uint8"
        }
      ],
      "stateMutability": "view",
      "type": "function",
      "constant": true
    },
    {
      "inputs": [
        {
          "internalType": "address",
          "name": "spender",
          "type": "address"
        },
        {
          "internalType": "uint256",
          "name": "subtractedValue",
          "type": "uint256"
        }
      ],
      "name": "decreaseAllowance",
      "outputs": [
        {
          "internalType": "bool",
          "name": "",
          "type": "bool"
        }
      ],
      "stateMutability": "nonpayable",
      "type": "function"
    },
    {
      "inputs": [
        {
          "internalType": "address",
          "name": "spender",
          "type": "address"
        },
        {
          "internalType": "uint256",
          "name": "addedValue",
          "type": "uint256"
        }
      ],
      "name": "increaseAllowance",
      "outputs": [
        {
          "internalType": "bool",
          "name": "",
          "type": "bool"
        }
      ],
      "stateMutability": "nonpayable",
      "type": "function"
    },
    {
      "inputs": [],
      "name": "name",
      "outputs": [
        {
          "internalType": "string",
          "name": "",
          "type": "string"
        }
      ],
      "stateMutability": "view",
      "type": "function",
      "constant": true
    },
    {
      "inputs": [],
      "name": "owner",
      "outputs": [
        {
          "internalType": "address",
          "name": "",
          "type": "address"
        }
      ],
      "stateMutability": "view",
      "type": "function",
      "constant": true
    },
    {
      "inputs": [],
      "name": "renounceOwnership",
      "outputs": [],
      "stateMutability": "nonpayable",
      "type": "function"
    },
    {
      "inputs": [],
      "name": "symbol",
      "outputs": [
        {
          "internalType": "string",
          "name": "",
          "type": "string"
        }
      ],
      "stateMutability": "view",
      "type": "function",
      "constant": true
    },
    {
      "inputs": [],
      "name": "totalSupply",
      "outputs": [
        {
          "internalType": "uint256",
          "name": "",
          "type": "uint256"
        }
      ],
      "stateMutability": "view",
      "type": "function",
      "constant": true
    },
    {
      "inputs": [
        {
          "internalType": "address",
          "name": "recipient",
          "type": "address"
        },
        {
          "internalType": "uint256",
          "name": "amount",
          "type": "uint256"
        }
      ],
      "name": "transfer",
      "outputs": [
        {
          "internalType": "bool",
          "name": "",
          "type": "bool"
        }
      ],
      "stateMutability": "nonpayable",
      "type": "function"
    },
    {
      "inputs": [
        {
          "internalType": "address",
          "name": "sender",
          "type": "address"
        },
        {
          "internalType": "address",
          "name": "recipient",
          "type": "address"
        },
        {
          "internalType": "uint256",
          "name": "amount",
          "type": "uint256"
        }
      ],
      "name": "transferFrom",
      "outputs": [
        {
          "internalType": "bool",
          "name": "",
          "type": "bool"
        }
      ],
      "stateMutability": "nonpayable",
      "type": "function"
    },
    {
      "inputs": [
        {
          "internalType": "address",
          "name": "newOwner",
          "type": "address"
        }
      ],
      "name": "transferOwnership",
      "outputs": [],
      "stateMutability": "nonpayable",
      "type": "function"
    },
    {
      "inputs": [],
      "name": "initialize",
      "outputs": [],
      "stateMutability": "nonpayable",
      "type": "function"
    },
    {
      "inputs": [
        {
          "internalType": "address",
          "name": "to",
          "type": "address"
        },
        {
          "internalType": "uint256",
          "name": "amount",
          "type": "uint256"
        }
      ],
      "name": "mint",
      "outputs": [],
      "stateMutability": "nonpayable",
      "type": "function"
    }
  ],
  "bytecode": "0x60806040523480156200001157600080fd5b50600060019054906101000a900460ff168062000039575060008054906101000a900460ff16155b6200007b576040517f08c379a000000000000000000000000000000000000000000000000000000000815260040162000072906200011c565b60405180910390fd5b60008060019054906101000a900460ff161590508015620000cc576001600060016101000a81548160ff02191690831515021790555060016000806101000a81548160ff0219169083151502179055505b8015620000ee5760008060016101000a81548160ff0219169083151502179055505b506200019e565b600062000104602e836200013e565b915062000111826200014f565b604082019050919050565b600060208201905081810360008301526200013781620000f5565b9050919050565b600082825260208201905092915050565b7f496e697469616c697a61626c653a20636f6e747261637420697320616c72656160008201527f647920696e697469616c697a6564000000000000000000000000000000000000602082015250565b61282080620001ae6000396000f3fe608060405234801561001057600080fd5b50600436106101165760003560e01c8063715018a6116100a257806395d89b411161007157806395d89b41146102bb578063a457c2d7146102d9578063a9059cbb14610309578063dd62ed3e14610339578063f2fde38b1461036957610116565b8063715018a61461026d57806379cc6790146102775780638129fc1c146102935780638da5cb5b1461029d57610116565b8063313ce567116100e9578063313ce567146101b757806339509351146101d557806340c10f191461020557806342966c681461022157806370a082311461023d57610116565b806306fdde031461011b578063095ea7b31461013957806318160ddd1461016957806323b872dd14610187575b600080fd5b610123610385565b6040516101309190611fca565b60405180910390f35b610153600480360381019061014e9190611cc8565b610417565b6040516101609190611faf565b60405180910390f35b610171610435565b60405161017e91906121ac565b60405180910390f35b6101a1600480360381019061019c9190611c75565b61043f565b6040516101ae9190611faf565b60405180910390f35b6101bf610537565b6040516101cc91906121c7565b60405180910390f35b6101ef60048036038101906101ea9190611cc8565b610540565b6040516101fc9190611faf565b60405180910390f35b61021f600480360381019061021a9190611cc8565b6105ec565b005b61023b60048036038101906102369190611d08565b610676565b005b61025760048036038101906102529190611c08565b61068a565b60405161026491906121ac565b60405180910390f35b6102756106d3565b005b610291600480360381019061028c9190611cc8565b61075b565b005b61029b6107d6565b005b6102a5610933565b6040516102b29190611f94565b60405180910390f35b6102c361095d565b6040516102d09190611fca565b60405180910390f35b6102f360048036038101906102ee9190611cc8565b6109ef565b6040516103009190611faf565b60405180910390f35b610323600480360381019061031e9190611cc8565b610ada565b6040516103309190611faf565b60405180910390f35b610353600480360381019061034e9190611c35565b610af8565b60405161036091906121ac565b60405180910390f35b610383600480360381019061037e9190611c08565b610b7f565b005b60606036805461039490612310565b80601f01602080910402602001604051908101604052809291908181526020018280546103c090612310565b801561040d5780601f106103e25761010080835404028352916020019161040d565b820191906000526020600020905b8154815290600101906020018083116103f057829003601f168201915b5050505050905090565b600061042b610424610c77565b8484610c7f565b6001905092915050565b6000603554905090565b600061044c848484610e4a565b6000603460008673ffffffffffffffffffffffffffffffffffffffff1673ffffffffffffffffffffffffffffffffffffffff1681526020019081526020016000206000610497610c77565b73ffffffffffffffffffffffffffffffffffffffff1673ffffffffffffffffffffffffffffffffffffffff16815260200190815260200160002054905082811015610517576040517f08c379a000000000000000000000000000000000000000000000000000000000815260040161050e906120ac565b60405180910390fd5b61052b85610523610c77565b858403610c7f565b60019150509392505050565b60006012905090565b60006105e261054d610c77565b84846034600061055b610c77565b73ffffffffffffffffffffffffffffffffffffffff1673ffffffffffffffffffffffffffffffffffffffff16815260200190815260200160002060008873ffffffffffffffffffffffffffffffffffffffff1673ffffffffffffffffffffffffffffffffffffffff168152602001908152602001600020546105dd91906121fe565b610c7f565b6001905092915050565b6105f4610c77565b73ffffffffffffffffffffffffffffffffffffffff16610612610933565b73ffffffffffffffffffffffffffffffffffffffff1614610668576040517f08c379a000000000000000000000000000000000000000000000000000000000815260040161065f906120cc565b60405180910390fd5b61067282826110ce565b5050565b610687610681610c77565b8261122f565b50565b6000603360008373ffffffffffffffffffffffffffffffffffffffff1673ffffffffffffffffffffffffffffffffffffffff168152602001908152602001600020549050919050565b6106db610c77565b73ffffffffffffffffffffffffffffffffffffffff166106f9610933565b73ffffffffffffffffffffffffffffffffffffffff161461074f576040517f08c379a0000000000000000000000000000000000000000000000000000000008152600401610746906120cc565b60405180910390fd5b6107596000611408565b565b600061076e83610769610c77565b610af8565b9050818110156107b3576040517f08c379a00000000000000000000000000000000000000000000000000000000081526004016107aa906120ec565b60405180910390fd5b6107c7836107bf610c77565b848403610c7f565b6107d1838361122f565b505050565b600060019054906101000a900460ff16806107fc575060008054906101000a900460ff16155b61083b576040517f08c379a00000000000000000000000000000000000000000000000000000000081526004016108329061208c565b60405180910390fd5b60008060019054906101000a900460ff16159050801561088b576001600060016101000a81548160ff02191690831515021790555060016000806101000a81548160ff0219169083151502179055505b6108ff6040518060400160405280600881526020017f46756e546f6b656e0000000000000000000000000000000000000000000000008152506040518060400160405280600381526020017f46544b00000000000000000000000000000000000000000000000000000000008152506114ce565b6109076115bb565b61090f6116a4565b80156109305760008060016101000a81548160ff0219169083151502179055505b50565b6000609760009054906101000a900473ffffffffffffffffffffffffffffffffffffffff16905090565b60606037805461096c90612310565b80601f016020809104026020016040519081016040528092919081815260200182805461099890612310565b80156109e55780601f106109ba576101008083540402835291602001916109e5565b820191906000526020600020905b8154815290600101906020018083116109c857829003601f168201915b5050505050905090565b600080603460006109fe610c77565b73ffffffffffffffffffffffffffffffffffffffff1673ffffffffffffffffffffffffffffffffffffffff16815260200190815260200160002060008573ffffffffffffffffffffffffffffffffffffffff1673ffffffffffffffffffffffffffffffffffffffff16815260200190815260200160002054905082811015610abb576040517f08c379a0000000000000000000000000000000000000000000000000000000008152600401610ab29061216c565b60405180910390fd5b610acf610ac6610c77565b85858403610c7f565b600191505092915050565b6000610aee610ae7610c77565b8484610e4a565b6001905092915050565b6000603460008473ffffffffffffffffffffffffffffffffffffffff1673ffffffffffffffffffffffffffffffffffffffff16815260200190815260200160002060008373ffffffffffffffffffffffffffffffffffffffff1673ffffffffffffffffffffffffffffffffffffffff16815260200190815260200160002054905092915050565b610b87610c77565b73ffffffffffffffffffffffffffffffffffffffff16610ba5610933565b73ffffffffffffffffffffffffffffffffffffffff1614610bfb576040517f08c379a0000000000000000000000000000000000000000000000000000000008152600401610bf2906120cc565b60405180910390fd5b600073ffffffffffffffffffffffffffffffffffffffff168173ffffffffffffffffffffffffffffffffffffffff161415610c6b576040517f08c379a0000000000000000000000000000000000000000000000000000000008152600401610c629061202c565b60405180910390fd5b610c7481611408565b50565b600033905090565b600073ffffffffffffffffffffffffffffffffffffffff168373ffffffffffffffffffffffffffffffffffffffff161415610cef576040517f08c379a0000000000000000000000000000000000000000000000000000000008152600401610ce69061214c565b60405180910390fd5b600073ffffffffffffffffffffffffffffffffffffffff168273ffffffffffffffffffffffffffffffffffffffff161415610d5f576040517f08c379a0000000000000000000000000000000000000000000000000000000008152600401610d569061204c565b60405180910390fd5b80603460008573ffffffffffffffffffffffffffffffffffffffff1673ffffffffffffffffffffffffffffffffffffffff16815260200190815260200160002060008473ffffffffffffffffffffffffffffffffffffffff1673ffffffffffffffffffffffffffffffffffffffff168152602001908152602001600020819055508173ffffffffffffffffffffffffffffffffffffffff168373ffffffffffffffffffffffffffffffffffffffff167f8c5be1e5ebec7d5bd14f71427d1e84f3dd0314c0f7b2291e5b200ac8c7c3b92583604051610e3d91906121ac565b60405180910390a3505050565b600073ffffffffffffffffffffffffffffffffffffffff168373ffffffffffffffffffffffffffffffffffffffff161415610eba576040517f08c379a0000000000000000000000000000000000000000000000000000000008152600401610eb19061212c565b60405180910390fd5b600073ffffffffffffffffffffffffffffffffffffffff168273ffffffffffffffffffffffffffffffffffffffff161415610f2a576040517f08c379a0000000000000000000000000000000000000000000000000000000008152600401610f2190611fec565b60405180910390fd5b610f3583838361178d565b6000603360008573ffffffffffffffffffffffffffffffffffffffff1673ffffffffffffffffffffffffffffffffffffffff16815260200190815260200160002054905081811015610fbc576040517f08c379a0000000000000000000000000000000000000000000000000000000008152600401610fb39061206c565b60405180910390fd5b818103603360008673ffffffffffffffffffffffffffffffffffffffff1673ffffffffffffffffffffffffffffffffffffffff1681526020019081526020016000208190555081603360008573ffffffffffffffffffffffffffffffffffffffff1673ffffffffffffffffffffffffffffffffffffffff168152602001908152602001600020600082825461105191906121fe565b925050819055508273ffffffffffffffffffffffffffffffffffffffff168473ffffffffffffffffffffffffffffffffffffffff167fddf252ad1be2c89b69c2b068fc378daa952ba7f163c4a11628f55a4df523b3ef846040516110b591906121ac565b60405180910390a36110c8848484611792565b50505050565b600073ffffffffffffffffffffffffffffffffffffffff168273ffffffffffffffffffffffffffffffffffffffff16141561113e576040517f08c379a00000000000000000000000000000000000000000000000000000000081526004016111359061218c565b60405180910390fd5b61114a6000838361178d565b806035600082825461115c91906121fe565b9250508190555080603360008473ffffffffffffffffffffffffffffffffffffffff1673ffffffffffffffffffffffffffffffffffffffff16815260200190815260200160002060008282546111b291906121fe565b925050819055508173ffffffffffffffffffffffffffffffffffffffff16600073ffffffffffffffffffffffffffffffffffffffff167fddf252ad1be2c89b69c2b068fc378daa952ba7f163c4a11628f55a4df523b3ef8360405161121791906121ac565b60405180910390a361122b60008383611792565b5050565b600073ffffffffffffffffffffffffffffffffffffffff168273ffffffffffffffffffffffffffffffffffffffff16141561129f576040517f08c379a00000000000000000000000000000000000000000000000000000000081526004016112969061210c565b60405180910390fd5b6112ab8260008361178d565b6000603360008473ffffffffffffffffffffffffffffffffffffffff1673ffffffffffffffffffffffffffffffffffffffff16815260200190815260200160002054905081811015611332576040517f08c379a00000000000000000000000000000000000000000000000000000000081526004016113299061200c565b60405180910390fd5b818103603360008573ffffffffffffffffffffffffffffffffffffffff1673ffffffffffffffffffffffffffffffffffffffff16815260200190815260200160002081905550816035600082825461138a9190612254565b92505081905550600073ffffffffffffffffffffffffffffffffffffffff168373ffffffffffffffffffffffffffffffffffffffff167fddf252ad1be2c89b69c2b068fc378daa952ba7f163c4a11628f55a4df523b3ef846040516113ef91906121ac565b60405180910390a361140383600084611792565b505050565b6000609760009054906101000a900473ffffffffffffffffffffffffffffffffffffffff16905081609760006101000a81548173ffffffffffffffffffffffffffffffffffffffff021916908373ffffffffffffffffffffffffffffffffffffffff1602179055508173ffffffffffffffffffffffffffffffffffffffff168173ffffffffffffffffffffffffffffffffffffffff167f8be0079c531659141344cd1fd0a4f28419497f9722a3daafe3b4186f6b6457e060405160405180910390a35050565b600060019054906101000a900460ff16806114f4575060008054906101000a900460ff16155b611533576040517f08c379a000000000000000000000000000000000000000000000000000000000815260040161152a9061208c565b60405180910390fd5b60008060019054906101000a900460ff161590508015611583576001600060016101000a81548160ff02191690831515021790555060016000806101000a81548160ff0219169083151502179055505b61158b611797565b6115958383611870565b80156115b65760008060016101000a81548160ff0219169083151502179055505b505050565b600060019054906101000a900460ff16806115e1575060008054906101000a900460ff16155b611620576040517f08c379a00000000000000000000000000000000000000000000000000000000081526004016116179061208c565b60405180910390fd5b60008060019054906101000a900460ff161590508015611670576001600060016101000a81548160ff02191690831515021790555060016000806101000a81548160ff0219169083151502179055505b611678611797565b611680611979565b80156116a15760008060016101000a81548160ff0219169083151502179055505b50565b600060019054906101000a900460ff16806116ca575060008054906101000a900460ff16155b611709576040517f08c379a00000000000000000000000000000000000000000000000000000000081526004016117009061208c565b60405180910390fd5b60008060019054906101000a900460ff161590508015611759576001600060016101000a81548160ff02191690831515021790555060016000806101000a81548160ff0219169083151502179055505b611761611797565b611769611a52565b801561178a5760008060016101000a81548160ff0219169083151502179055505b50565b505050565b505050565b600060019054906101000a900460ff16806117bd575060008054906101000a900460ff16155b6117fc576040517f08c379a00000000000000000000000000000000000000000000000000000000081526004016117f39061208c565b60405180910390fd5b60008060019054906101000a900460ff16159050801561184c576001600060016101000a81548160ff02191690831515021790555060016000806101000a81548160ff0219169083151502179055505b801561186d5760008060016101000a81548160ff0219169083151502179055505b50565b600060019054906101000a900460ff1680611896575060008054906101000a900460ff16155b6118d5576040517f08c379a00000000000000000000000000000000000000000000000000000000081526004016118cc9061208c565b60405180910390fd5b60008060019054906101000a900460ff161590508015611925576001600060016101000a81548160ff02191690831515021790555060016000806101000a81548160ff0219169083151502179055505b826036908051906020019061193b929190611b3b565b508160379080519060200190611952929190611b3b565b5080156119745760008060016101000a81548160ff0219169083151502179055505b505050565b600060019054906101000a900460ff168061199f575060008054906101000a900460ff16155b6119de576040517f08c379a00000000000000000000000000000000000000000000000000000000081526004016119d59061208c565b60405180910390fd5b60008060019054906101000a900460ff161590508015611a2e576001600060016101000a81548160ff02191690831515021790555060016000806101000a81548160ff0219169083151502179055505b8015611a4f5760008060016101000a81548160ff0219169083151502179055505b50565b600060019054906101000a900460ff1680611a78575060008054906101000a900460ff16155b611ab7576040517f08c379a0000000000000000000000000000000000000000000000000000000008152600401611aae9061208c565b60405180910390fd5b60008060019054906101000a900460ff161590508015611b07576001600060016101000a81548160ff02191690831515021790555060016000806101000a81548160ff0219169083151502179055505b611b17611b12610c77565b611408565b8015611b385760008060016101000a81548160ff0219169083151502179055505b50565b828054611b4790612310565b90600052602060002090601f016020900481019282611b695760008555611bb0565b82601f10611b8257805160ff1916838001178555611bb0565b82800160010185558215611bb0579182015b82811115611baf578251825591602001919060010190611b94565b5b509050611bbd9190611bc1565b5090565b5b80821115611bda576000816000905550600101611bc2565b5090565b600081359050611bed816127bc565b92915050565b600081359050611c02816127d3565b92915050565b600060208284031215611c1e57611c1d6123a0565b5b6000611c2c84828501611bde565b91505092915050565b60008060408385031215611c4c57611c4b6123a0565b5b6000611c5a85828601611bde565b9250506020611c6b85828601611bde565b9150509250929050565b600080600060608486031215611c8e57611c8d6123a0565b5b6000611c9c86828701611bde565b9350506020611cad86828701611bde565b9250506040611cbe86828701611bf3565b9150509250925092565b60008060408385031215611cdf57611cde6123a0565b5b6000611ced85828601611bde565b9250506020611cfe85828601611bf3565b9150509250929050565b600060208284031215611d1e57611d1d6123a0565b5b6000611d2c84828501611bf3565b91505092915050565b611d3e81612288565b82525050565b611d4d8161229a565b82525050565b6000611d5e826121e2565b611d6881856121ed565b9350611d788185602086016122dd565b611d81816123a5565b840191505092915050565b6000611d996023836121ed565b9150611da4826123b6565b604082019050919050565b6000611dbc6022836121ed565b9150611dc782612405565b604082019050919050565b6000611ddf6026836121ed565b9150611dea82612454565b604082019050919050565b6000611e026022836121ed565b9150611e0d826124a3565b604082019050919050565b6000611e256026836121ed565b9150611e30826124f2565b604082019050919050565b6000611e48602e836121ed565b9150611e5382612541565b604082019050919050565b6000611e6b6028836121ed565b9150611e7682612590565b604082019050919050565b6000611e8e6020836121ed565b9150611e99826125df565b602082019050919050565b6000611eb16024836121ed565b9150611ebc82612608565b604082019050919050565b6000611ed46021836121ed565b9150611edf82612657565b604082019050919050565b6000611ef76025836121ed565b9150611f02826126a6565b604082019050919050565b6000611f1a6024836121ed565b9150611f25826126f5565b604082019050919050565b6000611f3d6025836121ed565b9150611f4882612744565b604082019050919050565b6000611f60601f836121ed565b9150611f6b82612793565b602082019050919050565b611f7f816122c6565b82525050565b611f8e816122d0565b82525050565b6000602082019050611fa96000830184611d35565b92915050565b6000602082019050611fc46000830184611d44565b92915050565b60006020820190508181036000830152611fe48184611d53565b905092915050565b6000602082019050818103600083015261200581611d8c565b9050919050565b6000602082019050818103600083015261202581611daf565b9050919050565b6000602082019050818103600083015261204581611dd2565b9050919050565b6000602082019050818103600083015261206581611df5565b9050919050565b6000602082019050818103600083015261208581611e18565b9050919050565b600060208201905081810360008301526120a581611e3b565b9050919050565b600060208201905081810360008301526120c581611e5e565b9050919050565b600060208201905081810360008301526120e581611e81565b9050919050565b6000602082019050818103600083015261210581611ea4565b9050919050565b6000602082019050818103600083015261212581611ec7565b9050919050565b6000602082019050818103600083015261214581611eea565b9050919050565b6000602082019050818103600083015261216581611f0d565b9050919050565b6000602082019050818103600083015261218581611f30565b9050919050565b600060208201905081810360008301526121a581611f53565b9050919050565b60006020820190506121c16000830184611f76565b92915050565b60006020820190506121dc6000830184611f85565b92915050565b600081519050919050565b600082825260208201905092915050565b6000612209826122c6565b9150612214836122c6565b9250827fffffffffffffffffffffffffffffffffffffffffffffffffffffffffffffffff0382111561224957612248612342565b5b828201905092915050565b600061225f826122c6565b915061226a836122c6565b92508282101561227d5761227c612342565b5b828203905092915050565b6000612293826122a6565b9050919050565b60008115159050919050565b600073ffffffffffffffffffffffffffffffffffffffff82169050919050565b6000819050919050565b600060ff82169050919050565b60005b838110156122fb5780820151818401526020810190506122e0565b8381111561230a576000848401525b50505050565b6000600282049050600182168061232857607f821691505b6020821081141561233c5761233b612371565b5b50919050565b7f4e487b7100000000000000000000000000000000000000000000000000000000600052601160045260246000fd5b7f4e487b7100000000000000000000000000000000000000000000000000000000600052602260045260246000fd5b600080fd5b6000601f19601f8301169050919050565b7f45524332303a207472616e7366657220746f20746865207a65726f206164647260008201527f6573730000000000000000000000000000000000000000000000000000000000602082015250565b7f45524332303a206275726e20616d6f756e7420657863656564732062616c616e60008201527f6365000000000000000000000000000000000000000000000000000000000000602082015250565b7f4f776e61626c653a206e6577206f776e657220697320746865207a65726f206160008201527f6464726573730000000000000000000000000000000000000000000000000000602082015250565b7f45524332303a20617070726f766520746f20746865207a65726f20616464726560008201527f7373000000000000000000000000000000000000000000000000000000000000602082015250565b7f45524332303a207472616e7366657220616d6f756e742065786365656473206260008201527f616c616e63650000000000000000000000000000000000000000000000000000602082015250565b7f496e697469616c697a61626c653a20636f6e747261637420697320616c72656160008201527f647920696e697469616c697a6564000000000000000000000000000000000000602082015250565b7f45524332303a207472616e7366657220616d6f756e742065786365656473206160008201527f6c6c6f77616e6365000000000000000000000000000000000000000000000000602082015250565b7f4f776e61626c653a2063616c6c6572206973206e6f7420746865206f776e6572600082015250565b7f45524332303a206275726e20616d6f756e74206578636565647320616c6c6f7760008201527f616e636500000000000000000000000000000000000000000000000000000000602082015250565b7f45524332303a206275726e2066726f6d20746865207a65726f2061646472657360008201527f7300000000000000000000000000000000000000000000000000000000000000602082015250565b7f45524332303a207472616e736665722066726f6d20746865207a65726f20616460008201527f6472657373000000000000000000000000000000000000000000000000000000602082015250565b7f45524332303a20617070726f76652066726f6d20746865207a65726f2061646460008201527f7265737300000000000000000000000000000000000000000000000000000000602082015250565b7f45524332303a2064656372656173656420616c6c6f77616e63652062656c6f7760008201527f207a65726f000000000000000000000000000000000000000000000000000000602082015250565b7f45524332303a206d696e7420746f20746865207a65726f206164647265737300600082015250565b6127c581612288565b81146127d057600080fd5b50565b6127dc816122c6565b81146127e757600080fd5b5056fea264697066735822122039c9a4fb63df202e9e6cab1c612de386a38f377f5db97960a3400ab047ec2e6964736f6c63430008060033",
  "immutableReferences": {},
  "source": "// SPDX-License-Identifier: MIT\r\npragma solidity >=0.4.22 <0.9.0;\r\n\r\nimport \"@openzeppelin/contracts-upgradeable/token/ERC20/ERC20Upgradeable.sol\";\r\nimport \"@openzeppelin/contracts-upgradeable/token/ERC20/extensions/ERC20BurnableUpgradeable.sol\";\r\nimport \"@openzeppelin/contracts-upgradeable/access/OwnableUpgradeable.sol\";\r\nimport \"@openzeppelin/contracts-upgradeable/proxy/utils/Initializable.sol\";\r\n\r\ncontract FunToken is Initializable, ERC20Upgradeable, ERC20BurnableUpgradeable, OwnableUpgradeable {\r\n    /// @custom:oz-upgrades-unsafe-allow constructor\r\n    constructor() initializer {}\r\n\r\n    function initialize() initializer public {\r\n        __ERC20_init(\"FunToken\", \"FTK\");\r\n        __ERC20Burnable_init();\r\n        __Ownable_init();\r\n    }\r\n\r\n    function mint(address to, uint256 amount) public onlyOwner {\r\n        _mint(to, amount);\r\n    }\r\n}",
  "sourcePath": "E:/LamViec/fun-exchange/contracts/tokens/FunToken.sol",
  "compiler": {
    "name": "solc",
    "version": "0.8.6+commit.11564f7e.Emscripten.clang"
  },
  "schemaVersion": "3.3.4",
  "updatedAt": "2021-11-05T01:24:46.062Z",
  "networkType": "ethereum",
  "devdoc": {
    "kind": "dev",
    "methods": {
      "allowance(address,address)": {
        "details": "See {IERC20-allowance}."
      },
      "approve(address,uint256)": {
        "details": "See {IERC20-approve}. Requirements: - `spender` cannot be the zero address."
      },
      "balanceOf(address)": {
        "details": "See {IERC20-balanceOf}."
      },
      "burn(uint256)": {
        "details": "Destroys `amount` tokens from the caller. See {ERC20-_burn}."
      },
      "burnFrom(address,uint256)": {
        "details": "Destroys `amount` tokens from `account`, deducting from the caller's allowance. See {ERC20-_burn} and {ERC20-allowance}. Requirements: - the caller must have allowance for ``accounts``'s tokens of at least `amount`."
      },
      "constructor": {
        "custom:oz-upgrades-unsafe-allow": "constructor"
      },
      "decimals()": {
        "details": "Returns the number of decimals used to get its user representation. For example, if `decimals` equals `2`, a balance of `505` tokens should be displayed to a user as `5.05` (`505 / 10 ** 2`). Tokens usually opt for a value of 18, imitating the relationship between Ether and Wei. This is the value {ERC20} uses, unless this function is overridden; NOTE: This information is only used for _display_ purposes: it in no way affects any of the arithmetic of the contract, including {IERC20-balanceOf} and {IERC20-transfer}."
      },
      "decreaseAllowance(address,uint256)": {
        "details": "Atomically decreases the allowance granted to `spender` by the caller. This is an alternative to {approve} that can be used as a mitigation for problems described in {IERC20-approve}. Emits an {Approval} event indicating the updated allowance. Requirements: - `spender` cannot be the zero address. - `spender` must have allowance for the caller of at least `subtractedValue`."
      },
      "increaseAllowance(address,uint256)": {
        "details": "Atomically increases the allowance granted to `spender` by the caller. This is an alternative to {approve} that can be used as a mitigation for problems described in {IERC20-approve}. Emits an {Approval} event indicating the updated allowance. Requirements: - `spender` cannot be the zero address."
      },
      "name()": {
        "details": "Returns the name of the token."
      },
      "owner()": {
        "details": "Returns the address of the current owner."
      },
      "renounceOwnership()": {
        "details": "Leaves the contract without owner. It will not be possible to call `onlyOwner` functions anymore. Can only be called by the current owner. NOTE: Renouncing ownership will leave the contract without an owner, thereby removing any functionality that is only available to the owner."
      },
      "symbol()": {
        "details": "Returns the symbol of the token, usually a shorter version of the name."
      },
      "totalSupply()": {
        "details": "See {IERC20-totalSupply}."
      },
      "transfer(address,uint256)": {
        "details": "See {IERC20-transfer}. Requirements: - `recipient` cannot be the zero address. - the caller must have a balance of at least `amount`."
      },
      "transferFrom(address,address,uint256)": {
        "details": "See {IERC20-transferFrom}. Emits an {Approval} event indicating the updated allowance. This is not required by the EIP. See the note at the beginning of {ERC20}. Requirements: - `sender` and `recipient` cannot be the zero address. - `sender` must have a balance of at least `amount`. - the caller must have allowance for ``sender``'s tokens of at least `amount`."
      },
      "transferOwnership(address)": {
        "details": "Transfers ownership of the contract to a new account (`newOwner`). Can only be called by the current owner."
      }
    },
    "version": 1
  },
  "userdoc": {
    "kind": "user",
    "methods": {},
    "version": 1
  }
}