{
  "contractName": "NFTBase",
  "abi": [
    {
      "anonymous": false,
      "inputs": [
        {
          "indexed": true,
          "internalType": "address",
          "name": "owner",
          "type": "address"
        },
        {
          "indexed": true,
          "internalType": "address",
          "name": "approved",
          "type": "address"
        },
        {
          "indexed": true,
          "internalType": "uint256",
          "name": "tokenId",
          "type": "uint256"
        }
      ],
      "name": "Approval",
      "type": "event"
    },
    {
      "anonymous": false,
      "inputs": [
        {
          "indexed": true,
          "internalType": "address",
          "name": "owner",
          "type": "address"
        },
        {
          "indexed": true,
          "internalType": "address",
          "name": "operator",
          "type": "address"
        },
        {
          "indexed": false,
          "internalType": "bool",
          "name": "approved",
          "type": "bool"
        }
      ],
      "name": "ApprovalForAll",
      "type": "event"
    },
    {
      "anonymous": false,
      "inputs": [
        {
          "indexed": false,
          "internalType": "uint256",
          "name": "tokenId",
          "type": "uint256"
        },
        {
          "indexed": false,
          "internalType": "address",
          "name": "creator",
          "type": "address"
        },
        {
          "indexed": false,
          "internalType": "uint256",
          "name": "royalty",
          "type": "uint256"
        }
      ],
      "name": "Creator",
      "type": "event"
    },
    {
      "anonymous": false,
      "inputs": [
        {
          "indexed": true,
          "internalType": "address",
          "name": "operator",
          "type": "address"
        },
        {
          "indexed": false,
          "internalType": "bool",
          "name": "hasApproval",
          "type": "bool"
        }
      ],
      "name": "DefaultApproval",
      "type": "event"
    },
    {
      "anonymous": false,
      "inputs": [
        {
          "indexed": true,
          "internalType": "address",
          "name": "previousOwner",
          "type": "address"
        },
        {
          "indexed": true,
          "internalType": "address",
          "name": "newOwner",
          "type": "address"
        }
      ],
      "name": "OwnershipTransferred",
      "type": "event"
    },
    {
      "anonymous": false,
      "inputs": [
        {
          "indexed": true,
          "internalType": "address",
          "name": "from",
          "type": "address"
        },
        {
          "indexed": true,
          "internalType": "address",
          "name": "to",
          "type": "address"
        },
        {
          "indexed": true,
          "internalType": "uint256",
          "name": "tokenId",
          "type": "uint256"
        }
      ],
      "name": "Transfer",
      "type": "event"
    },
    {
      "inputs": [
        {
          "internalType": "address",
          "name": "to",
          "type": "address"
        },
        {
          "internalType": "uint256",
          "name": "tokenId",
          "type": "uint256"
        }
      ],
      "name": "approve",
      "outputs": [],
      "stateMutability": "nonpayable",
      "type": "function"
    },
    {
      "inputs": [
        {
          "internalType": "address",
          "name": "owner",
          "type": "address"
        }
      ],
      "name": "balanceOf",
      "outputs": [
        {
          "internalType": "uint256",
          "name": "",
          "type": "uint256"
        }
      ],
      "stateMutability": "view",
      "type": "function"
    },
    {
      "inputs": [],
      "name": "baseTokenURI",
      "outputs": [
        {
          "internalType": "string",
          "name": "",
          "type": "string"
        }
      ],
      "stateMutability": "view",
      "type": "function"
    },
    {
      "inputs": [
        {
          "internalType": "uint256",
          "name": "tokenId",
          "type": "uint256"
        }
      ],
      "name": "burn",
      "outputs": [],
      "stateMutability": "nonpayable",
      "type": "function"
    },
    {
      "inputs": [
        {
          "internalType": "uint256",
          "name": "tokenId",
          "type": "uint256"
        }
      ],
      "name": "getApproved",
      "outputs": [
        {
          "internalType": "address",
          "name": "",
          "type": "address"
        }
      ],
      "stateMutability": "view",
      "type": "function"
    },
    {
      "inputs": [
        {
          "internalType": "address",
          "name": "owner",
          "type": "address"
        },
        {
          "internalType": "address",
          "name": "operator",
          "type": "address"
        }
      ],
      "name": "isApprovedForAll",
      "outputs": [
        {
          "internalType": "bool",
          "name": "",
          "type": "bool"
        }
      ],
      "stateMutability": "view",
      "type": "function"
    },
    {
      "inputs": [],
      "name": "name",
      "outputs": [
        {
          "internalType": "string",
          "name": "",
          "type": "string"
        }
      ],
      "stateMutability": "view",
      "type": "function"
    },
    {
      "inputs": [],
      "name": "owner",
      "outputs": [
        {
          "internalType": "address",
          "name": "",
          "type": "address"
        }
      ],
      "stateMutability": "view",
      "type": "function"
    },
    {
      "inputs": [
        {
          "internalType": "uint256",
          "name": "tokenId",
          "type": "uint256"
        }
      ],
      "name": "ownerOf",
      "outputs": [
        {
          "internalType": "address",
          "name": "",
          "type": "address"
        }
      ],
      "stateMutability": "view",
      "type": "function"
    },
    {
      "inputs": [],
      "name": "renounceOwnership",
      "outputs": [],
      "stateMutability": "nonpayable",
      "type": "function"
    },
    {
      "inputs": [
        {
          "internalType": "address",
          "name": "from",
          "type": "address"
        },
        {
          "internalType": "address",
          "name": "to",
          "type": "address"
        },
        {
          "internalType": "uint256",
          "name": "tokenId",
          "type": "uint256"
        }
      ],
      "name": "safeTransferFrom",
      "outputs": [],
      "stateMutability": "nonpayable",
      "type": "function"
    },
    {
      "inputs": [
        {
          "internalType": "address",
          "name": "from",
          "type": "address"
        },
        {
          "internalType": "address",
          "name": "to",
          "type": "address"
        },
        {
          "internalType": "uint256",
          "name": "tokenId",
          "type": "uint256"
        },
        {
          "internalType": "bytes",
          "name": "_data",
          "type": "bytes"
        }
      ],
      "name": "safeTransferFrom",
      "outputs": [],
      "stateMutability": "nonpayable",
      "type": "function"
    },
    {
      "inputs": [
        {
          "internalType": "address",
          "name": "operator",
          "type": "address"
        },
        {
          "internalType": "bool",
          "name": "approved",
          "type": "bool"
        }
      ],
      "name": "setApprovalForAll",
      "outputs": [],
      "stateMutability": "nonpayable",
      "type": "function"
    },
    {
      "inputs": [],
      "name": "symbol",
      "outputs": [
        {
          "internalType": "string",
          "name": "",
          "type": "string"
        }
      ],
      "stateMutability": "view",
      "type": "function"
    },
    {
      "inputs": [
        {
          "internalType": "uint256",
          "name": "index",
          "type": "uint256"
        }
      ],
      "name": "tokenByIndex",
      "outputs": [
        {
          "internalType": "uint256",
          "name": "",
          "type": "uint256"
        }
      ],
      "stateMutability": "view",
      "type": "function"
    },
    {
      "inputs": [
        {
          "internalType": "address",
          "name": "owner",
          "type": "address"
        },
        {
          "internalType": "uint256",
          "name": "index",
          "type": "uint256"
        }
      ],
      "name": "tokenOfOwnerByIndex",
      "outputs": [
        {
          "internalType": "uint256",
          "name": "",
          "type": "uint256"
        }
      ],
      "stateMutability": "view",
      "type": "function"
    },
    {
      "inputs": [
        {
          "internalType": "uint256",
          "name": "tokenId",
          "type": "uint256"
        }
      ],
      "name": "tokenURI",
      "outputs": [
        {
          "internalType": "string",
          "name": "",
          "type": "string"
        }
      ],
      "stateMutability": "view",
      "type": "function"
    },
    {
      "inputs": [],
      "name": "totalSupply",
      "outputs": [
        {
          "internalType": "uint256",
          "name": "",
          "type": "uint256"
        }
      ],
      "stateMutability": "view",
      "type": "function"
    },
    {
      "inputs": [
        {
          "internalType": "address",
          "name": "from",
          "type": "address"
        },
        {
          "internalType": "address",
          "name": "to",
          "type": "address"
        },
        {
          "internalType": "uint256",
          "name": "tokenId",
          "type": "uint256"
        }
      ],
      "name": "transferFrom",
      "outputs": [],
      "stateMutability": "nonpayable",
      "type": "function"
    },
    {
      "inputs": [
        {
          "internalType": "address",
          "name": "newOwner",
          "type": "address"
        }
      ],
      "name": "transferOwnership",
      "outputs": [],
      "stateMutability": "nonpayable",
      "type": "function"
    },
    {
      "inputs": [
        {
          "internalType": "address",
          "name": "operator",
          "type": "address"
        },
        {
          "internalType": "bool",
          "name": "hasApproval",
          "type": "bool"
        }
      ],
      "name": "setDefaultApproval",
      "outputs": [],
      "stateMutability": "nonpayable",
      "type": "function"
    },
    {
      "inputs": [
        {
          "internalType": "uint256",
          "name": "tokenId",
          "type": "uint256"
        }
      ],
      "name": "creatorOf",
      "outputs": [
        {
          "internalType": "address",
          "name": "",
          "type": "address"
        }
      ],
      "stateMutability": "view",
      "type": "function"
    },
    {
      "inputs": [
        {
          "internalType": "uint256",
          "name": "tokenId",
          "type": "uint256"
        }
      ],
      "name": "royaltyOf",
      "outputs": [
        {
          "internalType": "uint256",
          "name": "",
          "type": "uint256"
        }
      ],
      "stateMutability": "view",
      "type": "function"
    },
    {
      "inputs": [
        {
          "internalType": "address",
          "name": "creator",
          "type": "address"
        }
      ],
      "name": "createdTokenOf",
      "outputs": [
        {
          "internalType": "uint256",
          "name": "",
          "type": "uint256"
        }
      ],
      "stateMutability": "view",
      "type": "function"
    },
    {
      "inputs": [
        {
          "internalType": "address",
          "name": "creator",
          "type": "address"
        },
        {
          "internalType": "uint256",
          "name": "index",
          "type": "uint256"
        }
      ],
      "name": "createdTokenOfCreatorByIndex",
      "outputs": [
        {
          "internalType": "uint256",
          "name": "",
          "type": "uint256"
        }
      ],
      "stateMutability": "view",
      "type": "function"
    },
    {
      "inputs": [
        {
          "internalType": "bytes4",
          "name": "interfaceId",
          "type": "bytes4"
        }
      ],
      "name": "supportsInterface",
      "outputs": [
        {
          "internalType": "bool",
          "name": "",
          "type": "bool"
        }
      ],
      "stateMutability": "view",
      "type": "function"
    }
  ],
  "bytecode": "0x608060405234801561001057600080fd5b50613b9a806100206000396000f3fe608060405234801561001057600080fd5b506004361061018e5760003560e01c80636352211e116100de578063a22cb46511610097578063d26509b111610071578063d26509b1146104b9578063d547cfb7146104e9578063e985e9c514610507578063f2fde38b146105375761018e565b8063a22cb46514610451578063b88d4fde1461046d578063c87b56dd146104895761018e565b80636352211e1461037b57806370a08231146103ab578063715018a6146103db578063851c9d55146103e55780638da5cb5b1461041557806395d89b41146104335761018e565b806318160ddd1161014b57806342842e0e1161012557806342842e0e146102e357806342966c68146102ff5780634f6ccce71461031b578063589a17431461034b5761018e565b806318160ddd1461027957806323b872dd146102975780632f745c59146102b35761018e565b806301ffc9a71461019357806304e15919146101c357806306fdde03146101f3578063081812fc14610211578063095ea7b31461024157806318054c371461025d575b600080fd5b6101ad60048036038101906101a89190612a1e565b610553565b6040516101ba9190612e99565b60405180910390f35b6101dd60048036038101906101d8919061285b565b610565565b6040516101ea9190613136565b60405180910390f35b6101fb61061c565b6040516102089190612eb4565b60405180910390f35b61022b60048036038101906102269190612a78565b6106ae565b6040516102389190612e32565b60405180910390f35b61025b600480360381019061025691906129de565b610733565b005b6102776004803603810190610272919061299e565b61084b565b005b6102816108d5565b60405161028e9190613136565b60405180910390f35b6102b160048036038101906102ac91906128c8565b6108e2565b005b6102cd60048036038101906102c891906129de565b610942565b6040516102da9190613136565b60405180910390f35b6102fd60048036038101906102f891906128c8565b6109e7565b005b61031960048036038101906103149190612a78565b610a07565b005b61033560048036038101906103309190612a78565b610a63565b6040516103429190613136565b60405180910390f35b61036560048036038101906103609190612a78565b610ad4565b6040516103729190612e32565b60405180910390f35b61039560048036038101906103909190612a78565b610b12565b6040516103a29190612e32565b60405180910390f35b6103c560048036038101906103c0919061285b565b610bc4565b6040516103d29190613136565b60405180910390f35b6103e3610c7c565b005b6103ff60048036038101906103fa91906129de565b610d04565b60405161040c9190613136565b60405180910390f35b61041d610e05565b60405161042a9190612e32565b60405180910390f35b61043b610e30565b6040516104489190612eb4565b60405180910390f35b61046b6004803603810190610466919061299e565b610ec2565b005b6104876004803603810190610482919061291b565b611043565b005b6104a3600480360381019061049e9190612a78565b6110a5565b6040516104b09190612eb4565b60405180910390f35b6104d360048036038101906104ce9190612a78565b6110b7565b6040516104e09190613136565b60405180910390f35b6104f16110d5565b6040516104fe9190612eb4565b60405180910390f35b610521600480360381019061051c9190612888565b611164565b60405161052e9190612e99565b60405180910390f35b610551600480360381019061054c919061285b565b6111cd565b005b600061055e826112c5565b9050919050565b6000806000905060006105796101606112d7565b905060005b81811015610611578473ffffffffffffffffffffffffffffffffffffffff16610162600083815260200190815260200160002060009054906101000a900473ffffffffffffffffffffffffffffffffffffffff1673ffffffffffffffffffffffffffffffffffffffff1614156105fe576001836105fb91906131ea565b92505b8080610609906133be565b91505061057e565b508192505050919050565b60606065805461062b9061335b565b80601f01602080910402602001604051908101604052809291908181526020018280546106579061335b565b80156106a45780601f10610679576101008083540402835291602001916106a4565b820191906000526020600020905b81548152906001019060200180831161068757829003601f168201915b5050505050905090565b60006106b9826112e5565b6106f8576040517f08c379a00000000000000000000000000000000000000000000000000000000081526004016106ef90613036565b60405180910390fd5b6069600083815260200190815260200160002060009054906101000a900473ffffffffffffffffffffffffffffffffffffffff169050919050565b600061073e82610b12565b90508073ffffffffffffffffffffffffffffffffffffffff168373ffffffffffffffffffffffffffffffffffffffff1614156107af576040517f08c379a00000000000000000000000000000000000000000000000000000000081526004016107a6906130b6565b60405180910390fd5b8073ffffffffffffffffffffffffffffffffffffffff166107ce611351565b73ffffffffffffffffffffffffffffffffffffffff1614806107fd57506107fc816107f7611351565b611164565b5b61083c576040517f08c379a000000000000000000000000000000000000000000000000000000000815260040161083390612fb6565b60405180910390fd5b6108468383611359565b505050565b610853611351565b73ffffffffffffffffffffffffffffffffffffffff16610871610e05565b73ffffffffffffffffffffffffffffffffffffffff16146108c7576040517f08c379a00000000000000000000000000000000000000000000000000000000081526004016108be90613056565b60405180910390fd5b6108d18282611412565b5050565b6000609980549050905090565b6108f36108ed611351565b826114bc565b610932576040517f08c379a0000000000000000000000000000000000000000000000000000000008152600401610929906130d6565b60405180910390fd5b61093d838383611525565b505050565b600061094d83610bc4565b821061098e576040517f08c379a000000000000000000000000000000000000000000000000000000000815260040161098590612ed6565b60405180910390fd5b609760008473ffffffffffffffffffffffffffffffffffffffff1673ffffffffffffffffffffffffffffffffffffffff168152602001908152602001600020600083815260200190815260200160002054905092915050565b610a0283838360405180602001604052806000815250611043565b505050565b610a18610a12611351565b826114bc565b610a57576040517f08c379a0000000000000000000000000000000000000000000000000000000008152600401610a4e90613116565b60405180910390fd5b610a6081611781565b50565b6000610a6d6108d5565b8210610aae576040517f08c379a0000000000000000000000000000000000000000000000000000000008152600401610aa5906130f6565b60405180910390fd5b60998281548110610ac257610ac16134f4565b5b90600052602060002001549050919050565b6000610162600083815260200190815260200160002060009054906101000a900473ffffffffffffffffffffffffffffffffffffffff169050919050565b6000806067600084815260200190815260200160002060009054906101000a900473ffffffffffffffffffffffffffffffffffffffff169050600073ffffffffffffffffffffffffffffffffffffffff168173ffffffffffffffffffffffffffffffffffffffff161415610bbb576040517f08c379a0000000000000000000000000000000000000000000000000000000008152600401610bb290612ff6565b60405180910390fd5b80915050919050565b60008073ffffffffffffffffffffffffffffffffffffffff168273ffffffffffffffffffffffffffffffffffffffff161415610c35576040517f08c379a0000000000000000000000000000000000000000000000000000000008152600401610c2c90612fd6565b60405180910390fd5b606860008373ffffffffffffffffffffffffffffffffffffffff1673ffffffffffffffffffffffffffffffffffffffff168152602001908152602001600020549050919050565b610c84611351565b73ffffffffffffffffffffffffffffffffffffffff16610ca2610e05565b73ffffffffffffffffffffffffffffffffffffffff1614610cf8576040517f08c379a0000000000000000000000000000000000000000000000000000000008152600401610cef90613056565b60405180910390fd5b610d02600061178d565b565b600080600090506000610d186101606112d7565b905060005b81811015610dc3578573ffffffffffffffffffffffffffffffffffffffff16610162600083815260200190815260200160002060009054906101000a900473ffffffffffffffffffffffffffffffffffffffff1673ffffffffffffffffffffffffffffffffffffffff161415610db057600183610d9a91906131ea565b925084831415610daf57809350505050610dff565b5b8080610dbb906133be565b915050610d1d565b506040517f08c379a0000000000000000000000000000000000000000000000000000000008152600401610df690612f36565b60405180910390fd5b92915050565b600061012e60009054906101000a900473ffffffffffffffffffffffffffffffffffffffff16905090565b606060668054610e3f9061335b565b80601f0160208091040260200160405190810160405280929190818152602001828054610e6b9061335b565b8015610eb85780601f10610e8d57610100808354040283529160200191610eb8565b820191906000526020600020905b815481529060010190602001808311610e9b57829003601f168201915b5050505050905090565b610eca611351565b73ffffffffffffffffffffffffffffffffffffffff168273ffffffffffffffffffffffffffffffffffffffff161415610f38576040517f08c379a0000000000000000000000000000000000000000000000000000000008152600401610f2f90612f76565b60405180910390fd5b80606a6000610f45611351565b73ffffffffffffffffffffffffffffffffffffffff1673ffffffffffffffffffffffffffffffffffffffff16815260200190815260200160002060008473ffffffffffffffffffffffffffffffffffffffff1673ffffffffffffffffffffffffffffffffffffffff16815260200190815260200160002060006101000a81548160ff0219169083151502179055508173ffffffffffffffffffffffffffffffffffffffff16610ff2611351565b73ffffffffffffffffffffffffffffffffffffffff167f17307eab39ab6107e8899845ad3d59bd9653f200f220920489ca2b5937696c31836040516110379190612e99565b60405180910390a35050565b61105461104e611351565b836114bc565b611093576040517f08c379a000000000000000000000000000000000000000000000000000000000815260040161108a906130d6565b60405180910390fd5b61109f84848484611855565b50505050565b60606110b0826118b1565b9050919050565b60006101636000838152602001908152602001600020549050919050565b61016180546110e39061335b565b80601f016020809104026020016040519081016040528092919081815260200182805461110f9061335b565b801561115c5780601f106111315761010080835404028352916020019161115c565b820191906000526020600020905b81548152906001019060200180831161113f57829003601f168201915b505050505081565b600061012d60008373ffffffffffffffffffffffffffffffffffffffff1673ffffffffffffffffffffffffffffffffffffffff16815260200190815260200160002060009054906101000a900460ff16806111c557506111c48383611a03565b5b905092915050565b6111d5611351565b73ffffffffffffffffffffffffffffffffffffffff166111f3610e05565b73ffffffffffffffffffffffffffffffffffffffff1614611249576040517f08c379a000000000000000000000000000000000000000000000000000000000815260040161124090613056565b60405180910390fd5b600073ffffffffffffffffffffffffffffffffffffffff168173ffffffffffffffffffffffffffffffffffffffff1614156112b9576040517f08c379a00000000000000000000000000000000000000000000000000000000081526004016112b090612f16565b60405180910390fd5b6112c28161178d565b50565b60006112d082611a97565b9050919050565b600081600001549050919050565b60008073ffffffffffffffffffffffffffffffffffffffff166067600084815260200190815260200160002060009054906101000a900473ffffffffffffffffffffffffffffffffffffffff1673ffffffffffffffffffffffffffffffffffffffff1614159050919050565b600033905090565b816069600083815260200190815260200160002060006101000a81548173ffffffffffffffffffffffffffffffffffffffff021916908373ffffffffffffffffffffffffffffffffffffffff160217905550808273ffffffffffffffffffffffffffffffffffffffff166113cc83610b12565b73ffffffffffffffffffffffffffffffffffffffff167f8c5be1e5ebec7d5bd14f71427d1e84f3dd0314c0f7b2291e5b200ac8c7c3b92560405160405180910390a45050565b8061012d60008473ffffffffffffffffffffffffffffffffffffffff1673ffffffffffffffffffffffffffffffffffffffff16815260200190815260200160002060006101000a81548160ff0219169083151502179055508173ffffffffffffffffffffffffffffffffffffffff167f270dbb8ba4292910ae92862466486be25c355c837270a3d8824b36a8bc7c653b826040516114b09190612e99565b60405180910390a25050565b600061012d60008473ffffffffffffffffffffffffffffffffffffffff1673ffffffffffffffffffffffffffffffffffffffff16815260200190815260200160002060009054906101000a900460ff168061151d575061151c8383611aa9565b5b905092915050565b8273ffffffffffffffffffffffffffffffffffffffff1661154582610b12565b73ffffffffffffffffffffffffffffffffffffffff161461159b576040517f08c379a000000000000000000000000000000000000000000000000000000000815260040161159290613076565b60405180910390fd5b600073ffffffffffffffffffffffffffffffffffffffff168273ffffffffffffffffffffffffffffffffffffffff16141561160b576040517f08c379a000000000000000000000000000000000000000000000000000000000815260040161160290612f56565b60405180910390fd5b611616838383611b87565b611621600082611359565b6001606860008573ffffffffffffffffffffffffffffffffffffffff1673ffffffffffffffffffffffffffffffffffffffff16815260200190815260200160002060008282546116719190613271565b925050819055506001606860008473ffffffffffffffffffffffffffffffffffffffff1673ffffffffffffffffffffffffffffffffffffffff16815260200190815260200160002060008282546116c891906131ea565b92505081905550816067600083815260200190815260200160002060006101000a81548173ffffffffffffffffffffffffffffffffffffffff021916908373ffffffffffffffffffffffffffffffffffffffff160217905550808273ffffffffffffffffffffffffffffffffffffffff168473ffffffffffffffffffffffffffffffffffffffff167fddf252ad1be2c89b69c2b068fc378daa952ba7f163c4a11628f55a4df523b3ef60405160405180910390a4505050565b61178a81611b97565b50565b600061012e60009054906101000a900473ffffffffffffffffffffffffffffffffffffffff1690508161012e60006101000a81548173ffffffffffffffffffffffffffffffffffffffff021916908373ffffffffffffffffffffffffffffffffffffffff1602179055508173ffffffffffffffffffffffffffffffffffffffff168173ffffffffffffffffffffffffffffffffffffffff167f8be0079c531659141344cd1fd0a4f28419497f9722a3daafe3b4186f6b6457e060405160405180910390a35050565b611860848484611525565b61186c84848484611bea565b6118ab576040517f08c379a00000000000000000000000000000000000000000000000000000000081526004016118a290612ef6565b60405180910390fd5b50505050565b60606118bc826112e5565b6118fb576040517f08c379a00000000000000000000000000000000000000000000000000000000081526004016118f290613016565b60405180910390fd5b600060c96000848152602001908152602001600020805461191b9061335b565b80601f01602080910402602001604051908101604052809291908181526020018280546119479061335b565b80156119945780601f1061196957610100808354040283529160200191611994565b820191906000526020600020905b81548152906001019060200180831161197757829003601f168201915b5050505050905060006119a5611d81565b90506000815114156119bb5781925050506119fe565b6000825111156119f05780826040516020016119d8929190612e0e565b604051602081830303815290604052925050506119fe565b6119f984611e14565b925050505b919050565b6000606a60008473ffffffffffffffffffffffffffffffffffffffff1673ffffffffffffffffffffffffffffffffffffffff16815260200190815260200160002060008373ffffffffffffffffffffffffffffffffffffffff1673ffffffffffffffffffffffffffffffffffffffff16815260200190815260200160002060009054906101000a900460ff16905092915050565b6000611aa282611ebb565b9050919050565b6000611ab4826112e5565b611af3576040517f08c379a0000000000000000000000000000000000000000000000000000000008152600401611aea90612f96565b60405180910390fd5b6000611afe83610b12565b90508073ffffffffffffffffffffffffffffffffffffffff168473ffffffffffffffffffffffffffffffffffffffff161480611b6d57508373ffffffffffffffffffffffffffffffffffffffff16611b55846106ae565b73ffffffffffffffffffffffffffffffffffffffff16145b80611b7e5750611b7d8185611164565b5b91505092915050565b611b92838383611f35565b505050565b611ba081612049565b600060c960008381526020019081526020016000208054611bc09061335b565b905014611be75760c960008281526020019081526020016000206000611be69190612725565b5b50565b6000611c0b8473ffffffffffffffffffffffffffffffffffffffff1661215a565b15611d74578373ffffffffffffffffffffffffffffffffffffffff1663150b7a02611c34611351565b8786866040518563ffffffff1660e01b8152600401611c569493929190612e4d565b602060405180830381600087803b158015611c7057600080fd5b505af1925050508015611ca157506040513d601f19601f82011682018060405250810190611c9e9190612a4b565b60015b611d24573d8060008114611cd1576040519150601f19603f3d011682016040523d82523d6000602084013e611cd6565b606091505b50600081511415611d1c576040517f08c379a0000000000000000000000000000000000000000000000000000000008152600401611d1390612ef6565b60405180910390fd5b805181602001fd5b63150b7a0260e01b7bffffffffffffffffffffffffffffffffffffffffffffffffffffffff1916817bffffffffffffffffffffffffffffffffffffffffffffffffffffffff191614915050611d79565b600190505b949350505050565b60606101618054611d919061335b565b80601f0160208091040260200160405190810160405280929190818152602001828054611dbd9061335b565b8015611e0a5780601f10611ddf57610100808354040283529160200191611e0a565b820191906000526020600020905b815481529060010190602001808311611ded57829003601f168201915b5050505050905090565b6060611e1f826112e5565b611e5e576040517f08c379a0000000000000000000000000000000000000000000000000000000008152600401611e5590613096565b60405180910390fd5b6000611e68611d81565b90506000815111611e885760405180602001604052806000815250611eb3565b80611e928461216d565b604051602001611ea3929190612e0e565b6040516020818303038152906040525b915050919050565b60007f780e9d63000000000000000000000000000000000000000000000000000000007bffffffffffffffffffffffffffffffffffffffffffffffffffffffff1916827bffffffffffffffffffffffffffffffffffffffffffffffffffffffff19161480611f2e5750611f2d826122ce565b5b9050919050565b611f408383836123b0565b600073ffffffffffffffffffffffffffffffffffffffff168373ffffffffffffffffffffffffffffffffffffffff161415611f8357611f7e816123b5565b611fc2565b8173ffffffffffffffffffffffffffffffffffffffff168373ffffffffffffffffffffffffffffffffffffffff1614611fc157611fc083826123fe565b5b5b600073ffffffffffffffffffffffffffffffffffffffff168273ffffffffffffffffffffffffffffffffffffffff161415612005576120008161256b565b612044565b8273ffffffffffffffffffffffffffffffffffffffff168273ffffffffffffffffffffffffffffffffffffffff161461204357612042828261263c565b5b5b505050565b600061205482610b12565b905061206281600084611b87565b61206d600083611359565b6001606860008373ffffffffffffffffffffffffffffffffffffffff1673ffffffffffffffffffffffffffffffffffffffff16815260200190815260200160002060008282546120bd9190613271565b925050819055506067600083815260200190815260200160002060006101000a81549073ffffffffffffffffffffffffffffffffffffffff021916905581600073ffffffffffffffffffffffffffffffffffffffff168273ffffffffffffffffffffffffffffffffffffffff167fddf252ad1be2c89b69c2b068fc378daa952ba7f163c4a11628f55a4df523b3ef60405160405180910390a45050565b600080823b905060008111915050919050565b606060008214156121b5576040518060400160405280600181526020017f300000000000000000000000000000000000000000000000000000000000000081525090506122c9565b600082905060005b600082146121e75780806121d0906133be565b915050600a826121e09190613240565b91506121bd565b60008167ffffffffffffffff81111561220357612202613523565b5b6040519080825280601f01601f1916602001820160405280156122355781602001600182028036833780820191505090505b5090505b600085146122c25760018261224e9190613271565b9150600a8561225d9190613407565b603061226991906131ea565b60f81b81838151811061227f5761227e6134f4565b5b60200101907effffffffffffffffffffffffffffffffffffffffffffffffffffffffffffff1916908160001a905350600a856122bb9190613240565b9450612239565b8093505050505b919050565b60007f80ac58cd000000000000000000000000000000000000000000000000000000007bffffffffffffffffffffffffffffffffffffffffffffffffffffffff1916827bffffffffffffffffffffffffffffffffffffffffffffffffffffffff1916148061239957507f5b5e139f000000000000000000000000000000000000000000000000000000007bffffffffffffffffffffffffffffffffffffffffffffffffffffffff1916827bffffffffffffffffffffffffffffffffffffffffffffffffffffffff1916145b806123a957506123a8826126bb565b5b9050919050565b505050565b609980549050609a600083815260200190815260200160002081905550609981908060018154018082558091505060019003906000526020600020016000909190919091505550565b6000600161240b84610bc4565b6124159190613271565b90506000609860008481526020019081526020016000205490508181146124fa576000609760008673ffffffffffffffffffffffffffffffffffffffff1673ffffffffffffffffffffffffffffffffffffffff168152602001908152602001600020600084815260200190815260200160002054905080609760008773ffffffffffffffffffffffffffffffffffffffff1673ffffffffffffffffffffffffffffffffffffffff168152602001908152602001600020600084815260200190815260200160002081905550816098600083815260200190815260200160002081905550505b6098600084815260200190815260200160002060009055609760008573ffffffffffffffffffffffffffffffffffffffff1673ffffffffffffffffffffffffffffffffffffffff16815260200190815260200160002060008381526020019081526020016000206000905550505050565b6000600160998054905061257f9190613271565b90506000609a60008481526020019081526020016000205490506000609983815481106125af576125ae6134f4565b5b9060005260206000200154905080609983815481106125d1576125d06134f4565b5b906000526020600020018190555081609a600083815260200190815260200160002081905550609a60008581526020019081526020016000206000905560998054806126205761261f6134c5565b5b6001900381819060005260206000200160009055905550505050565b600061264783610bc4565b905081609760008573ffffffffffffffffffffffffffffffffffffffff1673ffffffffffffffffffffffffffffffffffffffff168152602001908152602001600020600083815260200190815260200160002081905550806098600084815260200190815260200160002081905550505050565b60007f01ffc9a7000000000000000000000000000000000000000000000000000000007bffffffffffffffffffffffffffffffffffffffffffffffffffffffff1916827bffffffffffffffffffffffffffffffffffffffffffffffffffffffff1916149050919050565b5080546127319061335b565b6000825580601f106127435750612762565b601f0160209004906000526020600020908101906127619190612765565b5b50565b5b8082111561277e576000816000905550600101612766565b5090565b600061279561279084613176565b613151565b9050828152602081018484840111156127b1576127b0613557565b5b6127bc848285613319565b509392505050565b6000813590506127d381613b08565b92915050565b6000813590506127e881613b1f565b92915050565b6000813590506127fd81613b36565b92915050565b60008151905061281281613b36565b92915050565b600082601f83011261282d5761282c613552565b5b813561283d848260208601612782565b91505092915050565b60008135905061285581613b4d565b92915050565b60006020828403121561287157612870613561565b5b600061287f848285016127c4565b91505092915050565b6000806040838503121561289f5761289e613561565b5b60006128ad858286016127c4565b92505060206128be858286016127c4565b9150509250929050565b6000806000606084860312156128e1576128e0613561565b5b60006128ef868287016127c4565b9350506020612900868287016127c4565b925050604061291186828701612846565b9150509250925092565b6000806000806080858703121561293557612934613561565b5b6000612943878288016127c4565b9450506020612954878288016127c4565b935050604061296587828801612846565b925050606085013567ffffffffffffffff8111156129865761298561355c565b5b61299287828801612818565b91505092959194509250565b600080604083850312156129b5576129b4613561565b5b60006129c3858286016127c4565b92505060206129d4858286016127d9565b9150509250929050565b600080604083850312156129f5576129f4613561565b5b6000612a03858286016127c4565b9250506020612a1485828601612846565b9150509250929050565b600060208284031215612a3457612a33613561565b5b6000612a42848285016127ee565b91505092915050565b600060208284031215612a6157612a60613561565b5b6000612a6f84828501612803565b91505092915050565b600060208284031215612a8e57612a8d613561565b5b6000612a9c84828501612846565b91505092915050565b612aae816132a5565b82525050565b612abd816132b7565b82525050565b6000612ace826131a7565b612ad881856131bd565b9350612ae8818560208601613328565b612af181613566565b840191505092915050565b6000612b07826131b2565b612b1181856131ce565b9350612b21818560208601613328565b612b2a81613566565b840191505092915050565b6000612b40826131b2565b612b4a81856131df565b9350612b5a818560208601613328565b80840191505092915050565b6000612b73602b836131ce565b9150612b7e82613577565b604082019050919050565b6000612b966032836131ce565b9150612ba1826135c6565b604082019050919050565b6000612bb96026836131ce565b9150612bc482613615565b604082019050919050565b6000612bdc602e836131ce565b9150612be782613664565b604082019050919050565b6000612bff6024836131ce565b9150612c0a826136b3565b604082019050919050565b6000612c226019836131ce565b9150612c2d82613702565b602082019050919050565b6000612c45602c836131ce565b9150612c508261372b565b604082019050919050565b6000612c686038836131ce565b9150612c738261377a565b604082019050919050565b6000612c8b602a836131ce565b9150612c96826137c9565b604082019050919050565b6000612cae6029836131ce565b9150612cb982613818565b604082019050919050565b6000612cd16031836131ce565b9150612cdc82613867565b604082019050919050565b6000612cf4602c836131ce565b9150612cff826138b6565b604082019050919050565b6000612d176020836131ce565b9150612d2282613905565b602082019050919050565b6000612d3a6029836131ce565b9150612d458261392e565b604082019050919050565b6000612d5d602f836131ce565b9150612d688261397d565b604082019050919050565b6000612d806021836131ce565b9150612d8b826139cc565b604082019050919050565b6000612da36031836131ce565b9150612dae82613a1b565b604082019050919050565b6000612dc6602c836131ce565b9150612dd182613a6a565b604082019050919050565b6000612de96030836131ce565b9150612df482613ab9565b604082019050919050565b612e088161330f565b82525050565b6000612e1a8285612b35565b9150612e268284612b35565b91508190509392505050565b6000602082019050612e476000830184612aa5565b92915050565b6000608082019050612e626000830187612aa5565b612e6f6020830186612aa5565b612e7c6040830185612dff565b8181036060830152612e8e8184612ac3565b905095945050505050565b6000602082019050612eae6000830184612ab4565b92915050565b60006020820190508181036000830152612ece8184612afc565b905092915050565b60006020820190508181036000830152612eef81612b66565b9050919050565b60006020820190508181036000830152612f0f81612b89565b9050919050565b60006020820190508181036000830152612f2f81612bac565b9050919050565b60006020820190508181036000830152612f4f81612bcf565b9050919050565b60006020820190508181036000830152612f6f81612bf2565b9050919050565b60006020820190508181036000830152612f8f81612c15565b9050919050565b60006020820190508181036000830152612faf81612c38565b9050919050565b60006020820190508181036000830152612fcf81612c5b565b9050919050565b60006020820190508181036000830152612fef81612c7e565b9050919050565b6000602082019050818103600083015261300f81612ca1565b9050919050565b6000602082019050818103600083015261302f81612cc4565b9050919050565b6000602082019050818103600083015261304f81612ce7565b9050919050565b6000602082019050818103600083015261306f81612d0a565b9050919050565b6000602082019050818103600083015261308f81612d2d565b9050919050565b600060208201905081810360008301526130af81612d50565b9050919050565b600060208201905081810360008301526130cf81612d73565b9050919050565b600060208201905081810360008301526130ef81612d96565b9050919050565b6000602082019050818103600083015261310f81612db9565b9050919050565b6000602082019050818103600083015261312f81612ddc565b9050919050565b600060208201905061314b6000830184612dff565b92915050565b600061315b61316c565b9050613167828261338d565b919050565b6000604051905090565b600067ffffffffffffffff82111561319157613190613523565b5b61319a82613566565b9050602081019050919050565b600081519050919050565b600081519050919050565b600082825260208201905092915050565b600082825260208201905092915050565b600081905092915050565b60006131f58261330f565b91506132008361330f565b9250827fffffffffffffffffffffffffffffffffffffffffffffffffffffffffffffffff0382111561323557613234613438565b5b828201905092915050565b600061324b8261330f565b91506132568361330f565b92508261326657613265613467565b5b828204905092915050565b600061327c8261330f565b91506132878361330f565b92508282101561329a57613299613438565b5b828203905092915050565b60006132b0826132ef565b9050919050565b60008115159050919050565b60007fffffffff0000000000000000000000000000000000000000000000000000000082169050919050565b600073ffffffffffffffffffffffffffffffffffffffff82169050919050565b6000819050919050565b82818337600083830152505050565b60005b8381101561334657808201518184015260208101905061332b565b83811115613355576000848401525b50505050565b6000600282049050600182168061337357607f821691505b6020821081141561338757613386613496565b5b50919050565b61339682613566565b810181811067ffffffffffffffff821117156133b5576133b4613523565b5b80604052505050565b60006133c98261330f565b91507fffffffffffffffffffffffffffffffffffffffffffffffffffffffffffffffff8214156133fc576133fb613438565b5b600182019050919050565b60006134128261330f565b915061341d8361330f565b92508261342d5761342c613467565b5b828206905092915050565b7f4e487b7100000000000000000000000000000000000000000000000000000000600052601160045260246000fd5b7f4e487b7100000000000000000000000000000000000000000000000000000000600052601260045260246000fd5b7f4e487b7100000000000000000000000000000000000000000000000000000000600052602260045260246000fd5b7f4e487b7100000000000000000000000000000000000000000000000000000000600052603160045260246000fd5b7f4e487b7100000000000000000000000000000000000000000000000000000000600052603260045260246000fd5b7f4e487b7100000000000000000000000000000000000000000000000000000000600052604160045260246000fd5b600080fd5b600080fd5b600080fd5b600080fd5b6000601f19601f8301169050919050565b7f455243373231456e756d657261626c653a206f776e657220696e646578206f7560008201527f74206f6620626f756e6473000000000000000000000000000000000000000000602082015250565b7f4552433732313a207472616e7366657220746f206e6f6e20455243373231526560008201527f63656976657220696d706c656d656e7465720000000000000000000000000000602082015250565b7f4f776e61626c653a206e6577206f776e657220697320746865207a65726f206160008201527f6464726573730000000000000000000000000000000000000000000000000000602082015250565b7f5468697320746f6b656e20646964206e6f74206265206372656174656420627960008201527f20746869732063726561746f722e000000000000000000000000000000000000602082015250565b7f4552433732313a207472616e7366657220746f20746865207a65726f2061646460008201527f7265737300000000000000000000000000000000000000000000000000000000602082015250565b7f4552433732313a20617070726f766520746f2063616c6c657200000000000000600082015250565b7f4552433732313a206f70657261746f7220717565727920666f72206e6f6e657860008201527f697374656e7420746f6b656e0000000000000000000000000000000000000000602082015250565b7f4552433732313a20617070726f76652063616c6c6572206973206e6f74206f7760008201527f6e6572206e6f7220617070726f76656420666f7220616c6c0000000000000000602082015250565b7f4552433732313a2062616c616e636520717565727920666f7220746865207a6560008201527f726f206164647265737300000000000000000000000000000000000000000000602082015250565b7f4552433732313a206f776e657220717565727920666f72206e6f6e657869737460008201527f656e7420746f6b656e0000000000000000000000000000000000000000000000602082015250565b7f45524337323155524953746f726167653a2055524920717565727920666f722060008201527f6e6f6e6578697374656e7420746f6b656e000000000000000000000000000000602082015250565b7f4552433732313a20617070726f76656420717565727920666f72206e6f6e657860008201527f697374656e7420746f6b656e0000000000000000000000000000000000000000602082015250565b7f4f776e61626c653a2063616c6c6572206973206e6f7420746865206f776e6572600082015250565b7f4552433732313a207472616e73666572206f6620746f6b656e2074686174206960008201527f73206e6f74206f776e0000000000000000000000000000000000000000000000602082015250565b7f4552433732314d657461646174613a2055524920717565727920666f72206e6f60008201527f6e6578697374656e7420746f6b656e0000000000000000000000000000000000602082015250565b7f4552433732313a20617070726f76616c20746f2063757272656e74206f776e6560008201527f7200000000000000000000000000000000000000000000000000000000000000602082015250565b7f4552433732313a207472616e736665722063616c6c6572206973206e6f74206f60008201527f776e6572206e6f7220617070726f766564000000000000000000000000000000602082015250565b7f455243373231456e756d657261626c653a20676c6f62616c20696e646578206f60008201527f7574206f6620626f756e64730000000000000000000000000000000000000000602082015250565b7f4552433732314275726e61626c653a2063616c6c6572206973206e6f74206f7760008201527f6e6572206e6f7220617070726f76656400000000000000000000000000000000602082015250565b613b11816132a5565b8114613b1c57600080fd5b50565b613b28816132b7565b8114613b3357600080fd5b50565b613b3f816132c3565b8114613b4a57600080fd5b50565b613b568161330f565b8114613b6157600080fd5b5056fea264697066735822122021164af5895b882ae5bcf52d64db08a50961fa9d80c4ae890410bfeb18340b9c64736f6c63430008060033",
  "immutableReferences": {},
  "source": "// SPDX-License-Identifier: MIT\r\npragma solidity >=0.4.22 <0.9.0;\r\n\r\nimport \"@openzeppelin/contracts-upgradeable/access/OwnableUpgradeable.sol\";\r\nimport \"@openzeppelin/contracts-upgradeable/proxy/utils/Initializable.sol\";\r\nimport \"@openzeppelin/contracts-upgradeable/utils/CountersUpgradeable.sol\";\r\nimport \"./NFTDefaultApproval.sol\";\r\n\r\ncontract NFTBase is Initializable, NFTDefaultApproval, OwnableUpgradeable {\r\n    using CountersUpgradeable for CountersUpgradeable.Counter;\r\n    CountersUpgradeable.Counter internal _tokenIdCounter;\r\n\r\n    string public baseTokenURI;\r\n    mapping(uint256 => address) private creators;\r\n    mapping(uint256 => uint256) private royalties;\r\n\r\n    event Creator(uint256 tokenId, address creator, uint256 royalty);\r\n\r\n    function _baseURI() internal view override returns (string memory) {\r\n        return baseTokenURI;\r\n    }\r\n\r\n    function setDefaultApproval(address operator, bool hasApproval) external onlyOwner{\r\n        _setDefaultApproval(operator, hasApproval);\r\n    }\r\n\r\n    function creatorOf(uint256 tokenId) public view returns (address){\r\n        return creators[tokenId];\r\n    }\r\n\r\n    function royaltyOf(uint256 tokenId) public view returns(uint256){\r\n        return royalties[tokenId];\r\n    }\r\n\r\n    function createdTokenOf(address creator) public view returns (uint256) {\r\n        uint256 count = 0;\r\n        uint256 totalItems = _tokenIdCounter.current();\r\n\r\n        for (uint256 i = 0; i < totalItems; i++) {\r\n            if (creators[i] == creator) {\r\n                count += 1;\r\n            }\r\n        }\r\n        return count;\r\n    }\r\n\r\n    function createdTokenOfCreatorByIndex(address creator, uint256 index) public view returns(uint256) {\r\n        uint256 count = 0;\r\n        uint256 totalItems = _tokenIdCounter.current();\r\n\r\n        for (uint256 i = 0; i < totalItems; i++) {\r\n            if (creators[i] == creator) {\r\n                count += 1;\r\n                if (count == index) {\r\n                    return i;\r\n                }\r\n            }\r\n        }\r\n        revert(\"This token did not be created by this creator.\");\r\n    }\r\n\r\n    function _saveCreator(uint256 tokenId, address creator, uint256 royalty) internal {\r\n        creators[tokenId] = creator;\r\n        royalties[tokenId] = royalty;\r\n\r\n        emit Creator(tokenId, creator, royalty);\r\n    }\r\n\r\n    function supportsInterface(bytes4 interfaceId)\r\n        public\r\n        view\r\n        override\r\n        returns (bool)\r\n    {\r\n        return super.supportsInterface(interfaceId);\r\n    }\r\n}",
  "sourcePath": "E:\\LamViec\\fun-exchange\\contracts\\tokens\\NFTBase.sol",
  "compiler": {
    "name": "solc",
    "version": "0.8.6+commit.11564f7e.Emscripten.clang"
  },
  "schemaVersion": "3.3.4",
  "updatedAt": "2021-11-25T07:41:55.552Z",
  "devdoc": {
    "kind": "dev",
    "methods": {
      "approve(address,uint256)": {
        "details": "See {IERC721-approve}."
      },
      "balanceOf(address)": {
        "details": "See {IERC721-balanceOf}."
      },
      "burn(uint256)": {
        "details": "Burns `tokenId`. See {ERC721-_burn}. Requirements: - The caller must own `tokenId` or be an approved operator."
      },
      "getApproved(uint256)": {
        "details": "See {IERC721-getApproved}."
      },
      "isApprovedForAll(address,address)": {
        "details": "See {IERC721-isApprovedForAll}."
      },
      "name()": {
        "details": "See {IERC721Metadata-name}."
      },
      "owner()": {
        "details": "Returns the address of the current owner."
      },
      "ownerOf(uint256)": {
        "details": "See {IERC721-ownerOf}."
      },
      "renounceOwnership()": {
        "details": "Leaves the contract without owner. It will not be possible to call `onlyOwner` functions anymore. Can only be called by the current owner. NOTE: Renouncing ownership will leave the contract without an owner, thereby removing any functionality that is only available to the owner."
      },
      "safeTransferFrom(address,address,uint256)": {
        "details": "See {IERC721-safeTransferFrom}."
      },
      "safeTransferFrom(address,address,uint256,bytes)": {
        "details": "See {IERC721-safeTransferFrom}."
      },
      "setApprovalForAll(address,bool)": {
        "details": "See {IERC721-setApprovalForAll}."
      },
      "symbol()": {
        "details": "See {IERC721Metadata-symbol}."
      },
      "tokenByIndex(uint256)": {
        "details": "See {IERC721Enumerable-tokenByIndex}."
      },
      "tokenOfOwnerByIndex(address,uint256)": {
        "details": "See {IERC721Enumerable-tokenOfOwnerByIndex}."
      },
      "totalSupply()": {
        "details": "See {IERC721Enumerable-totalSupply}."
      },
      "transferFrom(address,address,uint256)": {
        "details": "See {IERC721-transferFrom}."
      },
      "transferOwnership(address)": {
        "details": "Transfers ownership of the contract to a new account (`newOwner`). Can only be called by the current owner."
      }
    },
    "version": 1
  },
  "userdoc": {
    "kind": "user",
    "methods": {},
    "version": 1
  }
}