{
  "contractName": "NFTBase",
  "abi": [
    {
      "anonymous": false,
      "inputs": [
        {
          "indexed": true,
          "internalType": "address",
          "name": "owner",
          "type": "address"
        },
        {
          "indexed": true,
          "internalType": "address",
          "name": "approved",
          "type": "address"
        },
        {
          "indexed": true,
          "internalType": "uint256",
          "name": "tokenId",
          "type": "uint256"
        }
      ],
      "name": "Approval",
      "type": "event"
    },
    {
      "anonymous": false,
      "inputs": [
        {
          "indexed": true,
          "internalType": "address",
          "name": "owner",
          "type": "address"
        },
        {
          "indexed": true,
          "internalType": "address",
          "name": "operator",
          "type": "address"
        },
        {
          "indexed": false,
          "internalType": "bool",
          "name": "approved",
          "type": "bool"
        }
      ],
      "name": "ApprovalForAll",
      "type": "event"
    },
    {
      "anonymous": false,
      "inputs": [
        {
          "indexed": false,
          "internalType": "uint256",
          "name": "tokenId",
          "type": "uint256"
        },
        {
          "indexed": false,
          "internalType": "address",
          "name": "creator",
          "type": "address"
        }
      ],
      "name": "Creator",
      "type": "event"
    },
    {
      "anonymous": false,
      "inputs": [
        {
          "indexed": true,
          "internalType": "address",
          "name": "operator",
          "type": "address"
        },
        {
          "indexed": false,
          "internalType": "bool",
          "name": "hasApproval",
          "type": "bool"
        }
      ],
      "name": "DefaultApproval",
      "type": "event"
    },
    {
      "anonymous": false,
      "inputs": [
        {
          "indexed": true,
          "internalType": "address",
          "name": "previousOwner",
          "type": "address"
        },
        {
          "indexed": true,
          "internalType": "address",
          "name": "newOwner",
          "type": "address"
        }
      ],
      "name": "OwnershipTransferred",
      "type": "event"
    },
    {
      "anonymous": false,
      "inputs": [
        {
          "indexed": true,
          "internalType": "address",
          "name": "from",
          "type": "address"
        },
        {
          "indexed": true,
          "internalType": "address",
          "name": "to",
          "type": "address"
        },
        {
          "indexed": true,
          "internalType": "uint256",
          "name": "tokenId",
          "type": "uint256"
        }
      ],
      "name": "Transfer",
      "type": "event"
    },
    {
      "inputs": [
        {
          "internalType": "address",
          "name": "to",
          "type": "address"
        },
        {
          "internalType": "uint256",
          "name": "tokenId",
          "type": "uint256"
        }
      ],
      "name": "approve",
      "outputs": [],
      "stateMutability": "nonpayable",
      "type": "function"
    },
    {
      "inputs": [
        {
          "internalType": "address",
          "name": "owner",
          "type": "address"
        }
      ],
      "name": "balanceOf",
      "outputs": [
        {
          "internalType": "uint256",
          "name": "",
          "type": "uint256"
        }
      ],
      "stateMutability": "view",
      "type": "function"
    },
    {
      "inputs": [],
      "name": "baseTokenURI",
      "outputs": [
        {
          "internalType": "string",
          "name": "",
          "type": "string"
        }
      ],
      "stateMutability": "view",
      "type": "function"
    },
    {
      "inputs": [
        {
          "internalType": "uint256",
          "name": "tokenId",
          "type": "uint256"
        }
      ],
      "name": "burn",
      "outputs": [],
      "stateMutability": "nonpayable",
      "type": "function"
    },
    {
      "inputs": [
        {
          "internalType": "uint256",
          "name": "tokenId",
          "type": "uint256"
        }
      ],
      "name": "getApproved",
      "outputs": [
        {
          "internalType": "address",
          "name": "",
          "type": "address"
        }
      ],
      "stateMutability": "view",
      "type": "function"
    },
    {
      "inputs": [
        {
          "internalType": "address",
          "name": "owner",
          "type": "address"
        },
        {
          "internalType": "address",
          "name": "operator",
          "type": "address"
        }
      ],
      "name": "isApprovedForAll",
      "outputs": [
        {
          "internalType": "bool",
          "name": "",
          "type": "bool"
        }
      ],
      "stateMutability": "view",
      "type": "function"
    },
    {
      "inputs": [],
      "name": "name",
      "outputs": [
        {
          "internalType": "string",
          "name": "",
          "type": "string"
        }
      ],
      "stateMutability": "view",
      "type": "function"
    },
    {
      "inputs": [],
      "name": "owner",
      "outputs": [
        {
          "internalType": "address",
          "name": "",
          "type": "address"
        }
      ],
      "stateMutability": "view",
      "type": "function"
    },
    {
      "inputs": [
        {
          "internalType": "uint256",
          "name": "tokenId",
          "type": "uint256"
        }
      ],
      "name": "ownerOf",
      "outputs": [
        {
          "internalType": "address",
          "name": "",
          "type": "address"
        }
      ],
      "stateMutability": "view",
      "type": "function"
    },
    {
      "inputs": [],
      "name": "renounceOwnership",
      "outputs": [],
      "stateMutability": "nonpayable",
      "type": "function"
    },
    {
      "inputs": [
        {
          "internalType": "address",
          "name": "from",
          "type": "address"
        },
        {
          "internalType": "address",
          "name": "to",
          "type": "address"
        },
        {
          "internalType": "uint256",
          "name": "tokenId",
          "type": "uint256"
        }
      ],
      "name": "safeTransferFrom",
      "outputs": [],
      "stateMutability": "nonpayable",
      "type": "function"
    },
    {
      "inputs": [
        {
          "internalType": "address",
          "name": "from",
          "type": "address"
        },
        {
          "internalType": "address",
          "name": "to",
          "type": "address"
        },
        {
          "internalType": "uint256",
          "name": "tokenId",
          "type": "uint256"
        },
        {
          "internalType": "bytes",
          "name": "_data",
          "type": "bytes"
        }
      ],
      "name": "safeTransferFrom",
      "outputs": [],
      "stateMutability": "nonpayable",
      "type": "function"
    },
    {
      "inputs": [
        {
          "internalType": "address",
          "name": "operator",
          "type": "address"
        },
        {
          "internalType": "bool",
          "name": "approved",
          "type": "bool"
        }
      ],
      "name": "setApprovalForAll",
      "outputs": [],
      "stateMutability": "nonpayable",
      "type": "function"
    },
    {
      "inputs": [],
      "name": "symbol",
      "outputs": [
        {
          "internalType": "string",
          "name": "",
          "type": "string"
        }
      ],
      "stateMutability": "view",
      "type": "function"
    },
    {
      "inputs": [
        {
          "internalType": "uint256",
          "name": "index",
          "type": "uint256"
        }
      ],
      "name": "tokenByIndex",
      "outputs": [
        {
          "internalType": "uint256",
          "name": "",
          "type": "uint256"
        }
      ],
      "stateMutability": "view",
      "type": "function"
    },
    {
      "inputs": [
        {
          "internalType": "address",
          "name": "owner",
          "type": "address"
        },
        {
          "internalType": "uint256",
          "name": "index",
          "type": "uint256"
        }
      ],
      "name": "tokenOfOwnerByIndex",
      "outputs": [
        {
          "internalType": "uint256",
          "name": "",
          "type": "uint256"
        }
      ],
      "stateMutability": "view",
      "type": "function"
    },
    {
      "inputs": [
        {
          "internalType": "uint256",
          "name": "tokenId",
          "type": "uint256"
        }
      ],
      "name": "tokenURI",
      "outputs": [
        {
          "internalType": "string",
          "name": "",
          "type": "string"
        }
      ],
      "stateMutability": "view",
      "type": "function"
    },
    {
      "inputs": [],
      "name": "totalSupply",
      "outputs": [
        {
          "internalType": "uint256",
          "name": "",
          "type": "uint256"
        }
      ],
      "stateMutability": "view",
      "type": "function"
    },
    {
      "inputs": [
        {
          "internalType": "address",
          "name": "from",
          "type": "address"
        },
        {
          "internalType": "address",
          "name": "to",
          "type": "address"
        },
        {
          "internalType": "uint256",
          "name": "tokenId",
          "type": "uint256"
        }
      ],
      "name": "transferFrom",
      "outputs": [],
      "stateMutability": "nonpayable",
      "type": "function"
    },
    {
      "inputs": [
        {
          "internalType": "address",
          "name": "newOwner",
          "type": "address"
        }
      ],
      "name": "transferOwnership",
      "outputs": [],
      "stateMutability": "nonpayable",
      "type": "function"
    },
    {
      "inputs": [
        {
          "internalType": "address",
          "name": "operator",
          "type": "address"
        },
        {
          "internalType": "bool",
          "name": "hasApproval",
          "type": "bool"
        }
      ],
      "name": "setDefaultApproval",
      "outputs": [],
      "stateMutability": "nonpayable",
      "type": "function"
    },
    {
      "inputs": [
        {
          "internalType": "uint256",
          "name": "tokenId",
          "type": "uint256"
        }
      ],
      "name": "creatorOf",
      "outputs": [
        {
          "internalType": "address",
          "name": "",
          "type": "address"
        }
      ],
      "stateMutability": "view",
      "type": "function"
    },
    {
      "inputs": [
        {
          "internalType": "address",
          "name": "creator",
          "type": "address"
        }
      ],
      "name": "createdTokenOf",
      "outputs": [
        {
          "internalType": "uint256",
          "name": "",
          "type": "uint256"
        }
      ],
      "stateMutability": "view",
      "type": "function"
    },
    {
      "inputs": [
        {
          "internalType": "address",
          "name": "creator",
          "type": "address"
        },
        {
          "internalType": "uint256",
          "name": "index",
          "type": "uint256"
        }
      ],
      "name": "createdTokenOfCreatorByIndex",
      "outputs": [
        {
          "internalType": "uint256",
          "name": "",
          "type": "uint256"
        }
      ],
      "stateMutability": "view",
      "type": "function"
    },
    {
      "inputs": [
        {
          "internalType": "bytes4",
          "name": "interfaceId",
          "type": "bytes4"
        }
      ],
      "name": "supportsInterface",
      "outputs": [
        {
          "internalType": "bool",
          "name": "",
          "type": "bool"
        }
      ],
      "stateMutability": "view",
      "type": "function"
    }
  ],
  "bytecode": "0x608060405234801561001057600080fd5b50613b31806100206000396000f3fe608060405234801561001057600080fd5b50600436106101735760003560e01c8063589a1743116100de57806395d89b4111610097578063c87b56dd11610071578063c87b56dd1461046e578063d547cfb71461049e578063e985e9c5146104bc578063f2fde38b146104ec57610173565b806395d89b4114610418578063a22cb46514610436578063b88d4fde1461045257610173565b8063589a1743146103305780636352211e1461036057806370a0823114610390578063715018a6146103c0578063851c9d55146103ca5780638da5cb5b146103fa57610173565b806318160ddd1161013057806318160ddd1461025e57806323b872dd1461027c5780632f745c591461029857806342842e0e146102c857806342966c68146102e45780634f6ccce71461030057610173565b806301ffc9a71461017857806304e15919146101a857806306fdde03146101d8578063081812fc146101f6578063095ea7b31461022657806318054c3714610242575b600080fd5b610192600480360381019061018d91906129b5565b610508565b60405161019f9190612e30565b60405180910390f35b6101c260048036038101906101bd91906127f2565b61051a565b6040516101cf91906130cd565b60405180910390f35b6101e06105d1565b6040516101ed9190612e4b565b60405180910390f35b610210600480360381019061020b9190612a0f565b610663565b60405161021d9190612dc9565b60405180910390f35b610240600480360381019061023b9190612975565b6106e8565b005b61025c60048036038101906102579190612935565b610800565b005b61026661088a565b60405161027391906130cd565b60405180910390f35b6102966004803603810190610291919061285f565b610897565b005b6102b260048036038101906102ad9190612975565b6108f7565b6040516102bf91906130cd565b60405180910390f35b6102e260048036038101906102dd919061285f565b61099c565b005b6102fe60048036038101906102f99190612a0f565b6109bc565b005b61031a60048036038101906103159190612a0f565b610a18565b60405161032791906130cd565b60405180910390f35b61034a60048036038101906103459190612a0f565b610a89565b6040516103579190612dc9565b60405180910390f35b61037a60048036038101906103759190612a0f565b610ac7565b6040516103879190612dc9565b60405180910390f35b6103aa60048036038101906103a591906127f2565b610b79565b6040516103b791906130cd565b60405180910390f35b6103c8610c31565b005b6103e460048036038101906103df9190612975565b610cb9565b6040516103f191906130cd565b60405180910390f35b610402610dba565b60405161040f9190612dc9565b60405180910390f35b610420610de5565b60405161042d9190612e4b565b60405180910390f35b610450600480360381019061044b9190612935565b610e77565b005b61046c600480360381019061046791906128b2565b610ff8565b005b61048860048036038101906104839190612a0f565b61105a565b6040516104959190612e4b565b60405180910390f35b6104a661106c565b6040516104b39190612e4b565b60405180910390f35b6104d660048036038101906104d1919061281f565b6110fb565b6040516104e39190612e30565b60405180910390f35b610506600480360381019061050191906127f2565b611164565b005b60006105138261125c565b9050919050565b60008060009050600061052e61016061126e565b905060005b818110156105c6578473ffffffffffffffffffffffffffffffffffffffff16610162600083815260200190815260200160002060009054906101000a900473ffffffffffffffffffffffffffffffffffffffff1673ffffffffffffffffffffffffffffffffffffffff1614156105b3576001836105b09190613181565b92505b80806105be90613355565b915050610533565b508192505050919050565b6060606580546105e0906132f2565b80601f016020809104026020016040519081016040528092919081815260200182805461060c906132f2565b80156106595780601f1061062e57610100808354040283529160200191610659565b820191906000526020600020905b81548152906001019060200180831161063c57829003601f168201915b5050505050905090565b600061066e8261127c565b6106ad576040517f08c379a00000000000000000000000000000000000000000000000000000000081526004016106a490612fcd565b60405180910390fd5b6069600083815260200190815260200160002060009054906101000a900473ffffffffffffffffffffffffffffffffffffffff169050919050565b60006106f382610ac7565b90508073ffffffffffffffffffffffffffffffffffffffff168373ffffffffffffffffffffffffffffffffffffffff161415610764576040517f08c379a000000000000000000000000000000000000000000000000000000000815260040161075b9061304d565b60405180910390fd5b8073ffffffffffffffffffffffffffffffffffffffff166107836112e8565b73ffffffffffffffffffffffffffffffffffffffff1614806107b257506107b1816107ac6112e8565b6110fb565b5b6107f1576040517f08c379a00000000000000000000000000000000000000000000000000000000081526004016107e890612f4d565b60405180910390fd5b6107fb83836112f0565b505050565b6108086112e8565b73ffffffffffffffffffffffffffffffffffffffff16610826610dba565b73ffffffffffffffffffffffffffffffffffffffff161461087c576040517f08c379a000000000000000000000000000000000000000000000000000000000815260040161087390612fed565b60405180910390fd5b61088682826113a9565b5050565b6000609980549050905090565b6108a86108a26112e8565b82611453565b6108e7576040517f08c379a00000000000000000000000000000000000000000000000000000000081526004016108de9061306d565b60405180910390fd5b6108f28383836114bc565b505050565b600061090283610b79565b8210610943576040517f08c379a000000000000000000000000000000000000000000000000000000000815260040161093a90612e6d565b60405180910390fd5b609760008473ffffffffffffffffffffffffffffffffffffffff1673ffffffffffffffffffffffffffffffffffffffff168152602001908152602001600020600083815260200190815260200160002054905092915050565b6109b783838360405180602001604052806000815250610ff8565b505050565b6109cd6109c76112e8565b82611453565b610a0c576040517f08c379a0000000000000000000000000000000000000000000000000000000008152600401610a03906130ad565b60405180910390fd5b610a1581611718565b50565b6000610a2261088a565b8210610a63576040517f08c379a0000000000000000000000000000000000000000000000000000000008152600401610a5a9061308d565b60405180910390fd5b60998281548110610a7757610a7661348b565b5b90600052602060002001549050919050565b6000610162600083815260200190815260200160002060009054906101000a900473ffffffffffffffffffffffffffffffffffffffff169050919050565b6000806067600084815260200190815260200160002060009054906101000a900473ffffffffffffffffffffffffffffffffffffffff169050600073ffffffffffffffffffffffffffffffffffffffff168173ffffffffffffffffffffffffffffffffffffffff161415610b70576040517f08c379a0000000000000000000000000000000000000000000000000000000008152600401610b6790612f8d565b60405180910390fd5b80915050919050565b60008073ffffffffffffffffffffffffffffffffffffffff168273ffffffffffffffffffffffffffffffffffffffff161415610bea576040517f08c379a0000000000000000000000000000000000000000000000000000000008152600401610be190612f6d565b60405180910390fd5b606860008373ffffffffffffffffffffffffffffffffffffffff1673ffffffffffffffffffffffffffffffffffffffff168152602001908152602001600020549050919050565b610c396112e8565b73ffffffffffffffffffffffffffffffffffffffff16610c57610dba565b73ffffffffffffffffffffffffffffffffffffffff1614610cad576040517f08c379a0000000000000000000000000000000000000000000000000000000008152600401610ca490612fed565b60405180910390fd5b610cb76000611724565b565b600080600090506000610ccd61016061126e565b905060005b81811015610d78578573ffffffffffffffffffffffffffffffffffffffff16610162600083815260200190815260200160002060009054906101000a900473ffffffffffffffffffffffffffffffffffffffff1673ffffffffffffffffffffffffffffffffffffffff161415610d6557600183610d4f9190613181565b925084831415610d6457809350505050610db4565b5b8080610d7090613355565b915050610cd2565b506040517f08c379a0000000000000000000000000000000000000000000000000000000008152600401610dab90612ecd565b60405180910390fd5b92915050565b600061012e60009054906101000a900473ffffffffffffffffffffffffffffffffffffffff16905090565b606060668054610df4906132f2565b80601f0160208091040260200160405190810160405280929190818152602001828054610e20906132f2565b8015610e6d5780601f10610e4257610100808354040283529160200191610e6d565b820191906000526020600020905b815481529060010190602001808311610e5057829003601f168201915b5050505050905090565b610e7f6112e8565b73ffffffffffffffffffffffffffffffffffffffff168273ffffffffffffffffffffffffffffffffffffffff161415610eed576040517f08c379a0000000000000000000000000000000000000000000000000000000008152600401610ee490612f0d565b60405180910390fd5b80606a6000610efa6112e8565b73ffffffffffffffffffffffffffffffffffffffff1673ffffffffffffffffffffffffffffffffffffffff16815260200190815260200160002060008473ffffffffffffffffffffffffffffffffffffffff1673ffffffffffffffffffffffffffffffffffffffff16815260200190815260200160002060006101000a81548160ff0219169083151502179055508173ffffffffffffffffffffffffffffffffffffffff16610fa76112e8565b73ffffffffffffffffffffffffffffffffffffffff167f17307eab39ab6107e8899845ad3d59bd9653f200f220920489ca2b5937696c3183604051610fec9190612e30565b60405180910390a35050565b6110096110036112e8565b83611453565b611048576040517f08c379a000000000000000000000000000000000000000000000000000000000815260040161103f9061306d565b60405180910390fd5b611054848484846117ec565b50505050565b606061106582611848565b9050919050565b610161805461107a906132f2565b80601f01602080910402602001604051908101604052809291908181526020018280546110a6906132f2565b80156110f35780601f106110c8576101008083540402835291602001916110f3565b820191906000526020600020905b8154815290600101906020018083116110d657829003601f168201915b505050505081565b600061012d60008373ffffffffffffffffffffffffffffffffffffffff1673ffffffffffffffffffffffffffffffffffffffff16815260200190815260200160002060009054906101000a900460ff168061115c575061115b838361199a565b5b905092915050565b61116c6112e8565b73ffffffffffffffffffffffffffffffffffffffff1661118a610dba565b73ffffffffffffffffffffffffffffffffffffffff16146111e0576040517f08c379a00000000000000000000000000000000000000000000000000000000081526004016111d790612fed565b60405180910390fd5b600073ffffffffffffffffffffffffffffffffffffffff168173ffffffffffffffffffffffffffffffffffffffff161415611250576040517f08c379a000000000000000000000000000000000000000000000000000000000815260040161124790612ead565b60405180910390fd5b61125981611724565b50565b600061126782611a2e565b9050919050565b600081600001549050919050565b60008073ffffffffffffffffffffffffffffffffffffffff166067600084815260200190815260200160002060009054906101000a900473ffffffffffffffffffffffffffffffffffffffff1673ffffffffffffffffffffffffffffffffffffffff1614159050919050565b600033905090565b816069600083815260200190815260200160002060006101000a81548173ffffffffffffffffffffffffffffffffffffffff021916908373ffffffffffffffffffffffffffffffffffffffff160217905550808273ffffffffffffffffffffffffffffffffffffffff1661136383610ac7565b73ffffffffffffffffffffffffffffffffffffffff167f8c5be1e5ebec7d5bd14f71427d1e84f3dd0314c0f7b2291e5b200ac8c7c3b92560405160405180910390a45050565b8061012d60008473ffffffffffffffffffffffffffffffffffffffff1673ffffffffffffffffffffffffffffffffffffffff16815260200190815260200160002060006101000a81548160ff0219169083151502179055508173ffffffffffffffffffffffffffffffffffffffff167f270dbb8ba4292910ae92862466486be25c355c837270a3d8824b36a8bc7c653b826040516114479190612e30565b60405180910390a25050565b600061012d60008473ffffffffffffffffffffffffffffffffffffffff1673ffffffffffffffffffffffffffffffffffffffff16815260200190815260200160002060009054906101000a900460ff16806114b457506114b38383611a40565b5b905092915050565b8273ffffffffffffffffffffffffffffffffffffffff166114dc82610ac7565b73ffffffffffffffffffffffffffffffffffffffff1614611532576040517f08c379a00000000000000000000000000000000000000000000000000000000081526004016115299061300d565b60405180910390fd5b600073ffffffffffffffffffffffffffffffffffffffff168273ffffffffffffffffffffffffffffffffffffffff1614156115a2576040517f08c379a000000000000000000000000000000000000000000000000000000000815260040161159990612eed565b60405180910390fd5b6115ad838383611b1e565b6115b86000826112f0565b6001606860008573ffffffffffffffffffffffffffffffffffffffff1673ffffffffffffffffffffffffffffffffffffffff16815260200190815260200160002060008282546116089190613208565b925050819055506001606860008473ffffffffffffffffffffffffffffffffffffffff1673ffffffffffffffffffffffffffffffffffffffff168152602001908152602001600020600082825461165f9190613181565b92505081905550816067600083815260200190815260200160002060006101000a81548173ffffffffffffffffffffffffffffffffffffffff021916908373ffffffffffffffffffffffffffffffffffffffff160217905550808273ffffffffffffffffffffffffffffffffffffffff168473ffffffffffffffffffffffffffffffffffffffff167fddf252ad1be2c89b69c2b068fc378daa952ba7f163c4a11628f55a4df523b3ef60405160405180910390a4505050565b61172181611b2e565b50565b600061012e60009054906101000a900473ffffffffffffffffffffffffffffffffffffffff1690508161012e60006101000a81548173ffffffffffffffffffffffffffffffffffffffff021916908373ffffffffffffffffffffffffffffffffffffffff1602179055508173ffffffffffffffffffffffffffffffffffffffff168173ffffffffffffffffffffffffffffffffffffffff167f8be0079c531659141344cd1fd0a4f28419497f9722a3daafe3b4186f6b6457e060405160405180910390a35050565b6117f78484846114bc565b61180384848484611b81565b611842576040517f08c379a000000000000000000000000000000000000000000000000000000000815260040161183990612e8d565b60405180910390fd5b50505050565b60606118538261127c565b611892576040517f08c379a000000000000000000000000000000000000000000000000000000000815260040161188990612fad565b60405180910390fd5b600060c9600084815260200190815260200160002080546118b2906132f2565b80601f01602080910402602001604051908101604052809291908181526020018280546118de906132f2565b801561192b5780601f106119005761010080835404028352916020019161192b565b820191906000526020600020905b81548152906001019060200180831161190e57829003601f168201915b50505050509050600061193c611d18565b9050600081511415611952578192505050611995565b60008251111561198757808260405160200161196f929190612da5565b60405160208183030381529060405292505050611995565b61199084611dab565b925050505b919050565b6000606a60008473ffffffffffffffffffffffffffffffffffffffff1673ffffffffffffffffffffffffffffffffffffffff16815260200190815260200160002060008373ffffffffffffffffffffffffffffffffffffffff1673ffffffffffffffffffffffffffffffffffffffff16815260200190815260200160002060009054906101000a900460ff16905092915050565b6000611a3982611e52565b9050919050565b6000611a4b8261127c565b611a8a576040517f08c379a0000000000000000000000000000000000000000000000000000000008152600401611a8190612f2d565b60405180910390fd5b6000611a9583610ac7565b90508073ffffffffffffffffffffffffffffffffffffffff168473ffffffffffffffffffffffffffffffffffffffff161480611b0457508373ffffffffffffffffffffffffffffffffffffffff16611aec84610663565b73ffffffffffffffffffffffffffffffffffffffff16145b80611b155750611b1481856110fb565b5b91505092915050565b611b29838383611ecc565b505050565b611b3781611fe0565b600060c960008381526020019081526020016000208054611b57906132f2565b905014611b7e5760c960008281526020019081526020016000206000611b7d91906126bc565b5b50565b6000611ba28473ffffffffffffffffffffffffffffffffffffffff166120f1565b15611d0b578373ffffffffffffffffffffffffffffffffffffffff1663150b7a02611bcb6112e8565b8786866040518563ffffffff1660e01b8152600401611bed9493929190612de4565b602060405180830381600087803b158015611c0757600080fd5b505af1925050508015611c3857506040513d601f19601f82011682018060405250810190611c3591906129e2565b60015b611cbb573d8060008114611c68576040519150601f19603f3d011682016040523d82523d6000602084013e611c6d565b606091505b50600081511415611cb3576040517f08c379a0000000000000000000000000000000000000000000000000000000008152600401611caa90612e8d565b60405180910390fd5b805181602001fd5b63150b7a0260e01b7bffffffffffffffffffffffffffffffffffffffffffffffffffffffff1916817bffffffffffffffffffffffffffffffffffffffffffffffffffffffff191614915050611d10565b600190505b949350505050565b60606101618054611d28906132f2565b80601f0160208091040260200160405190810160405280929190818152602001828054611d54906132f2565b8015611da15780601f10611d7657610100808354040283529160200191611da1565b820191906000526020600020905b815481529060010190602001808311611d8457829003601f168201915b5050505050905090565b6060611db68261127c565b611df5576040517f08c379a0000000000000000000000000000000000000000000000000000000008152600401611dec9061302d565b60405180910390fd5b6000611dff611d18565b90506000815111611e1f5760405180602001604052806000815250611e4a565b80611e2984612104565b604051602001611e3a929190612da5565b6040516020818303038152906040525b915050919050565b60007f780e9d63000000000000000000000000000000000000000000000000000000007bffffffffffffffffffffffffffffffffffffffffffffffffffffffff1916827bffffffffffffffffffffffffffffffffffffffffffffffffffffffff19161480611ec55750611ec482612265565b5b9050919050565b611ed7838383612347565b600073ffffffffffffffffffffffffffffffffffffffff168373ffffffffffffffffffffffffffffffffffffffff161415611f1a57611f158161234c565b611f59565b8173ffffffffffffffffffffffffffffffffffffffff168373ffffffffffffffffffffffffffffffffffffffff1614611f5857611f578382612395565b5b5b600073ffffffffffffffffffffffffffffffffffffffff168273ffffffffffffffffffffffffffffffffffffffff161415611f9c57611f9781612502565b611fdb565b8273ffffffffffffffffffffffffffffffffffffffff168273ffffffffffffffffffffffffffffffffffffffff1614611fda57611fd982826125d3565b5b5b505050565b6000611feb82610ac7565b9050611ff981600084611b1e565b6120046000836112f0565b6001606860008373ffffffffffffffffffffffffffffffffffffffff1673ffffffffffffffffffffffffffffffffffffffff16815260200190815260200160002060008282546120549190613208565b925050819055506067600083815260200190815260200160002060006101000a81549073ffffffffffffffffffffffffffffffffffffffff021916905581600073ffffffffffffffffffffffffffffffffffffffff168273ffffffffffffffffffffffffffffffffffffffff167fddf252ad1be2c89b69c2b068fc378daa952ba7f163c4a11628f55a4df523b3ef60405160405180910390a45050565b600080823b905060008111915050919050565b6060600082141561214c576040518060400160405280600181526020017f30000000000000000000000000000000000000000000000000000000000000008152509050612260565b600082905060005b6000821461217e57808061216790613355565b915050600a8261217791906131d7565b9150612154565b60008167ffffffffffffffff81111561219a576121996134ba565b5b6040519080825280601f01601f1916602001820160405280156121cc5781602001600182028036833780820191505090505b5090505b60008514612259576001826121e59190613208565b9150600a856121f4919061339e565b60306122009190613181565b60f81b8183815181106122165761221561348b565b5b60200101907effffffffffffffffffffffffffffffffffffffffffffffffffffffffffffff1916908160001a905350600a8561225291906131d7565b94506121d0565b8093505050505b919050565b60007f80ac58cd000000000000000000000000000000000000000000000000000000007bffffffffffffffffffffffffffffffffffffffffffffffffffffffff1916827bffffffffffffffffffffffffffffffffffffffffffffffffffffffff1916148061233057507f5b5e139f000000000000000000000000000000000000000000000000000000007bffffffffffffffffffffffffffffffffffffffffffffffffffffffff1916827bffffffffffffffffffffffffffffffffffffffffffffffffffffffff1916145b80612340575061233f82612652565b5b9050919050565b505050565b609980549050609a600083815260200190815260200160002081905550609981908060018154018082558091505060019003906000526020600020016000909190919091505550565b600060016123a284610b79565b6123ac9190613208565b9050600060986000848152602001908152602001600020549050818114612491576000609760008673ffffffffffffffffffffffffffffffffffffffff1673ffffffffffffffffffffffffffffffffffffffff168152602001908152602001600020600084815260200190815260200160002054905080609760008773ffffffffffffffffffffffffffffffffffffffff1673ffffffffffffffffffffffffffffffffffffffff168152602001908152602001600020600084815260200190815260200160002081905550816098600083815260200190815260200160002081905550505b6098600084815260200190815260200160002060009055609760008573ffffffffffffffffffffffffffffffffffffffff1673ffffffffffffffffffffffffffffffffffffffff16815260200190815260200160002060008381526020019081526020016000206000905550505050565b600060016099805490506125169190613208565b90506000609a60008481526020019081526020016000205490506000609983815481106125465761254561348b565b5b9060005260206000200154905080609983815481106125685761256761348b565b5b906000526020600020018190555081609a600083815260200190815260200160002081905550609a60008581526020019081526020016000206000905560998054806125b7576125b661345c565b5b6001900381819060005260206000200160009055905550505050565b60006125de83610b79565b905081609760008573ffffffffffffffffffffffffffffffffffffffff1673ffffffffffffffffffffffffffffffffffffffff168152602001908152602001600020600083815260200190815260200160002081905550806098600084815260200190815260200160002081905550505050565b60007f01ffc9a7000000000000000000000000000000000000000000000000000000007bffffffffffffffffffffffffffffffffffffffffffffffffffffffff1916827bffffffffffffffffffffffffffffffffffffffffffffffffffffffff1916149050919050565b5080546126c8906132f2565b6000825580601f106126da57506126f9565b601f0160209004906000526020600020908101906126f891906126fc565b5b50565b5b808211156127155760008160009055506001016126fd565b5090565b600061272c6127278461310d565b6130e8565b905082815260208101848484011115612748576127476134ee565b5b6127538482856132b0565b509392505050565b60008135905061276a81613a9f565b92915050565b60008135905061277f81613ab6565b92915050565b60008135905061279481613acd565b92915050565b6000815190506127a981613acd565b92915050565b600082601f8301126127c4576127c36134e9565b5b81356127d4848260208601612719565b91505092915050565b6000813590506127ec81613ae4565b92915050565b600060208284031215612808576128076134f8565b5b60006128168482850161275b565b91505092915050565b60008060408385031215612836576128356134f8565b5b60006128448582860161275b565b92505060206128558582860161275b565b9150509250929050565b600080600060608486031215612878576128776134f8565b5b60006128868682870161275b565b93505060206128978682870161275b565b92505060406128a8868287016127dd565b9150509250925092565b600080600080608085870312156128cc576128cb6134f8565b5b60006128da8782880161275b565b94505060206128eb8782880161275b565b93505060406128fc878288016127dd565b925050606085013567ffffffffffffffff81111561291d5761291c6134f3565b5b612929878288016127af565b91505092959194509250565b6000806040838503121561294c5761294b6134f8565b5b600061295a8582860161275b565b925050602061296b85828601612770565b9150509250929050565b6000806040838503121561298c5761298b6134f8565b5b600061299a8582860161275b565b92505060206129ab858286016127dd565b9150509250929050565b6000602082840312156129cb576129ca6134f8565b5b60006129d984828501612785565b91505092915050565b6000602082840312156129f8576129f76134f8565b5b6000612a068482850161279a565b91505092915050565b600060208284031215612a2557612a246134f8565b5b6000612a33848285016127dd565b91505092915050565b612a458161323c565b82525050565b612a548161324e565b82525050565b6000612a658261313e565b612a6f8185613154565b9350612a7f8185602086016132bf565b612a88816134fd565b840191505092915050565b6000612a9e82613149565b612aa88185613165565b9350612ab88185602086016132bf565b612ac1816134fd565b840191505092915050565b6000612ad782613149565b612ae18185613176565b9350612af18185602086016132bf565b80840191505092915050565b6000612b0a602b83613165565b9150612b158261350e565b604082019050919050565b6000612b2d603283613165565b9150612b388261355d565b604082019050919050565b6000612b50602683613165565b9150612b5b826135ac565b604082019050919050565b6000612b73602e83613165565b9150612b7e826135fb565b604082019050919050565b6000612b96602483613165565b9150612ba18261364a565b604082019050919050565b6000612bb9601983613165565b9150612bc482613699565b602082019050919050565b6000612bdc602c83613165565b9150612be7826136c2565b604082019050919050565b6000612bff603883613165565b9150612c0a82613711565b604082019050919050565b6000612c22602a83613165565b9150612c2d82613760565b604082019050919050565b6000612c45602983613165565b9150612c50826137af565b604082019050919050565b6000612c68603183613165565b9150612c73826137fe565b604082019050919050565b6000612c8b602c83613165565b9150612c968261384d565b604082019050919050565b6000612cae602083613165565b9150612cb98261389c565b602082019050919050565b6000612cd1602983613165565b9150612cdc826138c5565b604082019050919050565b6000612cf4602f83613165565b9150612cff82613914565b604082019050919050565b6000612d17602183613165565b9150612d2282613963565b604082019050919050565b6000612d3a603183613165565b9150612d45826139b2565b604082019050919050565b6000612d5d602c83613165565b9150612d6882613a01565b604082019050919050565b6000612d80603083613165565b9150612d8b82613a50565b604082019050919050565b612d9f816132a6565b82525050565b6000612db18285612acc565b9150612dbd8284612acc565b91508190509392505050565b6000602082019050612dde6000830184612a3c565b92915050565b6000608082019050612df96000830187612a3c565b612e066020830186612a3c565b612e136040830185612d96565b8181036060830152612e258184612a5a565b905095945050505050565b6000602082019050612e456000830184612a4b565b92915050565b60006020820190508181036000830152612e658184612a93565b905092915050565b60006020820190508181036000830152612e8681612afd565b9050919050565b60006020820190508181036000830152612ea681612b20565b9050919050565b60006020820190508181036000830152612ec681612b43565b9050919050565b60006020820190508181036000830152612ee681612b66565b9050919050565b60006020820190508181036000830152612f0681612b89565b9050919050565b60006020820190508181036000830152612f2681612bac565b9050919050565b60006020820190508181036000830152612f4681612bcf565b9050919050565b60006020820190508181036000830152612f6681612bf2565b9050919050565b60006020820190508181036000830152612f8681612c15565b9050919050565b60006020820190508181036000830152612fa681612c38565b9050919050565b60006020820190508181036000830152612fc681612c5b565b9050919050565b60006020820190508181036000830152612fe681612c7e565b9050919050565b6000602082019050818103600083015261300681612ca1565b9050919050565b6000602082019050818103600083015261302681612cc4565b9050919050565b6000602082019050818103600083015261304681612ce7565b9050919050565b6000602082019050818103600083015261306681612d0a565b9050919050565b6000602082019050818103600083015261308681612d2d565b9050919050565b600060208201905081810360008301526130a681612d50565b9050919050565b600060208201905081810360008301526130c681612d73565b9050919050565b60006020820190506130e26000830184612d96565b92915050565b60006130f2613103565b90506130fe8282613324565b919050565b6000604051905090565b600067ffffffffffffffff821115613128576131276134ba565b5b613131826134fd565b9050602081019050919050565b600081519050919050565b600081519050919050565b600082825260208201905092915050565b600082825260208201905092915050565b600081905092915050565b600061318c826132a6565b9150613197836132a6565b9250827fffffffffffffffffffffffffffffffffffffffffffffffffffffffffffffffff038211156131cc576131cb6133cf565b5b828201905092915050565b60006131e2826132a6565b91506131ed836132a6565b9250826131fd576131fc6133fe565b5b828204905092915050565b6000613213826132a6565b915061321e836132a6565b925082821015613231576132306133cf565b5b828203905092915050565b600061324782613286565b9050919050565b60008115159050919050565b60007fffffffff0000000000000000000000000000000000000000000000000000000082169050919050565b600073ffffffffffffffffffffffffffffffffffffffff82169050919050565b6000819050919050565b82818337600083830152505050565b60005b838110156132dd5780820151818401526020810190506132c2565b838111156132ec576000848401525b50505050565b6000600282049050600182168061330a57607f821691505b6020821081141561331e5761331d61342d565b5b50919050565b61332d826134fd565b810181811067ffffffffffffffff8211171561334c5761334b6134ba565b5b80604052505050565b6000613360826132a6565b91507fffffffffffffffffffffffffffffffffffffffffffffffffffffffffffffffff821415613393576133926133cf565b5b600182019050919050565b60006133a9826132a6565b91506133b4836132a6565b9250826133c4576133c36133fe565b5b828206905092915050565b7f4e487b7100000000000000000000000000000000000000000000000000000000600052601160045260246000fd5b7f4e487b7100000000000000000000000000000000000000000000000000000000600052601260045260246000fd5b7f4e487b7100000000000000000000000000000000000000000000000000000000600052602260045260246000fd5b7f4e487b7100000000000000000000000000000000000000000000000000000000600052603160045260246000fd5b7f4e487b7100000000000000000000000000000000000000000000000000000000600052603260045260246000fd5b7f4e487b7100000000000000000000000000000000000000000000000000000000600052604160045260246000fd5b600080fd5b600080fd5b600080fd5b600080fd5b6000601f19601f8301169050919050565b7f455243373231456e756d657261626c653a206f776e657220696e646578206f7560008201527f74206f6620626f756e6473000000000000000000000000000000000000000000602082015250565b7f4552433732313a207472616e7366657220746f206e6f6e20455243373231526560008201527f63656976657220696d706c656d656e7465720000000000000000000000000000602082015250565b7f4f776e61626c653a206e6577206f776e657220697320746865207a65726f206160008201527f6464726573730000000000000000000000000000000000000000000000000000602082015250565b7f5468697320746f6b656e20646964206e6f74206265206372656174656420627960008201527f20746869732063726561746f722e000000000000000000000000000000000000602082015250565b7f4552433732313a207472616e7366657220746f20746865207a65726f2061646460008201527f7265737300000000000000000000000000000000000000000000000000000000602082015250565b7f4552433732313a20617070726f766520746f2063616c6c657200000000000000600082015250565b7f4552433732313a206f70657261746f7220717565727920666f72206e6f6e657860008201527f697374656e7420746f6b656e0000000000000000000000000000000000000000602082015250565b7f4552433732313a20617070726f76652063616c6c6572206973206e6f74206f7760008201527f6e6572206e6f7220617070726f76656420666f7220616c6c0000000000000000602082015250565b7f4552433732313a2062616c616e636520717565727920666f7220746865207a6560008201527f726f206164647265737300000000000000000000000000000000000000000000602082015250565b7f4552433732313a206f776e657220717565727920666f72206e6f6e657869737460008201527f656e7420746f6b656e0000000000000000000000000000000000000000000000602082015250565b7f45524337323155524953746f726167653a2055524920717565727920666f722060008201527f6e6f6e6578697374656e7420746f6b656e000000000000000000000000000000602082015250565b7f4552433732313a20617070726f76656420717565727920666f72206e6f6e657860008201527f697374656e7420746f6b656e0000000000000000000000000000000000000000602082015250565b7f4f776e61626c653a2063616c6c6572206973206e6f7420746865206f776e6572600082015250565b7f4552433732313a207472616e73666572206f6620746f6b656e2074686174206960008201527f73206e6f74206f776e0000000000000000000000000000000000000000000000602082015250565b7f4552433732314d657461646174613a2055524920717565727920666f72206e6f60008201527f6e6578697374656e7420746f6b656e0000000000000000000000000000000000602082015250565b7f4552433732313a20617070726f76616c20746f2063757272656e74206f776e6560008201527f7200000000000000000000000000000000000000000000000000000000000000602082015250565b7f4552433732313a207472616e736665722063616c6c6572206973206e6f74206f60008201527f776e6572206e6f7220617070726f766564000000000000000000000000000000602082015250565b7f455243373231456e756d657261626c653a20676c6f62616c20696e646578206f60008201527f7574206f6620626f756e64730000000000000000000000000000000000000000602082015250565b7f4552433732314275726e61626c653a2063616c6c6572206973206e6f74206f7760008201527f6e6572206e6f7220617070726f76656400000000000000000000000000000000602082015250565b613aa88161323c565b8114613ab357600080fd5b50565b613abf8161324e565b8114613aca57600080fd5b50565b613ad68161325a565b8114613ae157600080fd5b50565b613aed816132a6565b8114613af857600080fd5b5056fea264697066735822122088de58720d1bd24c8a84f159f597408fc74ed77bca5696da23e61ddb978c3c9e64736f6c63430008060033",
  "immutableReferences": {},
  "source": "// SPDX-License-Identifier: MIT\r\npragma solidity >=0.4.22 <0.9.0;\r\n\r\nimport \"@openzeppelin/contracts-upgradeable/access/OwnableUpgradeable.sol\";\r\nimport \"@openzeppelin/contracts-upgradeable/proxy/utils/Initializable.sol\";\r\nimport \"@openzeppelin/contracts-upgradeable/utils/CountersUpgradeable.sol\";\r\nimport \"./NFTDefaultApproval.sol\";\r\n\r\ncontract NFTBase is Initializable, NFTDefaultApproval, OwnableUpgradeable {\r\n    using CountersUpgradeable for CountersUpgradeable.Counter;\r\n    CountersUpgradeable.Counter internal _tokenIdCounter;\r\n\r\n    string public baseTokenURI;\r\n    mapping(uint256 => address) private creators;\r\n    event Creator(uint256 tokenId, address creator);\r\n\r\n    function _baseURI() internal view override returns (string memory) {\r\n        return baseTokenURI;\r\n    }\r\n\r\n    function setDefaultApproval(address operator, bool hasApproval) external onlyOwner{\r\n        _setDefaultApproval(operator, hasApproval);\r\n    }\r\n\r\n    function creatorOf(uint256 tokenId) public view returns (address){\r\n        return creators[tokenId];\r\n    }\r\n\r\n    function createdTokenOf(address creator) public view returns (uint256) {\r\n        uint256 count = 0;\r\n        uint256 totalItems = _tokenIdCounter.current();\r\n\r\n        for (uint256 i = 0; i < totalItems; i++) {\r\n            if (creators[i] == creator) {\r\n                count += 1;\r\n            }\r\n        }\r\n        return count;\r\n    }\r\n\r\n    function createdTokenOfCreatorByIndex(address creator, uint256 index) public view returns(uint256) {\r\n        uint256 count = 0;\r\n        uint256 totalItems = _tokenIdCounter.current();\r\n\r\n        for (uint256 i = 0; i < totalItems; i++) {\r\n            if (creators[i] == creator) {\r\n                count += 1;\r\n                if (count == index) {\r\n                    return i;\r\n                }\r\n            }\r\n        }\r\n        revert(\"This token did not be created by this creator.\");\r\n    }\r\n\r\n    function _saveCreator(uint256 tokenId, address creator) internal {\r\n        creators[tokenId] = creator;\r\n\r\n        emit Creator(tokenId, creator);\r\n    }\r\n\r\n    function supportsInterface(bytes4 interfaceId)\r\n        public\r\n        view\r\n        override\r\n        returns (bool)\r\n    {\r\n        return super.supportsInterface(interfaceId);\r\n    }\r\n}",
  "sourcePath": "E:\\LamViec\\fun-exchange\\contracts\\tokens\\NFTBase.sol",
  "compiler": {
    "name": "solc",
    "version": "0.8.6+commit.11564f7e.Emscripten.clang"
  },
  "schemaVersion": "3.3.4",
  "updatedAt": "2021-11-16T09:18:22.451Z",
  "devdoc": {
    "kind": "dev",
    "methods": {
      "approve(address,uint256)": {
        "details": "See {IERC721-approve}."
      },
      "balanceOf(address)": {
        "details": "See {IERC721-balanceOf}."
      },
      "burn(uint256)": {
        "details": "Burns `tokenId`. See {ERC721-_burn}. Requirements: - The caller must own `tokenId` or be an approved operator."
      },
      "getApproved(uint256)": {
        "details": "See {IERC721-getApproved}."
      },
      "isApprovedForAll(address,address)": {
        "details": "See {IERC721-isApprovedForAll}."
      },
      "name()": {
        "details": "See {IERC721Metadata-name}."
      },
      "owner()": {
        "details": "Returns the address of the current owner."
      },
      "ownerOf(uint256)": {
        "details": "See {IERC721-ownerOf}."
      },
      "renounceOwnership()": {
        "details": "Leaves the contract without owner. It will not be possible to call `onlyOwner` functions anymore. Can only be called by the current owner. NOTE: Renouncing ownership will leave the contract without an owner, thereby removing any functionality that is only available to the owner."
      },
      "safeTransferFrom(address,address,uint256)": {
        "details": "See {IERC721-safeTransferFrom}."
      },
      "safeTransferFrom(address,address,uint256,bytes)": {
        "details": "See {IERC721-safeTransferFrom}."
      },
      "setApprovalForAll(address,bool)": {
        "details": "See {IERC721-setApprovalForAll}."
      },
      "symbol()": {
        "details": "See {IERC721Metadata-symbol}."
      },
      "tokenByIndex(uint256)": {
        "details": "See {IERC721Enumerable-tokenByIndex}."
      },
      "tokenOfOwnerByIndex(address,uint256)": {
        "details": "See {IERC721Enumerable-tokenOfOwnerByIndex}."
      },
      "totalSupply()": {
        "details": "See {IERC721Enumerable-totalSupply}."
      },
      "transferFrom(address,address,uint256)": {
        "details": "See {IERC721-transferFrom}."
      },
      "transferOwnership(address)": {
        "details": "Transfers ownership of the contract to a new account (`newOwner`). Can only be called by the current owner."
      }
    },
    "version": 1
  },
  "userdoc": {
    "kind": "user",
    "methods": {},
    "version": 1
  }
}