{
  "contractName": "NFTDefaultApproval",
  "abi": [
    {
      "anonymous": false,
      "inputs": [
        {
          "indexed": true,
          "internalType": "address",
          "name": "owner",
          "type": "address"
        },
        {
          "indexed": true,
          "internalType": "address",
          "name": "approved",
          "type": "address"
        },
        {
          "indexed": true,
          "internalType": "uint256",
          "name": "tokenId",
          "type": "uint256"
        }
      ],
      "name": "Approval",
      "type": "event"
    },
    {
      "anonymous": false,
      "inputs": [
        {
          "indexed": true,
          "internalType": "address",
          "name": "owner",
          "type": "address"
        },
        {
          "indexed": true,
          "internalType": "address",
          "name": "operator",
          "type": "address"
        },
        {
          "indexed": false,
          "internalType": "bool",
          "name": "approved",
          "type": "bool"
        }
      ],
      "name": "ApprovalForAll",
      "type": "event"
    },
    {
      "anonymous": false,
      "inputs": [
        {
          "indexed": true,
          "internalType": "address",
          "name": "operator",
          "type": "address"
        },
        {
          "indexed": false,
          "internalType": "bool",
          "name": "hasApproval",
          "type": "bool"
        }
      ],
      "name": "DefaultApproval",
      "type": "event"
    },
    {
      "anonymous": false,
      "inputs": [
        {
          "indexed": true,
          "internalType": "address",
          "name": "from",
          "type": "address"
        },
        {
          "indexed": true,
          "internalType": "address",
          "name": "to",
          "type": "address"
        },
        {
          "indexed": true,
          "internalType": "uint256",
          "name": "tokenId",
          "type": "uint256"
        }
      ],
      "name": "Transfer",
      "type": "event"
    },
    {
      "inputs": [
        {
          "internalType": "address",
          "name": "to",
          "type": "address"
        },
        {
          "internalType": "uint256",
          "name": "tokenId",
          "type": "uint256"
        }
      ],
      "name": "approve",
      "outputs": [],
      "stateMutability": "nonpayable",
      "type": "function"
    },
    {
      "inputs": [
        {
          "internalType": "address",
          "name": "owner",
          "type": "address"
        }
      ],
      "name": "balanceOf",
      "outputs": [
        {
          "internalType": "uint256",
          "name": "",
          "type": "uint256"
        }
      ],
      "stateMutability": "view",
      "type": "function"
    },
    {
      "inputs": [
        {
          "internalType": "uint256",
          "name": "tokenId",
          "type": "uint256"
        }
      ],
      "name": "burn",
      "outputs": [],
      "stateMutability": "nonpayable",
      "type": "function"
    },
    {
      "inputs": [
        {
          "internalType": "uint256",
          "name": "tokenId",
          "type": "uint256"
        }
      ],
      "name": "getApproved",
      "outputs": [
        {
          "internalType": "address",
          "name": "",
          "type": "address"
        }
      ],
      "stateMutability": "view",
      "type": "function"
    },
    {
      "inputs": [],
      "name": "name",
      "outputs": [
        {
          "internalType": "string",
          "name": "",
          "type": "string"
        }
      ],
      "stateMutability": "view",
      "type": "function"
    },
    {
      "inputs": [
        {
          "internalType": "uint256",
          "name": "tokenId",
          "type": "uint256"
        }
      ],
      "name": "ownerOf",
      "outputs": [
        {
          "internalType": "address",
          "name": "",
          "type": "address"
        }
      ],
      "stateMutability": "view",
      "type": "function"
    },
    {
      "inputs": [
        {
          "internalType": "address",
          "name": "from",
          "type": "address"
        },
        {
          "internalType": "address",
          "name": "to",
          "type": "address"
        },
        {
          "internalType": "uint256",
          "name": "tokenId",
          "type": "uint256"
        }
      ],
      "name": "safeTransferFrom",
      "outputs": [],
      "stateMutability": "nonpayable",
      "type": "function"
    },
    {
      "inputs": [
        {
          "internalType": "address",
          "name": "from",
          "type": "address"
        },
        {
          "internalType": "address",
          "name": "to",
          "type": "address"
        },
        {
          "internalType": "uint256",
          "name": "tokenId",
          "type": "uint256"
        },
        {
          "internalType": "bytes",
          "name": "_data",
          "type": "bytes"
        }
      ],
      "name": "safeTransferFrom",
      "outputs": [],
      "stateMutability": "nonpayable",
      "type": "function"
    },
    {
      "inputs": [
        {
          "internalType": "address",
          "name": "operator",
          "type": "address"
        },
        {
          "internalType": "bool",
          "name": "approved",
          "type": "bool"
        }
      ],
      "name": "setApprovalForAll",
      "outputs": [],
      "stateMutability": "nonpayable",
      "type": "function"
    },
    {
      "inputs": [],
      "name": "symbol",
      "outputs": [
        {
          "internalType": "string",
          "name": "",
          "type": "string"
        }
      ],
      "stateMutability": "view",
      "type": "function"
    },
    {
      "inputs": [
        {
          "internalType": "uint256",
          "name": "index",
          "type": "uint256"
        }
      ],
      "name": "tokenByIndex",
      "outputs": [
        {
          "internalType": "uint256",
          "name": "",
          "type": "uint256"
        }
      ],
      "stateMutability": "view",
      "type": "function"
    },
    {
      "inputs": [
        {
          "internalType": "address",
          "name": "owner",
          "type": "address"
        },
        {
          "internalType": "uint256",
          "name": "index",
          "type": "uint256"
        }
      ],
      "name": "tokenOfOwnerByIndex",
      "outputs": [
        {
          "internalType": "uint256",
          "name": "",
          "type": "uint256"
        }
      ],
      "stateMutability": "view",
      "type": "function"
    },
    {
      "inputs": [
        {
          "internalType": "uint256",
          "name": "tokenId",
          "type": "uint256"
        }
      ],
      "name": "tokenURI",
      "outputs": [
        {
          "internalType": "string",
          "name": "",
          "type": "string"
        }
      ],
      "stateMutability": "view",
      "type": "function"
    },
    {
      "inputs": [],
      "name": "totalSupply",
      "outputs": [
        {
          "internalType": "uint256",
          "name": "",
          "type": "uint256"
        }
      ],
      "stateMutability": "view",
      "type": "function"
    },
    {
      "inputs": [
        {
          "internalType": "address",
          "name": "from",
          "type": "address"
        },
        {
          "internalType": "address",
          "name": "to",
          "type": "address"
        },
        {
          "internalType": "uint256",
          "name": "tokenId",
          "type": "uint256"
        }
      ],
      "name": "transferFrom",
      "outputs": [],
      "stateMutability": "nonpayable",
      "type": "function"
    },
    {
      "inputs": [
        {
          "internalType": "address",
          "name": "owner",
          "type": "address"
        },
        {
          "internalType": "address",
          "name": "operator",
          "type": "address"
        }
      ],
      "name": "isApprovedForAll",
      "outputs": [
        {
          "internalType": "bool",
          "name": "",
          "type": "bool"
        }
      ],
      "stateMutability": "view",
      "type": "function"
    },
    {
      "inputs": [
        {
          "internalType": "bytes4",
          "name": "interfaceId",
          "type": "bytes4"
        }
      ],
      "name": "supportsInterface",
      "outputs": [
        {
          "internalType": "bool",
          "name": "",
          "type": "bool"
        }
      ],
      "stateMutability": "view",
      "type": "function"
    }
  ],
  "bytecode": "0x608060405234801561001057600080fd5b50613163806100206000396000f3fe608060405234801561001057600080fd5b506004361061010b5760003560e01c806342966c68116100a257806395d89b411161007157806395d89b41146102dc578063a22cb465146102fa578063b88d4fde14610316578063c87b56dd14610332578063e985e9c5146103625761010b565b806342966c68146102305780634f6ccce71461024c5780636352211e1461027c57806370a08231146102ac5761010b565b806318160ddd116100de57806318160ddd146101aa57806323b872dd146101c85780632f745c59146101e457806342842e0e146102145761010b565b806301ffc9a71461011057806306fdde0314610140578063081812fc1461015e578063095ea7b31461018e575b600080fd5b61012a60048036038101906101259190612177565b610392565b6040516101379190612589565b60405180910390f35b6101486103a4565b60405161015591906125a4565b60405180910390f35b610178600480360381019061017391906121d1565b610436565b6040516101859190612522565b60405180910390f35b6101a860048036038101906101a39190612137565b6104bb565b005b6101b26105d3565b6040516101bf91906127c6565b60405180910390f35b6101e260048036038101906101dd9190612021565b6105e0565b005b6101fe60048036038101906101f99190612137565b610640565b60405161020b91906127c6565b60405180910390f35b61022e60048036038101906102299190612021565b6106e5565b005b61024a600480360381019061024591906121d1565b610705565b005b610266600480360381019061026191906121d1565b610761565b60405161027391906127c6565b60405180910390f35b610296600480360381019061029191906121d1565b6107d2565b6040516102a39190612522565b60405180910390f35b6102c660048036038101906102c19190611fb4565b610884565b6040516102d391906127c6565b60405180910390f35b6102e461093c565b6040516102f191906125a4565b60405180910390f35b610314600480360381019061030f91906120f7565b6109ce565b005b610330600480360381019061032b9190612074565b610b4f565b005b61034c600480360381019061034791906121d1565b610bb1565b60405161035991906125a4565b60405180910390f35b61037c60048036038101906103779190611fe1565b610bc3565b6040516103899190612589565b60405180910390f35b600061039d82610c2c565b9050919050565b6060606580546103b3906129eb565b80601f01602080910402602001604051908101604052809291908181526020018280546103df906129eb565b801561042c5780601f106104015761010080835404028352916020019161042c565b820191906000526020600020905b81548152906001019060200180831161040f57829003601f168201915b5050505050905090565b600061044182610c3e565b610480576040517f08c379a0000000000000000000000000000000000000000000000000000000008152600401610477906126e6565b60405180910390fd5b6069600083815260200190815260200160002060009054906101000a900473ffffffffffffffffffffffffffffffffffffffff169050919050565b60006104c6826107d2565b90508073ffffffffffffffffffffffffffffffffffffffff168373ffffffffffffffffffffffffffffffffffffffff161415610537576040517f08c379a000000000000000000000000000000000000000000000000000000000815260040161052e90612746565b60405180910390fd5b8073ffffffffffffffffffffffffffffffffffffffff16610556610caa565b73ffffffffffffffffffffffffffffffffffffffff16148061058557506105848161057f610caa565b610bc3565b5b6105c4576040517f08c379a00000000000000000000000000000000000000000000000000000000081526004016105bb90612666565b60405180910390fd5b6105ce8383610cb2565b505050565b6000609980549050905090565b6105f16105eb610caa565b82610d6b565b610630576040517f08c379a000000000000000000000000000000000000000000000000000000000815260040161062790612766565b60405180910390fd5b61063b838383610dd4565b505050565b600061064b83610884565b821061068c576040517f08c379a0000000000000000000000000000000000000000000000000000000008152600401610683906125c6565b60405180910390fd5b609760008473ffffffffffffffffffffffffffffffffffffffff1673ffffffffffffffffffffffffffffffffffffffff168152602001908152602001600020600083815260200190815260200160002054905092915050565b61070083838360405180602001604052806000815250610b4f565b505050565b610716610710610caa565b82610d6b565b610755576040517f08c379a000000000000000000000000000000000000000000000000000000000815260040161074c906127a6565b60405180910390fd5b61075e81611030565b50565b600061076b6105d3565b82106107ac576040517f08c379a00000000000000000000000000000000000000000000000000000000081526004016107a390612786565b60405180910390fd5b609982815481106107c0576107bf612b84565b5b90600052602060002001549050919050565b6000806067600084815260200190815260200160002060009054906101000a900473ffffffffffffffffffffffffffffffffffffffff169050600073ffffffffffffffffffffffffffffffffffffffff168173ffffffffffffffffffffffffffffffffffffffff16141561087b576040517f08c379a0000000000000000000000000000000000000000000000000000000008152600401610872906126a6565b60405180910390fd5b80915050919050565b60008073ffffffffffffffffffffffffffffffffffffffff168273ffffffffffffffffffffffffffffffffffffffff1614156108f5576040517f08c379a00000000000000000000000000000000000000000000000000000000081526004016108ec90612686565b60405180910390fd5b606860008373ffffffffffffffffffffffffffffffffffffffff1673ffffffffffffffffffffffffffffffffffffffff168152602001908152602001600020549050919050565b60606066805461094b906129eb565b80601f0160208091040260200160405190810160405280929190818152602001828054610977906129eb565b80156109c45780601f10610999576101008083540402835291602001916109c4565b820191906000526020600020905b8154815290600101906020018083116109a757829003601f168201915b5050505050905090565b6109d6610caa565b73ffffffffffffffffffffffffffffffffffffffff168273ffffffffffffffffffffffffffffffffffffffff161415610a44576040517f08c379a0000000000000000000000000000000000000000000000000000000008152600401610a3b90612626565b60405180910390fd5b80606a6000610a51610caa565b73ffffffffffffffffffffffffffffffffffffffff1673ffffffffffffffffffffffffffffffffffffffff16815260200190815260200160002060008473ffffffffffffffffffffffffffffffffffffffff1673ffffffffffffffffffffffffffffffffffffffff16815260200190815260200160002060006101000a81548160ff0219169083151502179055508173ffffffffffffffffffffffffffffffffffffffff16610afe610caa565b73ffffffffffffffffffffffffffffffffffffffff167f17307eab39ab6107e8899845ad3d59bd9653f200f220920489ca2b5937696c3183604051610b439190612589565b60405180910390a35050565b610b60610b5a610caa565b83610d6b565b610b9f576040517f08c379a0000000000000000000000000000000000000000000000000000000008152600401610b9690612766565b60405180910390fd5b610bab8484848461103c565b50505050565b6060610bbc82611098565b9050919050565b600061012d60008373ffffffffffffffffffffffffffffffffffffffff1673ffffffffffffffffffffffffffffffffffffffff16815260200190815260200160002060009054906101000a900460ff1680610c245750610c2383836111ea565b5b905092915050565b6000610c378261127e565b9050919050565b60008073ffffffffffffffffffffffffffffffffffffffff166067600084815260200190815260200160002060009054906101000a900473ffffffffffffffffffffffffffffffffffffffff1673ffffffffffffffffffffffffffffffffffffffff1614159050919050565b600033905090565b816069600083815260200190815260200160002060006101000a81548173ffffffffffffffffffffffffffffffffffffffff021916908373ffffffffffffffffffffffffffffffffffffffff160217905550808273ffffffffffffffffffffffffffffffffffffffff16610d25836107d2565b73ffffffffffffffffffffffffffffffffffffffff167f8c5be1e5ebec7d5bd14f71427d1e84f3dd0314c0f7b2291e5b200ac8c7c3b92560405160405180910390a45050565b600061012d60008473ffffffffffffffffffffffffffffffffffffffff1673ffffffffffffffffffffffffffffffffffffffff16815260200190815260200160002060009054906101000a900460ff1680610dcc5750610dcb83836112f8565b5b905092915050565b8273ffffffffffffffffffffffffffffffffffffffff16610df4826107d2565b73ffffffffffffffffffffffffffffffffffffffff1614610e4a576040517f08c379a0000000000000000000000000000000000000000000000000000000008152600401610e4190612706565b60405180910390fd5b600073ffffffffffffffffffffffffffffffffffffffff168273ffffffffffffffffffffffffffffffffffffffff161415610eba576040517f08c379a0000000000000000000000000000000000000000000000000000000008152600401610eb190612606565b60405180910390fd5b610ec58383836113d6565b610ed0600082610cb2565b6001606860008573ffffffffffffffffffffffffffffffffffffffff1673ffffffffffffffffffffffffffffffffffffffff1681526020019081526020016000206000828254610f209190612901565b925050819055506001606860008473ffffffffffffffffffffffffffffffffffffffff1673ffffffffffffffffffffffffffffffffffffffff1681526020019081526020016000206000828254610f77919061287a565b92505081905550816067600083815260200190815260200160002060006101000a81548173ffffffffffffffffffffffffffffffffffffffff021916908373ffffffffffffffffffffffffffffffffffffffff160217905550808273ffffffffffffffffffffffffffffffffffffffff168473ffffffffffffffffffffffffffffffffffffffff167fddf252ad1be2c89b69c2b068fc378daa952ba7f163c4a11628f55a4df523b3ef60405160405180910390a4505050565b611039816113e6565b50565b611047848484610dd4565b61105384848484611439565b611092576040517f08c379a0000000000000000000000000000000000000000000000000000000008152600401611089906125e6565b60405180910390fd5b50505050565b60606110a382610c3e565b6110e2576040517f08c379a00000000000000000000000000000000000000000000000000000000081526004016110d9906126c6565b60405180910390fd5b600060c960008481526020019081526020016000208054611102906129eb565b80601f016020809104026020016040519081016040528092919081815260200182805461112e906129eb565b801561117b5780601f106111505761010080835404028352916020019161117b565b820191906000526020600020905b81548152906001019060200180831161115e57829003601f168201915b50505050509050600061118c6115d0565b90506000815114156111a25781925050506111e5565b6000825111156111d75780826040516020016111bf9291906124fe565b604051602081830303815290604052925050506111e5565b6111e0846115e7565b925050505b919050565b6000606a60008473ffffffffffffffffffffffffffffffffffffffff1673ffffffffffffffffffffffffffffffffffffffff16815260200190815260200160002060008373ffffffffffffffffffffffffffffffffffffffff1673ffffffffffffffffffffffffffffffffffffffff16815260200190815260200160002060009054906101000a900460ff16905092915050565b60007f780e9d63000000000000000000000000000000000000000000000000000000007bffffffffffffffffffffffffffffffffffffffffffffffffffffffff1916827bffffffffffffffffffffffffffffffffffffffffffffffffffffffff191614806112f157506112f08261168e565b5b9050919050565b600061130382610c3e565b611342576040517f08c379a000000000000000000000000000000000000000000000000000000000815260040161133990612646565b60405180910390fd5b600061134d836107d2565b90508073ffffffffffffffffffffffffffffffffffffffff168473ffffffffffffffffffffffffffffffffffffffff1614806113bc57508373ffffffffffffffffffffffffffffffffffffffff166113a484610436565b73ffffffffffffffffffffffffffffffffffffffff16145b806113cd57506113cc8185610bc3565b5b91505092915050565b6113e1838383611770565b505050565b6113ef81611884565b600060c96000838152602001908152602001600020805461140f906129eb565b9050146114365760c9600082815260200190815260200160002060006114359190611e7e565b5b50565b600061145a8473ffffffffffffffffffffffffffffffffffffffff16611995565b156115c3578373ffffffffffffffffffffffffffffffffffffffff1663150b7a02611483610caa565b8786866040518563ffffffff1660e01b81526004016114a5949392919061253d565b602060405180830381600087803b1580156114bf57600080fd5b505af19250505080156114f057506040513d601f19601f820116820180604052508101906114ed91906121a4565b60015b611573573d8060008114611520576040519150601f19603f3d011682016040523d82523d6000602084013e611525565b606091505b5060008151141561156b576040517f08c379a0000000000000000000000000000000000000000000000000000000008152600401611562906125e6565b60405180910390fd5b805181602001fd5b63150b7a0260e01b7bffffffffffffffffffffffffffffffffffffffffffffffffffffffff1916817bffffffffffffffffffffffffffffffffffffffffffffffffffffffff1916149150506115c8565b600190505b949350505050565b606060405180602001604052806000815250905090565b60606115f282610c3e565b611631576040517f08c379a000000000000000000000000000000000000000000000000000000000815260040161162890612726565b60405180910390fd5b600061163b6115d0565b9050600081511161165b5760405180602001604052806000815250611686565b80611665846119a8565b6040516020016116769291906124fe565b6040516020818303038152906040525b915050919050565b60007f80ac58cd000000000000000000000000000000000000000000000000000000007bffffffffffffffffffffffffffffffffffffffffffffffffffffffff1916827bffffffffffffffffffffffffffffffffffffffffffffffffffffffff1916148061175957507f5b5e139f000000000000000000000000000000000000000000000000000000007bffffffffffffffffffffffffffffffffffffffffffffffffffffffff1916827bffffffffffffffffffffffffffffffffffffffffffffffffffffffff1916145b80611769575061176882611b09565b5b9050919050565b61177b838383611b73565b600073ffffffffffffffffffffffffffffffffffffffff168373ffffffffffffffffffffffffffffffffffffffff1614156117be576117b981611b78565b6117fd565b8173ffffffffffffffffffffffffffffffffffffffff168373ffffffffffffffffffffffffffffffffffffffff16146117fc576117fb8382611bc1565b5b5b600073ffffffffffffffffffffffffffffffffffffffff168273ffffffffffffffffffffffffffffffffffffffff1614156118405761183b81611d2e565b61187f565b8273ffffffffffffffffffffffffffffffffffffffff168273ffffffffffffffffffffffffffffffffffffffff161461187e5761187d8282611dff565b5b5b505050565b600061188f826107d2565b905061189d816000846113d6565b6118a8600083610cb2565b6001606860008373ffffffffffffffffffffffffffffffffffffffff1673ffffffffffffffffffffffffffffffffffffffff16815260200190815260200160002060008282546118f89190612901565b925050819055506067600083815260200190815260200160002060006101000a81549073ffffffffffffffffffffffffffffffffffffffff021916905581600073ffffffffffffffffffffffffffffffffffffffff168273ffffffffffffffffffffffffffffffffffffffff167fddf252ad1be2c89b69c2b068fc378daa952ba7f163c4a11628f55a4df523b3ef60405160405180910390a45050565b600080823b905060008111915050919050565b606060008214156119f0576040518060400160405280600181526020017f30000000000000000000000000000000000000000000000000000000000000008152509050611b04565b600082905060005b60008214611a22578080611a0b90612a4e565b915050600a82611a1b91906128d0565b91506119f8565b60008167ffffffffffffffff811115611a3e57611a3d612bb3565b5b6040519080825280601f01601f191660200182016040528015611a705781602001600182028036833780820191505090505b5090505b60008514611afd57600182611a899190612901565b9150600a85611a989190612a97565b6030611aa4919061287a565b60f81b818381518110611aba57611ab9612b84565b5b60200101907effffffffffffffffffffffffffffffffffffffffffffffffffffffffffffff1916908160001a905350600a85611af691906128d0565b9450611a74565b8093505050505b919050565b60007f01ffc9a7000000000000000000000000000000000000000000000000000000007bffffffffffffffffffffffffffffffffffffffffffffffffffffffff1916827bffffffffffffffffffffffffffffffffffffffffffffffffffffffff1916149050919050565b505050565b609980549050609a600083815260200190815260200160002081905550609981908060018154018082558091505060019003906000526020600020016000909190919091505550565b60006001611bce84610884565b611bd89190612901565b9050600060986000848152602001908152602001600020549050818114611cbd576000609760008673ffffffffffffffffffffffffffffffffffffffff1673ffffffffffffffffffffffffffffffffffffffff168152602001908152602001600020600084815260200190815260200160002054905080609760008773ffffffffffffffffffffffffffffffffffffffff1673ffffffffffffffffffffffffffffffffffffffff168152602001908152602001600020600084815260200190815260200160002081905550816098600083815260200190815260200160002081905550505b6098600084815260200190815260200160002060009055609760008573ffffffffffffffffffffffffffffffffffffffff1673ffffffffffffffffffffffffffffffffffffffff16815260200190815260200160002060008381526020019081526020016000206000905550505050565b60006001609980549050611d429190612901565b90506000609a6000848152602001908152602001600020549050600060998381548110611d7257611d71612b84565b5b906000526020600020015490508060998381548110611d9457611d93612b84565b5b906000526020600020018190555081609a600083815260200190815260200160002081905550609a6000858152602001908152602001600020600090556099805480611de357611de2612b55565b5b6001900381819060005260206000200160009055905550505050565b6000611e0a83610884565b905081609760008573ffffffffffffffffffffffffffffffffffffffff1673ffffffffffffffffffffffffffffffffffffffff168152602001908152602001600020600083815260200190815260200160002081905550806098600084815260200190815260200160002081905550505050565b508054611e8a906129eb565b6000825580601f10611e9c5750611ebb565b601f016020900490600052602060002090810190611eba9190611ebe565b5b50565b5b80821115611ed7576000816000905550600101611ebf565b5090565b6000611eee611ee984612806565b6127e1565b905082815260208101848484011115611f0a57611f09612be7565b5b611f158482856129a9565b509392505050565b600081359050611f2c816130d1565b92915050565b600081359050611f41816130e8565b92915050565b600081359050611f56816130ff565b92915050565b600081519050611f6b816130ff565b92915050565b600082601f830112611f8657611f85612be2565b5b8135611f96848260208601611edb565b91505092915050565b600081359050611fae81613116565b92915050565b600060208284031215611fca57611fc9612bf1565b5b6000611fd884828501611f1d565b91505092915050565b60008060408385031215611ff857611ff7612bf1565b5b600061200685828601611f1d565b925050602061201785828601611f1d565b9150509250929050565b60008060006060848603121561203a57612039612bf1565b5b600061204886828701611f1d565b935050602061205986828701611f1d565b925050604061206a86828701611f9f565b9150509250925092565b6000806000806080858703121561208e5761208d612bf1565b5b600061209c87828801611f1d565b94505060206120ad87828801611f1d565b93505060406120be87828801611f9f565b925050606085013567ffffffffffffffff8111156120df576120de612bec565b5b6120eb87828801611f71565b91505092959194509250565b6000806040838503121561210e5761210d612bf1565b5b600061211c85828601611f1d565b925050602061212d85828601611f32565b9150509250929050565b6000806040838503121561214e5761214d612bf1565b5b600061215c85828601611f1d565b925050602061216d85828601611f9f565b9150509250929050565b60006020828403121561218d5761218c612bf1565b5b600061219b84828501611f47565b91505092915050565b6000602082840312156121ba576121b9612bf1565b5b60006121c884828501611f5c565b91505092915050565b6000602082840312156121e7576121e6612bf1565b5b60006121f584828501611f9f565b91505092915050565b61220781612935565b82525050565b61221681612947565b82525050565b600061222782612837565b612231818561284d565b93506122418185602086016129b8565b61224a81612bf6565b840191505092915050565b600061226082612842565b61226a818561285e565b935061227a8185602086016129b8565b61228381612bf6565b840191505092915050565b600061229982612842565b6122a3818561286f565b93506122b38185602086016129b8565b80840191505092915050565b60006122cc602b8361285e565b91506122d782612c07565b604082019050919050565b60006122ef60328361285e565b91506122fa82612c56565b604082019050919050565b600061231260248361285e565b915061231d82612ca5565b604082019050919050565b600061233560198361285e565b915061234082612cf4565b602082019050919050565b6000612358602c8361285e565b915061236382612d1d565b604082019050919050565b600061237b60388361285e565b915061238682612d6c565b604082019050919050565b600061239e602a8361285e565b91506123a982612dbb565b604082019050919050565b60006123c160298361285e565b91506123cc82612e0a565b604082019050919050565b60006123e460318361285e565b91506123ef82612e59565b604082019050919050565b6000612407602c8361285e565b915061241282612ea8565b604082019050919050565b600061242a60298361285e565b915061243582612ef7565b604082019050919050565b600061244d602f8361285e565b915061245882612f46565b604082019050919050565b600061247060218361285e565b915061247b82612f95565b604082019050919050565b600061249360318361285e565b915061249e82612fe4565b604082019050919050565b60006124b6602c8361285e565b91506124c182613033565b604082019050919050565b60006124d960308361285e565b91506124e482613082565b604082019050919050565b6124f88161299f565b82525050565b600061250a828561228e565b9150612516828461228e565b91508190509392505050565b600060208201905061253760008301846121fe565b92915050565b600060808201905061255260008301876121fe565b61255f60208301866121fe565b61256c60408301856124ef565b818103606083015261257e818461221c565b905095945050505050565b600060208201905061259e600083018461220d565b92915050565b600060208201905081810360008301526125be8184612255565b905092915050565b600060208201905081810360008301526125df816122bf565b9050919050565b600060208201905081810360008301526125ff816122e2565b9050919050565b6000602082019050818103600083015261261f81612305565b9050919050565b6000602082019050818103600083015261263f81612328565b9050919050565b6000602082019050818103600083015261265f8161234b565b9050919050565b6000602082019050818103600083015261267f8161236e565b9050919050565b6000602082019050818103600083015261269f81612391565b9050919050565b600060208201905081810360008301526126bf816123b4565b9050919050565b600060208201905081810360008301526126df816123d7565b9050919050565b600060208201905081810360008301526126ff816123fa565b9050919050565b6000602082019050818103600083015261271f8161241d565b9050919050565b6000602082019050818103600083015261273f81612440565b9050919050565b6000602082019050818103600083015261275f81612463565b9050919050565b6000602082019050818103600083015261277f81612486565b9050919050565b6000602082019050818103600083015261279f816124a9565b9050919050565b600060208201905081810360008301526127bf816124cc565b9050919050565b60006020820190506127db60008301846124ef565b92915050565b60006127eb6127fc565b90506127f78282612a1d565b919050565b6000604051905090565b600067ffffffffffffffff82111561282157612820612bb3565b5b61282a82612bf6565b9050602081019050919050565b600081519050919050565b600081519050919050565b600082825260208201905092915050565b600082825260208201905092915050565b600081905092915050565b60006128858261299f565b91506128908361299f565b9250827fffffffffffffffffffffffffffffffffffffffffffffffffffffffffffffffff038211156128c5576128c4612ac8565b5b828201905092915050565b60006128db8261299f565b91506128e68361299f565b9250826128f6576128f5612af7565b5b828204905092915050565b600061290c8261299f565b91506129178361299f565b92508282101561292a57612929612ac8565b5b828203905092915050565b60006129408261297f565b9050919050565b60008115159050919050565b60007fffffffff0000000000000000000000000000000000000000000000000000000082169050919050565b600073ffffffffffffffffffffffffffffffffffffffff82169050919050565b6000819050919050565b82818337600083830152505050565b60005b838110156129d65780820151818401526020810190506129bb565b838111156129e5576000848401525b50505050565b60006002820490506001821680612a0357607f821691505b60208210811415612a1757612a16612b26565b5b50919050565b612a2682612bf6565b810181811067ffffffffffffffff82111715612a4557612a44612bb3565b5b80604052505050565b6000612a598261299f565b91507fffffffffffffffffffffffffffffffffffffffffffffffffffffffffffffffff821415612a8c57612a8b612ac8565b5b600182019050919050565b6000612aa28261299f565b9150612aad8361299f565b925082612abd57612abc612af7565b5b828206905092915050565b7f4e487b7100000000000000000000000000000000000000000000000000000000600052601160045260246000fd5b7f4e487b7100000000000000000000000000000000000000000000000000000000600052601260045260246000fd5b7f4e487b7100000000000000000000000000000000000000000000000000000000600052602260045260246000fd5b7f4e487b7100000000000000000000000000000000000000000000000000000000600052603160045260246000fd5b7f4e487b7100000000000000000000000000000000000000000000000000000000600052603260045260246000fd5b7f4e487b7100000000000000000000000000000000000000000000000000000000600052604160045260246000fd5b600080fd5b600080fd5b600080fd5b600080fd5b6000601f19601f8301169050919050565b7f455243373231456e756d657261626c653a206f776e657220696e646578206f7560008201527f74206f6620626f756e6473000000000000000000000000000000000000000000602082015250565b7f4552433732313a207472616e7366657220746f206e6f6e20455243373231526560008201527f63656976657220696d706c656d656e7465720000000000000000000000000000602082015250565b7f4552433732313a207472616e7366657220746f20746865207a65726f2061646460008201527f7265737300000000000000000000000000000000000000000000000000000000602082015250565b7f4552433732313a20617070726f766520746f2063616c6c657200000000000000600082015250565b7f4552433732313a206f70657261746f7220717565727920666f72206e6f6e657860008201527f697374656e7420746f6b656e0000000000000000000000000000000000000000602082015250565b7f4552433732313a20617070726f76652063616c6c6572206973206e6f74206f7760008201527f6e6572206e6f7220617070726f76656420666f7220616c6c0000000000000000602082015250565b7f4552433732313a2062616c616e636520717565727920666f7220746865207a6560008201527f726f206164647265737300000000000000000000000000000000000000000000602082015250565b7f4552433732313a206f776e657220717565727920666f72206e6f6e657869737460008201527f656e7420746f6b656e0000000000000000000000000000000000000000000000602082015250565b7f45524337323155524953746f726167653a2055524920717565727920666f722060008201527f6e6f6e6578697374656e7420746f6b656e000000000000000000000000000000602082015250565b7f4552433732313a20617070726f76656420717565727920666f72206e6f6e657860008201527f697374656e7420746f6b656e0000000000000000000000000000000000000000602082015250565b7f4552433732313a207472616e73666572206f6620746f6b656e2074686174206960008201527f73206e6f74206f776e0000000000000000000000000000000000000000000000602082015250565b7f4552433732314d657461646174613a2055524920717565727920666f72206e6f60008201527f6e6578697374656e7420746f6b656e0000000000000000000000000000000000602082015250565b7f4552433732313a20617070726f76616c20746f2063757272656e74206f776e6560008201527f7200000000000000000000000000000000000000000000000000000000000000602082015250565b7f4552433732313a207472616e736665722063616c6c6572206973206e6f74206f60008201527f776e6572206e6f7220617070726f766564000000000000000000000000000000602082015250565b7f455243373231456e756d657261626c653a20676c6f62616c20696e646578206f60008201527f7574206f6620626f756e64730000000000000000000000000000000000000000602082015250565b7f4552433732314275726e61626c653a2063616c6c6572206973206e6f74206f7760008201527f6e6572206e6f7220617070726f76656400000000000000000000000000000000602082015250565b6130da81612935565b81146130e557600080fd5b50565b6130f181612947565b81146130fc57600080fd5b50565b61310881612953565b811461311357600080fd5b50565b61311f8161299f565b811461312a57600080fd5b5056fea26469706673582212202e19003702a39c65cbbda2f19997ee44f57f63bc835f19c014587647bf17430764736f6c63430008060033",
  "immutableReferences": {},
  "source": "// SPDX-License-Identifier: MIT\r\npragma solidity >=0.4.22 <0.9.0;\r\n\r\nimport \"./NFTUpgradeable.sol\";\r\n\r\ncontract NFTDefaultApproval is NFTUpgradeable {\r\n    mapping(address => bool) private defaultApprovals;\r\n\r\n    event DefaultApproval(address indexed operator, bool hasApproval);\r\n    \r\n    // override approval function\r\n    function _setDefaultApproval(address operator, bool hasApproval) internal {\r\n        defaultApprovals[operator] = hasApproval;\r\n        emit DefaultApproval(operator, hasApproval);\r\n    }\r\n\r\n    function _isApprovedOrOwner(address spender, uint256 tokenId) internal virtual override view returns (bool) {\r\n        return defaultApprovals[spender] || super._isApprovedOrOwner(spender, tokenId);\r\n    }\r\n\r\n    function isApprovedForAll(address owner, address operator) public view virtual override returns (bool) {\r\n        return defaultApprovals[operator] || super.isApprovedForAll(owner, operator);\r\n    }\r\n\r\n    function supportsInterface(bytes4 interfaceId)\r\n        public\r\n        view\r\n        virtual\r\n        override\r\n        returns (bool)\r\n    {\r\n        return super.supportsInterface(interfaceId);\r\n    }\r\n}",
  "sourcePath": "E:\\LamViec\\fun-exchange\\contracts\\tokens\\NFTDefaultApproval.sol",
  "compiler": {
    "name": "solc",
    "version": "0.8.6+commit.11564f7e.Emscripten.clang"
  },
  "schemaVersion": "3.3.4",
  "updatedAt": "2021-11-16T09:18:22.496Z",
  "devdoc": {
    "kind": "dev",
    "methods": {
      "approve(address,uint256)": {
        "details": "See {IERC721-approve}."
      },
      "balanceOf(address)": {
        "details": "See {IERC721-balanceOf}."
      },
      "burn(uint256)": {
        "details": "Burns `tokenId`. See {ERC721-_burn}. Requirements: - The caller must own `tokenId` or be an approved operator."
      },
      "getApproved(uint256)": {
        "details": "See {IERC721-getApproved}."
      },
      "isApprovedForAll(address,address)": {
        "details": "See {IERC721-isApprovedForAll}."
      },
      "name()": {
        "details": "See {IERC721Metadata-name}."
      },
      "ownerOf(uint256)": {
        "details": "See {IERC721-ownerOf}."
      },
      "safeTransferFrom(address,address,uint256)": {
        "details": "See {IERC721-safeTransferFrom}."
      },
      "safeTransferFrom(address,address,uint256,bytes)": {
        "details": "See {IERC721-safeTransferFrom}."
      },
      "setApprovalForAll(address,bool)": {
        "details": "See {IERC721-setApprovalForAll}."
      },
      "symbol()": {
        "details": "See {IERC721Metadata-symbol}."
      },
      "tokenByIndex(uint256)": {
        "details": "See {IERC721Enumerable-tokenByIndex}."
      },
      "tokenOfOwnerByIndex(address,uint256)": {
        "details": "See {IERC721Enumerable-tokenOfOwnerByIndex}."
      },
      "totalSupply()": {
        "details": "See {IERC721Enumerable-totalSupply}."
      },
      "transferFrom(address,address,uint256)": {
        "details": "See {IERC721-transferFrom}."
      }
    },
    "version": 1
  },
  "userdoc": {
    "kind": "user",
    "methods": {},
    "version": 1
  }
}