{
  "contractName": "NFTUpgradeable",
  "abi": [
    {
      "anonymous": false,
      "inputs": [
        {
          "indexed": true,
          "internalType": "address",
          "name": "owner",
          "type": "address"
        },
        {
          "indexed": true,
          "internalType": "address",
          "name": "approved",
          "type": "address"
        },
        {
          "indexed": true,
          "internalType": "uint256",
          "name": "tokenId",
          "type": "uint256"
        }
      ],
      "name": "Approval",
      "type": "event"
    },
    {
      "anonymous": false,
      "inputs": [
        {
          "indexed": true,
          "internalType": "address",
          "name": "owner",
          "type": "address"
        },
        {
          "indexed": true,
          "internalType": "address",
          "name": "operator",
          "type": "address"
        },
        {
          "indexed": false,
          "internalType": "bool",
          "name": "approved",
          "type": "bool"
        }
      ],
      "name": "ApprovalForAll",
      "type": "event"
    },
    {
      "anonymous": false,
      "inputs": [
        {
          "indexed": true,
          "internalType": "address",
          "name": "from",
          "type": "address"
        },
        {
          "indexed": true,
          "internalType": "address",
          "name": "to",
          "type": "address"
        },
        {
          "indexed": true,
          "internalType": "uint256",
          "name": "tokenId",
          "type": "uint256"
        }
      ],
      "name": "Transfer",
      "type": "event"
    },
    {
      "inputs": [
        {
          "internalType": "address",
          "name": "to",
          "type": "address"
        },
        {
          "internalType": "uint256",
          "name": "tokenId",
          "type": "uint256"
        }
      ],
      "name": "approve",
      "outputs": [],
      "stateMutability": "nonpayable",
      "type": "function"
    },
    {
      "inputs": [
        {
          "internalType": "address",
          "name": "owner",
          "type": "address"
        }
      ],
      "name": "balanceOf",
      "outputs": [
        {
          "internalType": "uint256",
          "name": "",
          "type": "uint256"
        }
      ],
      "stateMutability": "view",
      "type": "function"
    },
    {
      "inputs": [
        {
          "internalType": "uint256",
          "name": "tokenId",
          "type": "uint256"
        }
      ],
      "name": "burn",
      "outputs": [],
      "stateMutability": "nonpayable",
      "type": "function"
    },
    {
      "inputs": [
        {
          "internalType": "uint256",
          "name": "tokenId",
          "type": "uint256"
        }
      ],
      "name": "getApproved",
      "outputs": [
        {
          "internalType": "address",
          "name": "",
          "type": "address"
        }
      ],
      "stateMutability": "view",
      "type": "function"
    },
    {
      "inputs": [
        {
          "internalType": "address",
          "name": "owner",
          "type": "address"
        },
        {
          "internalType": "address",
          "name": "operator",
          "type": "address"
        }
      ],
      "name": "isApprovedForAll",
      "outputs": [
        {
          "internalType": "bool",
          "name": "",
          "type": "bool"
        }
      ],
      "stateMutability": "view",
      "type": "function"
    },
    {
      "inputs": [],
      "name": "name",
      "outputs": [
        {
          "internalType": "string",
          "name": "",
          "type": "string"
        }
      ],
      "stateMutability": "view",
      "type": "function"
    },
    {
      "inputs": [
        {
          "internalType": "uint256",
          "name": "tokenId",
          "type": "uint256"
        }
      ],
      "name": "ownerOf",
      "outputs": [
        {
          "internalType": "address",
          "name": "",
          "type": "address"
        }
      ],
      "stateMutability": "view",
      "type": "function"
    },
    {
      "inputs": [
        {
          "internalType": "address",
          "name": "from",
          "type": "address"
        },
        {
          "internalType": "address",
          "name": "to",
          "type": "address"
        },
        {
          "internalType": "uint256",
          "name": "tokenId",
          "type": "uint256"
        }
      ],
      "name": "safeTransferFrom",
      "outputs": [],
      "stateMutability": "nonpayable",
      "type": "function"
    },
    {
      "inputs": [
        {
          "internalType": "address",
          "name": "from",
          "type": "address"
        },
        {
          "internalType": "address",
          "name": "to",
          "type": "address"
        },
        {
          "internalType": "uint256",
          "name": "tokenId",
          "type": "uint256"
        },
        {
          "internalType": "bytes",
          "name": "_data",
          "type": "bytes"
        }
      ],
      "name": "safeTransferFrom",
      "outputs": [],
      "stateMutability": "nonpayable",
      "type": "function"
    },
    {
      "inputs": [
        {
          "internalType": "address",
          "name": "operator",
          "type": "address"
        },
        {
          "internalType": "bool",
          "name": "approved",
          "type": "bool"
        }
      ],
      "name": "setApprovalForAll",
      "outputs": [],
      "stateMutability": "nonpayable",
      "type": "function"
    },
    {
      "inputs": [],
      "name": "symbol",
      "outputs": [
        {
          "internalType": "string",
          "name": "",
          "type": "string"
        }
      ],
      "stateMutability": "view",
      "type": "function"
    },
    {
      "inputs": [
        {
          "internalType": "uint256",
          "name": "index",
          "type": "uint256"
        }
      ],
      "name": "tokenByIndex",
      "outputs": [
        {
          "internalType": "uint256",
          "name": "",
          "type": "uint256"
        }
      ],
      "stateMutability": "view",
      "type": "function"
    },
    {
      "inputs": [
        {
          "internalType": "address",
          "name": "owner",
          "type": "address"
        },
        {
          "internalType": "uint256",
          "name": "index",
          "type": "uint256"
        }
      ],
      "name": "tokenOfOwnerByIndex",
      "outputs": [
        {
          "internalType": "uint256",
          "name": "",
          "type": "uint256"
        }
      ],
      "stateMutability": "view",
      "type": "function"
    },
    {
      "inputs": [],
      "name": "totalSupply",
      "outputs": [
        {
          "internalType": "uint256",
          "name": "",
          "type": "uint256"
        }
      ],
      "stateMutability": "view",
      "type": "function"
    },
    {
      "inputs": [
        {
          "internalType": "address",
          "name": "from",
          "type": "address"
        },
        {
          "internalType": "address",
          "name": "to",
          "type": "address"
        },
        {
          "internalType": "uint256",
          "name": "tokenId",
          "type": "uint256"
        }
      ],
      "name": "transferFrom",
      "outputs": [],
      "stateMutability": "nonpayable",
      "type": "function"
    },
    {
      "inputs": [
        {
          "internalType": "uint256",
          "name": "tokenId",
          "type": "uint256"
        }
      ],
      "name": "tokenURI",
      "outputs": [
        {
          "internalType": "string",
          "name": "",
          "type": "string"
        }
      ],
      "stateMutability": "view",
      "type": "function"
    },
    {
      "inputs": [
        {
          "internalType": "bytes4",
          "name": "interfaceId",
          "type": "bytes4"
        }
      ],
      "name": "supportsInterface",
      "outputs": [
        {
          "internalType": "bool",
          "name": "",
          "type": "bool"
        }
      ],
      "stateMutability": "view",
      "type": "function"
    }
  ],
  "bytecode": "0x608060405234801561001057600080fd5b5061307f806100206000396000f3fe608060405234801561001057600080fd5b506004361061010b5760003560e01c806342966c68116100a257806395d89b411161007157806395d89b41146102dc578063a22cb465146102fa578063b88d4fde14610316578063c87b56dd14610332578063e985e9c5146103625761010b565b806342966c68146102305780634f6ccce71461024c5780636352211e1461027c57806370a08231146102ac5761010b565b806318160ddd116100de57806318160ddd146101aa57806323b872dd146101c85780632f745c59146101e457806342842e0e146102145761010b565b806301ffc9a71461011057806306fdde0314610140578063081812fc1461015e578063095ea7b31461018e575b600080fd5b61012a60048036038101906101259190612093565b610392565b60405161013791906124a5565b60405180910390f35b6101486103a4565b60405161015591906124c0565b60405180910390f35b610178600480360381019061017391906120ed565b610436565b604051610185919061243e565b60405180910390f35b6101a860048036038101906101a39190612053565b6104bb565b005b6101b26105d3565b6040516101bf91906126e2565b60405180910390f35b6101e260048036038101906101dd9190611f3d565b6105e0565b005b6101fe60048036038101906101f99190612053565b610640565b60405161020b91906126e2565b60405180910390f35b61022e60048036038101906102299190611f3d565b6106e5565b005b61024a600480360381019061024591906120ed565b610705565b005b610266600480360381019061026191906120ed565b610761565b60405161027391906126e2565b60405180910390f35b610296600480360381019061029191906120ed565b6107d2565b6040516102a3919061243e565b60405180910390f35b6102c660048036038101906102c19190611ed0565b610884565b6040516102d391906126e2565b60405180910390f35b6102e461093c565b6040516102f191906124c0565b60405180910390f35b610314600480360381019061030f9190612013565b6109ce565b005b610330600480360381019061032b9190611f90565b610b4f565b005b61034c600480360381019061034791906120ed565b610bb1565b60405161035991906124c0565b60405180910390f35b61037c60048036038101906103779190611efd565b610bc3565b60405161038991906124a5565b60405180910390f35b600061039d82610c57565b9050919050565b6060606580546103b390612907565b80601f01602080910402602001604051908101604052809291908181526020018280546103df90612907565b801561042c5780601f106104015761010080835404028352916020019161042c565b820191906000526020600020905b81548152906001019060200180831161040f57829003601f168201915b5050505050905090565b600061044182610cd1565b610480576040517f08c379a000000000000000000000000000000000000000000000000000000000815260040161047790612602565b60405180910390fd5b6069600083815260200190815260200160002060009054906101000a900473ffffffffffffffffffffffffffffffffffffffff169050919050565b60006104c6826107d2565b90508073ffffffffffffffffffffffffffffffffffffffff168373ffffffffffffffffffffffffffffffffffffffff161415610537576040517f08c379a000000000000000000000000000000000000000000000000000000000815260040161052e90612662565b60405180910390fd5b8073ffffffffffffffffffffffffffffffffffffffff16610556610d3d565b73ffffffffffffffffffffffffffffffffffffffff16148061058557506105848161057f610d3d565b610bc3565b5b6105c4576040517f08c379a00000000000000000000000000000000000000000000000000000000081526004016105bb90612582565b60405180910390fd5b6105ce8383610d45565b505050565b6000609980549050905090565b6105f16105eb610d3d565b82610dfe565b610630576040517f08c379a000000000000000000000000000000000000000000000000000000000815260040161062790612682565b60405180910390fd5b61063b838383610edc565b505050565b600061064b83610884565b821061068c576040517f08c379a0000000000000000000000000000000000000000000000000000000008152600401610683906124e2565b60405180910390fd5b609760008473ffffffffffffffffffffffffffffffffffffffff1673ffffffffffffffffffffffffffffffffffffffff168152602001908152602001600020600083815260200190815260200160002054905092915050565b61070083838360405180602001604052806000815250610b4f565b505050565b610716610710610d3d565b82610dfe565b610755576040517f08c379a000000000000000000000000000000000000000000000000000000000815260040161074c906126c2565b60405180910390fd5b61075e81611138565b50565b600061076b6105d3565b82106107ac576040517f08c379a00000000000000000000000000000000000000000000000000000000081526004016107a3906126a2565b60405180910390fd5b609982815481106107c0576107bf612aa0565b5b90600052602060002001549050919050565b6000806067600084815260200190815260200160002060009054906101000a900473ffffffffffffffffffffffffffffffffffffffff169050600073ffffffffffffffffffffffffffffffffffffffff168173ffffffffffffffffffffffffffffffffffffffff16141561087b576040517f08c379a0000000000000000000000000000000000000000000000000000000008152600401610872906125c2565b60405180910390fd5b80915050919050565b60008073ffffffffffffffffffffffffffffffffffffffff168273ffffffffffffffffffffffffffffffffffffffff1614156108f5576040517f08c379a00000000000000000000000000000000000000000000000000000000081526004016108ec906125a2565b60405180910390fd5b606860008373ffffffffffffffffffffffffffffffffffffffff1673ffffffffffffffffffffffffffffffffffffffff168152602001908152602001600020549050919050565b60606066805461094b90612907565b80601f016020809104026020016040519081016040528092919081815260200182805461097790612907565b80156109c45780601f10610999576101008083540402835291602001916109c4565b820191906000526020600020905b8154815290600101906020018083116109a757829003601f168201915b5050505050905090565b6109d6610d3d565b73ffffffffffffffffffffffffffffffffffffffff168273ffffffffffffffffffffffffffffffffffffffff161415610a44576040517f08c379a0000000000000000000000000000000000000000000000000000000008152600401610a3b90612542565b60405180910390fd5b80606a6000610a51610d3d565b73ffffffffffffffffffffffffffffffffffffffff1673ffffffffffffffffffffffffffffffffffffffff16815260200190815260200160002060008473ffffffffffffffffffffffffffffffffffffffff1673ffffffffffffffffffffffffffffffffffffffff16815260200190815260200160002060006101000a81548160ff0219169083151502179055508173ffffffffffffffffffffffffffffffffffffffff16610afe610d3d565b73ffffffffffffffffffffffffffffffffffffffff167f17307eab39ab6107e8899845ad3d59bd9653f200f220920489ca2b5937696c3183604051610b4391906124a5565b60405180910390a35050565b610b60610b5a610d3d565b83610dfe565b610b9f576040517f08c379a0000000000000000000000000000000000000000000000000000000008152600401610b9690612682565b60405180910390fd5b610bab84848484611144565b50505050565b6060610bbc826111a0565b9050919050565b6000606a60008473ffffffffffffffffffffffffffffffffffffffff1673ffffffffffffffffffffffffffffffffffffffff16815260200190815260200160002060008373ffffffffffffffffffffffffffffffffffffffff1673ffffffffffffffffffffffffffffffffffffffff16815260200190815260200160002060009054906101000a900460ff16905092915050565b60007f780e9d63000000000000000000000000000000000000000000000000000000007bffffffffffffffffffffffffffffffffffffffffffffffffffffffff1916827bffffffffffffffffffffffffffffffffffffffffffffffffffffffff19161480610cca5750610cc9826112f2565b5b9050919050565b60008073ffffffffffffffffffffffffffffffffffffffff166067600084815260200190815260200160002060009054906101000a900473ffffffffffffffffffffffffffffffffffffffff1673ffffffffffffffffffffffffffffffffffffffff1614159050919050565b600033905090565b816069600083815260200190815260200160002060006101000a81548173ffffffffffffffffffffffffffffffffffffffff021916908373ffffffffffffffffffffffffffffffffffffffff160217905550808273ffffffffffffffffffffffffffffffffffffffff16610db8836107d2565b73ffffffffffffffffffffffffffffffffffffffff167f8c5be1e5ebec7d5bd14f71427d1e84f3dd0314c0f7b2291e5b200ac8c7c3b92560405160405180910390a45050565b6000610e0982610cd1565b610e48576040517f08c379a0000000000000000000000000000000000000000000000000000000008152600401610e3f90612562565b60405180910390fd5b6000610e53836107d2565b90508073ffffffffffffffffffffffffffffffffffffffff168473ffffffffffffffffffffffffffffffffffffffff161480610ec257508373ffffffffffffffffffffffffffffffffffffffff16610eaa84610436565b73ffffffffffffffffffffffffffffffffffffffff16145b80610ed35750610ed28185610bc3565b5b91505092915050565b8273ffffffffffffffffffffffffffffffffffffffff16610efc826107d2565b73ffffffffffffffffffffffffffffffffffffffff1614610f52576040517f08c379a0000000000000000000000000000000000000000000000000000000008152600401610f4990612622565b60405180910390fd5b600073ffffffffffffffffffffffffffffffffffffffff168273ffffffffffffffffffffffffffffffffffffffff161415610fc2576040517f08c379a0000000000000000000000000000000000000000000000000000000008152600401610fb990612522565b60405180910390fd5b610fcd8383836113d4565b610fd8600082610d45565b6001606860008573ffffffffffffffffffffffffffffffffffffffff1673ffffffffffffffffffffffffffffffffffffffff1681526020019081526020016000206000828254611028919061281d565b925050819055506001606860008473ffffffffffffffffffffffffffffffffffffffff1673ffffffffffffffffffffffffffffffffffffffff168152602001908152602001600020600082825461107f9190612796565b92505081905550816067600083815260200190815260200160002060006101000a81548173ffffffffffffffffffffffffffffffffffffffff021916908373ffffffffffffffffffffffffffffffffffffffff160217905550808273ffffffffffffffffffffffffffffffffffffffff168473ffffffffffffffffffffffffffffffffffffffff167fddf252ad1be2c89b69c2b068fc378daa952ba7f163c4a11628f55a4df523b3ef60405160405180910390a4505050565b611141816113e4565b50565b61114f848484610edc565b61115b84848484611437565b61119a576040517f08c379a000000000000000000000000000000000000000000000000000000000815260040161119190612502565b60405180910390fd5b50505050565b60606111ab82610cd1565b6111ea576040517f08c379a00000000000000000000000000000000000000000000000000000000081526004016111e1906125e2565b60405180910390fd5b600060c96000848152602001908152602001600020805461120a90612907565b80601f016020809104026020016040519081016040528092919081815260200182805461123690612907565b80156112835780601f1061125857610100808354040283529160200191611283565b820191906000526020600020905b81548152906001019060200180831161126657829003601f168201915b5050505050905060006112946115ce565b90506000815114156112aa5781925050506112ed565b6000825111156112df5780826040516020016112c792919061241a565b604051602081830303815290604052925050506112ed565b6112e8846115e5565b925050505b919050565b60007f80ac58cd000000000000000000000000000000000000000000000000000000007bffffffffffffffffffffffffffffffffffffffffffffffffffffffff1916827bffffffffffffffffffffffffffffffffffffffffffffffffffffffff191614806113bd57507f5b5e139f000000000000000000000000000000000000000000000000000000007bffffffffffffffffffffffffffffffffffffffffffffffffffffffff1916827bffffffffffffffffffffffffffffffffffffffffffffffffffffffff1916145b806113cd57506113cc8261168c565b5b9050919050565b6113df8383836116f6565b505050565b6113ed8161180a565b600060c96000838152602001908152602001600020805461140d90612907565b9050146114345760c9600082815260200190815260200160002060006114339190611d9a565b5b50565b60006114588473ffffffffffffffffffffffffffffffffffffffff1661191b565b156115c1578373ffffffffffffffffffffffffffffffffffffffff1663150b7a02611481610d3d565b8786866040518563ffffffff1660e01b81526004016114a39493929190612459565b602060405180830381600087803b1580156114bd57600080fd5b505af19250505080156114ee57506040513d601f19601f820116820180604052508101906114eb91906120c0565b60015b611571573d806000811461151e576040519150601f19603f3d011682016040523d82523d6000602084013e611523565b606091505b50600081511415611569576040517f08c379a000000000000000000000000000000000000000000000000000000000815260040161156090612502565b60405180910390fd5b805181602001fd5b63150b7a0260e01b7bffffffffffffffffffffffffffffffffffffffffffffffffffffffff1916817bffffffffffffffffffffffffffffffffffffffffffffffffffffffff1916149150506115c6565b600190505b949350505050565b606060405180602001604052806000815250905090565b60606115f082610cd1565b61162f576040517f08c379a000000000000000000000000000000000000000000000000000000000815260040161162690612642565b60405180910390fd5b60006116396115ce565b905060008151116116595760405180602001604052806000815250611684565b806116638461192e565b60405160200161167492919061241a565b6040516020818303038152906040525b915050919050565b60007f01ffc9a7000000000000000000000000000000000000000000000000000000007bffffffffffffffffffffffffffffffffffffffffffffffffffffffff1916827bffffffffffffffffffffffffffffffffffffffffffffffffffffffff1916149050919050565b611701838383611a8f565b600073ffffffffffffffffffffffffffffffffffffffff168373ffffffffffffffffffffffffffffffffffffffff1614156117445761173f81611a94565b611783565b8173ffffffffffffffffffffffffffffffffffffffff168373ffffffffffffffffffffffffffffffffffffffff1614611782576117818382611add565b5b5b600073ffffffffffffffffffffffffffffffffffffffff168273ffffffffffffffffffffffffffffffffffffffff1614156117c6576117c181611c4a565b611805565b8273ffffffffffffffffffffffffffffffffffffffff168273ffffffffffffffffffffffffffffffffffffffff1614611804576118038282611d1b565b5b5b505050565b6000611815826107d2565b9050611823816000846113d4565b61182e600083610d45565b6001606860008373ffffffffffffffffffffffffffffffffffffffff1673ffffffffffffffffffffffffffffffffffffffff168152602001908152602001600020600082825461187e919061281d565b925050819055506067600083815260200190815260200160002060006101000a81549073ffffffffffffffffffffffffffffffffffffffff021916905581600073ffffffffffffffffffffffffffffffffffffffff168273ffffffffffffffffffffffffffffffffffffffff167fddf252ad1be2c89b69c2b068fc378daa952ba7f163c4a11628f55a4df523b3ef60405160405180910390a45050565b600080823b905060008111915050919050565b60606000821415611976576040518060400160405280600181526020017f30000000000000000000000000000000000000000000000000000000000000008152509050611a8a565b600082905060005b600082146119a85780806119919061296a565b915050600a826119a191906127ec565b915061197e565b60008167ffffffffffffffff8111156119c4576119c3612acf565b5b6040519080825280601f01601f1916602001820160405280156119f65781602001600182028036833780820191505090505b5090505b60008514611a8357600182611a0f919061281d565b9150600a85611a1e91906129b3565b6030611a2a9190612796565b60f81b818381518110611a4057611a3f612aa0565b5b60200101907effffffffffffffffffffffffffffffffffffffffffffffffffffffffffffff1916908160001a905350600a85611a7c91906127ec565b94506119fa565b8093505050505b919050565b505050565b609980549050609a600083815260200190815260200160002081905550609981908060018154018082558091505060019003906000526020600020016000909190919091505550565b60006001611aea84610884565b611af4919061281d565b9050600060986000848152602001908152602001600020549050818114611bd9576000609760008673ffffffffffffffffffffffffffffffffffffffff1673ffffffffffffffffffffffffffffffffffffffff168152602001908152602001600020600084815260200190815260200160002054905080609760008773ffffffffffffffffffffffffffffffffffffffff1673ffffffffffffffffffffffffffffffffffffffff168152602001908152602001600020600084815260200190815260200160002081905550816098600083815260200190815260200160002081905550505b6098600084815260200190815260200160002060009055609760008573ffffffffffffffffffffffffffffffffffffffff1673ffffffffffffffffffffffffffffffffffffffff16815260200190815260200160002060008381526020019081526020016000206000905550505050565b60006001609980549050611c5e919061281d565b90506000609a6000848152602001908152602001600020549050600060998381548110611c8e57611c8d612aa0565b5b906000526020600020015490508060998381548110611cb057611caf612aa0565b5b906000526020600020018190555081609a600083815260200190815260200160002081905550609a6000858152602001908152602001600020600090556099805480611cff57611cfe612a71565b5b6001900381819060005260206000200160009055905550505050565b6000611d2683610884565b905081609760008573ffffffffffffffffffffffffffffffffffffffff1673ffffffffffffffffffffffffffffffffffffffff168152602001908152602001600020600083815260200190815260200160002081905550806098600084815260200190815260200160002081905550505050565b508054611da690612907565b6000825580601f10611db85750611dd7565b601f016020900490600052602060002090810190611dd69190611dda565b5b50565b5b80821115611df3576000816000905550600101611ddb565b5090565b6000611e0a611e0584612722565b6126fd565b905082815260208101848484011115611e2657611e25612b03565b5b611e318482856128c5565b509392505050565b600081359050611e4881612fed565b92915050565b600081359050611e5d81613004565b92915050565b600081359050611e728161301b565b92915050565b600081519050611e878161301b565b92915050565b600082601f830112611ea257611ea1612afe565b5b8135611eb2848260208601611df7565b91505092915050565b600081359050611eca81613032565b92915050565b600060208284031215611ee657611ee5612b0d565b5b6000611ef484828501611e39565b91505092915050565b60008060408385031215611f1457611f13612b0d565b5b6000611f2285828601611e39565b9250506020611f3385828601611e39565b9150509250929050565b600080600060608486031215611f5657611f55612b0d565b5b6000611f6486828701611e39565b9350506020611f7586828701611e39565b9250506040611f8686828701611ebb565b9150509250925092565b60008060008060808587031215611faa57611fa9612b0d565b5b6000611fb887828801611e39565b9450506020611fc987828801611e39565b9350506040611fda87828801611ebb565b925050606085013567ffffffffffffffff811115611ffb57611ffa612b08565b5b61200787828801611e8d565b91505092959194509250565b6000806040838503121561202a57612029612b0d565b5b600061203885828601611e39565b925050602061204985828601611e4e565b9150509250929050565b6000806040838503121561206a57612069612b0d565b5b600061207885828601611e39565b925050602061208985828601611ebb565b9150509250929050565b6000602082840312156120a9576120a8612b0d565b5b60006120b784828501611e63565b91505092915050565b6000602082840312156120d6576120d5612b0d565b5b60006120e484828501611e78565b91505092915050565b60006020828403121561210357612102612b0d565b5b600061211184828501611ebb565b91505092915050565b61212381612851565b82525050565b61213281612863565b82525050565b600061214382612753565b61214d8185612769565b935061215d8185602086016128d4565b61216681612b12565b840191505092915050565b600061217c8261275e565b612186818561277a565b93506121968185602086016128d4565b61219f81612b12565b840191505092915050565b60006121b58261275e565b6121bf818561278b565b93506121cf8185602086016128d4565b80840191505092915050565b60006121e8602b8361277a565b91506121f382612b23565b604082019050919050565b600061220b60328361277a565b915061221682612b72565b604082019050919050565b600061222e60248361277a565b915061223982612bc1565b604082019050919050565b600061225160198361277a565b915061225c82612c10565b602082019050919050565b6000612274602c8361277a565b915061227f82612c39565b604082019050919050565b600061229760388361277a565b91506122a282612c88565b604082019050919050565b60006122ba602a8361277a565b91506122c582612cd7565b604082019050919050565b60006122dd60298361277a565b91506122e882612d26565b604082019050919050565b600061230060318361277a565b915061230b82612d75565b604082019050919050565b6000612323602c8361277a565b915061232e82612dc4565b604082019050919050565b600061234660298361277a565b915061235182612e13565b604082019050919050565b6000612369602f8361277a565b915061237482612e62565b604082019050919050565b600061238c60218361277a565b915061239782612eb1565b604082019050919050565b60006123af60318361277a565b91506123ba82612f00565b604082019050919050565b60006123d2602c8361277a565b91506123dd82612f4f565b604082019050919050565b60006123f560308361277a565b915061240082612f9e565b604082019050919050565b612414816128bb565b82525050565b600061242682856121aa565b915061243282846121aa565b91508190509392505050565b6000602082019050612453600083018461211a565b92915050565b600060808201905061246e600083018761211a565b61247b602083018661211a565b612488604083018561240b565b818103606083015261249a8184612138565b905095945050505050565b60006020820190506124ba6000830184612129565b92915050565b600060208201905081810360008301526124da8184612171565b905092915050565b600060208201905081810360008301526124fb816121db565b9050919050565b6000602082019050818103600083015261251b816121fe565b9050919050565b6000602082019050818103600083015261253b81612221565b9050919050565b6000602082019050818103600083015261255b81612244565b9050919050565b6000602082019050818103600083015261257b81612267565b9050919050565b6000602082019050818103600083015261259b8161228a565b9050919050565b600060208201905081810360008301526125bb816122ad565b9050919050565b600060208201905081810360008301526125db816122d0565b9050919050565b600060208201905081810360008301526125fb816122f3565b9050919050565b6000602082019050818103600083015261261b81612316565b9050919050565b6000602082019050818103600083015261263b81612339565b9050919050565b6000602082019050818103600083015261265b8161235c565b9050919050565b6000602082019050818103600083015261267b8161237f565b9050919050565b6000602082019050818103600083015261269b816123a2565b9050919050565b600060208201905081810360008301526126bb816123c5565b9050919050565b600060208201905081810360008301526126db816123e8565b9050919050565b60006020820190506126f7600083018461240b565b92915050565b6000612707612718565b90506127138282612939565b919050565b6000604051905090565b600067ffffffffffffffff82111561273d5761273c612acf565b5b61274682612b12565b9050602081019050919050565b600081519050919050565b600081519050919050565b600082825260208201905092915050565b600082825260208201905092915050565b600081905092915050565b60006127a1826128bb565b91506127ac836128bb565b9250827fffffffffffffffffffffffffffffffffffffffffffffffffffffffffffffffff038211156127e1576127e06129e4565b5b828201905092915050565b60006127f7826128bb565b9150612802836128bb565b92508261281257612811612a13565b5b828204905092915050565b6000612828826128bb565b9150612833836128bb565b925082821015612846576128456129e4565b5b828203905092915050565b600061285c8261289b565b9050919050565b60008115159050919050565b60007fffffffff0000000000000000000000000000000000000000000000000000000082169050919050565b600073ffffffffffffffffffffffffffffffffffffffff82169050919050565b6000819050919050565b82818337600083830152505050565b60005b838110156128f25780820151818401526020810190506128d7565b83811115612901576000848401525b50505050565b6000600282049050600182168061291f57607f821691505b6020821081141561293357612932612a42565b5b50919050565b61294282612b12565b810181811067ffffffffffffffff8211171561296157612960612acf565b5b80604052505050565b6000612975826128bb565b91507fffffffffffffffffffffffffffffffffffffffffffffffffffffffffffffffff8214156129a8576129a76129e4565b5b600182019050919050565b60006129be826128bb565b91506129c9836128bb565b9250826129d9576129d8612a13565b5b828206905092915050565b7f4e487b7100000000000000000000000000000000000000000000000000000000600052601160045260246000fd5b7f4e487b7100000000000000000000000000000000000000000000000000000000600052601260045260246000fd5b7f4e487b7100000000000000000000000000000000000000000000000000000000600052602260045260246000fd5b7f4e487b7100000000000000000000000000000000000000000000000000000000600052603160045260246000fd5b7f4e487b7100000000000000000000000000000000000000000000000000000000600052603260045260246000fd5b7f4e487b7100000000000000000000000000000000000000000000000000000000600052604160045260246000fd5b600080fd5b600080fd5b600080fd5b600080fd5b6000601f19601f8301169050919050565b7f455243373231456e756d657261626c653a206f776e657220696e646578206f7560008201527f74206f6620626f756e6473000000000000000000000000000000000000000000602082015250565b7f4552433732313a207472616e7366657220746f206e6f6e20455243373231526560008201527f63656976657220696d706c656d656e7465720000000000000000000000000000602082015250565b7f4552433732313a207472616e7366657220746f20746865207a65726f2061646460008201527f7265737300000000000000000000000000000000000000000000000000000000602082015250565b7f4552433732313a20617070726f766520746f2063616c6c657200000000000000600082015250565b7f4552433732313a206f70657261746f7220717565727920666f72206e6f6e657860008201527f697374656e7420746f6b656e0000000000000000000000000000000000000000602082015250565b7f4552433732313a20617070726f76652063616c6c6572206973206e6f74206f7760008201527f6e6572206e6f7220617070726f76656420666f7220616c6c0000000000000000602082015250565b7f4552433732313a2062616c616e636520717565727920666f7220746865207a6560008201527f726f206164647265737300000000000000000000000000000000000000000000602082015250565b7f4552433732313a206f776e657220717565727920666f72206e6f6e657869737460008201527f656e7420746f6b656e0000000000000000000000000000000000000000000000602082015250565b7f45524337323155524953746f726167653a2055524920717565727920666f722060008201527f6e6f6e6578697374656e7420746f6b656e000000000000000000000000000000602082015250565b7f4552433732313a20617070726f76656420717565727920666f72206e6f6e657860008201527f697374656e7420746f6b656e0000000000000000000000000000000000000000602082015250565b7f4552433732313a207472616e73666572206f6620746f6b656e2074686174206960008201527f73206e6f74206f776e0000000000000000000000000000000000000000000000602082015250565b7f4552433732314d657461646174613a2055524920717565727920666f72206e6f60008201527f6e6578697374656e7420746f6b656e0000000000000000000000000000000000602082015250565b7f4552433732313a20617070726f76616c20746f2063757272656e74206f776e6560008201527f7200000000000000000000000000000000000000000000000000000000000000602082015250565b7f4552433732313a207472616e736665722063616c6c6572206973206e6f74206f60008201527f776e6572206e6f7220617070726f766564000000000000000000000000000000602082015250565b7f455243373231456e756d657261626c653a20676c6f62616c20696e646578206f60008201527f7574206f6620626f756e64730000000000000000000000000000000000000000602082015250565b7f4552433732314275726e61626c653a2063616c6c6572206973206e6f74206f7760008201527f6e6572206e6f7220617070726f76656400000000000000000000000000000000602082015250565b612ff681612851565b811461300157600080fd5b50565b61300d81612863565b811461301857600080fd5b50565b6130248161286f565b811461302f57600080fd5b50565b61303b816128bb565b811461304657600080fd5b5056fea26469706673582212204a2cf7ae73d096e91079daeeabf0fa3a9ca94a91b524016bab1178247a3d76c464736f6c63430008060033",
  "immutableReferences": {},
  "source": "// SPDX-License-Identifier: MIT\r\npragma solidity >=0.4.22 <0.9.0;\r\n\r\nimport \"@openzeppelin/contracts-upgradeable/token/ERC721/ERC721Upgradeable.sol\";\r\nimport \"@openzeppelin/contracts-upgradeable/token/ERC721/extensions/ERC721EnumerableUpgradeable.sol\";\r\nimport \"@openzeppelin/contracts-upgradeable/token/ERC721/extensions/ERC721URIStorageUpgradeable.sol\";\r\nimport \"@openzeppelin/contracts-upgradeable/token/ERC721/extensions/ERC721BurnableUpgradeable.sol\";\r\n\r\ncontract NFTUpgradeable is ERC721Upgradeable, ERC721EnumerableUpgradeable, ERC721URIStorageUpgradeable, ERC721BurnableUpgradeable {\r\n    // The following functions are overrides required by Solidity.\r\n\r\n    function _beforeTokenTransfer(address from, address to, uint256 tokenId)\r\n        internal\r\n        override(ERC721Upgradeable, ERC721EnumerableUpgradeable)\r\n    {\r\n        super._beforeTokenTransfer(from, to, tokenId);\r\n    }\r\n\r\n    function _burn(uint256 tokenId)\r\n        internal\r\n        override(ERC721Upgradeable, ERC721URIStorageUpgradeable)\r\n    {\r\n        super._burn(tokenId);\r\n    }\r\n\r\n    function tokenURI(uint256 tokenId)\r\n        public\r\n        view\r\n        override(ERC721Upgradeable, ERC721URIStorageUpgradeable)\r\n        returns (string memory)\r\n    {\r\n        return super.tokenURI(tokenId);\r\n    }\r\n\r\n    function supportsInterface(bytes4 interfaceId)\r\n        public\r\n        view\r\n        virtual\r\n        override(ERC721Upgradeable, ERC721EnumerableUpgradeable)\r\n        returns (bool)\r\n    {\r\n        return super.supportsInterface(interfaceId);\r\n    }\r\n}",
  "sourcePath": "E:/LamViec/fun-exchange/contracts/tokens/NFTUpgradeable.sol",
  "compiler": {
    "name": "solc",
    "version": "0.8.6+commit.11564f7e.Emscripten.clang"
  },
  "schemaVersion": "3.3.4",
  "updatedAt": "2021-12-05T04:36:49.196Z",
  "devdoc": {
    "kind": "dev",
    "methods": {
      "approve(address,uint256)": {
        "details": "See {IERC721-approve}."
      },
      "balanceOf(address)": {
        "details": "See {IERC721-balanceOf}."
      },
      "burn(uint256)": {
        "details": "Burns `tokenId`. See {ERC721-_burn}. Requirements: - The caller must own `tokenId` or be an approved operator."
      },
      "getApproved(uint256)": {
        "details": "See {IERC721-getApproved}."
      },
      "isApprovedForAll(address,address)": {
        "details": "See {IERC721-isApprovedForAll}."
      },
      "name()": {
        "details": "See {IERC721Metadata-name}."
      },
      "ownerOf(uint256)": {
        "details": "See {IERC721-ownerOf}."
      },
      "safeTransferFrom(address,address,uint256)": {
        "details": "See {IERC721-safeTransferFrom}."
      },
      "safeTransferFrom(address,address,uint256,bytes)": {
        "details": "See {IERC721-safeTransferFrom}."
      },
      "setApprovalForAll(address,bool)": {
        "details": "See {IERC721-setApprovalForAll}."
      },
      "symbol()": {
        "details": "See {IERC721Metadata-symbol}."
      },
      "tokenByIndex(uint256)": {
        "details": "See {IERC721Enumerable-tokenByIndex}."
      },
      "tokenOfOwnerByIndex(address,uint256)": {
        "details": "See {IERC721Enumerable-tokenOfOwnerByIndex}."
      },
      "totalSupply()": {
        "details": "See {IERC721Enumerable-totalSupply}."
      },
      "transferFrom(address,address,uint256)": {
        "details": "See {IERC721-transferFrom}."
      }
    },
    "version": 1
  },
  "userdoc": {
    "kind": "user",
    "methods": {},
    "version": 1
  }
}