{
  "contractName": "TokenFactory",
  "abi": [
    {
      "inputs": [
        {
          "internalType": "address",
          "name": "exchange",
          "type": "address"
        },
        {
          "internalType": "address",
          "name": "_implementationToken",
          "type": "address"
        }
      ],
      "stateMutability": "nonpayable",
      "type": "constructor"
    },
    {
      "anonymous": false,
      "inputs": [
        {
          "indexed": false,
          "internalType": "string",
          "name": "name",
          "type": "string"
        },
        {
          "indexed": false,
          "internalType": "string",
          "name": "symbol",
          "type": "string"
        },
        {
          "indexed": false,
          "internalType": "string",
          "name": "uri",
          "type": "string"
        },
        {
          "indexed": false,
          "internalType": "address",
          "name": "collectionAddress",
          "type": "address"
        }
      ],
      "name": "NewCollection",
      "type": "event"
    },
    {
      "inputs": [
        {
          "internalType": "string",
          "name": "_name",
          "type": "string"
        },
        {
          "internalType": "string",
          "name": "_symbol",
          "type": "string"
        },
        {
          "internalType": "string",
          "name": "_baseURI",
          "type": "string"
        },
        {
          "internalType": "string",
          "name": "_thumbnail",
          "type": "string"
        }
      ],
      "name": "createToken",
      "outputs": [],
      "stateMutability": "nonpayable",
      "type": "function"
    },
    {
      "inputs": [
        {
          "internalType": "uint256",
          "name": "index",
          "type": "uint256"
        }
      ],
      "name": "fetchCollection",
      "outputs": [
        {
          "internalType": "address",
          "name": "result",
          "type": "address"
        }
      ],
      "stateMutability": "view",
      "type": "function",
      "constant": true
    },
    {
      "inputs": [
        {
          "internalType": "address",
          "name": "account",
          "type": "address"
        }
      ],
      "name": "fetchCollectionOf",
      "outputs": [
        {
          "internalType": "address[]",
          "name": "collections",
          "type": "address[]"
        }
      ],
      "stateMutability": "view",
      "type": "function",
      "constant": true
    },
    {
      "inputs": [
        {
          "internalType": "address",
          "name": "creator",
          "type": "address"
        }
      ],
      "name": "fetchCreatedTokenOf",
      "outputs": [
        {
          "internalType": "address[]",
          "name": "collections",
          "type": "address[]"
        }
      ],
      "stateMutability": "view",
      "type": "function",
      "constant": true
    }
  ],
  "bytecode": "0x60a06040523480156200001157600080fd5b50604051620014be380380620014be8339818101604052810190620000379190620000ce565b81600260006101000a81548173ffffffffffffffffffffffffffffffffffffffff021916908373ffffffffffffffffffffffffffffffffffffffff1602179055508073ffffffffffffffffffffffffffffffffffffffff1660808173ffffffffffffffffffffffffffffffffffffffff1660601b81525050505062000168565b600081519050620000c8816200014e565b92915050565b60008060408385031215620000e857620000e762000149565b5b6000620000f885828601620000b7565b92505060206200010b85828601620000b7565b9150509250929050565b6000620001228262000129565b9050919050565b600073ffffffffffffffffffffffffffffffffffffffff82169050919050565b600080fd5b620001598162000115565b81146200016557600080fd5b50565b60805160601c61133762000187600039600061042401526113376000f3fe608060405234801561001057600080fd5b506004361061004c5760003560e01c806395d6392f14610051578063a076965914610081578063c2f8637d1461009d578063fa945dfb146100cd575b600080fd5b61006b60048036038101906100669190610b89565b6100fd565b6040516100789190610ee1565b60405180910390f35b61009b60048036038101906100969190610be3565b6103e3565b005b6100b760048036038101906100b29190610cba565b610667565b6040516100c49190610e9d565b60405180910390f35b6100e760048036038101906100e29190610b89565b6106a4565b6040516100f49190610ee1565b60405180910390f35b6060600061010b60006109ca565b90506000805b8281101561020c5760006001600083815260200190815260200160002060009054906101000a900473ffffffffffffffffffffffffffffffffffffffff16905060008173ffffffffffffffffffffffffffffffffffffffff166304e15919886040518263ffffffff1660e01b815260040161018c9190610e9d565b60206040518083038186803b1580156101a457600080fd5b505afa1580156101b8573d6000803e3d6000fd5b505050506040513d601f19601f820116820180604052508101906101dc9190610ce7565b905060008111156101f7576001846101f49190611094565b93505b50508080610204906111a5565b915050610111565b508067ffffffffffffffff81111561022757610226611256565b5b6040519080825280602002602001820160405280156102555781602001602082028036833780820191505090505b5092506000905060005b828110156103db5760006001600083815260200190815260200160002060009054906101000a900473ffffffffffffffffffffffffffffffffffffffff16905060008173ffffffffffffffffffffffffffffffffffffffff166304e15919886040518263ffffffff1660e01b81526004016102da9190610e9d565b60206040518083038186803b1580156102f257600080fd5b505afa158015610306573d6000803e3d6000fd5b505050506040513d601f19601f8201168201806040525081019061032a9190610ce7565b905060008111156103c6576001600084815260200190815260200160002060009054906101000a900473ffffffffffffffffffffffffffffffffffffffff1686858151811061037c5761037b611227565b5b602002602001019073ffffffffffffffffffffffffffffffffffffffff16908173ffffffffffffffffffffffffffffffffffffffff16815250506001846103c39190611094565b93505b505080806103d3906111a5565b91505061025f565b505050919050565b60006103ef60006109ca565b8585856040516020016104059493929190610e5b565b60405160208183030381529060405280519060200120905060006104497f0000000000000000000000000000000000000000000000000000000000000000836109d8565b905060008190508073ffffffffffffffffffffffffffffffffffffffff1663a523d35e888888886040518563ffffffff1660e01b815260040161048f9493929190610f5d565b600060405180830381600087803b1580156104a957600080fd5b505af11580156104bd573d6000803e3d6000fd5b5050505081600160006104d060006109ca565b815260200190815260200160002060006101000a81548173ffffffffffffffffffffffffffffffffffffffff021916908373ffffffffffffffffffffffffffffffffffffffff1602179055506105266000610aaf565b8073ffffffffffffffffffffffffffffffffffffffff166318054c37600260009054906101000a900473ffffffffffffffffffffffffffffffffffffffff1660016040518363ffffffff1660e01b8152600401610584929190610eb8565b600060405180830381600087803b15801561059e57600080fd5b505af11580156105b2573d6000803e3d6000fd5b505050508073ffffffffffffffffffffffffffffffffffffffff1663f2fde38b336040518263ffffffff1660e01b81526004016105ef9190610e9d565b600060405180830381600087803b15801561060957600080fd5b505af115801561061d573d6000803e3d6000fd5b505050507fd473f50ab9da035eb0312877cfbeaaf7532aed01d0df1a5ce2d7c89af5f6e993878787856040516106569493929190610f03565b60405180910390a150505050505050565b60006001600083815260200190815260200160002060009054906101000a900473ffffffffffffffffffffffffffffffffffffffff169050919050565b606060006106b260006109ca565b90506000805b828110156107d35760006001600083815260200190815260200160002060009054906101000a900473ffffffffffffffffffffffffffffffffffffffff16905060008173ffffffffffffffffffffffffffffffffffffffff16638da5cb5b6040518163ffffffff1660e01b815260040160206040518083038186803b15801561074057600080fd5b505afa158015610754573d6000803e3d6000fd5b505050506040513d601f19601f820116820180604052508101906107789190610bb6565b90508073ffffffffffffffffffffffffffffffffffffffff168773ffffffffffffffffffffffffffffffffffffffff1614156107be576001846107bb9190611094565b93505b505080806107cb906111a5565b9150506106b8565b508067ffffffffffffffff8111156107ee576107ed611256565b5b60405190808252806020026020018201604052801561081c5781602001602082028036833780820191505090505b5092506000905060005b828110156109c25760006001600083815260200190815260200160002060009054906101000a900473ffffffffffffffffffffffffffffffffffffffff16905060008173ffffffffffffffffffffffffffffffffffffffff16638da5cb5b6040518163ffffffff1660e01b815260040160206040518083038186803b1580156108ae57600080fd5b505afa1580156108c2573d6000803e3d6000fd5b505050506040513d601f19601f820116820180604052508101906108e69190610bb6565b90508073ffffffffffffffffffffffffffffffffffffffff168773ffffffffffffffffffffffffffffffffffffffff1614156109ad576001600084815260200190815260200160002060009054906101000a900473ffffffffffffffffffffffffffffffffffffffff1686858151811061096357610962611227565b5b602002602001019073ffffffffffffffffffffffffffffffffffffffff16908173ffffffffffffffffffffffffffffffffffffffff16815250506001846109aa9190611094565b93505b505080806109ba906111a5565b915050610826565b505050919050565b600081600001549050919050565b60006040517f3d602d80600a3d3981f3363d3d373d3d3d363d7300000000000000000000000081528360601b60148201527f5af43d82803e903d91602b57fd5bf300000000000000000000000000000000006028820152826037826000f5915050600073ffffffffffffffffffffffffffffffffffffffff168173ffffffffffffffffffffffffffffffffffffffff161415610aa9576040517f08c379a0000000000000000000000000000000000000000000000000000000008152600401610aa090610fbe565b60405180910390fd5b92915050565b6001816000016000828254019250508190555050565b6000610ad8610ad384611003565b610fde565b905082815260208101848484011115610af457610af361128a565b5b610aff848285611132565b509392505050565b600081359050610b16816112d3565b92915050565b600081519050610b2b816112d3565b92915050565b600082601f830112610b4657610b45611285565b5b8135610b56848260208601610ac5565b91505092915050565b600081359050610b6e816112ea565b92915050565b600081519050610b83816112ea565b92915050565b600060208284031215610b9f57610b9e611294565b5b6000610bad84828501610b07565b91505092915050565b600060208284031215610bcc57610bcb611294565b5b6000610bda84828501610b1c565b91505092915050565b60008060008060808587031215610bfd57610bfc611294565b5b600085013567ffffffffffffffff811115610c1b57610c1a61128f565b5b610c2787828801610b31565b945050602085013567ffffffffffffffff811115610c4857610c4761128f565b5b610c5487828801610b31565b935050604085013567ffffffffffffffff811115610c7557610c7461128f565b5b610c8187828801610b31565b925050606085013567ffffffffffffffff811115610ca257610ca161128f565b5b610cae87828801610b31565b91505092959194509250565b600060208284031215610cd057610ccf611294565b5b6000610cde84828501610b5f565b91505092915050565b600060208284031215610cfd57610cfc611294565b5b6000610d0b84828501610b74565b91505092915050565b6000610d208383610d2c565b60208301905092915050565b610d35816110ea565b82525050565b610d44816110ea565b82525050565b6000610d5582611044565b610d5f8185611067565b9350610d6a83611034565b8060005b83811015610d9b578151610d828882610d14565b9750610d8d8361105a565b925050600181019050610d6e565b5085935050505092915050565b610db1816110fc565b82525050565b6000610dc28261104f565b610dcc8185611078565b9350610ddc818560208601611141565b610de581611299565b840191505092915050565b6000610dfb8261104f565b610e058185611089565b9350610e15818560208601611141565b80840191505092915050565b6000610e2e601783611078565b9150610e39826112aa565b602082019050919050565b610e55610e5082611128565b6111ee565b82525050565b6000610e678287610e44565b602082019150610e778286610df0565b9150610e838285610df0565b9150610e8f8284610df0565b915081905095945050505050565b6000602082019050610eb26000830184610d3b565b92915050565b6000604082019050610ecd6000830185610d3b565b610eda6020830184610da8565b9392505050565b60006020820190508181036000830152610efb8184610d4a565b905092915050565b60006080820190508181036000830152610f1d8187610db7565b90508181036020830152610f318186610db7565b90508181036040830152610f458185610db7565b9050610f546060830184610d3b565b95945050505050565b60006080820190508181036000830152610f778187610db7565b90508181036020830152610f8b8186610db7565b90508181036040830152610f9f8185610db7565b90508181036060830152610fb38184610db7565b905095945050505050565b60006020820190508181036000830152610fd781610e21565b9050919050565b6000610fe8610ff9565b9050610ff48282611174565b919050565b6000604051905090565b600067ffffffffffffffff82111561101e5761101d611256565b5b61102782611299565b9050602081019050919050565b6000819050602082019050919050565b600081519050919050565b600081519050919050565b6000602082019050919050565b600082825260208201905092915050565b600082825260208201905092915050565b600081905092915050565b600061109f82611128565b91506110aa83611128565b9250827fffffffffffffffffffffffffffffffffffffffffffffffffffffffffffffffff038211156110df576110de6111f8565b5b828201905092915050565b60006110f582611108565b9050919050565b60008115159050919050565b600073ffffffffffffffffffffffffffffffffffffffff82169050919050565b6000819050919050565b82818337600083830152505050565b60005b8381101561115f578082015181840152602081019050611144565b8381111561116e576000848401525b50505050565b61117d82611299565b810181811067ffffffffffffffff8211171561119c5761119b611256565b5b80604052505050565b60006111b082611128565b91507fffffffffffffffffffffffffffffffffffffffffffffffffffffffffffffffff8214156111e3576111e26111f8565b5b600182019050919050565b6000819050919050565b7f4e487b7100000000000000000000000000000000000000000000000000000000600052601160045260246000fd5b7f4e487b7100000000000000000000000000000000000000000000000000000000600052603260045260246000fd5b7f4e487b7100000000000000000000000000000000000000000000000000000000600052604160045260246000fd5b600080fd5b600080fd5b600080fd5b600080fd5b6000601f19601f8301169050919050565b7f455243313136373a2063726561746532206661696c6564000000000000000000600082015250565b6112dc816110ea565b81146112e757600080fd5b50565b6112f381611128565b81146112fe57600080fd5b5056fea2646970667358221220b9bf556d4559198ee098b043db51b02a5167446bc0a79ada2edc0cfb3f9378b164736f6c63430008060033",
  "immutableReferences": {
    "1645": [
      {
        "length": 32,
        "start": 1060
      }
    ]
  },
  "source": "// SPDX-License-Identifier: MIT\r\npragma solidity >=0.4.22 <0.9.0;\r\n\r\nimport \"@openzeppelin/contracts-upgradeable/proxy/ClonesUpgradeable.sol\";\r\nimport \"@openzeppelin/contracts-upgradeable/utils/CountersUpgradeable.sol\";\r\nimport \"./FunNFT.sol\";\r\n\r\ncontract TokenFactory {\r\n    using CountersUpgradeable for CountersUpgradeable.Counter;\r\n    CountersUpgradeable.Counter private _collectionIdCounter;\r\n    mapping(uint256 => address) private _collections;\r\n    address private exchangeProxy;\r\n\r\n    address immutable collectionImplementation;\r\n\r\n    event NewCollection(string name, string symbol, string uri, address collectionAddress);\r\n\r\n    constructor(address exchange, address _implementationToken){\r\n        exchangeProxy = exchange;\r\n        collectionImplementation = _implementationToken;\r\n    }\r\n\r\n    function createToken(string memory _name, string memory _symbol, string memory _baseURI, string memory _thumbnail)\r\n    public {\r\n        bytes32 salt = keccak256(abi.encodePacked(_collectionIdCounter.current(), _name, _symbol, _baseURI));\r\n        address collectionAddress = ClonesUpgradeable.cloneDeterministic(collectionImplementation, salt);\r\n        FunNFT collection = FunNFT(collectionAddress);\r\n        collection.initialize(_name, _symbol, _baseURI, _thumbnail);\r\n        _collections[_collectionIdCounter.current()] = collectionAddress;\r\n        _collectionIdCounter.increment();\r\n        \r\n        collection.setDefaultApproval(exchangeProxy, true);\r\n        collection.transferOwnership(msg.sender);\r\n\r\n        emit NewCollection(_name, _symbol, _baseURI, collectionAddress);\r\n    }\r\n\r\n    function fetchCollection(uint256 index) external view returns(address result) {\r\n        result = _collections[index];\r\n    }\r\n\r\n    function fetchCollectionOf(address account) external view returns (address[] memory collections){\r\n        uint256 totalCollections = _collectionIdCounter.current();\r\n        uint256 collectionCount = 0;\r\n\r\n        for (uint256 i = 0; i < totalCollections; i++) {\r\n            FunNFT collection = FunNFT(_collections[i]);\r\n            address owner = collection.owner();\r\n            if (account == owner){\r\n                collectionCount += 1;\r\n            }\r\n        }\r\n\r\n        collections = new address[](collectionCount);\r\n\r\n        collectionCount = 0;\r\n        for (uint256 i = 0; i < totalCollections; i++) {\r\n            FunNFT collection = FunNFT(_collections[i]);\r\n            address owner = collection.owner();\r\n            if (account == owner){\r\n                collections[collectionCount] = _collections[i];\r\n                collectionCount += 1;\r\n            }\r\n        }\r\n    }\r\n    \r\n    function fetchCreatedTokenOf(address creator) public view returns(address[] memory collections) {\r\n        uint256 totalCollections = _collectionIdCounter.current();\r\n        uint256 collectionCount = 0;\r\n\r\n        for (uint256 i = 0; i < totalCollections; i++) {\r\n            FunNFT collection = FunNFT(_collections[i]);\r\n            uint256 temp = collection.createdTokenOf(creator);\r\n            if (temp > 0){\r\n                collectionCount += 1;\r\n            }\r\n        }\r\n\r\n        collections = new address[](collectionCount);\r\n\r\n        collectionCount = 0;\r\n        for (uint256 i = 0; i < totalCollections; i++) {\r\n            FunNFT collection = FunNFT(_collections[i]);\r\n            uint256 temp = collection.createdTokenOf(creator);\r\n            if (temp > 0){\r\n                collections[collectionCount] = _collections[i];\r\n                collectionCount += 1;\r\n            }\r\n        }\r\n    }\r\n}",
  "sourcePath": "E:/LamViec/fun-exchange/contracts/tokens/TokenFactory.sol",
  "compiler": {
    "name": "solc",
    "version": "0.8.6+commit.11564f7e.Emscripten.clang"
  },
  "schemaVersion": "3.3.4",
  "updatedAt": "2021-12-03T09:10:01.535Z",
  "networkType": "ethereum",
  "devdoc": {
    "kind": "dev",
    "methods": {},
    "version": 1
  },
  "userdoc": {
    "kind": "user",
    "methods": {},
    "version": 1
  }
}