{
  "contractName": "TokenFactory",
  "abi": [
    {
      "inputs": [
        {
          "internalType": "address",
          "name": "exchange",
          "type": "address"
        },
        {
          "internalType": "address",
          "name": "_implementationToken",
          "type": "address"
        }
      ],
      "stateMutability": "nonpayable",
      "type": "constructor"
    },
    {
      "anonymous": false,
      "inputs": [
        {
          "indexed": false,
          "internalType": "string",
          "name": "name",
          "type": "string"
        },
        {
          "indexed": false,
          "internalType": "string",
          "name": "symbol",
          "type": "string"
        },
        {
          "indexed": false,
          "internalType": "address",
          "name": "collectionAddress",
          "type": "address"
        }
      ],
      "name": "NewCollection",
      "type": "event"
    },
    {
      "inputs": [
        {
          "internalType": "string",
          "name": "_name",
          "type": "string"
        },
        {
          "internalType": "string",
          "name": "_symbol",
          "type": "string"
        },
        {
          "internalType": "string",
          "name": "_thumbnail",
          "type": "string"
        }
      ],
      "name": "createToken",
      "outputs": [],
      "stateMutability": "nonpayable",
      "type": "function"
    },
    {
      "inputs": [
        {
          "internalType": "uint256",
          "name": "index",
          "type": "uint256"
        }
      ],
      "name": "fetchCollection",
      "outputs": [
        {
          "internalType": "address",
          "name": "result",
          "type": "address"
        }
      ],
      "stateMutability": "view",
      "type": "function",
      "constant": true
    },
    {
      "inputs": [],
      "name": "getAllCollections",
      "outputs": [
        {
          "internalType": "address[]",
          "name": "collections",
          "type": "address[]"
        }
      ],
      "stateMutability": "view",
      "type": "function",
      "constant": true
    },
    {
      "inputs": [
        {
          "internalType": "address",
          "name": "account",
          "type": "address"
        }
      ],
      "name": "fetchCollectionOf",
      "outputs": [
        {
          "internalType": "address[]",
          "name": "collections",
          "type": "address[]"
        }
      ],
      "stateMutability": "view",
      "type": "function",
      "constant": true
    },
    {
      "inputs": [
        {
          "internalType": "address",
          "name": "creator",
          "type": "address"
        }
      ],
      "name": "fetchCreatedTokenOf",
      "outputs": [
        {
          "internalType": "address[]",
          "name": "collections",
          "type": "address[]"
        }
      ],
      "stateMutability": "view",
      "type": "function",
      "constant": true
    }
  ],
  "bytecode": "0x60a06040523480156200001157600080fd5b5060405162001578380380620015788339818101604052810190620000379190620000ce565b81600260006101000a81548173ffffffffffffffffffffffffffffffffffffffff021916908373ffffffffffffffffffffffffffffffffffffffff1602179055508073ffffffffffffffffffffffffffffffffffffffff1660808173ffffffffffffffffffffffffffffffffffffffff1660601b81525050505062000168565b600081519050620000c8816200014e565b92915050565b60008060408385031215620000e857620000e762000149565b5b6000620000f885828601620000b7565b92505060206200010b85828601620000b7565b9150509250929050565b6000620001228262000129565b9050919050565b600073ffffffffffffffffffffffffffffffffffffffff82169050919050565b600080fd5b620001598162000115565b81146200016557600080fd5b50565b60805160601c6113f162000187600039600061026401526113f16000f3fe608060405234801561001057600080fd5b50600436106100575760003560e01c80636804a9581461005c57806394aed7d01461007a57806395d6392f14610096578063c2f8637d146100c6578063fa945dfb146100f6575b600080fd5b610064610126565b6040516100719190610fc5565b60405180910390f35b610094600480360381019061008f9190610d04565b610225565b005b6100b060048036038101906100ab9190610caa565b6104a2565b6040516100bd9190610fc5565b60405180910390f35b6100e060048036038101906100db9190610dab565b610788565b6040516100ed9190610f81565b60405180910390f35b610110600480360381019061010b9190610caa565b6107c5565b60405161011d9190610fc5565b60405180910390f35b606060006101346000610aeb565b90508067ffffffffffffffff8111156101505761014f611310565b5b60405190808252806020026020018201604052801561017e5781602001602082028036833780820191505090505b50915060005b81811015610220576001600082815260200190815260200160002060009054906101000a900473ffffffffffffffffffffffffffffffffffffffff168382815181106101d3576101d26112e1565b5b602002602001019073ffffffffffffffffffffffffffffffffffffffff16908173ffffffffffffffffffffffffffffffffffffffff168152505080806102189061125f565b915050610184565b505090565b60006102316000610aeb565b848460405160200161024593929190610f4c565b60405160208183030381529060405280519060200120905060006102897f000000000000000000000000000000000000000000000000000000000000000083610af9565b905060008190508073ffffffffffffffffffffffffffffffffffffffff1663a6487c538787876040518463ffffffff1660e01b81526004016102cd9392919061102c565b600060405180830381600087803b1580156102e757600080fd5b505af11580156102fb573d6000803e3d6000fd5b50505050816001600061030e6000610aeb565b815260200190815260200160002060006101000a81548173ffffffffffffffffffffffffffffffffffffffff021916908373ffffffffffffffffffffffffffffffffffffffff1602179055506103646000610bd0565b8073ffffffffffffffffffffffffffffffffffffffff166318054c37600260009054906101000a900473ffffffffffffffffffffffffffffffffffffffff1660016040518363ffffffff1660e01b81526004016103c2929190610f9c565b600060405180830381600087803b1580156103dc57600080fd5b505af11580156103f0573d6000803e3d6000fd5b505050508073ffffffffffffffffffffffffffffffffffffffff1663f2fde38b336040518263ffffffff1660e01b815260040161042d9190610f81565b600060405180830381600087803b15801561044757600080fd5b505af115801561045b573d6000803e3d6000fd5b505050507ff150f291c7bb1d321eecbe90f2d68f73d95d213e9517889648c7d7598496d45686868460405161049293929190610fe7565b60405180910390a1505050505050565b606060006104b06000610aeb565b90506000805b828110156105b15760006001600083815260200190815260200160002060009054906101000a900473ffffffffffffffffffffffffffffffffffffffff16905060008173ffffffffffffffffffffffffffffffffffffffff166304e15919886040518263ffffffff1660e01b81526004016105319190610f81565b60206040518083038186803b15801561054957600080fd5b505afa15801561055d573d6000803e3d6000fd5b505050506040513d601f19601f820116820180604052508101906105819190610dd8565b9050600081111561059c57600184610599919061114e565b93505b505080806105a99061125f565b9150506104b6565b508067ffffffffffffffff8111156105cc576105cb611310565b5b6040519080825280602002602001820160405280156105fa5781602001602082028036833780820191505090505b5092506000905060005b828110156107805760006001600083815260200190815260200160002060009054906101000a900473ffffffffffffffffffffffffffffffffffffffff16905060008173ffffffffffffffffffffffffffffffffffffffff166304e15919886040518263ffffffff1660e01b815260040161067f9190610f81565b60206040518083038186803b15801561069757600080fd5b505afa1580156106ab573d6000803e3d6000fd5b505050506040513d601f19601f820116820180604052508101906106cf9190610dd8565b9050600081111561076b576001600084815260200190815260200160002060009054906101000a900473ffffffffffffffffffffffffffffffffffffffff16868581518110610721576107206112e1565b5b602002602001019073ffffffffffffffffffffffffffffffffffffffff16908173ffffffffffffffffffffffffffffffffffffffff1681525050600184610768919061114e565b93505b505080806107789061125f565b915050610604565b505050919050565b60006001600083815260200190815260200160002060009054906101000a900473ffffffffffffffffffffffffffffffffffffffff169050919050565b606060006107d36000610aeb565b90506000805b828110156108f45760006001600083815260200190815260200160002060009054906101000a900473ffffffffffffffffffffffffffffffffffffffff16905060008173ffffffffffffffffffffffffffffffffffffffff16638da5cb5b6040518163ffffffff1660e01b815260040160206040518083038186803b15801561086157600080fd5b505afa158015610875573d6000803e3d6000fd5b505050506040513d601f19601f820116820180604052508101906108999190610cd7565b90508673ffffffffffffffffffffffffffffffffffffffff168173ffffffffffffffffffffffffffffffffffffffff1614156108df576001846108dc919061114e565b93505b505080806108ec9061125f565b9150506107d9565b508067ffffffffffffffff81111561090f5761090e611310565b5b60405190808252806020026020018201604052801561093d5781602001602082028036833780820191505090505b5092506000905060005b82811015610ae35760006001600083815260200190815260200160002060009054906101000a900473ffffffffffffffffffffffffffffffffffffffff16905060008173ffffffffffffffffffffffffffffffffffffffff16638da5cb5b6040518163ffffffff1660e01b815260040160206040518083038186803b1580156109cf57600080fd5b505afa1580156109e3573d6000803e3d6000fd5b505050506040513d601f19601f82011682018060405250810190610a079190610cd7565b90508673ffffffffffffffffffffffffffffffffffffffff168173ffffffffffffffffffffffffffffffffffffffff161415610ace576001600084815260200190815260200160002060009054906101000a900473ffffffffffffffffffffffffffffffffffffffff16868581518110610a8457610a836112e1565b5b602002602001019073ffffffffffffffffffffffffffffffffffffffff16908173ffffffffffffffffffffffffffffffffffffffff1681525050600184610acb919061114e565b93505b50508080610adb9061125f565b915050610947565b505050919050565b600081600001549050919050565b60006040517f3d602d80600a3d3981f3363d3d373d3d3d363d7300000000000000000000000081528360601b60148201527f5af43d82803e903d91602b57fd5bf300000000000000000000000000000000006028820152826037826000f5915050600073ffffffffffffffffffffffffffffffffffffffff168173ffffffffffffffffffffffffffffffffffffffff161415610bca576040517f08c379a0000000000000000000000000000000000000000000000000000000008152600401610bc190611078565b60405180910390fd5b92915050565b6001816000016000828254019250508190555050565b6000610bf9610bf4846110bd565b611098565b905082815260208101848484011115610c1557610c14611344565b5b610c208482856111ec565b509392505050565b600081359050610c378161138d565b92915050565b600081519050610c4c8161138d565b92915050565b600082601f830112610c6757610c6661133f565b5b8135610c77848260208601610be6565b91505092915050565b600081359050610c8f816113a4565b92915050565b600081519050610ca4816113a4565b92915050565b600060208284031215610cc057610cbf61134e565b5b6000610cce84828501610c28565b91505092915050565b600060208284031215610ced57610cec61134e565b5b6000610cfb84828501610c3d565b91505092915050565b600080600060608486031215610d1d57610d1c61134e565b5b600084013567ffffffffffffffff811115610d3b57610d3a611349565b5b610d4786828701610c52565b935050602084013567ffffffffffffffff811115610d6857610d67611349565b5b610d7486828701610c52565b925050604084013567ffffffffffffffff811115610d9557610d94611349565b5b610da186828701610c52565b9150509250925092565b600060208284031215610dc157610dc061134e565b5b6000610dcf84828501610c80565b91505092915050565b600060208284031215610dee57610ded61134e565b5b6000610dfc84828501610c95565b91505092915050565b6000610e118383610e1d565b60208301905092915050565b610e26816111a4565b82525050565b610e35816111a4565b82525050565b6000610e46826110fe565b610e508185611121565b9350610e5b836110ee565b8060005b83811015610e8c578151610e738882610e05565b9750610e7e83611114565b925050600181019050610e5f565b5085935050505092915050565b610ea2816111b6565b82525050565b6000610eb382611109565b610ebd8185611132565b9350610ecd8185602086016111fb565b610ed681611353565b840191505092915050565b6000610eec82611109565b610ef68185611143565b9350610f068185602086016111fb565b80840191505092915050565b6000610f1f601783611132565b9150610f2a82611364565b602082019050919050565b610f46610f41826111e2565b6112a8565b82525050565b6000610f588286610f35565b602082019150610f688285610ee1565b9150610f748284610ee1565b9150819050949350505050565b6000602082019050610f966000830184610e2c565b92915050565b6000604082019050610fb16000830185610e2c565b610fbe6020830184610e99565b9392505050565b60006020820190508181036000830152610fdf8184610e3b565b905092915050565b600060608201905081810360008301526110018186610ea8565b905081810360208301526110158185610ea8565b90506110246040830184610e2c565b949350505050565b600060608201905081810360008301526110468186610ea8565b9050818103602083015261105a8185610ea8565b9050818103604083015261106e8184610ea8565b9050949350505050565b6000602082019050818103600083015261109181610f12565b9050919050565b60006110a26110b3565b90506110ae828261122e565b919050565b6000604051905090565b600067ffffffffffffffff8211156110d8576110d7611310565b5b6110e182611353565b9050602081019050919050565b6000819050602082019050919050565b600081519050919050565b600081519050919050565b6000602082019050919050565b600082825260208201905092915050565b600082825260208201905092915050565b600081905092915050565b6000611159826111e2565b9150611164836111e2565b9250827fffffffffffffffffffffffffffffffffffffffffffffffffffffffffffffffff03821115611199576111986112b2565b5b828201905092915050565b60006111af826111c2565b9050919050565b60008115159050919050565b600073ffffffffffffffffffffffffffffffffffffffff82169050919050565b6000819050919050565b82818337600083830152505050565b60005b838110156112195780820151818401526020810190506111fe565b83811115611228576000848401525b50505050565b61123782611353565b810181811067ffffffffffffffff8211171561125657611255611310565b5b80604052505050565b600061126a826111e2565b91507fffffffffffffffffffffffffffffffffffffffffffffffffffffffffffffffff82141561129d5761129c6112b2565b5b600182019050919050565b6000819050919050565b7f4e487b7100000000000000000000000000000000000000000000000000000000600052601160045260246000fd5b7f4e487b7100000000000000000000000000000000000000000000000000000000600052603260045260246000fd5b7f4e487b7100000000000000000000000000000000000000000000000000000000600052604160045260246000fd5b600080fd5b600080fd5b600080fd5b600080fd5b6000601f19601f8301169050919050565b7f455243313136373a2063726561746532206661696c6564000000000000000000600082015250565b611396816111a4565b81146113a157600080fd5b50565b6113ad816111e2565b81146113b857600080fd5b5056fea264697066735822122013a47ceca3193dd1c1a0d32036cd1a14c04d703988cc43336e8850df62bf20b464736f6c63430008060033",
  "immutableReferences": {
    "653": [
      {
        "length": 32,
        "start": 612
      }
    ]
  },
  "source": "// SPDX-License-Identifier: MIT\r\npragma solidity >=0.4.22 <0.9.0;\r\n\r\nimport \"@openzeppelin/contracts-upgradeable/proxy/ClonesUpgradeable.sol\";\r\nimport \"@openzeppelin/contracts-upgradeable/utils/CountersUpgradeable.sol\";\r\nimport \"./FunNFT.sol\";\r\n\r\ncontract TokenFactory {\r\n    using CountersUpgradeable for CountersUpgradeable.Counter;\r\n    CountersUpgradeable.Counter private _collectionIdCounter;\r\n    \r\n    mapping(uint256 => address) private _collections;\r\n    address private exchangeProxy;\r\n\r\n    address immutable collectionImplementation;\r\n\r\n    event NewCollection(string name, string symbol, address collectionAddress);\r\n\r\n    constructor(address exchange, address _implementationToken){\r\n        exchangeProxy = exchange;\r\n        collectionImplementation = _implementationToken;\r\n    }\r\n\r\n    function createToken(string memory _name, string memory _symbol, string memory _thumbnail)\r\n    public {\r\n        bytes32 salt = keccak256(abi.encodePacked(_collectionIdCounter.current(), _name, _symbol));\r\n        address collectionAddress = ClonesUpgradeable.cloneDeterministic(collectionImplementation, salt);\r\n        FunNFT collection = FunNFT(collectionAddress);\r\n        collection.initialize(_name, _symbol, _thumbnail);\r\n        _collections[_collectionIdCounter.current()] = collectionAddress;\r\n        _collectionIdCounter.increment();\r\n        \r\n        collection.setDefaultApproval(exchangeProxy, true);\r\n        collection.transferOwnership(msg.sender);\r\n\r\n        emit NewCollection(_name, _symbol, collectionAddress);\r\n    }\r\n\r\n    function fetchCollection(uint256 index) external view returns(address result) {\r\n        result = _collections[index];\r\n    }\r\n\r\n    function getAllCollections() external view returns(address[] memory collections){\r\n        uint256 totalCollections = _collectionIdCounter.current();\r\n        collections = new address[](totalCollections);\r\n\r\n        for (uint256 i = 0; i < totalCollections; i++) {\r\n            collections[i] = _collections[i];\r\n        }\r\n        \r\n        return collections;\r\n    }\r\n\r\n    function fetchCollectionOf(address account) external view returns (address[] memory collections){\r\n        uint256 totalCollections = _collectionIdCounter.current();\r\n        uint256 collectionCount = 0;\r\n\r\n        for (uint256 i = 0; i < totalCollections; i++) {\r\n            FunNFT collection = FunNFT(_collections[i]);\r\n            address owner = collection.owner();\r\n            if (owner == account){\r\n                collectionCount += 1;\r\n            }\r\n        }\r\n\r\n        collections = new address[](collectionCount);\r\n\r\n        collectionCount = 0;\r\n        for (uint256 i = 0; i < totalCollections; i++) {\r\n            FunNFT collection = FunNFT(_collections[i]);\r\n            address owner = collection.owner();\r\n            if (owner == account){\r\n                collections[collectionCount] = _collections[i];\r\n                collectionCount += 1;\r\n            }\r\n        }\r\n    }\r\n    \r\n    function fetchCreatedTokenOf(address creator) public view returns(address[] memory collections) {\r\n        uint256 totalCollections = _collectionIdCounter.current();\r\n        uint256 collectionCount = 0;\r\n\r\n        for (uint256 i = 0; i < totalCollections; i++) {\r\n            FunNFT collection = FunNFT(_collections[i]);\r\n            uint256 temp = collection.createdTokenOf(creator);\r\n            if (temp > 0){\r\n                collectionCount += 1;\r\n            }\r\n        }\r\n\r\n        collections = new address[](collectionCount);\r\n\r\n        collectionCount = 0;\r\n        for (uint256 i = 0; i < totalCollections; i++) {\r\n            FunNFT collection = FunNFT(_collections[i]);\r\n            uint256 temp = collection.createdTokenOf(creator);\r\n            if (temp > 0){\r\n                collections[collectionCount] = _collections[i];\r\n                collectionCount += 1;\r\n            }\r\n        }\r\n    }\r\n}",
  "sourcePath": "E:/LamViec/fun-exchange/contracts/tokens/TokenFactory.sol",
  "compiler": {
    "name": "solc",
    "version": "0.8.6+commit.11564f7e.Emscripten.clang"
  },
  "schemaVersion": "3.3.4",
  "updatedAt": "2021-12-18T13:15:36.508Z",
  "networkType": "ethereum",
  "devdoc": {
    "kind": "dev",
    "methods": {},
    "version": 1
  },
  "userdoc": {
    "kind": "user",
    "methods": {},
    "version": 1
  }
}