{
  "contractName": "TokenFactory",
  "abi": [
    {
      "inputs": [
        {
          "internalType": "address",
          "name": "exchange",
          "type": "address"
        },
        {
          "internalType": "address",
          "name": "_implementationToken",
          "type": "address"
        }
      ],
      "stateMutability": "nonpayable",
      "type": "constructor"
    },
    {
      "anonymous": false,
      "inputs": [
        {
          "indexed": false,
          "internalType": "string",
          "name": "name",
          "type": "string"
        },
        {
          "indexed": false,
          "internalType": "string",
          "name": "symbol",
          "type": "string"
        },
        {
          "indexed": false,
          "internalType": "address",
          "name": "collectionAddress",
          "type": "address"
        }
      ],
      "name": "NewCollection",
      "type": "event"
    },
    {
      "inputs": [
        {
          "internalType": "string",
          "name": "_name",
          "type": "string"
        },
        {
          "internalType": "string",
          "name": "_symbol",
          "type": "string"
        },
        {
          "internalType": "string",
          "name": "_thumbnail",
          "type": "string"
        }
      ],
      "name": "createToken",
      "outputs": [],
      "stateMutability": "nonpayable",
      "type": "function"
    },
    {
      "inputs": [
        {
          "internalType": "uint256",
          "name": "index",
          "type": "uint256"
        }
      ],
      "name": "fetchCollection",
      "outputs": [
        {
          "internalType": "address",
          "name": "result",
          "type": "address"
        }
      ],
      "stateMutability": "view",
      "type": "function",
      "constant": true
    },
    {
      "inputs": [
        {
          "internalType": "address",
          "name": "account",
          "type": "address"
        }
      ],
      "name": "fetchCollectionOf",
      "outputs": [
        {
          "internalType": "address[]",
          "name": "collections",
          "type": "address[]"
        }
      ],
      "stateMutability": "view",
      "type": "function",
      "constant": true
    },
    {
      "inputs": [
        {
          "internalType": "address",
          "name": "creator",
          "type": "address"
        }
      ],
      "name": "fetchCreatedTokenOf",
      "outputs": [
        {
          "internalType": "address[]",
          "name": "collections",
          "type": "address[]"
        }
      ],
      "stateMutability": "view",
      "type": "function",
      "constant": true
    }
  ],
  "bytecode": "0x60a06040523480156200001157600080fd5b5060405162001450380380620014508339818101604052810190620000379190620000ce565b81600260006101000a81548173ffffffffffffffffffffffffffffffffffffffff021916908373ffffffffffffffffffffffffffffffffffffffff1602179055508073ffffffffffffffffffffffffffffffffffffffff1660808173ffffffffffffffffffffffffffffffffffffffff1660601b81525050505062000168565b600081519050620000c8816200014e565b92915050565b60008060408385031215620000e857620000e762000149565b5b6000620000f885828601620000b7565b92505060206200010b85828601620000b7565b9150509250929050565b6000620001228262000129565b9050919050565b600073ffffffffffffffffffffffffffffffffffffffff82169050919050565b600080fd5b620001598162000115565b81146200016557600080fd5b50565b60805160601c6112c962000187600039600061013c01526112c96000f3fe608060405234801561001057600080fd5b506004361061004c5760003560e01c806394aed7d01461005157806395d6392f1461006d578063c2f8637d1461009d578063fa945dfb146100cd575b600080fd5b61006b60048036038101906100669190610bdc565b6100fd565b005b61008760048036038101906100829190610b82565b61037a565b6040516100949190610e9d565b60405180910390f35b6100b760048036038101906100b29190610c83565b610660565b6040516100c49190610e59565b60405180910390f35b6100e760048036038101906100e29190610b82565b61069d565b6040516100f49190610e9d565b60405180910390f35b600061010960006109c3565b848460405160200161011d93929190610e24565b60405160208183030381529060405280519060200120905060006101617f0000000000000000000000000000000000000000000000000000000000000000836109d1565b905060008190508073ffffffffffffffffffffffffffffffffffffffff1663a6487c538787876040518463ffffffff1660e01b81526004016101a593929190610f04565b600060405180830381600087803b1580156101bf57600080fd5b505af11580156101d3573d6000803e3d6000fd5b5050505081600160006101e660006109c3565b815260200190815260200160002060006101000a81548173ffffffffffffffffffffffffffffffffffffffff021916908373ffffffffffffffffffffffffffffffffffffffff16021790555061023c6000610aa8565b8073ffffffffffffffffffffffffffffffffffffffff166318054c37600260009054906101000a900473ffffffffffffffffffffffffffffffffffffffff1660016040518363ffffffff1660e01b815260040161029a929190610e74565b600060405180830381600087803b1580156102b457600080fd5b505af11580156102c8573d6000803e3d6000fd5b505050508073ffffffffffffffffffffffffffffffffffffffff1663f2fde38b336040518263ffffffff1660e01b81526004016103059190610e59565b600060405180830381600087803b15801561031f57600080fd5b505af1158015610333573d6000803e3d6000fd5b505050507ff150f291c7bb1d321eecbe90f2d68f73d95d213e9517889648c7d7598496d45686868460405161036a93929190610ebf565b60405180910390a1505050505050565b6060600061038860006109c3565b90506000805b828110156104895760006001600083815260200190815260200160002060009054906101000a900473ffffffffffffffffffffffffffffffffffffffff16905060008173ffffffffffffffffffffffffffffffffffffffff166304e15919886040518263ffffffff1660e01b81526004016104099190610e59565b60206040518083038186803b15801561042157600080fd5b505afa158015610435573d6000803e3d6000fd5b505050506040513d601f19601f820116820180604052508101906104599190610cb0565b90506000811115610474576001846104719190611026565b93505b5050808061048190611137565b91505061038e565b508067ffffffffffffffff8111156104a4576104a36111e8565b5b6040519080825280602002602001820160405280156104d25781602001602082028036833780820191505090505b5092506000905060005b828110156106585760006001600083815260200190815260200160002060009054906101000a900473ffffffffffffffffffffffffffffffffffffffff16905060008173ffffffffffffffffffffffffffffffffffffffff166304e15919886040518263ffffffff1660e01b81526004016105579190610e59565b60206040518083038186803b15801561056f57600080fd5b505afa158015610583573d6000803e3d6000fd5b505050506040513d601f19601f820116820180604052508101906105a79190610cb0565b90506000811115610643576001600084815260200190815260200160002060009054906101000a900473ffffffffffffffffffffffffffffffffffffffff168685815181106105f9576105f86111b9565b5b602002602001019073ffffffffffffffffffffffffffffffffffffffff16908173ffffffffffffffffffffffffffffffffffffffff16815250506001846106409190611026565b93505b5050808061065090611137565b9150506104dc565b505050919050565b60006001600083815260200190815260200160002060009054906101000a900473ffffffffffffffffffffffffffffffffffffffff169050919050565b606060006106ab60006109c3565b90506000805b828110156107cc5760006001600083815260200190815260200160002060009054906101000a900473ffffffffffffffffffffffffffffffffffffffff16905060008173ffffffffffffffffffffffffffffffffffffffff16638da5cb5b6040518163ffffffff1660e01b815260040160206040518083038186803b15801561073957600080fd5b505afa15801561074d573d6000803e3d6000fd5b505050506040513d601f19601f820116820180604052508101906107719190610baf565b90508073ffffffffffffffffffffffffffffffffffffffff168773ffffffffffffffffffffffffffffffffffffffff1614156107b7576001846107b49190611026565b93505b505080806107c490611137565b9150506106b1565b508067ffffffffffffffff8111156107e7576107e66111e8565b5b6040519080825280602002602001820160405280156108155781602001602082028036833780820191505090505b5092506000905060005b828110156109bb5760006001600083815260200190815260200160002060009054906101000a900473ffffffffffffffffffffffffffffffffffffffff16905060008173ffffffffffffffffffffffffffffffffffffffff16638da5cb5b6040518163ffffffff1660e01b815260040160206040518083038186803b1580156108a757600080fd5b505afa1580156108bb573d6000803e3d6000fd5b505050506040513d601f19601f820116820180604052508101906108df9190610baf565b90508073ffffffffffffffffffffffffffffffffffffffff168773ffffffffffffffffffffffffffffffffffffffff1614156109a6576001600084815260200190815260200160002060009054906101000a900473ffffffffffffffffffffffffffffffffffffffff1686858151811061095c5761095b6111b9565b5b602002602001019073ffffffffffffffffffffffffffffffffffffffff16908173ffffffffffffffffffffffffffffffffffffffff16815250506001846109a39190611026565b93505b505080806109b390611137565b91505061081f565b505050919050565b600081600001549050919050565b60006040517f3d602d80600a3d3981f3363d3d373d3d3d363d7300000000000000000000000081528360601b60148201527f5af43d82803e903d91602b57fd5bf300000000000000000000000000000000006028820152826037826000f5915050600073ffffffffffffffffffffffffffffffffffffffff168173ffffffffffffffffffffffffffffffffffffffff161415610aa2576040517f08c379a0000000000000000000000000000000000000000000000000000000008152600401610a9990610f50565b60405180910390fd5b92915050565b6001816000016000828254019250508190555050565b6000610ad1610acc84610f95565b610f70565b905082815260208101848484011115610aed57610aec61121c565b5b610af88482856110c4565b509392505050565b600081359050610b0f81611265565b92915050565b600081519050610b2481611265565b92915050565b600082601f830112610b3f57610b3e611217565b5b8135610b4f848260208601610abe565b91505092915050565b600081359050610b678161127c565b92915050565b600081519050610b7c8161127c565b92915050565b600060208284031215610b9857610b97611226565b5b6000610ba684828501610b00565b91505092915050565b600060208284031215610bc557610bc4611226565b5b6000610bd384828501610b15565b91505092915050565b600080600060608486031215610bf557610bf4611226565b5b600084013567ffffffffffffffff811115610c1357610c12611221565b5b610c1f86828701610b2a565b935050602084013567ffffffffffffffff811115610c4057610c3f611221565b5b610c4c86828701610b2a565b925050604084013567ffffffffffffffff811115610c6d57610c6c611221565b5b610c7986828701610b2a565b9150509250925092565b600060208284031215610c9957610c98611226565b5b6000610ca784828501610b58565b91505092915050565b600060208284031215610cc657610cc5611226565b5b6000610cd484828501610b6d565b91505092915050565b6000610ce98383610cf5565b60208301905092915050565b610cfe8161107c565b82525050565b610d0d8161107c565b82525050565b6000610d1e82610fd6565b610d288185610ff9565b9350610d3383610fc6565b8060005b83811015610d64578151610d4b8882610cdd565b9750610d5683610fec565b925050600181019050610d37565b5085935050505092915050565b610d7a8161108e565b82525050565b6000610d8b82610fe1565b610d95818561100a565b9350610da58185602086016110d3565b610dae8161122b565b840191505092915050565b6000610dc482610fe1565b610dce818561101b565b9350610dde8185602086016110d3565b80840191505092915050565b6000610df760178361100a565b9150610e028261123c565b602082019050919050565b610e1e610e19826110ba565b611180565b82525050565b6000610e308286610e0d565b602082019150610e408285610db9565b9150610e4c8284610db9565b9150819050949350505050565b6000602082019050610e6e6000830184610d04565b92915050565b6000604082019050610e896000830185610d04565b610e966020830184610d71565b9392505050565b60006020820190508181036000830152610eb78184610d13565b905092915050565b60006060820190508181036000830152610ed98186610d80565b90508181036020830152610eed8185610d80565b9050610efc6040830184610d04565b949350505050565b60006060820190508181036000830152610f1e8186610d80565b90508181036020830152610f328185610d80565b90508181036040830152610f468184610d80565b9050949350505050565b60006020820190508181036000830152610f6981610dea565b9050919050565b6000610f7a610f8b565b9050610f868282611106565b919050565b6000604051905090565b600067ffffffffffffffff821115610fb057610faf6111e8565b5b610fb98261122b565b9050602081019050919050565b6000819050602082019050919050565b600081519050919050565b600081519050919050565b6000602082019050919050565b600082825260208201905092915050565b600082825260208201905092915050565b600081905092915050565b6000611031826110ba565b915061103c836110ba565b9250827fffffffffffffffffffffffffffffffffffffffffffffffffffffffffffffffff038211156110715761107061118a565b5b828201905092915050565b60006110878261109a565b9050919050565b60008115159050919050565b600073ffffffffffffffffffffffffffffffffffffffff82169050919050565b6000819050919050565b82818337600083830152505050565b60005b838110156110f15780820151818401526020810190506110d6565b83811115611100576000848401525b50505050565b61110f8261122b565b810181811067ffffffffffffffff8211171561112e5761112d6111e8565b5b80604052505050565b6000611142826110ba565b91507fffffffffffffffffffffffffffffffffffffffffffffffffffffffffffffffff8214156111755761117461118a565b5b600182019050919050565b6000819050919050565b7f4e487b7100000000000000000000000000000000000000000000000000000000600052601160045260246000fd5b7f4e487b7100000000000000000000000000000000000000000000000000000000600052603260045260246000fd5b7f4e487b7100000000000000000000000000000000000000000000000000000000600052604160045260246000fd5b600080fd5b600080fd5b600080fd5b600080fd5b6000601f19601f8301169050919050565b7f455243313136373a2063726561746532206661696c6564000000000000000000600082015250565b61126e8161107c565b811461127957600080fd5b50565b611285816110ba565b811461129057600080fd5b5056fea264697066735822122015429b1066915e16b0bc758ab71c92a7dd5a4b7cf5a56f8da5784f2800ba3b3c64736f6c63430008060033",
  "immutableReferences": {
    "1477": [
      {
        "length": 32,
        "start": 316
      }
    ]
  },
  "source": "// SPDX-License-Identifier: MIT\r\npragma solidity >=0.4.22 <0.9.0;\r\n\r\nimport \"@openzeppelin/contracts-upgradeable/proxy/ClonesUpgradeable.sol\";\r\nimport \"@openzeppelin/contracts-upgradeable/utils/CountersUpgradeable.sol\";\r\nimport \"./FunNFT.sol\";\r\n\r\ncontract TokenFactory {\r\n    using CountersUpgradeable for CountersUpgradeable.Counter;\r\n    CountersUpgradeable.Counter private _collectionIdCounter;\r\n    mapping(uint256 => address) private _collections;\r\n    address private exchangeProxy;\r\n\r\n    address immutable collectionImplementation;\r\n\r\n    event NewCollection(string name, string symbol, address collectionAddress);\r\n\r\n    constructor(address exchange, address _implementationToken){\r\n        exchangeProxy = exchange;\r\n        collectionImplementation = _implementationToken;\r\n    }\r\n\r\n    function createToken(string memory _name, string memory _symbol, string memory _thumbnail)\r\n    public {\r\n        bytes32 salt = keccak256(abi.encodePacked(_collectionIdCounter.current(), _name, _symbol));\r\n        address collectionAddress = ClonesUpgradeable.cloneDeterministic(collectionImplementation, salt);\r\n        FunNFT collection = FunNFT(collectionAddress);\r\n        collection.initialize(_name, _symbol, _thumbnail);\r\n        _collections[_collectionIdCounter.current()] = collectionAddress;\r\n        _collectionIdCounter.increment();\r\n        \r\n        collection.setDefaultApproval(exchangeProxy, true);\r\n        collection.transferOwnership(msg.sender);\r\n\r\n        emit NewCollection(_name, _symbol, collectionAddress);\r\n    }\r\n\r\n    function fetchCollection(uint256 index) external view returns(address result) {\r\n        result = _collections[index];\r\n    }\r\n\r\n    function fetchCollectionOf(address account) external view returns (address[] memory collections){\r\n        uint256 totalCollections = _collectionIdCounter.current();\r\n        uint256 collectionCount = 0;\r\n\r\n        for (uint256 i = 0; i < totalCollections; i++) {\r\n            FunNFT collection = FunNFT(_collections[i]);\r\n            address owner = collection.owner();\r\n            if (account == owner){\r\n                collectionCount += 1;\r\n            }\r\n        }\r\n\r\n        collections = new address[](collectionCount);\r\n\r\n        collectionCount = 0;\r\n        for (uint256 i = 0; i < totalCollections; i++) {\r\n            FunNFT collection = FunNFT(_collections[i]);\r\n            address owner = collection.owner();\r\n            if (account == owner){\r\n                collections[collectionCount] = _collections[i];\r\n                collectionCount += 1;\r\n            }\r\n        }\r\n    }\r\n    \r\n    function fetchCreatedTokenOf(address creator) public view returns(address[] memory collections) {\r\n        uint256 totalCollections = _collectionIdCounter.current();\r\n        uint256 collectionCount = 0;\r\n\r\n        for (uint256 i = 0; i < totalCollections; i++) {\r\n            FunNFT collection = FunNFT(_collections[i]);\r\n            uint256 temp = collection.createdTokenOf(creator);\r\n            if (temp > 0){\r\n                collectionCount += 1;\r\n            }\r\n        }\r\n\r\n        collections = new address[](collectionCount);\r\n\r\n        collectionCount = 0;\r\n        for (uint256 i = 0; i < totalCollections; i++) {\r\n            FunNFT collection = FunNFT(_collections[i]);\r\n            uint256 temp = collection.createdTokenOf(creator);\r\n            if (temp > 0){\r\n                collections[collectionCount] = _collections[i];\r\n                collectionCount += 1;\r\n            }\r\n        }\r\n    }\r\n}",
  "sourcePath": "E:/LamViec/fun-exchange/contracts/tokens/TokenFactory.sol",
  "compiler": {
    "name": "solc",
    "version": "0.8.6+commit.11564f7e.Emscripten.clang"
  },
  "schemaVersion": "3.3.4",
  "updatedAt": "2021-12-04T05:41:36.628Z",
  "networkType": "ethereum",
  "devdoc": {
    "kind": "dev",
    "methods": {},
    "version": 1
  },
  "userdoc": {
    "kind": "user",
    "methods": {},
    "version": 1
  }
}