{
  "contractName": "TokenFactory",
  "abi": [
    {
      "inputs": [
        {
          "internalType": "address",
          "name": "exchange",
          "type": "address"
        },
        {
          "internalType": "address",
          "name": "_implementationToken",
          "type": "address"
        }
      ],
      "stateMutability": "nonpayable",
      "type": "constructor"
    },
    {
      "anonymous": false,
      "inputs": [
        {
          "indexed": false,
          "internalType": "string",
          "name": "name",
          "type": "string"
        },
        {
          "indexed": false,
          "internalType": "string",
          "name": "symbol",
          "type": "string"
        },
        {
          "indexed": false,
          "internalType": "address",
          "name": "collectionAddress",
          "type": "address"
        }
      ],
      "name": "NewCollection",
      "type": "event"
    },
    {
      "inputs": [
        {
          "internalType": "string",
          "name": "_name",
          "type": "string"
        },
        {
          "internalType": "string",
          "name": "_symbol",
          "type": "string"
        },
        {
          "internalType": "string",
          "name": "_thumbnail",
          "type": "string"
        }
      ],
      "name": "createToken",
      "outputs": [],
      "stateMutability": "nonpayable",
      "type": "function"
    },
    {
      "inputs": [
        {
          "internalType": "uint256",
          "name": "index",
          "type": "uint256"
        }
      ],
      "name": "fetchCollection",
      "outputs": [
        {
          "internalType": "address",
          "name": "result",
          "type": "address"
        }
      ],
      "stateMutability": "view",
      "type": "function",
      "constant": true
    },
    {
      "inputs": [
        {
          "internalType": "address",
          "name": "account",
          "type": "address"
        }
      ],
      "name": "fetchCollectionOf",
      "outputs": [
        {
          "internalType": "address[]",
          "name": "collections",
          "type": "address[]"
        }
      ],
      "stateMutability": "view",
      "type": "function",
      "constant": true
    },
    {
      "inputs": [
        {
          "internalType": "address",
          "name": "creator",
          "type": "address"
        }
      ],
      "name": "fetchCreatedTokenOf",
      "outputs": [
        {
          "internalType": "address[]",
          "name": "collections",
          "type": "address[]"
        }
      ],
      "stateMutability": "view",
      "type": "function",
      "constant": true
    }
  ],
  "bytecode": "0x60a06040523480156200001157600080fd5b50604051620013ce380380620013ce8339818101604052810190620000379190620000ce565b81600260006101000a81548173ffffffffffffffffffffffffffffffffffffffff021916908373ffffffffffffffffffffffffffffffffffffffff1602179055508073ffffffffffffffffffffffffffffffffffffffff1660808173ffffffffffffffffffffffffffffffffffffffff1660601b81525050505062000168565b600081519050620000c8816200014e565b92915050565b60008060408385031215620000e857620000e762000149565b5b6000620000f885828601620000b7565b92505060206200010b85828601620000b7565b9150509250929050565b6000620001228262000129565b9050919050565b600073ffffffffffffffffffffffffffffffffffffffff82169050919050565b600080fd5b620001598162000115565b81146200016557600080fd5b50565b60805160601c61124762000187600039600061013c01526112476000f3fe608060405234801561001057600080fd5b506004361061004c5760003560e01c806394aed7d01461005157806395d6392f1461006d578063c2f8637d1461009d578063fa945dfb146100cd575b600080fd5b61006b60048036038101906100669190610b5a565b6100fd565b005b61008760048036038101906100829190610b2d565b61037a565b6040516100949190610e1b565b60405180910390f35b6100b760048036038101906100b29190610c01565b610660565b6040516100c49190610dd7565b60405180910390f35b6100e760048036038101906100e29190610b2d565b61069d565b6040516100f49190610e1b565b60405180910390f35b60006101096000610983565b848460405160200161011d93929190610da2565b60405160208183030381529060405280519060200120905060006101617f000000000000000000000000000000000000000000000000000000000000000083610991565b905060008190508073ffffffffffffffffffffffffffffffffffffffff1663a6487c538787876040518463ffffffff1660e01b81526004016101a593929190610e82565b600060405180830381600087803b1580156101bf57600080fd5b505af11580156101d3573d6000803e3d6000fd5b5050505081600160006101e66000610983565b815260200190815260200160002060006101000a81548173ffffffffffffffffffffffffffffffffffffffff021916908373ffffffffffffffffffffffffffffffffffffffff16021790555061023c6000610a68565b8073ffffffffffffffffffffffffffffffffffffffff166318054c37600260009054906101000a900473ffffffffffffffffffffffffffffffffffffffff1660016040518363ffffffff1660e01b815260040161029a929190610df2565b600060405180830381600087803b1580156102b457600080fd5b505af11580156102c8573d6000803e3d6000fd5b505050508073ffffffffffffffffffffffffffffffffffffffff1663f2fde38b336040518263ffffffff1660e01b81526004016103059190610dd7565b600060405180830381600087803b15801561031f57600080fd5b505af1158015610333573d6000803e3d6000fd5b505050507ff150f291c7bb1d321eecbe90f2d68f73d95d213e9517889648c7d7598496d45686868460405161036a93929190610e3d565b60405180910390a1505050505050565b606060006103886000610983565b90506000805b828110156104895760006001600083815260200190815260200160002060009054906101000a900473ffffffffffffffffffffffffffffffffffffffff16905060008173ffffffffffffffffffffffffffffffffffffffff166304e15919886040518263ffffffff1660e01b81526004016104099190610dd7565b60206040518083038186803b15801561042157600080fd5b505afa158015610435573d6000803e3d6000fd5b505050506040513d601f19601f820116820180604052508101906104599190610c2e565b90506000811115610474576001846104719190610fa4565b93505b50508080610481906110b5565b91505061038e565b508067ffffffffffffffff8111156104a4576104a3611166565b5b6040519080825280602002602001820160405280156104d25781602001602082028036833780820191505090505b5092506000905060005b828110156106585760006001600083815260200190815260200160002060009054906101000a900473ffffffffffffffffffffffffffffffffffffffff16905060008173ffffffffffffffffffffffffffffffffffffffff166304e15919886040518263ffffffff1660e01b81526004016105579190610dd7565b60206040518083038186803b15801561056f57600080fd5b505afa158015610583573d6000803e3d6000fd5b505050506040513d601f19601f820116820180604052508101906105a79190610c2e565b90506000811115610643576001600084815260200190815260200160002060009054906101000a900473ffffffffffffffffffffffffffffffffffffffff168685815181106105f9576105f8611137565b5b602002602001019073ffffffffffffffffffffffffffffffffffffffff16908173ffffffffffffffffffffffffffffffffffffffff16815250506001846106409190610fa4565b93505b50508080610650906110b5565b9150506104dc565b505050919050565b60006001600083815260200190815260200160002060009054906101000a900473ffffffffffffffffffffffffffffffffffffffff169050919050565b606060006106ab6000610983565b90506000805b828110156107ac5760006001600083815260200190815260200160002060009054906101000a900473ffffffffffffffffffffffffffffffffffffffff16905060008173ffffffffffffffffffffffffffffffffffffffff166370a08231886040518263ffffffff1660e01b815260040161072c9190610dd7565b60206040518083038186803b15801561074457600080fd5b505afa158015610758573d6000803e3d6000fd5b505050506040513d601f19601f8201168201806040525081019061077c9190610c2e565b90506000811115610797576001846107949190610fa4565b93505b505080806107a4906110b5565b9150506106b1565b508067ffffffffffffffff8111156107c7576107c6611166565b5b6040519080825280602002602001820160405280156107f55781602001602082028036833780820191505090505b5092506000905060005b8281101561097b5760006001600083815260200190815260200160002060009054906101000a900473ffffffffffffffffffffffffffffffffffffffff16905060008173ffffffffffffffffffffffffffffffffffffffff166370a08231886040518263ffffffff1660e01b815260040161087a9190610dd7565b60206040518083038186803b15801561089257600080fd5b505afa1580156108a6573d6000803e3d6000fd5b505050506040513d601f19601f820116820180604052508101906108ca9190610c2e565b90506000811115610966576001600084815260200190815260200160002060009054906101000a900473ffffffffffffffffffffffffffffffffffffffff1686858151811061091c5761091b611137565b5b602002602001019073ffffffffffffffffffffffffffffffffffffffff16908173ffffffffffffffffffffffffffffffffffffffff16815250506001846109639190610fa4565b93505b50508080610973906110b5565b9150506107ff565b505050919050565b600081600001549050919050565b60006040517f3d602d80600a3d3981f3363d3d373d3d3d363d7300000000000000000000000081528360601b60148201527f5af43d82803e903d91602b57fd5bf300000000000000000000000000000000006028820152826037826000f5915050600073ffffffffffffffffffffffffffffffffffffffff168173ffffffffffffffffffffffffffffffffffffffff161415610a62576040517f08c379a0000000000000000000000000000000000000000000000000000000008152600401610a5990610ece565b60405180910390fd5b92915050565b6001816000016000828254019250508190555050565b6000610a91610a8c84610f13565b610eee565b905082815260208101848484011115610aad57610aac61119a565b5b610ab8848285611042565b509392505050565b600081359050610acf816111e3565b92915050565b600082601f830112610aea57610ae9611195565b5b8135610afa848260208601610a7e565b91505092915050565b600081359050610b12816111fa565b92915050565b600081519050610b27816111fa565b92915050565b600060208284031215610b4357610b426111a4565b5b6000610b5184828501610ac0565b91505092915050565b600080600060608486031215610b7357610b726111a4565b5b600084013567ffffffffffffffff811115610b9157610b9061119f565b5b610b9d86828701610ad5565b935050602084013567ffffffffffffffff811115610bbe57610bbd61119f565b5b610bca86828701610ad5565b925050604084013567ffffffffffffffff811115610beb57610bea61119f565b5b610bf786828701610ad5565b9150509250925092565b600060208284031215610c1757610c166111a4565b5b6000610c2584828501610b03565b91505092915050565b600060208284031215610c4457610c436111a4565b5b6000610c5284828501610b18565b91505092915050565b6000610c678383610c73565b60208301905092915050565b610c7c81610ffa565b82525050565b610c8b81610ffa565b82525050565b6000610c9c82610f54565b610ca68185610f77565b9350610cb183610f44565b8060005b83811015610ce2578151610cc98882610c5b565b9750610cd483610f6a565b925050600181019050610cb5565b5085935050505092915050565b610cf88161100c565b82525050565b6000610d0982610f5f565b610d138185610f88565b9350610d23818560208601611051565b610d2c816111a9565b840191505092915050565b6000610d4282610f5f565b610d4c8185610f99565b9350610d5c818560208601611051565b80840191505092915050565b6000610d75601783610f88565b9150610d80826111ba565b602082019050919050565b610d9c610d9782611038565b6110fe565b82525050565b6000610dae8286610d8b565b602082019150610dbe8285610d37565b9150610dca8284610d37565b9150819050949350505050565b6000602082019050610dec6000830184610c82565b92915050565b6000604082019050610e076000830185610c82565b610e146020830184610cef565b9392505050565b60006020820190508181036000830152610e358184610c91565b905092915050565b60006060820190508181036000830152610e578186610cfe565b90508181036020830152610e6b8185610cfe565b9050610e7a6040830184610c82565b949350505050565b60006060820190508181036000830152610e9c8186610cfe565b90508181036020830152610eb08185610cfe565b90508181036040830152610ec48184610cfe565b9050949350505050565b60006020820190508181036000830152610ee781610d68565b9050919050565b6000610ef8610f09565b9050610f048282611084565b919050565b6000604051905090565b600067ffffffffffffffff821115610f2e57610f2d611166565b5b610f37826111a9565b9050602081019050919050565b6000819050602082019050919050565b600081519050919050565b600081519050919050565b6000602082019050919050565b600082825260208201905092915050565b600082825260208201905092915050565b600081905092915050565b6000610faf82611038565b9150610fba83611038565b9250827fffffffffffffffffffffffffffffffffffffffffffffffffffffffffffffffff03821115610fef57610fee611108565b5b828201905092915050565b600061100582611018565b9050919050565b60008115159050919050565b600073ffffffffffffffffffffffffffffffffffffffff82169050919050565b6000819050919050565b82818337600083830152505050565b60005b8381101561106f578082015181840152602081019050611054565b8381111561107e576000848401525b50505050565b61108d826111a9565b810181811067ffffffffffffffff821117156110ac576110ab611166565b5b80604052505050565b60006110c082611038565b91507fffffffffffffffffffffffffffffffffffffffffffffffffffffffffffffffff8214156110f3576110f2611108565b5b600182019050919050565b6000819050919050565b7f4e487b7100000000000000000000000000000000000000000000000000000000600052601160045260246000fd5b7f4e487b7100000000000000000000000000000000000000000000000000000000600052603260045260246000fd5b7f4e487b7100000000000000000000000000000000000000000000000000000000600052604160045260246000fd5b600080fd5b600080fd5b600080fd5b600080fd5b6000601f19601f8301169050919050565b7f455243313136373a2063726561746532206661696c6564000000000000000000600082015250565b6111ec81610ffa565b81146111f757600080fd5b50565b61120381611038565b811461120e57600080fd5b5056fea2646970667358221220a144128b4f60d91cea2bdf6667b515be47ef5157118dd069b907594ac6490ff564736f6c63430008060033",
  "immutableReferences": {
    "653": [
      {
        "length": 32,
        "start": 316
      }
    ]
  },
  "source": "// SPDX-License-Identifier: MIT\r\npragma solidity >=0.4.22 <0.9.0;\r\n\r\nimport \"@openzeppelin/contracts-upgradeable/proxy/ClonesUpgradeable.sol\";\r\nimport \"@openzeppelin/contracts-upgradeable/utils/CountersUpgradeable.sol\";\r\nimport \"./FunNFT.sol\";\r\n\r\ncontract TokenFactory {\r\n    using CountersUpgradeable for CountersUpgradeable.Counter;\r\n    CountersUpgradeable.Counter private _collectionIdCounter;\r\n    mapping(uint256 => address) private _collections;\r\n    address private exchangeProxy;\r\n\r\n    address immutable collectionImplementation;\r\n\r\n    event NewCollection(string name, string symbol, address collectionAddress);\r\n\r\n    constructor(address exchange, address _implementationToken){\r\n        exchangeProxy = exchange;\r\n        collectionImplementation = _implementationToken;\r\n    }\r\n\r\n    function createToken(string memory _name, string memory _symbol, string memory _thumbnail)\r\n    public {\r\n        bytes32 salt = keccak256(abi.encodePacked(_collectionIdCounter.current(), _name, _symbol));\r\n        address collectionAddress = ClonesUpgradeable.cloneDeterministic(collectionImplementation, salt);\r\n        FunNFT collection = FunNFT(collectionAddress);\r\n        collection.initialize(_name, _symbol, _thumbnail);\r\n        _collections[_collectionIdCounter.current()] = collectionAddress;\r\n        _collectionIdCounter.increment();\r\n        \r\n        collection.setDefaultApproval(exchangeProxy, true);\r\n        collection.transferOwnership(msg.sender);\r\n\r\n        emit NewCollection(_name, _symbol, collectionAddress);\r\n    }\r\n\r\n    function fetchCollection(uint256 index) external view returns(address result) {\r\n        result = _collections[index];\r\n    }\r\n\r\n    function fetchCollectionOf(address account) external view returns (address[] memory collections){\r\n        uint256 totalCollections = _collectionIdCounter.current();\r\n        uint256 collectionCount = 0;\r\n\r\n        for (uint256 i = 0; i < totalCollections; i++) {\r\n            FunNFT collection = FunNFT(_collections[i]);\r\n            uint256 balance = collection.balanceOf(account);\r\n            if (balance > 0){\r\n                collectionCount += 1;\r\n            }\r\n        }\r\n\r\n        collections = new address[](collectionCount);\r\n\r\n        collectionCount = 0;\r\n        for (uint256 i = 0; i < totalCollections; i++) {\r\n            FunNFT collection = FunNFT(_collections[i]);\r\n            uint256 balance = collection.balanceOf(account);\r\n            if (balance > 0){\r\n                collections[collectionCount] = _collections[i];\r\n                collectionCount += 1;\r\n            }\r\n        }\r\n    }\r\n    \r\n    function fetchCreatedTokenOf(address creator) public view returns(address[] memory collections) {\r\n        uint256 totalCollections = _collectionIdCounter.current();\r\n        uint256 collectionCount = 0;\r\n\r\n        for (uint256 i = 0; i < totalCollections; i++) {\r\n            FunNFT collection = FunNFT(_collections[i]);\r\n            uint256 temp = collection.createdTokenOf(creator);\r\n            if (temp > 0){\r\n                collectionCount += 1;\r\n            }\r\n        }\r\n\r\n        collections = new address[](collectionCount);\r\n\r\n        collectionCount = 0;\r\n        for (uint256 i = 0; i < totalCollections; i++) {\r\n            FunNFT collection = FunNFT(_collections[i]);\r\n            uint256 temp = collection.createdTokenOf(creator);\r\n            if (temp > 0){\r\n                collections[collectionCount] = _collections[i];\r\n                collectionCount += 1;\r\n            }\r\n        }\r\n    }\r\n}",
  "sourcePath": "E:/LamViec/fun-exchange/contracts/tokens/TokenFactory.sol",
  "compiler": {
    "name": "solc",
    "version": "0.8.6+commit.11564f7e.Emscripten.clang"
  },
  "schemaVersion": "3.3.4",
  "updatedAt": "2021-12-14T10:21:04.867Z",
  "networkType": "ethereum",
  "devdoc": {
    "kind": "dev",
    "methods": {},
    "version": 1
  },
  "userdoc": {
    "kind": "user",
    "methods": {},
    "version": 1
  }
}