{
  "contractName": "TokenFactory",
  "abi": [
    {
      "inputs": [
        {
          "internalType": "address",
          "name": "exchange",
          "type": "address"
        }
      ],
      "stateMutability": "nonpayable",
      "type": "constructor"
    },
    {
      "anonymous": false,
      "inputs": [
        {
          "indexed": false,
          "internalType": "string",
          "name": "name",
          "type": "string"
        },
        {
          "indexed": false,
          "internalType": "string",
          "name": "symbol",
          "type": "string"
        },
        {
          "indexed": false,
          "internalType": "string",
          "name": "uri",
          "type": "string"
        },
        {
          "indexed": false,
          "internalType": "address",
          "name": "collectionAddress",
          "type": "address"
        }
      ],
      "name": "NewCollection",
      "type": "event"
    },
    {
      "inputs": [
        {
          "internalType": "string",
          "name": "_name",
          "type": "string"
        },
        {
          "internalType": "string",
          "name": "_symbol",
          "type": "string"
        },
        {
          "internalType": "string",
          "name": "_baseURI",
          "type": "string"
        },
        {
          "internalType": "string",
          "name": "_thumbnail",
          "type": "string"
        }
      ],
      "name": "createToken",
      "outputs": [],
      "stateMutability": "nonpayable",
      "type": "function"
    },
    {
      "inputs": [
        {
          "internalType": "uint256",
          "name": "index",
          "type": "uint256"
        }
      ],
      "name": "fetchCollection",
      "outputs": [
        {
          "internalType": "address",
          "name": "result",
          "type": "address"
        }
      ],
      "stateMutability": "view",
      "type": "function",
      "constant": true
    },
    {
      "inputs": [
        {
          "internalType": "address",
          "name": "account",
          "type": "address"
        }
      ],
      "name": "fetchCollectionOf",
      "outputs": [
        {
          "internalType": "address[]",
          "name": "collections",
          "type": "address[]"
        }
      ],
      "stateMutability": "view",
      "type": "function",
      "constant": true
    },
    {
      "inputs": [
        {
          "internalType": "address",
          "name": "creator",
          "type": "address"
        }
      ],
      "name": "fetchCreatedTokenOf",
      "outputs": [
        {
          "internalType": "address[]",
          "name": "collections",
          "type": "address[]"
        }
      ],
      "stateMutability": "view",
      "type": "function",
      "constant": true
    }
  ],
  "bytecode": "0x60a06040523480156200001157600080fd5b506040516200727038038062007270833981810160405281019062000037919062000106565b80600260006101000a81548173ffffffffffffffffffffffffffffffffffffffff021916908373ffffffffffffffffffffffffffffffffffffffff1602179055506040516200008690620000e1565b604051809103906000f080158015620000a3573d6000803e3d6000fd5b5073ffffffffffffffffffffffffffffffffffffffff1660808173ffffffffffffffffffffffffffffffffffffffff1660601b81525050506200018b565b615d8f80620014e183390190565b600081519050620001008162000171565b92915050565b6000602082840312156200011f576200011e6200016c565b5b60006200012f84828501620000ef565b91505092915050565b600062000145826200014c565b9050919050565b600073ffffffffffffffffffffffffffffffffffffffff82169050919050565b600080fd5b6200017c8162000138565b81146200018857600080fd5b50565b60805160601c611337620001aa600039600061042401526113376000f3fe608060405234801561001057600080fd5b506004361061004c5760003560e01c806395d6392f14610051578063a076965914610081578063c2f8637d1461009d578063fa945dfb146100cd575b600080fd5b61006b60048036038101906100669190610b89565b6100fd565b6040516100789190610ee1565b60405180910390f35b61009b60048036038101906100969190610be3565b6103e3565b005b6100b760048036038101906100b29190610cba565b610667565b6040516100c49190610e9d565b60405180910390f35b6100e760048036038101906100e29190610b89565b6106a4565b6040516100f49190610ee1565b60405180910390f35b6060600061010b60006109ca565b90506000805b8281101561020c5760006001600083815260200190815260200160002060009054906101000a900473ffffffffffffffffffffffffffffffffffffffff16905060008173ffffffffffffffffffffffffffffffffffffffff166304e15919886040518263ffffffff1660e01b815260040161018c9190610e9d565b60206040518083038186803b1580156101a457600080fd5b505afa1580156101b8573d6000803e3d6000fd5b505050506040513d601f19601f820116820180604052508101906101dc9190610ce7565b905060008111156101f7576001846101f49190611094565b93505b50508080610204906111a5565b915050610111565b508067ffffffffffffffff81111561022757610226611256565b5b6040519080825280602002602001820160405280156102555781602001602082028036833780820191505090505b5092506000905060005b828110156103db5760006001600083815260200190815260200160002060009054906101000a900473ffffffffffffffffffffffffffffffffffffffff16905060008173ffffffffffffffffffffffffffffffffffffffff166304e15919886040518263ffffffff1660e01b81526004016102da9190610e9d565b60206040518083038186803b1580156102f257600080fd5b505afa158015610306573d6000803e3d6000fd5b505050506040513d601f19601f8201168201806040525081019061032a9190610ce7565b905060008111156103c6576001600084815260200190815260200160002060009054906101000a900473ffffffffffffffffffffffffffffffffffffffff1686858151811061037c5761037b611227565b5b602002602001019073ffffffffffffffffffffffffffffffffffffffff16908173ffffffffffffffffffffffffffffffffffffffff16815250506001846103c39190611094565b93505b505080806103d3906111a5565b91505061025f565b505050919050565b60006103ef60006109ca565b8585856040516020016104059493929190610e5b565b60405160208183030381529060405280519060200120905060006104497f0000000000000000000000000000000000000000000000000000000000000000836109d8565b905060008190508073ffffffffffffffffffffffffffffffffffffffff1663a523d35e888888886040518563ffffffff1660e01b815260040161048f9493929190610f5d565b600060405180830381600087803b1580156104a957600080fd5b505af11580156104bd573d6000803e3d6000fd5b5050505081600160006104d060006109ca565b815260200190815260200160002060006101000a81548173ffffffffffffffffffffffffffffffffffffffff021916908373ffffffffffffffffffffffffffffffffffffffff1602179055506105266000610aaf565b8073ffffffffffffffffffffffffffffffffffffffff166318054c37600260009054906101000a900473ffffffffffffffffffffffffffffffffffffffff1660016040518363ffffffff1660e01b8152600401610584929190610eb8565b600060405180830381600087803b15801561059e57600080fd5b505af11580156105b2573d6000803e3d6000fd5b505050508073ffffffffffffffffffffffffffffffffffffffff1663f2fde38b336040518263ffffffff1660e01b81526004016105ef9190610e9d565b600060405180830381600087803b15801561060957600080fd5b505af115801561061d573d6000803e3d6000fd5b505050507fd473f50ab9da035eb0312877cfbeaaf7532aed01d0df1a5ce2d7c89af5f6e993878787856040516106569493929190610f03565b60405180910390a150505050505050565b60006001600083815260200190815260200160002060009054906101000a900473ffffffffffffffffffffffffffffffffffffffff169050919050565b606060006106b260006109ca565b90506000805b828110156107d35760006001600083815260200190815260200160002060009054906101000a900473ffffffffffffffffffffffffffffffffffffffff16905060008173ffffffffffffffffffffffffffffffffffffffff16638da5cb5b6040518163ffffffff1660e01b815260040160206040518083038186803b15801561074057600080fd5b505afa158015610754573d6000803e3d6000fd5b505050506040513d601f19601f820116820180604052508101906107789190610bb6565b90508073ffffffffffffffffffffffffffffffffffffffff168773ffffffffffffffffffffffffffffffffffffffff1614156107be576001846107bb9190611094565b93505b505080806107cb906111a5565b9150506106b8565b508067ffffffffffffffff8111156107ee576107ed611256565b5b60405190808252806020026020018201604052801561081c5781602001602082028036833780820191505090505b5092506000905060005b828110156109c25760006001600083815260200190815260200160002060009054906101000a900473ffffffffffffffffffffffffffffffffffffffff16905060008173ffffffffffffffffffffffffffffffffffffffff16638da5cb5b6040518163ffffffff1660e01b815260040160206040518083038186803b1580156108ae57600080fd5b505afa1580156108c2573d6000803e3d6000fd5b505050506040513d601f19601f820116820180604052508101906108e69190610bb6565b90508073ffffffffffffffffffffffffffffffffffffffff168773ffffffffffffffffffffffffffffffffffffffff1614156109ad576001600084815260200190815260200160002060009054906101000a900473ffffffffffffffffffffffffffffffffffffffff1686858151811061096357610962611227565b5b602002602001019073ffffffffffffffffffffffffffffffffffffffff16908173ffffffffffffffffffffffffffffffffffffffff16815250506001846109aa9190611094565b93505b505080806109ba906111a5565b915050610826565b505050919050565b600081600001549050919050565b60006040517f3d602d80600a3d3981f3363d3d373d3d3d363d7300000000000000000000000081528360601b60148201527f5af43d82803e903d91602b57fd5bf300000000000000000000000000000000006028820152826037826000f5915050600073ffffffffffffffffffffffffffffffffffffffff168173ffffffffffffffffffffffffffffffffffffffff161415610aa9576040517f08c379a0000000000000000000000000000000000000000000000000000000008152600401610aa090610fbe565b60405180910390fd5b92915050565b6001816000016000828254019250508190555050565b6000610ad8610ad384611003565b610fde565b905082815260208101848484011115610af457610af361128a565b5b610aff848285611132565b509392505050565b600081359050610b16816112d3565b92915050565b600081519050610b2b816112d3565b92915050565b600082601f830112610b4657610b45611285565b5b8135610b56848260208601610ac5565b91505092915050565b600081359050610b6e816112ea565b92915050565b600081519050610b83816112ea565b92915050565b600060208284031215610b9f57610b9e611294565b5b6000610bad84828501610b07565b91505092915050565b600060208284031215610bcc57610bcb611294565b5b6000610bda84828501610b1c565b91505092915050565b60008060008060808587031215610bfd57610bfc611294565b5b600085013567ffffffffffffffff811115610c1b57610c1a61128f565b5b610c2787828801610b31565b945050602085013567ffffffffffffffff811115610c4857610c4761128f565b5b610c5487828801610b31565b935050604085013567ffffffffffffffff811115610c7557610c7461128f565b5b610c8187828801610b31565b925050606085013567ffffffffffffffff811115610ca257610ca161128f565b5b610cae87828801610b31565b91505092959194509250565b600060208284031215610cd057610ccf611294565b5b6000610cde84828501610b5f565b91505092915050565b600060208284031215610cfd57610cfc611294565b5b6000610d0b84828501610b74565b91505092915050565b6000610d208383610d2c565b60208301905092915050565b610d35816110ea565b82525050565b610d44816110ea565b82525050565b6000610d5582611044565b610d5f8185611067565b9350610d6a83611034565b8060005b83811015610d9b578151610d828882610d14565b9750610d8d8361105a565b925050600181019050610d6e565b5085935050505092915050565b610db1816110fc565b82525050565b6000610dc28261104f565b610dcc8185611078565b9350610ddc818560208601611141565b610de581611299565b840191505092915050565b6000610dfb8261104f565b610e058185611089565b9350610e15818560208601611141565b80840191505092915050565b6000610e2e601783611078565b9150610e39826112aa565b602082019050919050565b610e55610e5082611128565b6111ee565b82525050565b6000610e678287610e44565b602082019150610e778286610df0565b9150610e838285610df0565b9150610e8f8284610df0565b915081905095945050505050565b6000602082019050610eb26000830184610d3b565b92915050565b6000604082019050610ecd6000830185610d3b565b610eda6020830184610da8565b9392505050565b60006020820190508181036000830152610efb8184610d4a565b905092915050565b60006080820190508181036000830152610f1d8187610db7565b90508181036020830152610f318186610db7565b90508181036040830152610f458185610db7565b9050610f546060830184610d3b565b95945050505050565b60006080820190508181036000830152610f778187610db7565b90508181036020830152610f8b8186610db7565b90508181036040830152610f9f8185610db7565b90508181036060830152610fb38184610db7565b905095945050505050565b60006020820190508181036000830152610fd781610e21565b9050919050565b6000610fe8610ff9565b9050610ff48282611174565b919050565b6000604051905090565b600067ffffffffffffffff82111561101e5761101d611256565b5b61102782611299565b9050602081019050919050565b6000819050602082019050919050565b600081519050919050565b600081519050919050565b6000602082019050919050565b600082825260208201905092915050565b600082825260208201905092915050565b600081905092915050565b600061109f82611128565b91506110aa83611128565b9250827fffffffffffffffffffffffffffffffffffffffffffffffffffffffffffffffff038211156110df576110de6111f8565b5b828201905092915050565b60006110f582611108565b9050919050565b60008115159050919050565b600073ffffffffffffffffffffffffffffffffffffffff82169050919050565b6000819050919050565b82818337600083830152505050565b60005b8381101561115f578082015181840152602081019050611144565b8381111561116e576000848401525b50505050565b61117d82611299565b810181811067ffffffffffffffff8211171561119c5761119b611256565b5b80604052505050565b60006111b082611128565b91507fffffffffffffffffffffffffffffffffffffffffffffffffffffffffffffffff8214156111e3576111e26111f8565b5b600182019050919050565b6000819050919050565b7f4e487b7100000000000000000000000000000000000000000000000000000000600052601160045260246000fd5b7f4e487b7100000000000000000000000000000000000000000000000000000000600052603260045260246000fd5b7f4e487b7100000000000000000000000000000000000000000000000000000000600052604160045260246000fd5b600080fd5b600080fd5b600080fd5b600080fd5b6000601f19601f8301169050919050565b7f455243313136373a2063726561746532206661696c6564000000000000000000600082015250565b6112dc816110ea565b81146112e757600080fd5b50565b6112f381611128565b81146112fe57600080fd5b5056fea2646970667358221220ea64071754537b1fab0cbbb038e547d22f24e10bfebcccb314faf0f5cd560e8b64736f6c6343000806003360806040523480156200001157600080fd5b50600060019054906101000a900460ff168062000039575060008054906101000a900460ff16155b6200007b576040517f08c379a000000000000000000000000000000000000000000000000000000000815260040162000072906200011c565b60405180910390fd5b60008060019054906101000a900460ff161590508015620000cc576001600060016101000a81548160ff02191690831515021790555060016000806101000a81548160ff0219169083151502179055505b8015620000ee5760008060016101000a81548160ff0219169083151502179055505b506200019e565b600062000104602e836200013e565b915062000111826200014f565b604082019050919050565b600060208201905081810360008301526200013781620000f5565b9050919050565b600082825260208201905092915050565b7f496e697469616c697a61626c653a20636f6e747261637420697320616c72656160008201527f647920696e697469616c697a6564000000000000000000000000000000000000602082015250565b615be180620001ae6000396000f3fe608060405234801561001057600080fd5b50600436106101cf5760003560e01c80636352211e11610104578063a22cb465116100a2578063d547cfb711610071578063d547cfb71461054e578063e1d740831461056c578063e985e9c51461058a578063f2fde38b146105ba576101cf565b8063a22cb465146104ca578063a523d35e146104e6578063b88d4fde14610502578063c87b56dd1461051e576101cf565b8063851c9d55116100de578063851c9d55146104425780638da5cb5b1461047257806395d89b4114610490578063968407e6146104ae576101cf565b80636352211e146103d857806370a0823114610408578063715018a614610438576101cf565b806323b872dd1161017157806342966c681161014b57806342966c681461034057806348ed38c91461035c5780634f6ccce714610378578063589a1743146103a8576101cf565b806323b872dd146102d85780632f745c59146102f457806342842e0e14610324576101cf565b8063081812fc116101ad578063081812fc14610252578063095ea7b31461028257806318054c371461029e57806318160ddd146102ba576101cf565b806301ffc9a7146101d457806304e159191461020457806306fdde0314610234575b600080fd5b6101ee60048036038101906101e9919061423e565b6105d6565b6040516101fb9190614a64565b60405180910390f35b61021e6004803603810190610219919061407b565b6105e8565b60405161022b9190614e66565b60405180910390f35b61023c61069f565b6040516102499190614ac4565b60405180910390f35b61026c6004803603810190610267919061443a565b610731565b60405161027991906149fd565b60405180910390f35b61029c600480360381019061029791906141fe565b6107b6565b005b6102b860048036038101906102b391906141be565b6108ce565b005b6102c2610958565b6040516102cf9190614e66565b60405180910390f35b6102f260048036038101906102ed91906140e8565b610965565b005b61030e600480360381019061030991906141fe565b6109c5565b60405161031b9190614e66565b60405180910390f35b61033e600480360381019061033991906140e8565b610a6a565b005b61035a6004803603810190610355919061443a565b610a8a565b005b610376600480360381019061037191906143cb565b610ae6565b005b610392600480360381019061038d919061443a565b610b1c565b60405161039f9190614e66565b60405180910390f35b6103c260048036038101906103bd919061443a565b610b8d565b6040516103cf91906149fd565b60405180910390f35b6103f260048036038101906103ed919061443a565b610bcb565b6040516103ff91906149fd565b60405180910390f35b610422600480360381019061041d919061407b565b610c7d565b60405161042f9190614e66565b60405180910390f35b610440610d35565b005b61045c600480360381019061045791906141fe565b610dbd565b6040516104699190614e66565b60405180910390f35b61047a610ebe565b60405161048791906149fd565b60405180910390f35b610498610ee9565b6040516104a59190614ac4565b60405180910390f35b6104c860048036038101906104c3919061436f565b610f7b565b005b6104e460048036038101906104df91906141be565b6110be565b005b61050060048036038101906104fb9190614298565b61123f565b005b61051c6004803603810190610517919061413b565b611376565b005b6105386004803603810190610533919061443a565b6113d8565b6040516105459190614ac4565b60405180910390f35b6105566113ea565b6040516105639190614ac4565b60405180910390f35b610574611479565b6040516105819190614ac4565b60405180910390f35b6105a4600480360381019061059f91906140a8565b61150c565b6040516105b19190614a64565b60405180910390f35b6105d460048036038101906105cf919061407b565b611575565b005b60006105e18261166d565b9050919050565b6000806000905060006105fc61016061167f565b905060005b81811015610694578473ffffffffffffffffffffffffffffffffffffffff16610162600083815260200190815260200160002060009054906101000a900473ffffffffffffffffffffffffffffffffffffffff1673ffffffffffffffffffffffffffffffffffffffff1614156106815760018361067e9190614f74565b92505b808061068c9061515f565b915050610601565b508192505050919050565b6060606580546106ae906150fc565b80601f01602080910402602001604051908101604052809291908181526020018280546106da906150fc565b80156107275780601f106106fc57610100808354040283529160200191610727565b820191906000526020600020905b81548152906001019060200180831161070a57829003601f168201915b5050505050905090565b600061073c8261168d565b61077b576040517f08c379a000000000000000000000000000000000000000000000000000000000815260040161077290614d66565b60405180910390fd5b6069600083815260200190815260200160002060009054906101000a900473ffffffffffffffffffffffffffffffffffffffff169050919050565b60006107c182610bcb565b90508073ffffffffffffffffffffffffffffffffffffffff168373ffffffffffffffffffffffffffffffffffffffff161415610832576040517f08c379a000000000000000000000000000000000000000000000000000000000815260040161082990614de6565b60405180910390fd5b8073ffffffffffffffffffffffffffffffffffffffff166108516116f9565b73ffffffffffffffffffffffffffffffffffffffff161480610880575061087f8161087a6116f9565b61150c565b5b6108bf576040517f08c379a00000000000000000000000000000000000000000000000000000000081526004016108b690614c66565b60405180910390fd5b6108c98383611701565b505050565b6108d66116f9565b73ffffffffffffffffffffffffffffffffffffffff166108f4610ebe565b73ffffffffffffffffffffffffffffffffffffffff161461094a576040517f08c379a000000000000000000000000000000000000000000000000000000000815260040161094190614d86565b60405180910390fd5b61095482826117ba565b5050565b6000609980549050905090565b6109766109706116f9565b82611864565b6109b5576040517f08c379a00000000000000000000000000000000000000000000000000000000081526004016109ac90614e06565b60405180910390fd5b6109c08383836118cd565b505050565b60006109d083610c7d565b8210610a11576040517f08c379a0000000000000000000000000000000000000000000000000000000008152600401610a0890614b26565b60405180910390fd5b609760008473ffffffffffffffffffffffffffffffffffffffff1673ffffffffffffffffffffffffffffffffffffffff168152602001908152602001600020600083815260200190815260200160002054905092915050565b610a8583838360405180602001604052806000815250611376565b505050565b610a9b610a956116f9565b82611864565b610ada576040517f08c379a0000000000000000000000000000000000000000000000000000000008152600401610ad190614e46565b60405180910390fd5b610ae381611b29565b50565b610af3836000015161168d565b15610b0c57610b0782828560000151610a6a565b610b17565b610b168382610f7b565b5b505050565b6000610b26610958565b8210610b67576040517f08c379a0000000000000000000000000000000000000000000000000000000008152600401610b5e90614e26565b60405180910390fd5b60998281548110610b7b57610b7a6152f2565b5b90600052602060002001549050919050565b6000610162600083815260200190815260200160002060009054906101000a900473ffffffffffffffffffffffffffffffffffffffff169050919050565b6000806067600084815260200190815260200160002060009054906101000a900473ffffffffffffffffffffffffffffffffffffffff169050600073ffffffffffffffffffffffffffffffffffffffff168173ffffffffffffffffffffffffffffffffffffffff161415610c74576040517f08c379a0000000000000000000000000000000000000000000000000000000008152600401610c6b90614ca6565b60405180910390fd5b80915050919050565b60008073ffffffffffffffffffffffffffffffffffffffff168273ffffffffffffffffffffffffffffffffffffffff161415610cee576040517f08c379a0000000000000000000000000000000000000000000000000000000008152600401610ce590614c86565b60405180910390fd5b606860008373ffffffffffffffffffffffffffffffffffffffff1673ffffffffffffffffffffffffffffffffffffffff168152602001908152602001600020549050919050565b610d3d6116f9565b73ffffffffffffffffffffffffffffffffffffffff16610d5b610ebe565b73ffffffffffffffffffffffffffffffffffffffff1614610db1576040517f08c379a0000000000000000000000000000000000000000000000000000000008152600401610da890614d86565b60405180910390fd5b610dbb6000611b35565b565b600080600090506000610dd161016061167f565b905060005b81811015610e7c578573ffffffffffffffffffffffffffffffffffffffff16610162600083815260200190815260200160002060009054906101000a900473ffffffffffffffffffffffffffffffffffffffff1673ffffffffffffffffffffffffffffffffffffffff161415610e6957600183610e539190614f74565b925084831415610e6857809350505050610eb8565b5b8080610e749061515f565b915050610dd6565b506040517f08c379a0000000000000000000000000000000000000000000000000000000008152600401610eaf90614b86565b60405180910390fd5b92915050565b600061012e60009054906101000a900473ffffffffffffffffffffffffffffffffffffffff16905090565b606060668054610ef8906150fc565b80601f0160208091040260200160405190810160405280929190818152602001828054610f24906150fc565b8015610f715780601f10610f4657610100808354040283529160200191610f71565b820191906000526020600020905b815481529060010190602001808311610f5457829003601f168201915b5050505050905090565b60003390506000836040015190508073ffffffffffffffffffffffffffffffffffffffff168273ffffffffffffffffffffffffffffffffffffffff161480610fc95750610fc8818361150c565b5b611008576040517f08c379a0000000000000000000000000000000000000000000000000000000008152600401610fff90614e06565b60405180910390fd5b600061101d3086604001518760200151611bfd565b905061102d818660600151611c3b565b61106c576040517f08c379a000000000000000000000000000000000000000000000000000000000815260040161106390614c06565b60405180910390fd5b6110808461107b61016061167f565b611c84565b61109461108e61016061167f565b83611ca2565b6110ac6110a261016061167f565b8660200151611d32565b6110b7610160611da6565b5050505050565b6110c66116f9565b73ffffffffffffffffffffffffffffffffffffffff168273ffffffffffffffffffffffffffffffffffffffff161415611134576040517f08c379a000000000000000000000000000000000000000000000000000000000815260040161112b90614be6565b60405180910390fd5b80606a60006111416116f9565b73ffffffffffffffffffffffffffffffffffffffff1673ffffffffffffffffffffffffffffffffffffffff16815260200190815260200160002060008473ffffffffffffffffffffffffffffffffffffffff1673ffffffffffffffffffffffffffffffffffffffff16815260200190815260200160002060006101000a81548160ff0219169083151502179055508173ffffffffffffffffffffffffffffffffffffffff166111ee6116f9565b73ffffffffffffffffffffffffffffffffffffffff167f17307eab39ab6107e8899845ad3d59bd9653f200f220920489ca2b5937696c31836040516112339190614a64565b60405180910390a35050565b600060019054906101000a900460ff1680611265575060008054906101000a900460ff16155b6112a4576040517f08c379a000000000000000000000000000000000000000000000000000000000815260040161129b90614ce6565b60405180910390fd5b60008060019054906101000a900460ff1615905080156112f4576001600060016101000a81548160ff02191690831515021790555060016000806101000a81548160ff0219169083151502179055505b6112fe8585611dbc565b611306611eb1565b61130e611fa2565b611316612093565b61131e612184565b826101619080519060200190611335929190613d9f565b5081610163908051906020019061134d929190613d9f565b50801561136f5760008060016101000a81548160ff0219169083151502179055505b5050505050565b6113876113816116f9565b83611864565b6113c6576040517f08c379a00000000000000000000000000000000000000000000000000000000081526004016113bd90614e06565b60405180910390fd5b6113d28484848461226d565b50505050565b60606113e3826122c9565b9050919050565b61016180546113f8906150fc565b80601f0160208091040260200160405190810160405280929190818152602001828054611424906150fc565b80156114715780601f1061144657610100808354040283529160200191611471565b820191906000526020600020905b81548152906001019060200180831161145457829003601f168201915b505050505081565b60606101638054611489906150fc565b80601f01602080910402602001604051908101604052809291908181526020018280546114b5906150fc565b80156115025780601f106114d757610100808354040283529160200191611502565b820191906000526020600020905b8154815290600101906020018083116114e557829003601f168201915b5050505050905090565b600061012d60008373ffffffffffffffffffffffffffffffffffffffff1673ffffffffffffffffffffffffffffffffffffffff16815260200190815260200160002060009054906101000a900460ff168061156d575061156c838361241b565b5b905092915050565b61157d6116f9565b73ffffffffffffffffffffffffffffffffffffffff1661159b610ebe565b73ffffffffffffffffffffffffffffffffffffffff16146115f1576040517f08c379a00000000000000000000000000000000000000000000000000000000081526004016115e890614d86565b60405180910390fd5b600073ffffffffffffffffffffffffffffffffffffffff168173ffffffffffffffffffffffffffffffffffffffff161415611661576040517f08c379a000000000000000000000000000000000000000000000000000000000815260040161165890614b66565b60405180910390fd5b61166a81611b35565b50565b6000611678826124af565b9050919050565b600081600001549050919050565b60008073ffffffffffffffffffffffffffffffffffffffff166067600084815260200190815260200160002060009054906101000a900473ffffffffffffffffffffffffffffffffffffffff1673ffffffffffffffffffffffffffffffffffffffff1614159050919050565b600033905090565b816069600083815260200190815260200160002060006101000a81548173ffffffffffffffffffffffffffffffffffffffff021916908373ffffffffffffffffffffffffffffffffffffffff160217905550808273ffffffffffffffffffffffffffffffffffffffff1661177483610bcb565b73ffffffffffffffffffffffffffffffffffffffff167f8c5be1e5ebec7d5bd14f71427d1e84f3dd0314c0f7b2291e5b200ac8c7c3b92560405160405180910390a45050565b8061012d60008473ffffffffffffffffffffffffffffffffffffffff1673ffffffffffffffffffffffffffffffffffffffff16815260200190815260200160002060006101000a81548160ff0219169083151502179055508173ffffffffffffffffffffffffffffffffffffffff167f270dbb8ba4292910ae92862466486be25c355c837270a3d8824b36a8bc7c653b826040516118589190614a64565b60405180910390a25050565b600061012d60008473ffffffffffffffffffffffffffffffffffffffff1673ffffffffffffffffffffffffffffffffffffffff16815260200190815260200160002060009054906101000a900460ff16806118c557506118c483836124c1565b5b905092915050565b8273ffffffffffffffffffffffffffffffffffffffff166118ed82610bcb565b73ffffffffffffffffffffffffffffffffffffffff1614611943576040517f08c379a000000000000000000000000000000000000000000000000000000000815260040161193a90614da6565b60405180910390fd5b600073ffffffffffffffffffffffffffffffffffffffff168273ffffffffffffffffffffffffffffffffffffffff1614156119b3576040517f08c379a00000000000000000000000000000000000000000000000000000000081526004016119aa90614bc6565b60405180910390fd5b6119be83838361259f565b6119c9600082611701565b6001606860008573ffffffffffffffffffffffffffffffffffffffff1673ffffffffffffffffffffffffffffffffffffffff1681526020019081526020016000206000828254611a199190614ffb565b925050819055506001606860008473ffffffffffffffffffffffffffffffffffffffff1673ffffffffffffffffffffffffffffffffffffffff1681526020019081526020016000206000828254611a709190614f74565b92505081905550816067600083815260200190815260200160002060006101000a81548173ffffffffffffffffffffffffffffffffffffffff021916908373ffffffffffffffffffffffffffffffffffffffff160217905550808273ffffffffffffffffffffffffffffffffffffffff168473ffffffffffffffffffffffffffffffffffffffff167fddf252ad1be2c89b69c2b068fc378daa952ba7f163c4a11628f55a4df523b3ef60405160405180910390a4505050565b611b32816125af565b50565b600061012e60009054906101000a900473ffffffffffffffffffffffffffffffffffffffff1690508161012e60006101000a81548173ffffffffffffffffffffffffffffffffffffffff021916908373ffffffffffffffffffffffffffffffffffffffff1602179055508173ffffffffffffffffffffffffffffffffffffffff168173ffffffffffffffffffffffffffffffffffffffff167f8be0079c531659141344cd1fd0a4f28419497f9722a3daafe3b4186f6b6457e060405160405180910390a35050565b6000611c32848484604051602001611c179392919061497a565b60405160208183030381529060405280519060200120612602565b90509392505050565b6000611c478383612632565b73ffffffffffffffffffffffffffffffffffffffff16611c65610ebe565b73ffffffffffffffffffffffffffffffffffffffff1614905092915050565b611c9e828260405180602001604052806000815250612659565b5050565b80610162600084815260200190815260200160002060006101000a81548173ffffffffffffffffffffffffffffffffffffffff021916908373ffffffffffffffffffffffffffffffffffffffff1602179055507fb66dd16c47b218498425ac4f9d58fdb3ad27107adf3521463a91dfab2d3345448282604051611d26929190614e81565b60405180910390a15050565b611d3b8261168d565b611d7a576040517f08c379a0000000000000000000000000000000000000000000000000000000008152600401611d7190614cc6565b60405180910390fd5b8060c960008481526020019081526020016000209080519060200190611da1929190613d9f565b505050565b6001816000016000828254019250508190555050565b600060019054906101000a900460ff1680611de2575060008054906101000a900460ff16155b611e21576040517f08c379a0000000000000000000000000000000000000000000000000000000008152600401611e1890614ce6565b60405180910390fd5b60008060019054906101000a900460ff161590508015611e71576001600060016101000a81548160ff02191690831515021790555060016000806101000a81548160ff0219169083151502179055505b611e796126b4565b611e8161278d565b611e8b8383612866565b8015611eac5760008060016101000a81548160ff0219169083151502179055505b505050565b600060019054906101000a900460ff1680611ed7575060008054906101000a900460ff16155b611f16576040517f08c379a0000000000000000000000000000000000000000000000000000000008152600401611f0d90614ce6565b60405180910390fd5b60008060019054906101000a900460ff161590508015611f66576001600060016101000a81548160ff02191690831515021790555060016000806101000a81548160ff0219169083151502179055505b611f6e6126b4565b611f7661278d565b611f7e61296f565b8015611f9f5760008060016101000a81548160ff0219169083151502179055505b50565b600060019054906101000a900460ff1680611fc8575060008054906101000a900460ff16155b612007576040517f08c379a0000000000000000000000000000000000000000000000000000000008152600401611ffe90614ce6565b60405180910390fd5b60008060019054906101000a900460ff161590508015612057576001600060016101000a81548160ff02191690831515021790555060016000806101000a81548160ff0219169083151502179055505b61205f6126b4565b61206761278d565b61206f612a48565b80156120905760008060016101000a81548160ff0219169083151502179055505b50565b600060019054906101000a900460ff16806120b9575060008054906101000a900460ff16155b6120f8576040517f08c379a00000000000000000000000000000000000000000000000000000000081526004016120ef90614ce6565b60405180910390fd5b60008060019054906101000a900460ff161590508015612148576001600060016101000a81548160ff02191690831515021790555060016000806101000a81548160ff0219169083151502179055505b6121506126b4565b61215861278d565b612160612b21565b80156121815760008060016101000a81548160ff0219169083151502179055505b50565b600060019054906101000a900460ff16806121aa575060008054906101000a900460ff16155b6121e9576040517f08c379a00000000000000000000000000000000000000000000000000000000081526004016121e090614ce6565b60405180910390fd5b60008060019054906101000a900460ff161590508015612239576001600060016101000a81548160ff02191690831515021790555060016000806101000a81548160ff0219169083151502179055505b6122416126b4565b612249612bfa565b801561226a5760008060016101000a81548160ff0219169083151502179055505b50565b6122788484846118cd565b61228484848484612ce3565b6122c3576040517f08c379a00000000000000000000000000000000000000000000000000000000081526004016122ba90614b46565b60405180910390fd5b50505050565b60606122d48261168d565b612313576040517f08c379a000000000000000000000000000000000000000000000000000000000815260040161230a90614d46565b60405180910390fd5b600060c960008481526020019081526020016000208054612333906150fc565b80601f016020809104026020016040519081016040528092919081815260200182805461235f906150fc565b80156123ac5780601f10612381576101008083540402835291602001916123ac565b820191906000526020600020905b81548152906001019060200180831161238f57829003601f168201915b5050505050905060006123bd612e7a565b90506000815114156123d3578192505050612416565b6000825111156124085780826040516020016123f09291906149b3565b60405160208183030381529060405292505050612416565b61241184612f0d565b925050505b919050565b6000606a60008473ffffffffffffffffffffffffffffffffffffffff1673ffffffffffffffffffffffffffffffffffffffff16815260200190815260200160002060008373ffffffffffffffffffffffffffffffffffffffff1673ffffffffffffffffffffffffffffffffffffffff16815260200190815260200160002060009054906101000a900460ff16905092915050565b60006124ba82612fb4565b9050919050565b60006124cc8261168d565b61250b576040517f08c379a000000000000000000000000000000000000000000000000000000000815260040161250290614c46565b60405180910390fd5b600061251683610bcb565b90508073ffffffffffffffffffffffffffffffffffffffff168473ffffffffffffffffffffffffffffffffffffffff16148061258557508373ffffffffffffffffffffffffffffffffffffffff1661256d84610731565b73ffffffffffffffffffffffffffffffffffffffff16145b806125965750612595818561150c565b5b91505092915050565b6125aa83838361302e565b505050565b6125b881613142565b600060c9600083815260200190815260200160002080546125d8906150fc565b9050146125ff5760c9600082815260200190815260200160002060006125fe9190613e25565b5b50565b60008160405160200161261591906149d7565b604051602081830303815290604052805190602001209050919050565b60008060006126418585613253565b9150915061264e816132d6565b819250505092915050565b61266383836134ab565b6126706000848484612ce3565b6126af576040517f08c379a00000000000000000000000000000000000000000000000000000000081526004016126a690614b46565b60405180910390fd5b505050565b600060019054906101000a900460ff16806126da575060008054906101000a900460ff16155b612719576040517f08c379a000000000000000000000000000000000000000000000000000000000815260040161271090614ce6565b60405180910390fd5b60008060019054906101000a900460ff161590508015612769576001600060016101000a81548160ff02191690831515021790555060016000806101000a81548160ff0219169083151502179055505b801561278a5760008060016101000a81548160ff0219169083151502179055505b50565b600060019054906101000a900460ff16806127b3575060008054906101000a900460ff16155b6127f2576040517f08c379a00000000000000000000000000000000000000000000000000000000081526004016127e990614ce6565b60405180910390fd5b60008060019054906101000a900460ff161590508015612842576001600060016101000a81548160ff02191690831515021790555060016000806101000a81548160ff0219169083151502179055505b80156128635760008060016101000a81548160ff0219169083151502179055505b50565b600060019054906101000a900460ff168061288c575060008054906101000a900460ff16155b6128cb576040517f08c379a00000000000000000000000000000000000000000000000000000000081526004016128c290614ce6565b60405180910390fd5b60008060019054906101000a900460ff16159050801561291b576001600060016101000a81548160ff02191690831515021790555060016000806101000a81548160ff0219169083151502179055505b8260659080519060200190612931929190613d9f565b508160669080519060200190612948929190613d9f565b50801561296a5760008060016101000a81548160ff0219169083151502179055505b505050565b600060019054906101000a900460ff1680612995575060008054906101000a900460ff16155b6129d4576040517f08c379a00000000000000000000000000000000000000000000000000000000081526004016129cb90614ce6565b60405180910390fd5b60008060019054906101000a900460ff161590508015612a24576001600060016101000a81548160ff02191690831515021790555060016000806101000a81548160ff0219169083151502179055505b8015612a455760008060016101000a81548160ff0219169083151502179055505b50565b600060019054906101000a900460ff1680612a6e575060008054906101000a900460ff16155b612aad576040517f08c379a0000000000000000000000000000000000000000000000000000000008152600401612aa490614ce6565b60405180910390fd5b60008060019054906101000a900460ff161590508015612afd576001600060016101000a81548160ff02191690831515021790555060016000806101000a81548160ff0219169083151502179055505b8015612b1e5760008060016101000a81548160ff0219169083151502179055505b50565b600060019054906101000a900460ff1680612b47575060008054906101000a900460ff16155b612b86576040517f08c379a0000000000000000000000000000000000000000000000000000000008152600401612b7d90614ce6565b60405180910390fd5b60008060019054906101000a900460ff161590508015612bd6576001600060016101000a81548160ff02191690831515021790555060016000806101000a81548160ff0219169083151502179055505b8015612bf75760008060016101000a81548160ff0219169083151502179055505b50565b600060019054906101000a900460ff1680612c20575060008054906101000a900460ff16155b612c5f576040517f08c379a0000000000000000000000000000000000000000000000000000000008152600401612c5690614ce6565b60405180910390fd5b60008060019054906101000a900460ff161590508015612caf576001600060016101000a81548160ff02191690831515021790555060016000806101000a81548160ff0219169083151502179055505b612cbf612cba6116f9565b611b35565b8015612ce05760008060016101000a81548160ff0219169083151502179055505b50565b6000612d048473ffffffffffffffffffffffffffffffffffffffff16613679565b15612e6d578373ffffffffffffffffffffffffffffffffffffffff1663150b7a02612d2d6116f9565b8786866040518563ffffffff1660e01b8152600401612d4f9493929190614a18565b602060405180830381600087803b158015612d6957600080fd5b505af1925050508015612d9a57506040513d601f19601f82011682018060405250810190612d97919061426b565b60015b612e1d573d8060008114612dca576040519150601f19603f3d011682016040523d82523d6000602084013e612dcf565b606091505b50600081511415612e15576040517f08c379a0000000000000000000000000000000000000000000000000000000008152600401612e0c90614b46565b60405180910390fd5b805181602001fd5b63150b7a0260e01b7bffffffffffffffffffffffffffffffffffffffffffffffffffffffff1916817bffffffffffffffffffffffffffffffffffffffffffffffffffffffff191614915050612e72565b600190505b949350505050565b60606101618054612e8a906150fc565b80601f0160208091040260200160405190810160405280929190818152602001828054612eb6906150fc565b8015612f035780601f10612ed857610100808354040283529160200191612f03565b820191906000526020600020905b815481529060010190602001808311612ee657829003601f168201915b5050505050905090565b6060612f188261168d565b612f57576040517f08c379a0000000000000000000000000000000000000000000000000000000008152600401612f4e90614dc6565b60405180910390fd5b6000612f61612e7a565b90506000815111612f815760405180602001604052806000815250612fac565b80612f8b8461368c565b604051602001612f9c9291906149b3565b6040516020818303038152906040525b915050919050565b60007f780e9d63000000000000000000000000000000000000000000000000000000007bffffffffffffffffffffffffffffffffffffffffffffffffffffffff1916827bffffffffffffffffffffffffffffffffffffffffffffffffffffffff191614806130275750613026826137ed565b5b9050919050565b6130398383836138cf565b600073ffffffffffffffffffffffffffffffffffffffff168373ffffffffffffffffffffffffffffffffffffffff16141561307c57613077816138d4565b6130bb565b8173ffffffffffffffffffffffffffffffffffffffff168373ffffffffffffffffffffffffffffffffffffffff16146130ba576130b9838261391d565b5b5b600073ffffffffffffffffffffffffffffffffffffffff168273ffffffffffffffffffffffffffffffffffffffff1614156130fe576130f981613a8a565b61313d565b8273ffffffffffffffffffffffffffffffffffffffff168273ffffffffffffffffffffffffffffffffffffffff161461313c5761313b8282613b5b565b5b5b505050565b600061314d82610bcb565b905061315b8160008461259f565b613166600083611701565b6001606860008373ffffffffffffffffffffffffffffffffffffffff1673ffffffffffffffffffffffffffffffffffffffff16815260200190815260200160002060008282546131b69190614ffb565b925050819055506067600083815260200190815260200160002060006101000a81549073ffffffffffffffffffffffffffffffffffffffff021916905581600073ffffffffffffffffffffffffffffffffffffffff168273ffffffffffffffffffffffffffffffffffffffff167fddf252ad1be2c89b69c2b068fc378daa952ba7f163c4a11628f55a4df523b3ef60405160405180910390a45050565b6000806041835114156132955760008060006020860151925060408601519150606086015160001a905061328987828585613bda565b945094505050506132cf565b6040835114156132c65760008060208501519150604085015190506132bb868383613ce7565b9350935050506132cf565b60006002915091505b9250929050565b600060048111156132ea576132e9615265565b5b8160048111156132fd576132fc615265565b5b1415613308576134a8565b6001600481111561331c5761331b615265565b5b81600481111561332f5761332e615265565b5b1415613370576040517f08c379a000000000000000000000000000000000000000000000000000000000815260040161336790614ae6565b60405180910390fd5b6002600481111561338457613383615265565b5b81600481111561339757613396615265565b5b14156133d8576040517f08c379a00000000000000000000000000000000000000000000000000000000081526004016133cf90614b06565b60405180910390fd5b600360048111156133ec576133eb615265565b5b8160048111156133ff576133fe615265565b5b1415613440576040517f08c379a000000000000000000000000000000000000000000000000000000000815260040161343790614c26565b60405180910390fd5b60048081111561345357613452615265565b5b81600481111561346657613465615265565b5b14156134a7576040517f08c379a000000000000000000000000000000000000000000000000000000000815260040161349e90614d06565b60405180910390fd5b5b50565b600073ffffffffffffffffffffffffffffffffffffffff168273ffffffffffffffffffffffffffffffffffffffff16141561351b576040517f08c379a000000000000000000000000000000000000000000000000000000000815260040161351290614d26565b60405180910390fd5b6135248161168d565b15613564576040517f08c379a000000000000000000000000000000000000000000000000000000000815260040161355b90614ba6565b60405180910390fd5b6135706000838361259f565b6001606860008473ffffffffffffffffffffffffffffffffffffffff1673ffffffffffffffffffffffffffffffffffffffff16815260200190815260200160002060008282546135c09190614f74565b92505081905550816067600083815260200190815260200160002060006101000a81548173ffffffffffffffffffffffffffffffffffffffff021916908373ffffffffffffffffffffffffffffffffffffffff160217905550808273ffffffffffffffffffffffffffffffffffffffff16600073ffffffffffffffffffffffffffffffffffffffff167fddf252ad1be2c89b69c2b068fc378daa952ba7f163c4a11628f55a4df523b3ef60405160405180910390a45050565b600080823b905060008111915050919050565b606060008214156136d4576040518060400160405280600181526020017f300000000000000000000000000000000000000000000000000000000000000081525090506137e8565b600082905060005b600082146137065780806136ef9061515f565b915050600a826136ff9190614fca565b91506136dc565b60008167ffffffffffffffff81111561372257613721615321565b5b6040519080825280601f01601f1916602001820160405280156137545781602001600182028036833780820191505090505b5090505b600085146137e15760018261376d9190614ffb565b9150600a8561377c91906151d6565b60306137889190614f74565b60f81b81838151811061379e5761379d6152f2565b5b60200101907effffffffffffffffffffffffffffffffffffffffffffffffffffffffffffff1916908160001a905350600a856137da9190614fca565b9450613758565b8093505050505b919050565b60007f80ac58cd000000000000000000000000000000000000000000000000000000007bffffffffffffffffffffffffffffffffffffffffffffffffffffffff1916827bffffffffffffffffffffffffffffffffffffffffffffffffffffffff191614806138b857507f5b5e139f000000000000000000000000000000000000000000000000000000007bffffffffffffffffffffffffffffffffffffffffffffffffffffffff1916827bffffffffffffffffffffffffffffffffffffffffffffffffffffffff1916145b806138c857506138c782613d35565b5b9050919050565b505050565b609980549050609a600083815260200190815260200160002081905550609981908060018154018082558091505060019003906000526020600020016000909190919091505550565b6000600161392a84610c7d565b6139349190614ffb565b9050600060986000848152602001908152602001600020549050818114613a19576000609760008673ffffffffffffffffffffffffffffffffffffffff1673ffffffffffffffffffffffffffffffffffffffff168152602001908152602001600020600084815260200190815260200160002054905080609760008773ffffffffffffffffffffffffffffffffffffffff1673ffffffffffffffffffffffffffffffffffffffff168152602001908152602001600020600084815260200190815260200160002081905550816098600083815260200190815260200160002081905550505b6098600084815260200190815260200160002060009055609760008573ffffffffffffffffffffffffffffffffffffffff1673ffffffffffffffffffffffffffffffffffffffff16815260200190815260200160002060008381526020019081526020016000206000905550505050565b60006001609980549050613a9e9190614ffb565b90506000609a6000848152602001908152602001600020549050600060998381548110613ace57613acd6152f2565b5b906000526020600020015490508060998381548110613af057613aef6152f2565b5b906000526020600020018190555081609a600083815260200190815260200160002081905550609a6000858152602001908152602001600020600090556099805480613b3f57613b3e6152c3565b5b6001900381819060005260206000200160009055905550505050565b6000613b6683610c7d565b905081609760008573ffffffffffffffffffffffffffffffffffffffff1673ffffffffffffffffffffffffffffffffffffffff168152602001908152602001600020600083815260200190815260200160002081905550806098600084815260200190815260200160002081905550505050565b6000807f7fffffffffffffffffffffffffffffff5d576e7357a4501ddfe92f46681b20a08360001c1115613c15576000600391509150613cde565b601b8560ff1614158015613c2d5750601c8560ff1614155b15613c3f576000600491509150613cde565b600060018787878760405160008152602001604052604051613c649493929190614a7f565b6020604051602081039080840390855afa158015613c86573d6000803e3d6000fd5b505050602060405103519050600073ffffffffffffffffffffffffffffffffffffffff168173ffffffffffffffffffffffffffffffffffffffff161415613cd557600060019250925050613cde565b80600092509250505b94509492505050565b6000806000807f7fffffffffffffffffffffffffffffffffffffffffffffffffffffffffffffff85169150601b8560ff1c019050613d2787828885613bda565b935093505050935093915050565b60007f01ffc9a7000000000000000000000000000000000000000000000000000000007bffffffffffffffffffffffffffffffffffffffffffffffffffffffff1916827bffffffffffffffffffffffffffffffffffffffffffffffffffffffff1916149050919050565b828054613dab906150fc565b90600052602060002090601f016020900481019282613dcd5760008555613e14565b82601f10613de657805160ff1916838001178555613e14565b82800160010185558215613e14579182015b82811115613e13578251825591602001919060010190613df8565b5b509050613e219190613e65565b5090565b508054613e31906150fc565b6000825580601f10613e435750613e62565b601f016020900490600052602060002090810190613e619190613e65565b5b50565b5b80821115613e7e576000816000905550600101613e66565b5090565b6000613e95613e9084614ecf565b614eaa565b905082815260208101848484011115613eb157613eb061535f565b5b613ebc8482856150ba565b509392505050565b6000613ed7613ed284614f00565b614eaa565b905082815260208101848484011115613ef357613ef261535f565b5b613efe8482856150ba565b509392505050565b600081359050613f1581615b4f565b92915050565b600081359050613f2a81615b66565b92915050565b600081359050613f3f81615b7d565b92915050565b600081519050613f5481615b7d565b92915050565b600082601f830112613f6f57613f6e615350565b5b8135613f7f848260208601613e82565b91505092915050565b600082601f830112613f9d57613f9c615350565b5b8135613fad848260208601613ec4565b91505092915050565b600060808284031215613fcc57613fcb615355565b5b613fd66080614eaa565b90506000613fe684828501614066565b600083015250602082013567ffffffffffffffff81111561400a5761400961535a565b5b61401684828501613f88565b602083015250604061402a84828501613f06565b604083015250606082013567ffffffffffffffff81111561404e5761404d61535a565b5b61405a84828501613f5a565b60608301525092915050565b60008135905061407581615b94565b92915050565b60006020828403121561409157614090615369565b5b600061409f84828501613f06565b91505092915050565b600080604083850312156140bf576140be615369565b5b60006140cd85828601613f06565b92505060206140de85828601613f06565b9150509250929050565b60008060006060848603121561410157614100615369565b5b600061410f86828701613f06565b935050602061412086828701613f06565b925050604061413186828701614066565b9150509250925092565b6000806000806080858703121561415557614154615369565b5b600061416387828801613f06565b945050602061417487828801613f06565b935050604061418587828801614066565b925050606085013567ffffffffffffffff8111156141a6576141a5615364565b5b6141b287828801613f5a565b91505092959194509250565b600080604083850312156141d5576141d4615369565b5b60006141e385828601613f06565b92505060206141f485828601613f1b565b9150509250929050565b6000806040838503121561421557614214615369565b5b600061422385828601613f06565b925050602061423485828601614066565b9150509250929050565b60006020828403121561425457614253615369565b5b600061426284828501613f30565b91505092915050565b60006020828403121561428157614280615369565b5b600061428f84828501613f45565b91505092915050565b600080600080608085870312156142b2576142b1615369565b5b600085013567ffffffffffffffff8111156142d0576142cf615364565b5b6142dc87828801613f88565b945050602085013567ffffffffffffffff8111156142fd576142fc615364565b5b61430987828801613f88565b935050604085013567ffffffffffffffff81111561432a57614329615364565b5b61433687828801613f88565b925050606085013567ffffffffffffffff81111561435757614356615364565b5b61436387828801613f88565b91505092959194509250565b6000806040838503121561438657614385615369565b5b600083013567ffffffffffffffff8111156143a4576143a3615364565b5b6143b085828601613fb6565b92505060206143c185828601613f06565b9150509250929050565b6000806000606084860312156143e4576143e3615369565b5b600084013567ffffffffffffffff81111561440257614401615364565b5b61440e86828701613fb6565b935050602061441f86828701613f06565b925050604061443086828701613f06565b9150509250925092565b6000602082840312156144505761444f615369565b5b600061445e84828501614066565b91505092915050565b6144708161502f565b82525050565b6144876144828261502f565b6151a8565b82525050565b61449681615041565b82525050565b6144a58161504d565b82525050565b6144bc6144b78261504d565b6151ba565b82525050565b60006144cd82614f31565b6144d78185614f47565b93506144e78185602086016150c9565b6144f08161536e565b840191505092915050565b600061450682614f3c565b6145108185614f58565b93506145208185602086016150c9565b6145298161536e565b840191505092915050565b600061453f82614f3c565b6145498185614f69565b93506145598185602086016150c9565b80840191505092915050565b6000614572601883614f58565b915061457d8261538c565b602082019050919050565b6000614595601f83614f58565b91506145a0826153b5565b602082019050919050565b60006145b8601c83614f69565b91506145c3826153de565b601c82019050919050565b60006145db602b83614f58565b91506145e682615407565b604082019050919050565b60006145fe603283614f58565b915061460982615456565b604082019050919050565b6000614621602683614f58565b915061462c826154a5565b604082019050919050565b6000614644602e83614f58565b915061464f826154f4565b604082019050919050565b6000614667601c83614f58565b915061467282615543565b602082019050919050565b600061468a602483614f58565b91506146958261556c565b604082019050919050565b60006146ad601983614f58565b91506146b8826155bb565b602082019050919050565b60006146d0601183614f58565b91506146db826155e4565b602082019050919050565b60006146f3602283614f58565b91506146fe8261560d565b604082019050919050565b6000614716602c83614f58565b91506147218261565c565b604082019050919050565b6000614739603883614f58565b9150614744826156ab565b604082019050919050565b600061475c602a83614f58565b9150614767826156fa565b604082019050919050565b600061477f602983614f58565b915061478a82615749565b604082019050919050565b60006147a2602e83614f58565b91506147ad82615798565b604082019050919050565b60006147c5602e83614f58565b91506147d0826157e7565b604082019050919050565b60006147e8602283614f58565b91506147f382615836565b604082019050919050565b600061480b602083614f58565b915061481682615885565b602082019050919050565b600061482e603183614f58565b9150614839826158ae565b604082019050919050565b6000614851602c83614f58565b915061485c826158fd565b604082019050919050565b6000614874602083614f58565b915061487f8261594c565b602082019050919050565b6000614897602983614f58565b91506148a282615975565b604082019050919050565b60006148ba602f83614f58565b91506148c5826159c4565b604082019050919050565b60006148dd602183614f58565b91506148e882615a13565b604082019050919050565b6000614900603183614f58565b915061490b82615a62565b604082019050919050565b6000614923602c83614f58565b915061492e82615ab1565b604082019050919050565b6000614946603083614f58565b915061495182615b00565b604082019050919050565b614965816150a3565b82525050565b614974816150ad565b82525050565b60006149868286614476565b6014820191506149968285614476565b6014820191506149a68284614534565b9150819050949350505050565b60006149bf8285614534565b91506149cb8284614534565b91508190509392505050565b60006149e2826145ab565b91506149ee82846144ab565b60208201915081905092915050565b6000602082019050614a126000830184614467565b92915050565b6000608082019050614a2d6000830187614467565b614a3a6020830186614467565b614a47604083018561495c565b8181036060830152614a5981846144c2565b905095945050505050565b6000602082019050614a79600083018461448d565b92915050565b6000608082019050614a94600083018761449c565b614aa1602083018661496b565b614aae604083018561449c565b614abb606083018461449c565b95945050505050565b60006020820190508181036000830152614ade81846144fb565b905092915050565b60006020820190508181036000830152614aff81614565565b9050919050565b60006020820190508181036000830152614b1f81614588565b9050919050565b60006020820190508181036000830152614b3f816145ce565b9050919050565b60006020820190508181036000830152614b5f816145f1565b9050919050565b60006020820190508181036000830152614b7f81614614565b9050919050565b60006020820190508181036000830152614b9f81614637565b9050919050565b60006020820190508181036000830152614bbf8161465a565b9050919050565b60006020820190508181036000830152614bdf8161467d565b9050919050565b60006020820190508181036000830152614bff816146a0565b9050919050565b60006020820190508181036000830152614c1f816146c3565b9050919050565b60006020820190508181036000830152614c3f816146e6565b9050919050565b60006020820190508181036000830152614c5f81614709565b9050919050565b60006020820190508181036000830152614c7f8161472c565b9050919050565b60006020820190508181036000830152614c9f8161474f565b9050919050565b60006020820190508181036000830152614cbf81614772565b9050919050565b60006020820190508181036000830152614cdf81614795565b9050919050565b60006020820190508181036000830152614cff816147b8565b9050919050565b60006020820190508181036000830152614d1f816147db565b9050919050565b60006020820190508181036000830152614d3f816147fe565b9050919050565b60006020820190508181036000830152614d5f81614821565b9050919050565b60006020820190508181036000830152614d7f81614844565b9050919050565b60006020820190508181036000830152614d9f81614867565b9050919050565b60006020820190508181036000830152614dbf8161488a565b9050919050565b60006020820190508181036000830152614ddf816148ad565b9050919050565b60006020820190508181036000830152614dff816148d0565b9050919050565b60006020820190508181036000830152614e1f816148f3565b9050919050565b60006020820190508181036000830152614e3f81614916565b9050919050565b60006020820190508181036000830152614e5f81614939565b9050919050565b6000602082019050614e7b600083018461495c565b92915050565b6000604082019050614e96600083018561495c565b614ea36020830184614467565b9392505050565b6000614eb4614ec5565b9050614ec0828261512e565b919050565b6000604051905090565b600067ffffffffffffffff821115614eea57614ee9615321565b5b614ef38261536e565b9050602081019050919050565b600067ffffffffffffffff821115614f1b57614f1a615321565b5b614f248261536e565b9050602081019050919050565b600081519050919050565b600081519050919050565b600082825260208201905092915050565b600082825260208201905092915050565b600081905092915050565b6000614f7f826150a3565b9150614f8a836150a3565b9250827fffffffffffffffffffffffffffffffffffffffffffffffffffffffffffffffff03821115614fbf57614fbe615207565b5b828201905092915050565b6000614fd5826150a3565b9150614fe0836150a3565b925082614ff057614fef615236565b5b828204905092915050565b6000615006826150a3565b9150615011836150a3565b92508282101561502457615023615207565b5b828203905092915050565b600061503a82615083565b9050919050565b60008115159050919050565b6000819050919050565b60007fffffffff0000000000000000000000000000000000000000000000000000000082169050919050565b600073ffffffffffffffffffffffffffffffffffffffff82169050919050565b6000819050919050565b600060ff82169050919050565b82818337600083830152505050565b60005b838110156150e75780820151818401526020810190506150cc565b838111156150f6576000848401525b50505050565b6000600282049050600182168061511457607f821691505b6020821081141561512857615127615294565b5b50919050565b6151378261536e565b810181811067ffffffffffffffff8211171561515657615155615321565b5b80604052505050565b600061516a826150a3565b91507fffffffffffffffffffffffffffffffffffffffffffffffffffffffffffffffff82141561519d5761519c615207565b5b600182019050919050565b60006151b3826151c4565b9050919050565b6000819050919050565b60006151cf8261537f565b9050919050565b60006151e1826150a3565b91506151ec836150a3565b9250826151fc576151fb615236565b5b828206905092915050565b7f4e487b7100000000000000000000000000000000000000000000000000000000600052601160045260246000fd5b7f4e487b7100000000000000000000000000000000000000000000000000000000600052601260045260246000fd5b7f4e487b7100000000000000000000000000000000000000000000000000000000600052602160045260246000fd5b7f4e487b7100000000000000000000000000000000000000000000000000000000600052602260045260246000fd5b7f4e487b7100000000000000000000000000000000000000000000000000000000600052603160045260246000fd5b7f4e487b7100000000000000000000000000000000000000000000000000000000600052603260045260246000fd5b7f4e487b7100000000000000000000000000000000000000000000000000000000600052604160045260246000fd5b600080fd5b600080fd5b600080fd5b600080fd5b600080fd5b600080fd5b6000601f19601f8301169050919050565b60008160601b9050919050565b7f45434453413a20696e76616c6964207369676e61747572650000000000000000600082015250565b7f45434453413a20696e76616c6964207369676e6174757265206c656e67746800600082015250565b7f19457468657265756d205369676e6564204d6573736167653a0a333200000000600082015250565b7f455243373231456e756d657261626c653a206f776e657220696e646578206f7560008201527f74206f6620626f756e6473000000000000000000000000000000000000000000602082015250565b7f4552433732313a207472616e7366657220746f206e6f6e20455243373231526560008201527f63656976657220696d706c656d656e7465720000000000000000000000000000602082015250565b7f4f776e61626c653a206e6577206f776e657220697320746865207a65726f206160008201527f6464726573730000000000000000000000000000000000000000000000000000602082015250565b7f5468697320746f6b656e20646964206e6f74206265206372656174656420627960008201527f20746869732063726561746f722e000000000000000000000000000000000000602082015250565b7f4552433732313a20746f6b656e20616c7265616479206d696e74656400000000600082015250565b7f4552433732313a207472616e7366657220746f20746865207a65726f2061646460008201527f7265737300000000000000000000000000000000000000000000000000000000602082015250565b7f4552433732313a20617070726f766520746f2063616c6c657200000000000000600082015250565b7f496e76616c6964207369676e6174757265000000000000000000000000000000600082015250565b7f45434453413a20696e76616c6964207369676e6174757265202773272076616c60008201527f7565000000000000000000000000000000000000000000000000000000000000602082015250565b7f4552433732313a206f70657261746f7220717565727920666f72206e6f6e657860008201527f697374656e7420746f6b656e0000000000000000000000000000000000000000602082015250565b7f4552433732313a20617070726f76652063616c6c6572206973206e6f74206f7760008201527f6e6572206e6f7220617070726f76656420666f7220616c6c0000000000000000602082015250565b7f4552433732313a2062616c616e636520717565727920666f7220746865207a6560008201527f726f206164647265737300000000000000000000000000000000000000000000602082015250565b7f4552433732313a206f776e657220717565727920666f72206e6f6e657869737460008201527f656e7420746f6b656e0000000000000000000000000000000000000000000000602082015250565b7f45524337323155524953746f726167653a2055524920736574206f66206e6f6e60008201527f6578697374656e7420746f6b656e000000000000000000000000000000000000602082015250565b7f496e697469616c697a61626c653a20636f6e747261637420697320616c72656160008201527f647920696e697469616c697a6564000000000000000000000000000000000000602082015250565b7f45434453413a20696e76616c6964207369676e6174757265202776272076616c60008201527f7565000000000000000000000000000000000000000000000000000000000000602082015250565b7f4552433732313a206d696e7420746f20746865207a65726f2061646472657373600082015250565b7f45524337323155524953746f726167653a2055524920717565727920666f722060008201527f6e6f6e6578697374656e7420746f6b656e000000000000000000000000000000602082015250565b7f4552433732313a20617070726f76656420717565727920666f72206e6f6e657860008201527f697374656e7420746f6b656e0000000000000000000000000000000000000000602082015250565b7f4f776e61626c653a2063616c6c6572206973206e6f7420746865206f776e6572600082015250565b7f4552433732313a207472616e73666572206f6620746f6b656e2074686174206960008201527f73206e6f74206f776e0000000000000000000000000000000000000000000000602082015250565b7f4552433732314d657461646174613a2055524920717565727920666f72206e6f60008201527f6e6578697374656e7420746f6b656e0000000000000000000000000000000000602082015250565b7f4552433732313a20617070726f76616c20746f2063757272656e74206f776e6560008201527f7200000000000000000000000000000000000000000000000000000000000000602082015250565b7f4552433732313a207472616e736665722063616c6c6572206973206e6f74206f60008201527f776e6572206e6f7220617070726f766564000000000000000000000000000000602082015250565b7f455243373231456e756d657261626c653a20676c6f62616c20696e646578206f60008201527f7574206f6620626f756e64730000000000000000000000000000000000000000602082015250565b7f4552433732314275726e61626c653a2063616c6c6572206973206e6f74206f7760008201527f6e6572206e6f7220617070726f76656400000000000000000000000000000000602082015250565b615b588161502f565b8114615b6357600080fd5b50565b615b6f81615041565b8114615b7a57600080fd5b50565b615b8681615057565b8114615b9157600080fd5b50565b615b9d816150a3565b8114615ba857600080fd5b5056fea264697066735822122060184ee7e282a7ba4763c52bc2e045946659730b9a0a5a1d5f5d8a20195bc17364736f6c63430008060033",
  "immutableReferences": {
    "626": [
      {
        "length": 32,
        "start": 1060
      }
    ]
  },
  "source": "// SPDX-License-Identifier: MIT\r\npragma solidity >=0.4.22 <0.9.0;\r\n\r\nimport \"@openzeppelin/contracts-upgradeable/proxy/ClonesUpgradeable.sol\";\r\nimport \"@openzeppelin/contracts-upgradeable/utils/CountersUpgradeable.sol\";\r\nimport \"./FunNFT.sol\";\r\n\r\ncontract TokenFactory {\r\n    using CountersUpgradeable for CountersUpgradeable.Counter;\r\n    CountersUpgradeable.Counter private _collectionIdCounter;\r\n    mapping(uint256 => address) private _collections;\r\n    address private exchangeProxy;\r\n\r\n    address immutable collectionImplementation;\r\n\r\n    event NewCollection(string name, string symbol, string uri, address collectionAddress);\r\n\r\n    constructor(address exchange){\r\n        exchangeProxy = exchange;\r\n        collectionImplementation = address(new FunNFT());\r\n    }\r\n\r\n    function createToken(string memory _name, string memory _symbol, string memory _baseURI, string memory _thumbnail)\r\n    public {\r\n        bytes32 salt = keccak256(abi.encodePacked(_collectionIdCounter.current(), _name, _symbol, _baseURI));\r\n        address collectionAddress = ClonesUpgradeable.cloneDeterministic(collectionImplementation, salt);\r\n        FunNFT collection = FunNFT(collectionAddress);\r\n        collection.initialize(_name, _symbol, _baseURI, _thumbnail);\r\n        _collections[_collectionIdCounter.current()] = collectionAddress;\r\n        _collectionIdCounter.increment();\r\n        \r\n        collection.setDefaultApproval(exchangeProxy, true);\r\n        collection.transferOwnership(msg.sender);\r\n\r\n        emit NewCollection(_name, _symbol, _baseURI, collectionAddress);\r\n    }\r\n\r\n    function fetchCollection(uint256 index) external view returns(address result) {\r\n        result = _collections[index];\r\n    }\r\n\r\n    function fetchCollectionOf(address account) external view returns (address[] memory collections){\r\n        uint256 totalCollections = _collectionIdCounter.current();\r\n        uint256 collectionCount = 0;\r\n\r\n        for (uint256 i = 0; i < totalCollections; i++) {\r\n            FunNFT collection = FunNFT(_collections[i]);\r\n            address owner = collection.owner();\r\n            if (account == owner){\r\n                collectionCount += 1;\r\n            }\r\n        }\r\n\r\n        collections = new address[](collectionCount);\r\n\r\n        collectionCount = 0;\r\n        for (uint256 i = 0; i < totalCollections; i++) {\r\n            FunNFT collection = FunNFT(_collections[i]);\r\n            address owner = collection.owner();\r\n            if (account == owner){\r\n                collections[collectionCount] = _collections[i];\r\n                collectionCount += 1;\r\n            }\r\n        }\r\n    }\r\n    \r\n    function fetchCreatedTokenOf(address creator) public view returns(address[] memory collections) {\r\n        uint256 totalCollections = _collectionIdCounter.current();\r\n        uint256 collectionCount = 0;\r\n\r\n        for (uint256 i = 0; i < totalCollections; i++) {\r\n            FunNFT collection = FunNFT(_collections[i]);\r\n            uint256 temp = collection.createdTokenOf(creator);\r\n            if (temp > 0){\r\n                collectionCount += 1;\r\n            }\r\n        }\r\n\r\n        collections = new address[](collectionCount);\r\n\r\n        collectionCount = 0;\r\n        for (uint256 i = 0; i < totalCollections; i++) {\r\n            FunNFT collection = FunNFT(_collections[i]);\r\n            uint256 temp = collection.createdTokenOf(creator);\r\n            if (temp > 0){\r\n                collections[collectionCount] = _collections[i];\r\n                collectionCount += 1;\r\n            }\r\n        }\r\n    }\r\n}",
  "sourcePath": "E:/LamViec/fun-exchange/contracts/tokens/TokenFactory.sol",
  "compiler": {
    "name": "solc",
    "version": "0.8.6+commit.11564f7e.Emscripten.clang"
  },
  "schemaVersion": "3.3.4",
  "updatedAt": "2021-11-16T09:18:27.861Z",
  "networkType": "ethereum",
  "devdoc": {
    "kind": "dev",
    "methods": {},
    "version": 1
  },
  "userdoc": {
    "kind": "user",
    "methods": {},
    "version": 1
  }
}