{
  "contractName": "TransferExecutor",
  "abi": [
    {
      "anonymous": false,
      "inputs": [
        {
          "indexed": true,
          "internalType": "address",
          "name": "previousOwner",
          "type": "address"
        },
        {
          "indexed": true,
          "internalType": "address",
          "name": "newOwner",
          "type": "address"
        }
      ],
      "name": "OwnershipTransferred",
      "type": "event"
    },
    {
      "anonymous": false,
      "inputs": [
        {
          "indexed": true,
          "internalType": "address",
          "name": "paymentToken",
          "type": "address"
        },
        {
          "indexed": false,
          "internalType": "bool",
          "name": "value",
          "type": "bool"
        }
      ],
      "name": "PaymentTokenWhitelistChanged",
      "type": "event"
    },
    {
      "anonymous": false,
      "inputs": [
        {
          "components": [
            {
              "components": [
                {
                  "internalType": "bytes4",
                  "name": "assetClass",
                  "type": "bytes4"
                },
                {
                  "internalType": "address",
                  "name": "tokenAddress",
                  "type": "address"
                },
                {
                  "internalType": "uint256",
                  "name": "tokenId",
                  "type": "uint256"
                }
              ],
              "internalType": "struct FunLibAsset.AssetType",
              "name": "assetType",
              "type": "tuple"
            },
            {
              "internalType": "uint256",
              "name": "value",
              "type": "uint256"
            }
          ],
          "indexed": false,
          "internalType": "struct FunLibAsset.Asset",
          "name": "asset",
          "type": "tuple"
        },
        {
          "indexed": false,
          "internalType": "address",
          "name": "from",
          "type": "address"
        },
        {
          "indexed": false,
          "internalType": "address",
          "name": "to",
          "type": "address"
        }
      ],
      "name": "Transfer",
      "type": "event"
    },
    {
      "inputs": [],
      "name": "owner",
      "outputs": [
        {
          "internalType": "address",
          "name": "",
          "type": "address"
        }
      ],
      "stateMutability": "view",
      "type": "function"
    },
    {
      "inputs": [],
      "name": "renounceOwnership",
      "outputs": [],
      "stateMutability": "nonpayable",
      "type": "function"
    },
    {
      "inputs": [
        {
          "internalType": "address",
          "name": "newOwner",
          "type": "address"
        }
      ],
      "name": "transferOwnership",
      "outputs": [],
      "stateMutability": "nonpayable",
      "type": "function"
    },
    {
      "inputs": [
        {
          "internalType": "address",
          "name": "paymentToken",
          "type": "address"
        },
        {
          "internalType": "bool",
          "name": "value",
          "type": "bool"
        }
      ],
      "name": "setWhitelistedPaymentToken",
      "outputs": [],
      "stateMutability": "nonpayable",
      "type": "function"
    },
    {
      "inputs": [
        {
          "internalType": "address",
          "name": "token",
          "type": "address"
        }
      ],
      "name": "isWhitelist",
      "outputs": [
        {
          "internalType": "bool",
          "name": "",
          "type": "bool"
        }
      ],
      "stateMutability": "view",
      "type": "function"
    }
  ],
  "bytecode": "0x608060405234801561001057600080fd5b50610780806100206000396000f3fe608060405234801561001057600080fd5b50600436106100575760003560e01c80631309b3241461005c578063715018a6146100785780638da5cb5b14610082578063c683630d146100a0578063f2fde38b146100d0575b600080fd5b61007660048036038101906100719190610536565b6100ec565b005b610080610211565b005b61008a610299565b60405161009791906105da565b60405180910390f35b6100ba60048036038101906100b59190610509565b6102c3565b6040516100c791906105f5565b60405180910390f35b6100ea60048036038101906100e59190610509565b610319565b005b6100f4610411565b73ffffffffffffffffffffffffffffffffffffffff16610112610299565b73ffffffffffffffffffffffffffffffffffffffff1614610168576040517f08c379a000000000000000000000000000000000000000000000000000000000815260040161015f90610630565b60405180910390fd5b80606560008473ffffffffffffffffffffffffffffffffffffffff1673ffffffffffffffffffffffffffffffffffffffff16815260200190815260200160002060006101000a81548160ff0219169083151502179055508173ffffffffffffffffffffffffffffffffffffffff167f3128df2f6d8db42abe9932c2995b497bd1ffabcb8e409d727ff8566c739ae6398260405161020591906105f5565b60405180910390a25050565b610219610411565b73ffffffffffffffffffffffffffffffffffffffff16610237610299565b73ffffffffffffffffffffffffffffffffffffffff161461028d576040517f08c379a000000000000000000000000000000000000000000000000000000000815260040161028490610630565b60405180910390fd5b6102976000610419565b565b6000603360009054906101000a900473ffffffffffffffffffffffffffffffffffffffff16905090565b6000606560008373ffffffffffffffffffffffffffffffffffffffff1673ffffffffffffffffffffffffffffffffffffffff16815260200190815260200160002060009054906101000a900460ff169050919050565b610321610411565b73ffffffffffffffffffffffffffffffffffffffff1661033f610299565b73ffffffffffffffffffffffffffffffffffffffff1614610395576040517f08c379a000000000000000000000000000000000000000000000000000000000815260040161038c90610630565b60405180910390fd5b600073ffffffffffffffffffffffffffffffffffffffff168173ffffffffffffffffffffffffffffffffffffffff161415610405576040517f08c379a00000000000000000000000000000000000000000000000000000000081526004016103fc90610610565b60405180910390fd5b61040e81610419565b50565b600033905090565b6000603360009054906101000a900473ffffffffffffffffffffffffffffffffffffffff16905081603360006101000a81548173ffffffffffffffffffffffffffffffffffffffff021916908373ffffffffffffffffffffffffffffffffffffffff1602179055508173ffffffffffffffffffffffffffffffffffffffff168173ffffffffffffffffffffffffffffffffffffffff167f8be0079c531659141344cd1fd0a4f28419497f9722a3daafe3b4186f6b6457e060405160405180910390a35050565b6000813590506104ee8161071c565b92915050565b60008135905061050381610733565b92915050565b60006020828403121561051f5761051e61069f565b5b600061052d848285016104df565b91505092915050565b6000806040838503121561054d5761054c61069f565b5b600061055b858286016104df565b925050602061056c858286016104f4565b9150509250929050565b61057f81610661565b82525050565b61058e81610673565b82525050565b60006105a1602683610650565b91506105ac826106a4565b604082019050919050565b60006105c4602083610650565b91506105cf826106f3565b602082019050919050565b60006020820190506105ef6000830184610576565b92915050565b600060208201905061060a6000830184610585565b92915050565b6000602082019050818103600083015261062981610594565b9050919050565b60006020820190508181036000830152610649816105b7565b9050919050565b600082825260208201905092915050565b600061066c8261067f565b9050919050565b60008115159050919050565b600073ffffffffffffffffffffffffffffffffffffffff82169050919050565b600080fd5b7f4f776e61626c653a206e6577206f776e657220697320746865207a65726f206160008201527f6464726573730000000000000000000000000000000000000000000000000000602082015250565b7f4f776e61626c653a2063616c6c6572206973206e6f7420746865206f776e6572600082015250565b61072581610661565b811461073057600080fd5b50565b61073c81610673565b811461074757600080fd5b5056fea264697066735822122092905d5c4831d68a9b9e9ec4694c1a68af65cebdf628ee9091b1f6a8d00e8f4964736f6c63430008060033",
  "immutableReferences": {},
  "source": "// SPDX-License-Identifier: MIT\r\npragma solidity ^0.8.2;\r\n\r\nimport \"@openzeppelin/contracts-upgradeable/access/OwnableUpgradeable.sol\";\r\nimport \"@openzeppelin/contracts-upgradeable/token/ERC20/IERC20Upgradeable.sol\";\r\nimport \"../libraries/FunLibAsset.sol\";\r\nimport \"../tokens/FunNFT.sol\";\r\n\r\ncontract TransferExecutor is OwnableUpgradeable {\r\n\r\n    mapping (address => bool) private _paymentWhitelist;\r\n\r\n    event PaymentTokenWhitelistChanged(address indexed paymentToken, bool value);\r\n    event Transfer(FunLibAsset.Asset asset, address from, address to);\r\n\r\n    function setWhitelistedPaymentToken(address paymentToken, bool value) external onlyOwner {\r\n        _paymentWhitelist[paymentToken] = value;\r\n\r\n        emit PaymentTokenWhitelistChanged(paymentToken, value);\r\n    }\r\n\r\n    function isWhitelist(address token) public view returns (bool){\r\n        return _paymentWhitelist[token];\r\n    }\r\n\r\n    function transferEth(address to, uint value) internal {\r\n        (bool success,) = to.call{ value: value }(\"\");\r\n        require(success, \"transfer failed\");\r\n    }\r\n\r\n    function _transferERC20(address from, address to, uint256 amount, address token) internal {\r\n        require(isWhitelist(token), \"Wrong purchase method.\");\r\n        IERC20Upgradeable(token).transferFrom(from, to, amount);\r\n    }\r\n\r\n    function _transferNft(address from, address to, address tokenAddress, uint256 tokenId) internal {\r\n        FunNFT token = FunNFT(tokenAddress);\r\n        token.safeTransferFrom(from, to, tokenId);\r\n    }\r\n\r\n    function _transferAssetFrom(address from, address to, FunLibAsset.Asset memory asset) internal {\r\n        if (asset.assetType.assetClass == FunLibAsset.ETH_ASSET_CLASS) {\r\n            transferEth(to, asset.value);\r\n        }\r\n        else if (asset.assetType.assetClass == FunLibAsset.ERC20_ASSET_CLASS) {\r\n            _transferERC20(from, to, asset.value, asset.assetType.tokenAddress);\r\n        }\r\n        else {\r\n            _transferNft(from, to, asset.assetType.tokenAddress, asset.assetType.tokenId);\r\n        }\r\n\r\n        emit Transfer(asset, from, to);\r\n    } \r\n}",
  "sourcePath": "E:/LamViec/fun-exchange/contracts/exchange/TransferExecutor.sol",
  "compiler": {
    "name": "solc",
    "version": "0.8.6+commit.11564f7e.Emscripten.clang"
  },
  "schemaVersion": "3.3.4",
  "updatedAt": "2021-11-04T07:06:20.003Z",
  "devdoc": {
    "kind": "dev",
    "methods": {
      "owner()": {
        "details": "Returns the address of the current owner."
      },
      "renounceOwnership()": {
        "details": "Leaves the contract without owner. It will not be possible to call `onlyOwner` functions anymore. Can only be called by the current owner. NOTE: Renouncing ownership will leave the contract without an owner, thereby removing any functionality that is only available to the owner."
      },
      "transferOwnership(address)": {
        "details": "Transfers ownership of the contract to a new account (`newOwner`). Can only be called by the current owner."
      }
    },
    "version": 1
  },
  "userdoc": {
    "kind": "user",
    "methods": {},
    "version": 1
  }
}